{
  "abi": [
    {
      "inputs": [
        {
          "internalType": "address",
          "name": "_data",
          "type": "address"
        }
      ],
      "stateMutability": "nonpayable",
      "type": "constructor"
    },
    {
      "inputs": [],
      "name": "dataSource",
      "outputs": [
        {
          "internalType": "address",
          "name": "",
          "type": "address"
        }
      ],
      "stateMutability": "view",
      "type": "function"
    },
    {
      "inputs": [],
      "name": "getData",
      "outputs": [
        {
          "internalType": "int256",
          "name": "",
          "type": "int256"
        }
      ],
      "stateMutability": "view",
      "type": "function"
    }
  ],
  "bytecode": "608060405234801561001057600080fd5b5060405161021f38038061021f8339818101604052602081101561003357600080fd5b5051600080546001600160a01b039092166001600160a01b03199283168117909155600180549092161790556101b18061006e6000396000f3fe608060405234801561001057600080fd5b50600436106100365760003560e01c80631b076edc1461003b5780633bc5de301461005f575b600080fd5b610043610079565b604080516001600160a01b039092168252519081900360200190f35b610067610088565b60408051918252519081900360200190f35b6001546001600160a01b031681565b60008060008060009054906101000a90046001600160a01b03166001600160a01b031663feaf968c6040518163ffffffff1660e01b815260040160a06040518083038186803b1580156100da57600080fd5b505afa1580156100ee573d6000803e3d6000fd5b505050506040513d60a081101561010457600080fd5b5060208101516060909101519092509050806101515760405162461bcd60e51b81526004018080602001828103825260248152602001806101586024913960400191505060405180910390fd5b5090509056fe4f564c436861696e6c696e6b466565643a20726f756e64206e6f7420636f6d706c657465a264697066735822122074ec495efc77491748353be7b8ff29e090d2c4792153934ef7ed06efc317236464736f6c63430006080033",
  "bytecodeSha1": "297c050bcc566a875a55cbb75a302bd68000022a",
  "compiler": {
    "evm_version": "istanbul",
    "optimizer": {
      "enabled": true,
      "runs": 200
    },
    "version": "0.6.8"
  },
  "contractName": "OVLChainlinkFeed",
  "language": "Solidity",
  "natspec": {
    "methods": {}
  },
  "opcodes": "PUSH1 0x80 PUSH1 0x40 MSTORE CALLVALUE DUP1 ISZERO PUSH2 0x10 JUMPI PUSH1 0x0 DUP1 REVERT JUMPDEST POP PUSH1 0x4 CALLDATASIZE LT PUSH2 0x36 JUMPI PUSH1 0x0 CALLDATALOAD PUSH1 0xE0 SHR DUP1 PUSH4 0x1B076EDC EQ PUSH2 0x3B JUMPI DUP1 PUSH4 0x3BC5DE30 EQ PUSH2 0x5F JUMPI JUMPDEST PUSH1 0x0 DUP1 REVERT JUMPDEST PUSH2 0x43 PUSH2 0x79 JUMP JUMPDEST PUSH1 0x40 DUP1 MLOAD PUSH1 0x1 PUSH1 0x1 PUSH1 0xA0 SHL SUB SWAP1 SWAP3 AND DUP3 MSTORE MLOAD SWAP1 DUP2 SWAP1 SUB PUSH1 0x20 ADD SWAP1 RETURN JUMPDEST PUSH2 0x67 PUSH2 0x88 JUMP JUMPDEST PUSH1 0x40 DUP1 MLOAD SWAP2 DUP3 MSTORE MLOAD SWAP1 DUP2 SWAP1 SUB PUSH1 0x20 ADD SWAP1 RETURN JUMPDEST PUSH1 0x1 SLOAD PUSH1 0x1 PUSH1 0x1 PUSH1 0xA0 SHL SUB AND DUP2 JUMP JUMPDEST PUSH1 0x0 DUP1 PUSH1 0x0 DUP1 PUSH1 0x0 SWAP1 SLOAD SWAP1 PUSH2 0x100 EXP SWAP1 DIV PUSH1 0x1 PUSH1 0x1 PUSH1 0xA0 SHL SUB AND PUSH1 0x1 PUSH1 0x1 PUSH1 0xA0 SHL SUB AND PUSH4 0xFEAF968C PUSH1 0x40 MLOAD DUP2 PUSH4 0xFFFFFFFF AND PUSH1 0xE0 SHL DUP2 MSTORE PUSH1 0x4 ADD PUSH1 0xA0 PUSH1 0x40 MLOAD DUP1 DUP4 SUB DUP2 DUP7 DUP1 EXTCODESIZE ISZERO DUP1 ISZERO PUSH2 0xDA JUMPI PUSH1 0x0 DUP1 REVERT JUMPDEST POP GAS STATICCALL ISZERO DUP1 ISZERO PUSH2 0xEE JUMPI RETURNDATASIZE PUSH1 0x0 DUP1 RETURNDATACOPY RETURNDATASIZE PUSH1 0x0 REVERT JUMPDEST POP POP POP POP PUSH1 0x40 MLOAD RETURNDATASIZE PUSH1 0xA0 DUP2 LT ISZERO PUSH2 0x104 JUMPI PUSH1 0x0 DUP1 REVERT JUMPDEST POP PUSH1 0x20 DUP2 ADD MLOAD PUSH1 0x60 SWAP1 SWAP2 ADD MLOAD SWAP1 SWAP3 POP SWAP1 POP DUP1 PUSH2 0x151 JUMPI PUSH1 0x40 MLOAD PUSH3 0x461BCD PUSH1 0xE5 SHL DUP2 MSTORE PUSH1 0x4 ADD DUP1 DUP1 PUSH1 0x20 ADD DUP3 DUP2 SUB DUP3 MSTORE PUSH1 0x24 DUP2 MSTORE PUSH1 0x20 ADD DUP1 PUSH2 0x158 PUSH1 0x24 SWAP2 CODECOPY PUSH1 0x40 ADD SWAP2 POP POP PUSH1 0x40 MLOAD DUP1 SWAP2 SUB SWAP1 REVERT JUMPDEST POP SWAP1 POP SWAP1 JUMP INVALID 0x4F JUMP 0x4C NUMBER PUSH9 0x61696E6C696E6B4665 PUSH6 0x643A20726F75 PUSH15 0x64206E6F7420636F6D706C657465A2 PUSH5 0x6970667358 0x22 SLT KECCAK256 PUSH21 0xEC495EFC77491748353BE7B8FF29E090D2C4792153 SWAP4 0x4E 0xF7 0xED MOD 0xEF 0xC3 OR 0x23 PUSH5 0x64736F6C63 NUMBER STOP MOD ADDMOD STOP CALLER ",
  "sha1": "802020705ba6b5ae3057a3d041dde06bee538f48",
  "source": "// SPDX-License-Identifier: AGPL-3.0-or-later\n\npragma solidity ^0.6.7;\n\nimport \"@openzeppelinV3/contracts/GSN/Context.sol\";\nimport \"@openzeppelinV3/contracts/math/SignedSafeMath.sol\";\n\nimport \"../../interfaces/chainlink/AggregatorV3Interface.sol\";\nimport \"../../interfaces/overlay/IOVLFeed.sol\";\nimport \"../../interfaces/overlay/IOVLPosition.sol\";\n\ncontract OVLChainlinkFeed is Context, IOVLFeed {\n  AggregatorV3Interface internal _chainlink;\n  address public dataSource;\n\n  constructor(address _data) public {\n    _chainlink = AggregatorV3Interface(_data);\n    dataSource = _data;\n  }\n\n  function getData() public view virtual override returns (int256) {\n    // NOTE: 1h data for BTCUSD, 20m data for ETHUSD, 1h data for Fast gas\n    (, int256 price, , uint256 timestamp, ) = _chainlink.latestRoundData();\n    require(timestamp > 0, \"OVLChainlinkFeed: round not complete\");\n    return price;\n  }\n}\n",
  "sourcePath": "contracts/feeds/OVLChainlinkFeed.sol",
  "type": "contract"
}