{
  "abi": [
    {
      "inputs": [
        {
          "internalType": "address",
          "name": "_data",
          "type": "address"
        },
        {
          "internalType": "uint256",
          "name": "_rounds",
          "type": "uint256"
        }
      ],
      "stateMutability": "nonpayable",
      "type": "constructor"
    },
    {
      "inputs": [],
      "name": "data",
      "outputs": [
        {
          "internalType": "int256",
          "name": "",
          "type": "int256"
        },
        {
          "internalType": "uint256",
          "name": "",
          "type": "uint256"
        }
      ],
      "stateMutability": "view",
      "type": "function"
    },
    {
      "inputs": [],
      "name": "dataSource",
      "outputs": [
        {
          "internalType": "address",
          "name": "",
          "type": "address"
        }
      ],
      "stateMutability": "view",
      "type": "function"
    },
    {
      "inputs": [],
      "name": "fetchData",
      "outputs": [
        {
          "internalType": "int256",
          "name": "",
          "type": "int256"
        },
        {
          "internalType": "uint256",
          "name": "",
          "type": "uint256"
        }
      ],
      "stateMutability": "nonpayable",
      "type": "function"
    },
    {
      "inputs": [],
      "name": "rounds",
      "outputs": [
        {
          "internalType": "uint256",
          "name": "",
          "type": "uint256"
        }
      ],
      "stateMutability": "view",
      "type": "function"
    }
  ],
  "bytecode": "608060405234801561001057600080fd5b506040516107243803806107248339818101604052604081101561003357600080fd5b508051602090910151600080546001600160a01b039093166001600160a01b0319938416811790915560018054909316179091556002556106ab806100796000396000f3fe608060405234801561001057600080fd5b506004361061004c5760003560e01c80631b076edc1461005157806367845e161461007557806373d4a13a14610075578063a2e800ad14610096575b600080fd5b6100596100b0565b604080516001600160a01b039092168252519081900360200190f35b61007d6100bf565b6040805192835260208301919091528051918290030190f35b61009e6100d2565b60408051918252519081900360200190f35b6001546001600160a01b031681565b6000806100ca6100d8565b915091509091565b60025481565b60008060008060008060009054906101000a90046001600160a01b03166001600160a01b031663feaf968c6040518163ffffffff1660e01b815260040160a06040518083038186803b15801561012d57600080fd5b505afa158015610141573d6000803e3d6000fd5b505050506040513d60a081101561015757600080fd5b50805160208201516060909201519094509092509050806101a95760405162461bcd60e51b815260040180806020018281038252602481526020018061060a6024913960400191505060405180910390fd5b600080805b6002548110156102bf5769ffffffffffffffffffff86166101ce576102bf565b6000805460408051639a6fc8f560e01b815269ffffffffffffffffffff600019909a01998a166004820152905183926001600160a01b031691639a6fc8f59160248083019260a0929190829003018186803b15801561022c57600080fd5b505afa158015610240573d6000803e3d6000fd5b505050506040513d60a081101561025657600080fd5b50602081015160609091015190925090506000610279878363ffffffff6102e616565b905061029b61028e898363ffffffff61033116565b869063ffffffff6103da16565b94506102ad868263ffffffff61043f16565b929750909550909350506001016101ae565b5081156102d9576102d6818363ffffffff61049916565b93505b5091945090925050509091565b600061032883836040518060400160405280601e81526020017f536166654d6174683a207375627472616374696f6e206f766572666c6f770000815250610551565b90505b92915050565b6000826103405750600061032b565b826000191480156103545750600160ff1b82145b156103905760405162461bcd60e51b815260040180806020018281038252602781526020018061064f6027913960400191505060405180910390fd5b8282028284828161039d57fe5b05146103285760405162461bcd60e51b815260040180806020018281038252602781526020018061064f6027913960400191505060405180910390fd5b60008282018183128015906103ef5750838112155b80610404575060008312801561040457508381125b6103285760405162461bcd60e51b81526004018080602001828103825260218152602001806105e96021913960400191505060405180910390fd5b600082820183811015610328576040805162461bcd60e51b815260206004820152601b60248201527f536166654d6174683a206164646974696f6e206f766572666c6f770000000000604482015290519081900360640190fd5b6000816104ed576040805162461bcd60e51b815260206004820181905260248201527f5369676e6564536166654d6174683a206469766973696f6e206279207a65726f604482015290519081900360640190fd5b816000191480156105015750600160ff1b83145b1561053d5760405162461bcd60e51b815260040180806020018281038252602181526020018061062e6021913960400191505060405180910390fd5b600082848161054857fe5b05949350505050565b600081848411156105e05760405162461bcd60e51b81526004018080602001828103825283818151815260200191508051906020019080838360005b838110156105a557818101518382015260200161058d565b50505050905090810190601f1680156105d25780820380516001836020036101000a031916815260200191505b509250505060405180910390fd5b50505090039056fe5369676e6564536166654d6174683a206164646974696f6e206f766572666c6f774f564c436861696e6c696e6b466565643a20726f756e64206e6f7420636f6d706c6574655369676e6564536166654d6174683a206469766973696f6e206f766572666c6f775369676e6564536166654d6174683a206d756c7469706c69636174696f6e206f766572666c6f77a2646970667358221220a1256966ebb5c2139f0d23a6b4d7f48aaa0f2bfe9b35442ba2c7e6f762f0b5c264736f6c63430006080033",
  "bytecodeSha1": "73c02f6f89ef3937c3f085550297cb70ce7513ec",
  "compiler": {
    "evm_version": "istanbul",
    "optimizer": {
      "enabled": true,
      "runs": 200
    },
    "version": "0.6.8"
  },
  "contractName": "OVLChainlinkFeed",
  "language": "Solidity",
  "natspec": {
    "methods": {}
  },
  "opcodes": "PUSH1 0x80 PUSH1 0x40 MSTORE CALLVALUE DUP1 ISZERO PUSH2 0x10 JUMPI PUSH1 0x0 DUP1 REVERT JUMPDEST POP PUSH1 0x4 CALLDATASIZE LT PUSH2 0x4C JUMPI PUSH1 0x0 CALLDATALOAD PUSH1 0xE0 SHR DUP1 PUSH4 0x1B076EDC EQ PUSH2 0x51 JUMPI DUP1 PUSH4 0x67845E16 EQ PUSH2 0x75 JUMPI DUP1 PUSH4 0x73D4A13A EQ PUSH2 0x75 JUMPI DUP1 PUSH4 0xA2E800AD EQ PUSH2 0x96 JUMPI JUMPDEST PUSH1 0x0 DUP1 REVERT JUMPDEST PUSH2 0x59 PUSH2 0xB0 JUMP JUMPDEST PUSH1 0x40 DUP1 MLOAD PUSH1 0x1 PUSH1 0x1 PUSH1 0xA0 SHL SUB SWAP1 SWAP3 AND DUP3 MSTORE MLOAD SWAP1 DUP2 SWAP1 SUB PUSH1 0x20 ADD SWAP1 RETURN JUMPDEST PUSH2 0x7D PUSH2 0xBF JUMP JUMPDEST PUSH1 0x40 DUP1 MLOAD SWAP3 DUP4 MSTORE PUSH1 0x20 DUP4 ADD SWAP2 SWAP1 SWAP2 MSTORE DUP1 MLOAD SWAP2 DUP3 SWAP1 SUB ADD SWAP1 RETURN JUMPDEST PUSH2 0x9E PUSH2 0xD2 JUMP JUMPDEST PUSH1 0x40 DUP1 MLOAD SWAP2 DUP3 MSTORE MLOAD SWAP1 DUP2 SWAP1 SUB PUSH1 0x20 ADD SWAP1 RETURN JUMPDEST PUSH1 0x1 SLOAD PUSH1 0x1 PUSH1 0x1 PUSH1 0xA0 SHL SUB AND DUP2 JUMP JUMPDEST PUSH1 0x0 DUP1 PUSH2 0xCA PUSH2 0xD8 JUMP JUMPDEST SWAP2 POP SWAP2 POP SWAP1 SWAP2 JUMP JUMPDEST PUSH1 0x2 SLOAD DUP2 JUMP JUMPDEST PUSH1 0x0 DUP1 PUSH1 0x0 DUP1 PUSH1 0x0 DUP1 PUSH1 0x0 SWAP1 SLOAD SWAP1 PUSH2 0x100 EXP SWAP1 DIV PUSH1 0x1 PUSH1 0x1 PUSH1 0xA0 SHL SUB AND PUSH1 0x1 PUSH1 0x1 PUSH1 0xA0 SHL SUB AND PUSH4 0xFEAF968C PUSH1 0x40 MLOAD DUP2 PUSH4 0xFFFFFFFF AND PUSH1 0xE0 SHL DUP2 MSTORE PUSH1 0x4 ADD PUSH1 0xA0 PUSH1 0x40 MLOAD DUP1 DUP4 SUB DUP2 DUP7 DUP1 EXTCODESIZE ISZERO DUP1 ISZERO PUSH2 0x12D JUMPI PUSH1 0x0 DUP1 REVERT JUMPDEST POP GAS STATICCALL ISZERO DUP1 ISZERO PUSH2 0x141 JUMPI RETURNDATASIZE PUSH1 0x0 DUP1 RETURNDATACOPY RETURNDATASIZE PUSH1 0x0 REVERT JUMPDEST POP POP POP POP PUSH1 0x40 MLOAD RETURNDATASIZE PUSH1 0xA0 DUP2 LT ISZERO PUSH2 0x157 JUMPI PUSH1 0x0 DUP1 REVERT JUMPDEST POP DUP1 MLOAD PUSH1 0x20 DUP3 ADD MLOAD PUSH1 0x60 SWAP1 SWAP3 ADD MLOAD SWAP1 SWAP5 POP SWAP1 SWAP3 POP SWAP1 POP DUP1 PUSH2 0x1A9 JUMPI PUSH1 0x40 MLOAD PUSH3 0x461BCD PUSH1 0xE5 SHL DUP2 MSTORE PUSH1 0x4 ADD DUP1 DUP1 PUSH1 0x20 ADD DUP3 DUP2 SUB DUP3 MSTORE PUSH1 0x24 DUP2 MSTORE PUSH1 0x20 ADD DUP1 PUSH2 0x60A PUSH1 0x24 SWAP2 CODECOPY PUSH1 0x40 ADD SWAP2 POP POP PUSH1 0x40 MLOAD DUP1 SWAP2 SUB SWAP1 REVERT JUMPDEST PUSH1 0x0 DUP1 DUP1 JUMPDEST PUSH1 0x2 SLOAD DUP2 LT ISZERO PUSH2 0x2BF JUMPI PUSH10 0xFFFFFFFFFFFFFFFFFFFF DUP7 AND PUSH2 0x1CE JUMPI PUSH2 0x2BF JUMP JUMPDEST PUSH1 0x0 DUP1 SLOAD PUSH1 0x40 DUP1 MLOAD PUSH4 0x9A6FC8F5 PUSH1 0xE0 SHL DUP2 MSTORE PUSH10 0xFFFFFFFFFFFFFFFFFFFF PUSH1 0x0 NOT SWAP1 SWAP11 ADD SWAP10 DUP11 AND PUSH1 0x4 DUP3 ADD MSTORE SWAP1 MLOAD DUP4 SWAP3 PUSH1 0x1 PUSH1 0x1 PUSH1 0xA0 SHL SUB AND SWAP2 PUSH4 0x9A6FC8F5 SWAP2 PUSH1 0x24 DUP1 DUP4 ADD SWAP3 PUSH1 0xA0 SWAP3 SWAP2 SWAP1 DUP3 SWAP1 SUB ADD DUP2 DUP7 DUP1 EXTCODESIZE ISZERO DUP1 ISZERO PUSH2 0x22C JUMPI PUSH1 0x0 DUP1 REVERT JUMPDEST POP GAS STATICCALL ISZERO DUP1 ISZERO PUSH2 0x240 JUMPI RETURNDATASIZE PUSH1 0x0 DUP1 RETURNDATACOPY RETURNDATASIZE PUSH1 0x0 REVERT JUMPDEST POP POP POP POP PUSH1 0x40 MLOAD RETURNDATASIZE PUSH1 0xA0 DUP2 LT ISZERO PUSH2 0x256 JUMPI PUSH1 0x0 DUP1 REVERT JUMPDEST POP PUSH1 0x20 DUP2 ADD MLOAD PUSH1 0x60 SWAP1 SWAP2 ADD MLOAD SWAP1 SWAP3 POP SWAP1 POP PUSH1 0x0 PUSH2 0x279 DUP8 DUP4 PUSH4 0xFFFFFFFF PUSH2 0x2E6 AND JUMP JUMPDEST SWAP1 POP PUSH2 0x29B PUSH2 0x28E DUP10 DUP4 PUSH4 0xFFFFFFFF PUSH2 0x331 AND JUMP JUMPDEST DUP7 SWAP1 PUSH4 0xFFFFFFFF PUSH2 0x3DA AND JUMP JUMPDEST SWAP5 POP PUSH2 0x2AD DUP7 DUP3 PUSH4 0xFFFFFFFF PUSH2 0x43F AND JUMP JUMPDEST SWAP3 SWAP8 POP SWAP1 SWAP6 POP SWAP1 SWAP4 POP POP PUSH1 0x1 ADD PUSH2 0x1AE JUMP JUMPDEST POP DUP2 ISZERO PUSH2 0x2D9 JUMPI PUSH2 0x2D6 DUP2 DUP4 PUSH4 0xFFFFFFFF PUSH2 0x499 AND JUMP JUMPDEST SWAP4 POP JUMPDEST POP SWAP2 SWAP5 POP SWAP1 SWAP3 POP POP POP SWAP1 SWAP2 JUMP JUMPDEST PUSH1 0x0 PUSH2 0x328 DUP4 DUP4 PUSH1 0x40 MLOAD DUP1 PUSH1 0x40 ADD PUSH1 0x40 MSTORE DUP1 PUSH1 0x1E DUP2 MSTORE PUSH1 0x20 ADD PUSH32 0x536166654D6174683A207375627472616374696F6E206F766572666C6F770000 DUP2 MSTORE POP PUSH2 0x551 JUMP JUMPDEST SWAP1 POP JUMPDEST SWAP3 SWAP2 POP POP JUMP JUMPDEST PUSH1 0x0 DUP3 PUSH2 0x340 JUMPI POP PUSH1 0x0 PUSH2 0x32B JUMP JUMPDEST DUP3 PUSH1 0x0 NOT EQ DUP1 ISZERO PUSH2 0x354 JUMPI POP PUSH1 0x1 PUSH1 0xFF SHL DUP3 EQ JUMPDEST ISZERO PUSH2 0x390 JUMPI PUSH1 0x40 MLOAD PUSH3 0x461BCD PUSH1 0xE5 SHL DUP2 MSTORE PUSH1 0x4 ADD DUP1 DUP1 PUSH1 0x20 ADD DUP3 DUP2 SUB DUP3 MSTORE PUSH1 0x27 DUP2 MSTORE PUSH1 0x20 ADD DUP1 PUSH2 0x64F PUSH1 0x27 SWAP2 CODECOPY PUSH1 0x40 ADD SWAP2 POP POP PUSH1 0x40 MLOAD DUP1 SWAP2 SUB SWAP1 REVERT JUMPDEST DUP3 DUP3 MUL DUP3 DUP5 DUP3 DUP2 PUSH2 0x39D JUMPI INVALID JUMPDEST SDIV EQ PUSH2 0x328 JUMPI PUSH1 0x40 MLOAD PUSH3 0x461BCD PUSH1 0xE5 SHL DUP2 MSTORE PUSH1 0x4 ADD DUP1 DUP1 PUSH1 0x20 ADD DUP3 DUP2 SUB DUP3 MSTORE PUSH1 0x27 DUP2 MSTORE PUSH1 0x20 ADD DUP1 PUSH2 0x64F PUSH1 0x27 SWAP2 CODECOPY PUSH1 0x40 ADD SWAP2 POP POP PUSH1 0x40 MLOAD DUP1 SWAP2 SUB SWAP1 REVERT JUMPDEST PUSH1 0x0 DUP3 DUP3 ADD DUP2 DUP4 SLT DUP1 ISZERO SWAP1 PUSH2 0x3EF JUMPI POP DUP4 DUP2 SLT ISZERO JUMPDEST DUP1 PUSH2 0x404 JUMPI POP PUSH1 0x0 DUP4 SLT DUP1 ISZERO PUSH2 0x404 JUMPI POP DUP4 DUP2 SLT JUMPDEST PUSH2 0x328 JUMPI PUSH1 0x40 MLOAD PUSH3 0x461BCD PUSH1 0xE5 SHL DUP2 MSTORE PUSH1 0x4 ADD DUP1 DUP1 PUSH1 0x20 ADD DUP3 DUP2 SUB DUP3 MSTORE PUSH1 0x21 DUP2 MSTORE PUSH1 0x20 ADD DUP1 PUSH2 0x5E9 PUSH1 0x21 SWAP2 CODECOPY PUSH1 0x40 ADD SWAP2 POP POP PUSH1 0x40 MLOAD DUP1 SWAP2 SUB SWAP1 REVERT JUMPDEST PUSH1 0x0 DUP3 DUP3 ADD DUP4 DUP2 LT ISZERO PUSH2 0x328 JUMPI PUSH1 0x40 DUP1 MLOAD PUSH3 0x461BCD PUSH1 0xE5 SHL DUP2 MSTORE PUSH1 0x20 PUSH1 0x4 DUP3 ADD MSTORE PUSH1 0x1B PUSH1 0x24 DUP3 ADD MSTORE PUSH32 0x536166654D6174683A206164646974696F6E206F766572666C6F770000000000 PUSH1 0x44 DUP3 ADD MSTORE SWAP1 MLOAD SWAP1 DUP2 SWAP1 SUB PUSH1 0x64 ADD SWAP1 REVERT JUMPDEST PUSH1 0x0 DUP2 PUSH2 0x4ED JUMPI PUSH1 0x40 DUP1 MLOAD PUSH3 0x461BCD PUSH1 0xE5 SHL DUP2 MSTORE PUSH1 0x20 PUSH1 0x4 DUP3 ADD DUP2 SWAP1 MSTORE PUSH1 0x24 DUP3 ADD MSTORE PUSH32 0x5369676E6564536166654D6174683A206469766973696F6E206279207A65726F PUSH1 0x44 DUP3 ADD MSTORE SWAP1 MLOAD SWAP1 DUP2 SWAP1 SUB PUSH1 0x64 ADD SWAP1 REVERT JUMPDEST DUP2 PUSH1 0x0 NOT EQ DUP1 ISZERO PUSH2 0x501 JUMPI POP PUSH1 0x1 PUSH1 0xFF SHL DUP4 EQ JUMPDEST ISZERO PUSH2 0x53D JUMPI PUSH1 0x40 MLOAD PUSH3 0x461BCD PUSH1 0xE5 SHL DUP2 MSTORE PUSH1 0x4 ADD DUP1 DUP1 PUSH1 0x20 ADD DUP3 DUP2 SUB DUP3 MSTORE PUSH1 0x21 DUP2 MSTORE PUSH1 0x20 ADD DUP1 PUSH2 0x62E PUSH1 0x21 SWAP2 CODECOPY PUSH1 0x40 ADD SWAP2 POP POP PUSH1 0x40 MLOAD DUP1 SWAP2 SUB SWAP1 REVERT JUMPDEST PUSH1 0x0 DUP3 DUP5 DUP2 PUSH2 0x548 JUMPI INVALID JUMPDEST SDIV SWAP5 SWAP4 POP POP POP POP JUMP JUMPDEST PUSH1 0x0 DUP2 DUP5 DUP5 GT ISZERO PUSH2 0x5E0 JUMPI PUSH1 0x40 MLOAD PUSH3 0x461BCD PUSH1 0xE5 SHL DUP2 MSTORE PUSH1 0x4 ADD DUP1 DUP1 PUSH1 0x20 ADD DUP3 DUP2 SUB DUP3 MSTORE DUP4 DUP2 DUP2 MLOAD DUP2 MSTORE PUSH1 0x20 ADD SWAP2 POP DUP1 MLOAD SWAP1 PUSH1 0x20 ADD SWAP1 DUP1 DUP4 DUP4 PUSH1 0x0 JUMPDEST DUP4 DUP2 LT ISZERO PUSH2 0x5A5 JUMPI DUP2 DUP2 ADD MLOAD DUP4 DUP3 ADD MSTORE PUSH1 0x20 ADD PUSH2 0x58D JUMP JUMPDEST POP POP POP POP SWAP1 POP SWAP1 DUP2 ADD SWAP1 PUSH1 0x1F AND DUP1 ISZERO PUSH2 0x5D2 JUMPI DUP1 DUP3 SUB DUP1 MLOAD PUSH1 0x1 DUP4 PUSH1 0x20 SUB PUSH2 0x100 EXP SUB NOT AND DUP2 MSTORE PUSH1 0x20 ADD SWAP2 POP JUMPDEST POP SWAP3 POP POP POP PUSH1 0x40 MLOAD DUP1 SWAP2 SUB SWAP1 REVERT JUMPDEST POP POP POP SWAP1 SUB SWAP1 JUMP INVALID MSTORE8 PUSH10 0x676E6564536166654D61 PUSH21 0x683A206164646974696F6E206F766572666C6F774F JUMP 0x4C NUMBER PUSH9 0x61696E6C696E6B4665 PUSH6 0x643A20726F75 PUSH15 0x64206E6F7420636F6D706C65746553 PUSH10 0x676E6564536166654D61 PUSH21 0x683A206469766973696F6E206F766572666C6F7753 PUSH10 0x676E6564536166654D61 PUSH21 0x683A206D756C7469706C69636174696F6E206F7665 PUSH19 0x666C6F77A2646970667358221220A1256966EB 0xB5 0xC2 SGT SWAP16 0xD 0x23 0xA6 0xB4 0xD7 DELEGATECALL DUP11 0xAA 0xF 0x2B INVALID SWAP12 CALLDATALOAD DIFFICULTY 0x2B LOG2 0xC7 0xE6 0xF7 PUSH3 0xF0B5C2 PUSH5 0x736F6C6343 STOP MOD ADDMOD STOP CALLER ",
  "sha1": "506785daf62f699af64c8d53bff1680073b4d035",
  "source": "// SPDX-License-Identifier: AGPL-3.0-or-later\n\npragma solidity ^0.6.7;\n\nimport \"@openzeppelinV3/contracts/GSN/Context.sol\";\nimport \"@openzeppelinV3/contracts/math/SafeMath.sol\";\nimport \"@openzeppelinV3/contracts/math/SignedSafeMath.sol\";\n\nimport \"../../interfaces/chainlink/AggregatorV3Interface.sol\";\nimport \"../../interfaces/overlay/IOVLFeed.sol\";\nimport \"../../interfaces/overlay/IOVLPosition.sol\";\n\ncontract OVLChainlinkFeed is Context, IOVLFeed {\n  using SafeMath for uint256;\n  using SignedSafeMath for int256;\n\n  AggregatorV3Interface internal _chainlink;\n  address public dataSource;\n  uint256 public rounds; // # of rounds to avg TWAP over (~ 8h)\n\n  constructor(address _data, uint256 _rounds) public {\n    _chainlink = AggregatorV3Interface(_data);\n    dataSource = _data;\n    rounds = _rounds;\n  }\n\n  function _fetch() private view returns (int256, uint256) {\n    // NOTE: 1h data for BTCUSD, 20m data for ETHUSD, 1h data for Fast gas\n    (uint80 roundId, int256 price, , uint256 timestamp, ) = _chainlink.latestRoundData();\n    require(timestamp > 0, \"OVLChainlinkFeed: round not complete\");\n\n    // Get the TWAP over rounds\n    uint256 period = 0;\n    int256 priceCumulative = 0;\n    for (uint256 i=0; i < rounds; i++) {\n      if (roundId == 0) {\n        break;\n      }\n      roundId--;\n      (, int256 prevRoundPrice, , uint256 prevRoundTimestamp, ) = _chainlink.getRoundData(roundId);\n\n      uint256 delt = timestamp.sub(prevRoundTimestamp);\n      priceCumulative = priceCumulative.add(price.mul(int256(delt)));\n      period = period.add(delt);\n\n      timestamp = prevRoundTimestamp;\n      price = prevRoundPrice;\n    }\n\n    if (period != 0) {\n      price = priceCumulative.div(int256(period));\n    }\n    return (price, period);\n  }\n\n  function data() external view returns (int256, uint256) {\n    return _fetch();\n  }\n\n  function fetchData() public virtual override returns (int256, uint256) {\n    return _fetch();\n  }\n}\n",
  "sourcePath": "contracts/feeds/OVLChainlinkFeed.sol",
  "type": "contract"
}