{
  "abi": [
    {
      "inputs": [
        {
          "internalType": "string",
          "name": "_uri",
          "type": "string"
        },
        {
          "internalType": "address",
          "name": "_token",
          "type": "address"
        },
        {
          "internalType": "address",
          "name": "_feed",
          "type": "address"
        }
      ],
      "stateMutability": "nonpayable",
      "type": "constructor"
    },
    {
      "anonymous": false,
      "inputs": [
        {
          "indexed": true,
          "internalType": "address",
          "name": "account",
          "type": "address"
        },
        {
          "indexed": true,
          "internalType": "address",
          "name": "operator",
          "type": "address"
        },
        {
          "indexed": false,
          "internalType": "bool",
          "name": "approved",
          "type": "bool"
        }
      ],
      "name": "ApprovalForAll",
      "type": "event"
    },
    {
      "anonymous": false,
      "inputs": [
        {
          "indexed": true,
          "internalType": "address",
          "name": "by",
          "type": "address"
        },
        {
          "indexed": true,
          "internalType": "uint256",
          "name": "id",
          "type": "uint256"
        },
        {
          "indexed": false,
          "internalType": "uint256",
          "name": "value",
          "type": "uint256"
        }
      ],
      "name": "Build",
      "type": "event"
    },
    {
      "anonymous": false,
      "inputs": [
        {
          "indexed": true,
          "internalType": "address",
          "name": "by",
          "type": "address"
        },
        {
          "indexed": true,
          "internalType": "uint256",
          "name": "id",
          "type": "uint256"
        },
        {
          "indexed": false,
          "internalType": "uint256",
          "name": "value",
          "type": "uint256"
        }
      ],
      "name": "Liquidate",
      "type": "event"
    },
    {
      "anonymous": false,
      "inputs": [
        {
          "indexed": true,
          "internalType": "address",
          "name": "operator",
          "type": "address"
        },
        {
          "indexed": true,
          "internalType": "address",
          "name": "from",
          "type": "address"
        },
        {
          "indexed": true,
          "internalType": "address",
          "name": "to",
          "type": "address"
        },
        {
          "indexed": false,
          "internalType": "uint256[]",
          "name": "ids",
          "type": "uint256[]"
        },
        {
          "indexed": false,
          "internalType": "uint256[]",
          "name": "values",
          "type": "uint256[]"
        }
      ],
      "name": "TransferBatch",
      "type": "event"
    },
    {
      "anonymous": false,
      "inputs": [
        {
          "indexed": true,
          "internalType": "address",
          "name": "operator",
          "type": "address"
        },
        {
          "indexed": true,
          "internalType": "address",
          "name": "from",
          "type": "address"
        },
        {
          "indexed": true,
          "internalType": "address",
          "name": "to",
          "type": "address"
        },
        {
          "indexed": false,
          "internalType": "uint256",
          "name": "id",
          "type": "uint256"
        },
        {
          "indexed": false,
          "internalType": "uint256",
          "name": "value",
          "type": "uint256"
        }
      ],
      "name": "TransferSingle",
      "type": "event"
    },
    {
      "anonymous": false,
      "inputs": [
        {
          "indexed": false,
          "internalType": "string",
          "name": "value",
          "type": "string"
        },
        {
          "indexed": true,
          "internalType": "uint256",
          "name": "id",
          "type": "uint256"
        }
      ],
      "name": "URI",
      "type": "event"
    },
    {
      "anonymous": false,
      "inputs": [
        {
          "indexed": true,
          "internalType": "address",
          "name": "by",
          "type": "address"
        },
        {
          "indexed": true,
          "internalType": "uint256",
          "name": "id",
          "type": "uint256"
        },
        {
          "indexed": false,
          "internalType": "uint256",
          "name": "value",
          "type": "uint256"
        }
      ],
      "name": "Unwind",
      "type": "event"
    },
    {
      "inputs": [],
      "name": "BASE",
      "outputs": [
        {
          "internalType": "uint256",
          "name": "",
          "type": "uint256"
        }
      ],
      "stateMutability": "view",
      "type": "function"
    },
    {
      "inputs": [],
      "name": "FEE_BURN",
      "outputs": [
        {
          "internalType": "uint256",
          "name": "",
          "type": "uint256"
        }
      ],
      "stateMutability": "view",
      "type": "function"
    },
    {
      "inputs": [],
      "name": "LIQUIDATE_REWARD",
      "outputs": [
        {
          "internalType": "uint256",
          "name": "",
          "type": "uint256"
        }
      ],
      "stateMutability": "view",
      "type": "function"
    },
    {
      "inputs": [],
      "name": "MIN_LEVERAGE",
      "outputs": [
        {
          "internalType": "uint256",
          "name": "",
          "type": "uint256"
        }
      ],
      "stateMutability": "view",
      "type": "function"
    },
    {
      "inputs": [
        {
          "internalType": "uint256",
          "name": "_id",
          "type": "uint256"
        }
      ],
      "name": "amountLockedIn",
      "outputs": [
        {
          "internalType": "uint256",
          "name": "",
          "type": "uint256"
        }
      ],
      "stateMutability": "view",
      "type": "function"
    },
    {
      "inputs": [
        {
          "internalType": "address",
          "name": "account",
          "type": "address"
        },
        {
          "internalType": "uint256",
          "name": "id",
          "type": "uint256"
        }
      ],
      "name": "balanceOf",
      "outputs": [
        {
          "internalType": "uint256",
          "name": "",
          "type": "uint256"
        }
      ],
      "stateMutability": "view",
      "type": "function"
    },
    {
      "inputs": [
        {
          "internalType": "address[]",
          "name": "accounts",
          "type": "address[]"
        },
        {
          "internalType": "uint256[]",
          "name": "ids",
          "type": "uint256[]"
        }
      ],
      "name": "balanceOfBatch",
      "outputs": [
        {
          "internalType": "uint256[]",
          "name": "",
          "type": "uint256[]"
        }
      ],
      "stateMutability": "view",
      "type": "function"
    },
    {
      "inputs": [
        {
          "internalType": "uint256",
          "name": "_amount",
          "type": "uint256"
        },
        {
          "internalType": "bool",
          "name": "_long",
          "type": "bool"
        },
        {
          "internalType": "uint256",
          "name": "_leverage",
          "type": "uint256"
        }
      ],
      "name": "build",
      "outputs": [],
      "stateMutability": "nonpayable",
      "type": "function"
    },
    {
      "inputs": [
        {
          "internalType": "bool",
          "name": "_long",
          "type": "bool"
        },
        {
          "internalType": "uint256",
          "name": "_leverage",
          "type": "uint256"
        }
      ],
      "name": "buildAll",
      "outputs": [],
      "stateMutability": "nonpayable",
      "type": "function"
    },
    {
      "inputs": [],
      "name": "calcMaxProfit",
      "outputs": [
        {
          "internalType": "int256",
          "name": "",
          "type": "int256"
        }
      ],
      "stateMutability": "view",
      "type": "function"
    },
    {
      "inputs": [],
      "name": "feed",
      "outputs": [
        {
          "internalType": "contract IOVLFeed",
          "name": "",
          "type": "address"
        }
      ],
      "stateMutability": "view",
      "type": "function"
    },
    {
      "inputs": [
        {
          "internalType": "bool",
          "name": "_long",
          "type": "bool"
        },
        {
          "internalType": "uint256",
          "name": "_leverage",
          "type": "uint256"
        },
        {
          "internalType": "int256",
          "name": "_price",
          "type": "int256"
        }
      ],
      "name": "getId",
      "outputs": [
        {
          "internalType": "uint256",
          "name": "",
          "type": "uint256"
        }
      ],
      "stateMutability": "pure",
      "type": "function"
    },
    {
      "inputs": [],
      "name": "governance",
      "outputs": [
        {
          "internalType": "address",
          "name": "",
          "type": "address"
        }
      ],
      "stateMutability": "view",
      "type": "function"
    },
    {
      "inputs": [
        {
          "internalType": "address",
          "name": "account",
          "type": "address"
        },
        {
          "internalType": "address",
          "name": "operator",
          "type": "address"
        }
      ],
      "name": "isApprovedForAll",
      "outputs": [
        {
          "internalType": "bool",
          "name": "",
          "type": "bool"
        }
      ],
      "stateMutability": "view",
      "type": "function"
    },
    {
      "inputs": [
        {
          "internalType": "uint256",
          "name": "_id",
          "type": "uint256"
        }
      ],
      "name": "isLong",
      "outputs": [
        {
          "internalType": "bool",
          "name": "",
          "type": "bool"
        }
      ],
      "stateMutability": "view",
      "type": "function"
    },
    {
      "inputs": [
        {
          "internalType": "uint256",
          "name": "_id",
          "type": "uint256"
        }
      ],
      "name": "leverageOf",
      "outputs": [
        {
          "internalType": "uint256",
          "name": "",
          "type": "uint256"
        }
      ],
      "stateMutability": "view",
      "type": "function"
    },
    {
      "inputs": [],
      "name": "liquidatable",
      "outputs": [
        {
          "internalType": "uint256[]",
          "name": "",
          "type": "uint256[]"
        }
      ],
      "stateMutability": "view",
      "type": "function"
    },
    {
      "inputs": [
        {
          "internalType": "uint256",
          "name": "_id",
          "type": "uint256"
        }
      ],
      "name": "liquidate",
      "outputs": [],
      "stateMutability": "nonpayable",
      "type": "function"
    },
    {
      "inputs": [
        {
          "internalType": "uint256",
          "name": "_id",
          "type": "uint256"
        }
      ],
      "name": "liquidationPriceOf",
      "outputs": [
        {
          "internalType": "int256",
          "name": "",
          "type": "int256"
        }
      ],
      "stateMutability": "view",
      "type": "function"
    },
    {
      "inputs": [
        {
          "internalType": "uint256",
          "name": "_id",
          "type": "uint256"
        }
      ],
      "name": "lockPriceOf",
      "outputs": [
        {
          "internalType": "int256",
          "name": "",
          "type": "int256"
        }
      ],
      "stateMutability": "view",
      "type": "function"
    },
    {
      "inputs": [],
      "name": "maxLeverage",
      "outputs": [
        {
          "internalType": "uint256",
          "name": "",
          "type": "uint256"
        }
      ],
      "stateMutability": "view",
      "type": "function"
    },
    {
      "inputs": [],
      "name": "maxPayout",
      "outputs": [
        {
          "internalType": "uint256",
          "name": "",
          "type": "uint256"
        }
      ],
      "stateMutability": "view",
      "type": "function"
    },
    {
      "inputs": [],
      "name": "open",
      "outputs": [
        {
          "internalType": "uint256[]",
          "name": "",
          "type": "uint256[]"
        }
      ],
      "stateMutability": "view",
      "type": "function"
    },
    {
      "inputs": [
        {
          "internalType": "address",
          "name": "from",
          "type": "address"
        },
        {
          "internalType": "address",
          "name": "to",
          "type": "address"
        },
        {
          "internalType": "uint256[]",
          "name": "ids",
          "type": "uint256[]"
        },
        {
          "internalType": "uint256[]",
          "name": "amounts",
          "type": "uint256[]"
        },
        {
          "internalType": "bytes",
          "name": "data",
          "type": "bytes"
        }
      ],
      "name": "safeBatchTransferFrom",
      "outputs": [],
      "stateMutability": "nonpayable",
      "type": "function"
    },
    {
      "inputs": [
        {
          "internalType": "address",
          "name": "from",
          "type": "address"
        },
        {
          "internalType": "address",
          "name": "to",
          "type": "address"
        },
        {
          "internalType": "uint256",
          "name": "id",
          "type": "uint256"
        },
        {
          "internalType": "uint256",
          "name": "amount",
          "type": "uint256"
        },
        {
          "internalType": "bytes",
          "name": "data",
          "type": "bytes"
        }
      ],
      "name": "safeTransferFrom",
      "outputs": [],
      "stateMutability": "nonpayable",
      "type": "function"
    },
    {
      "inputs": [
        {
          "internalType": "address",
          "name": "operator",
          "type": "address"
        },
        {
          "internalType": "bool",
          "name": "approved",
          "type": "bool"
        }
      ],
      "name": "setApprovalForAll",
      "outputs": [],
      "stateMutability": "nonpayable",
      "type": "function"
    },
    {
      "inputs": [
        {
          "internalType": "address",
          "name": "_feed",
          "type": "address"
        }
      ],
      "name": "setFeed",
      "outputs": [],
      "stateMutability": "nonpayable",
      "type": "function"
    },
    {
      "inputs": [
        {
          "internalType": "address",
          "name": "_gov",
          "type": "address"
        }
      ],
      "name": "setGovernance",
      "outputs": [],
      "stateMutability": "nonpayable",
      "type": "function"
    },
    {
      "inputs": [
        {
          "internalType": "uint256",
          "name": "_max",
          "type": "uint256"
        }
      ],
      "name": "setMaxLeverage",
      "outputs": [],
      "stateMutability": "nonpayable",
      "type": "function"
    },
    {
      "inputs": [
        {
          "internalType": "uint256",
          "name": "_payout",
          "type": "uint256"
        }
      ],
      "name": "setMaxPayout",
      "outputs": [],
      "stateMutability": "nonpayable",
      "type": "function"
    },
    {
      "inputs": [
        {
          "internalType": "uint256",
          "name": "_fee",
          "type": "uint256"
        }
      ],
      "name": "setTradeFee",
      "outputs": [],
      "stateMutability": "nonpayable",
      "type": "function"
    },
    {
      "inputs": [
        {
          "internalType": "address",
          "name": "_treasury",
          "type": "address"
        }
      ],
      "name": "setTreasury",
      "outputs": [],
      "stateMutability": "nonpayable",
      "type": "function"
    },
    {
      "inputs": [
        {
          "internalType": "bytes4",
          "name": "interfaceId",
          "type": "bytes4"
        }
      ],
      "name": "supportsInterface",
      "outputs": [
        {
          "internalType": "bool",
          "name": "",
          "type": "bool"
        }
      ],
      "stateMutability": "view",
      "type": "function"
    },
    {
      "inputs": [],
      "name": "token",
      "outputs": [
        {
          "internalType": "contract OVLToken",
          "name": "",
          "type": "address"
        }
      ],
      "stateMutability": "view",
      "type": "function"
    },
    {
      "inputs": [],
      "name": "tradeFee",
      "outputs": [
        {
          "internalType": "uint256",
          "name": "",
          "type": "uint256"
        }
      ],
      "stateMutability": "view",
      "type": "function"
    },
    {
      "inputs": [],
      "name": "treasury",
      "outputs": [
        {
          "internalType": "address",
          "name": "",
          "type": "address"
        }
      ],
      "stateMutability": "view",
      "type": "function"
    },
    {
      "inputs": [
        {
          "internalType": "uint256",
          "name": "_id",
          "type": "uint256"
        },
        {
          "internalType": "uint256",
          "name": "_amount",
          "type": "uint256"
        }
      ],
      "name": "unwind",
      "outputs": [],
      "stateMutability": "nonpayable",
      "type": "function"
    },
    {
      "inputs": [
        {
          "internalType": "uint256",
          "name": "_id",
          "type": "uint256"
        }
      ],
      "name": "unwindAll",
      "outputs": [],
      "stateMutability": "nonpayable",
      "type": "function"
    },
    {
      "inputs": [
        {
          "internalType": "uint256",
          "name": "",
          "type": "uint256"
        }
      ],
      "name": "uri",
      "outputs": [
        {
          "internalType": "string",
          "name": "",
          "type": "string"
        }
      ],
      "stateMutability": "view",
      "type": "function"
    }
  ],
  "bytecode": "608060405262000027600a670de0b6b3a76400006200027a60201b6200205e1790919060201c565b6006556200006861271062000054600f670de0b6b3a76400006200027a60201b6200205e1790919060201c565b620002e160201b620020b71790919060201c565b600755620000946064620000546001670de0b6b3a76400006200027a60201b6200205e1790919060201c565b600855348015620000a457600080fd5b506040516200409b3803806200409b83398181016040526060811015620000ca57600080fd5b8101908080516040519392919084640100000000821115620000eb57600080fd5b9083019060208201858111156200010157600080fd5b82516401000000008111828201881017156200011c57600080fd5b82525081516020918201929091019080838360005b838110156200014b57818101518382015260200162000131565b50505050905090810190601f168015620001795780820380516001836020036101000a031916815260200191505b5060409081526020820151910151909250905082620001a86301ffc9a760e01b6001600160e01b036200032b16565b620001bc816001600160e01b03620003b016565b620001d7636cdb3d1360e11b6001600160e01b036200032b16565b620001f26303a24d0760e21b6001600160e01b036200032b16565b50600480546001600160a01b0319166001600160a01b03841617905562000218620003c9565b600980546001600160a01b0319166001600160a01b039290921691909117905562000242620003c9565b600a80546001600160a01b039283166001600160a01b0319918216179091556005805493909216921691909117905550620005179050565b6000826200028b57506000620002db565b828202828482816200029957fe5b0414620002d85760405162461bcd60e51b81526004018080602001828103825260218152602001806200407a6021913960400191505060405180910390fd5b90505b92915050565b6000620002d883836040518060400160405280601a81526020017f536166654d6174683a206469766973696f6e206279207a65726f000000000000815250620003ce60201b60201c565b6001600160e01b031980821614156200038b576040805162461bcd60e51b815260206004820152601c60248201527f4552433136353a20696e76616c696420696e7465726661636520696400000000604482015290519081900360640190fd5b6001600160e01b0319166000908152602081905260409020805460ff19166001179055565b8051620003c590600390602084019062000475565b5050565b335b90565b600081836200045e5760405162461bcd60e51b81526004018080602001828103825283818151815260200191508051906020019080838360005b838110156200042257818101518382015260200162000408565b50505050905090810190601f168015620004505780820380516001836020036101000a031916815260200191505b509250505060405180910390fd5b5060008385816200046b57fe5b0495945050505050565b828054600181600116156101000203166002900490600052602060002090601f016020900481019282601f10620004b857805160ff1916838001178555620004e8565b82800160010185558215620004e8579182015b82811115620004e8578251825591602001919060010190620004cb565b50620004f6929150620004fa565b5090565b620003cb91905b80821115620004f6576000815560010162000501565b613b5380620005276000396000f3fe608060405234801561001057600080fd5b506004361061023c5760003560e01c80636844cf581161013b578063dc032612116100b8578063f0f442601161007c578063f0f442601461092b578063f242432a14610951578063f612e79f14610a1a578063fc0c546a14610a45578063fcfff16f14610a4d5761023c565b8063dc032612146108d0578063ddcac83b146108ed578063e0176de8146108f5578063e985e9c5146108fd578063ec342ad0146105615761023c565b8063ab033ea9116100ff578063ab033ea91461084b578063ae3302c214610871578063bc42e95f14610879578063d3127e6314610896578063d7373c4e146108b35761023c565b80636844cf58146107aa578063a226b483146107d5578063a22cb465146107f2578063a750a58514610820578063a91a53b3146108435761023c565b806334c1557d116101c957806355b775ea1161018d57806355b775ea1461073a57806356b4997f146107605780635a28ae021461077d5780635aa6e6751461079a57806361d027b3146107a25761023c565b806334c1557d1461056157806337a7b7d814610569578063415f12401461058d5780634d08ff24146105aa5780634e1273f4146105c75761023c565b8063106030231161021057806310603023146103735780632154e6fc1461039057806324ba65561461039057806324bcdfbd146103985780632eb2c2d6146103a05761023c565b8062fdd58e1461024157806301ffc9a71461027f5780630e89341c146102ba5780630fc5962a1461034c575b600080fd5b61026d6004803603604081101561025757600080fd5b506001600160a01b038135169060200135610a55565b60408051918252519081900360200190f35b6102a66004803603602081101561029557600080fd5b50356001600160e01b031916610ac7565b604080519115158252519081900360200190f35b6102d7600480360360208110156102d057600080fd5b5035610ae6565b6040805160208082528351818301528351919283929083019185019080838360005b838110156103115781810151838201526020016102f9565b50505050905090810190601f16801561033e5780820380516001836020036101000a031916815260200191505b509250505060405180910390f35b6103716004803603604081101561036257600080fd5b50803515159060200135610b7e565b005b6103716004803603602081101561038957600080fd5b5035610c1e565b61026d610c77565b61026d610c83565b610371600480360360a08110156103b657600080fd5b6001600160a01b038235811692602081013590911691810190606081016040820135600160201b8111156103e957600080fd5b8201836020820111156103fb57600080fd5b803590602001918460208302840111600160201b8311171561041c57600080fd5b9190808060200260200160405190810160405280939291908181526020018383602002808284376000920191909152509295949360208101935035915050600160201b81111561046b57600080fd5b82018360208201111561047d57600080fd5b803590602001918460208302840111600160201b8311171561049e57600080fd5b9190808060200260200160405190810160405280939291908181526020018383602002808284376000920191909152509295949360208101935035915050600160201b8111156104ed57600080fd5b8201836020820111156104ff57600080fd5b803590602001918460018302840111600160201b8311171561052057600080fd5b91908080601f016020809104026020016040519081016040528093929190818152602001838380828437600092019190915250929550610c89945050505050565b61026d610f87565b610571610f93565b604080516001600160a01b039092168252519081900360200190f35b610371600480360360208110156105a357600080fd5b5035610fa2565b61026d600480360360208110156105c057600080fd5b5035611220565b6106ea600480360360408110156105dd57600080fd5b810190602081018135600160201b8111156105f757600080fd5b82018360208201111561060957600080fd5b803590602001918460208302840111600160201b8311171561062a57600080fd5b9190808060200260200160405190810160405280939291908181526020018383602002808284376000920191909152509295949360208101935035915050600160201b81111561067957600080fd5b82018360208201111561068b57600080fd5b803590602001918460208302840111600160201b831117156106ac57600080fd5b91908080602002602001604051908101604052809392919081815260200183836020028082843760009201919091525092955061123e945050505050565b60408051602080825283518183015283519192839290830191858101910280838360005b8381101561072657818101518382015260200161070e565b505050509050019250505060405180910390f35b6103716004803603602081101561075057600080fd5b50356001600160a01b03166113bc565b6103716004803603602081101561077657600080fd5b5035611432565b6103716004803603602081101561079357600080fd5b503561148b565b6105716114ae565b6105716114bd565b61026d600480360360608110156107c057600080fd5b508035151590602081013590604001356114cc565b6102a6600480360360208110156107eb57600080fd5b503561150a565b6103716004803603604081101561080857600080fd5b506001600160a01b0381351690602001351515611525565b6103716004803603604081101561083657600080fd5b5080359060200135611614565b6106ea611897565b6103716004803603602081101561086157600080fd5b50356001600160a01b03166119c9565b61026d611a3f565b61026d6004803603602081101561088f57600080fd5b5035611a45565b610371600480360360208110156108ac57600080fd5b5035611a57565b61026d600480360360208110156108c957600080fd5b5035611ab0565b61026d600480360360208110156108e657600080fd5b5035611ace565b61026d611af3565b61026d611b9e565b6102a66004803603604081101561091357600080fd5b506001600160a01b0381358116916020013516611ba4565b6103716004803603602081101561094157600080fd5b50356001600160a01b0316611bd2565b610371600480360360a081101561096757600080fd5b6001600160a01b03823581169260208101359091169160408201359160608101359181019060a081016080820135600160201b8111156109a657600080fd5b8201836020820111156109b857600080fd5b803590602001918460018302840111600160201b831117156109d957600080fd5b91908080601f016020809104026020016040519081016040528093929190818152602001838380828437600092019190915250929550611c48945050505050565b61037160048036036060811015610a3057600080fd5b50803590602081013515159060400135611e19565b610571611faf565b6106ea611fbe565b60006001600160a01b038316610a9c5760405162461bcd60e51b815260040180806020018281038252602b8152602001806136f4602b913960400191505060405180910390fd5b5060008181526001602090815260408083206001600160a01b03861684529091529020545b92915050565b6001600160e01b03191660009081526020819052604090205460ff1690565b60038054604080516020601f6002600019610100600188161502019095169490940493840181900481028201810190925282815260609390929091830182828015610b725780601f10610b4757610100808354040283529160200191610b72565b820191906000526020600020905b815481529060010190602001808311610b5557829003601f168201915b50505050509050919050565b6004546000906001600160a01b03166370a08231610b9a6120f9565b6040518263ffffffff1660e01b815260040180826001600160a01b03166001600160a01b0316815260200191505060206040518083038186803b158015610be057600080fd5b505afa158015610bf4573d6000803e3d6000fd5b505050506040513d6020811015610c0a57600080fd5b50519050610c19818484611e19565b505050565b610c266120f9565b6009546001600160a01b03908116911614610c725760405162461bcd60e51b81526004018080602001828103825260268152602001806138246026913960400191505060405180910390fd5b600755565b6706f05b59d3b2000081565b60075481565b8151835114610cc95760405162461bcd60e51b8152600401808060200182810382526028815260200180613a9d6028913960400191505060405180910390fd5b6001600160a01b038416610d0e5760405162461bcd60e51b815260040180806020018281038252602581526020018061384a6025913960400191505060405180910390fd5b610d166120f9565b6001600160a01b0316856001600160a01b03161480610d415750610d4185610d3c6120f9565b611ba4565b610d7c5760405162461bcd60e51b815260040180806020018281038252603281526020018061386f6032913960400191505060405180910390fd5b6000610d866120f9565b9050610d96818787878787610f7f565b60005b8451811015610e97576000858281518110610db057fe5b602002602001015190506000858381518110610dc857fe5b60200260200101519050610e35816040518060600160405280602a81526020016138e5602a91396001600086815260200190815260200160002060008d6001600160a01b03166001600160a01b03168152602001908152602001600020546120fd9092919063ffffffff16565b60008381526001602090815260408083206001600160a01b038e811685529252808320939093558a1681522054610e6c9082612194565b60009283526001602081815260408086206001600160a01b038d168752909152909320555001610d99565b50846001600160a01b0316866001600160a01b0316826001600160a01b03167f4a39dc06d4c0dbc64b70af90fd698a233a518aa5d07e595d983b8c0526c8f7fb8787604051808060200180602001838103835285818151815260200191508051906020019060200280838360005b83811015610f1d578181015183820152602001610f05565b50505050905001838103825284818151815260200191508051906020019060200280838360005b83811015610f5c578181015183820152602001610f44565b5050505090500194505050505060405180910390a4610f7f8187878787876121ee565b505050505050565b670de0b6b3a764000081565b6005546001600160a01b031681565b610fab8161247f565b610fe65760405162461bcd60e51b81526004018080602001828103825260218152602001806139576021913960400191505060405180910390fd5b600554604080516303bc5de360e41b815290516000926001600160a01b031691633bc5de30916004808301926020929190829003018186803b15801561102b57600080fd5b505afa15801561103f573d6000803e3d6000fd5b505050506040513d602081101561105557600080fd5b505190506110638282612492565b61109e5760405162461bcd60e51b81526004018080602001828103825260298152602001806136cb6029913960400191505060405180910390fd5b60006110a983611a45565b905060006110b684611220565b905060006110c483836124d8565b90506110d6838263ffffffff61251a16565b6000868152600c602052604081205592506110f8600d8663ffffffff61255c16565b50600061112b670de0b6b3a764000061111f866706f05b59d3b2000063ffffffff61205e16565b9063ffffffff6120b716565b905061113d848263ffffffff61251a16565b6004805460408051630852cd8d60e31b8152928301849052519296506001600160a01b0316916342966c689160248082019260009290919082900301818387803b15801561118a57600080fd5b505af115801561119e573d6000803e3d6000fd5b505050506111c66111ad6120f9565b6004546001600160a01b0316908363ffffffff61256816565b6111cf826125ba565b856111d86120f9565b6001600160a01b03167f3c4b1d42b9c7fa283f6fe657533f6a5a8a7ad1d36f9ef1d9d89ad04485e10d2c836040518082815260200191505060405180910390a3505050505050565b600061122a61357b565b6112338361267e565b602001519392505050565b606081518351146112805760405162461bcd60e51b8152600401808060200182810382526029815260200180613a746029913960400191505060405180910390fd5b6060835167ffffffffffffffff8111801561129a57600080fd5b506040519080825280602002602001820160405280156112c4578160200160208202803683370190505b50905060005b84518110156113b45760006001600160a01b03168582815181106112ea57fe5b60200260200101516001600160a01b031614156113385760405162461bcd60e51b815260040180806020018281038252603181526020018061371f6031913960400191505060405180910390fd5b6001600085838151811061134857fe5b60200260200101518152602001908152602001600020600086838151811061136c57fe5b60200260200101516001600160a01b03166001600160a01b03168152602001908152602001600020548282815181106113a157fe5b60209081029190910101526001016112ca565b509392505050565b6113c46120f9565b6009546001600160a01b039081169116146114105760405162461bcd60e51b81526004018080602001828103825260268152602001806138246026913960400191505060405180910390fd5b600580546001600160a01b0319166001600160a01b0392909216919091179055565b61143a6120f9565b6009546001600160a01b039081169116146114865760405162461bcd60e51b81526004018080602001828103825260268152602001806138246026913960400191505060405180910390fd5b600855565b600061149e6114986120f9565b83610a55565b90506114aa8282611614565b5050565b6009546001600160a01b031681565b600a546001600160a01b031681565b6040805193151560f81b6020808601919091526021850193909352604180850192909252805180850390920182526061909301909252815191012090565b600061151461357b565b61151d8361267e565b519392505050565b816001600160a01b03166115376120f9565b6001600160a01b0316141561157d5760405162461bcd60e51b81526004018080602001828103825260298152602001806139fd6029913960400191505060405180910390fd5b806002600061158a6120f9565b6001600160a01b03908116825260208083019390935260409182016000908120918716808252919093529120805460ff1916921515929092179091556115ce6120f9565b60408051841515815290516001600160a01b0392909216917f17307eab39ab6107e8899845ad3d59bd9653f200f220920489ca2b5937696c319181900360200190a35050565b600081116116535760405162461bcd60e51b81526004018080602001828103825260408152602001806139786040913960400191505060405180910390fd5b61165c82611a45565b81111561169a5760405162461bcd60e51b8152600401808060200182810382526038815260200180613ae66038913960400191505060405180910390fd5b6116ac6116a56120f9565b8383612708565b60006116b88383612841565b9050600081131561174e5760006116ce82612905565b600480546040805163140e25ad60e31b8152928301849052519293506001600160a01b03169163a0712d689160248082019260009290919082900301818387803b15801561171b57600080fd5b505af115801561172f573d6000803e3d6000fd5b50505050611746818461219490919063ffffffff16565b9250506117e7565b60008112156117e757600061176b61176583612905565b8461292a565b6004805460408051630852cd8d60e31b8152928301849052519293506001600160a01b0316916342966c689160248082019260009290919082900301818387803b1580156117b857600080fd5b505af11580156117cc573d6000803e3d6000fd5b505050506117e3818461251a90919063ffffffff16565b9250505b60006117f284611220565b9050600061180084836124d8565b9050611812848263ffffffff61251a16565b935083156118475761183e6118256120f9565b6004546001600160a01b0316908663ffffffff61256816565b611847816125ba565b846118506120f9565b6001600160a01b03167f5814b4996e98740654cdbafc62c8147cf3ab7657b106293c6080d9a0180d31e0866040518082815260200191505060405180910390a35050505050565b60606000600560009054906101000a90046001600160a01b03166001600160a01b0316633bc5de306040518163ffffffff1660e01b815260040160206040518083038186803b1580156118e957600080fd5b505afa1580156118fd573d6000803e3d6000fd5b505050506040513d602081101561191357600080fd5b505190506060611923600d612940565b67ffffffffffffffff8111801561193957600080fd5b50604051908082528060200260200182016040528015611963578160200160208202803683370190505b50905060005b611973600d612940565b8110156119c157600061198d600d8363ffffffff61294b16565b90506119998185612492565b156119b857808383815181106119ab57fe5b6020026020010181815250505b50600101611969565b509150505b90565b6119d16120f9565b6009546001600160a01b03908116911614611a1d5760405162461bcd60e51b81526004018080602001828103825260268152602001806138246026913960400191505060405180910390fd5b600980546001600160a01b0319166001600160a01b0392909216919091179055565b60065481565b6000908152600c602052604090205490565b611a5f6120f9565b6009546001600160a01b03908116911614611aab5760405162461bcd60e51b81526004018080602001828103825260268152602001806138246026913960400191505060405180910390fd5b600655565b6000611aba61357b565b611ac38361267e565b604001519392505050565b6000611ad861357b565b611ae18361267e565b9050611aec81612957565b9392505050565b6000611b99670de0b6b3a7640000611b8d600854600460009054906101000a90046001600160a01b03166001600160a01b03166318160ddd6040518163ffffffff1660e01b815260040160206040518083038186803b158015611b5557600080fd5b505afa158015611b69573d6000803e3d6000fd5b505050506040513d6020811015611b7f57600080fd5b50519063ffffffff6129c416565b9063ffffffff612a6d16565b905090565b60085481565b6001600160a01b03918216600090815260026020908152604080832093909416825291909152205460ff1690565b611bda6120f9565b6009546001600160a01b03908116911614611c265760405162461bcd60e51b81526004018080602001828103825260268152602001806138246026913960400191505060405180910390fd5b600a80546001600160a01b0319166001600160a01b0392909216919091179055565b6001600160a01b038416611c8d5760405162461bcd60e51b815260040180806020018281038252602581526020018061384a6025913960400191505060405180910390fd5b611c956120f9565b6001600160a01b0316856001600160a01b03161480611cbb5750611cbb85610d3c6120f9565b611cf65760405162461bcd60e51b81526004018080602001828103825260298152602001806137746029913960400191505060405180910390fd5b6000611d006120f9565b9050611d20818787611d1188612b25565b611d1a88612b25565b87610f7f565b611d6d836040518060600160405280602a81526020016138e5602a913960008781526001602090815260408083206001600160a01b038d168452909152902054919063ffffffff6120fd16565b60008581526001602090815260408083206001600160a01b038b81168552925280832093909355871681522054611da49084612194565b60008581526001602090815260408083206001600160a01b03808b168086529184529382902094909455805188815291820187905280518a8416938616927fc3d58168c5ae7397731d063d5bbf3d657854427343f4c083240f7aacaa2d0f6292908290030190a4610f7f818787878787612b69565b60008311611e585760405162461bcd60e51b815260040180806020018281038252603f81526020018061379d603f913960400191505060405180910390fd5b670de0b6b3a7640000811015611e9f5760405162461bcd60e51b81526004018080602001828103825260488152602001806137dc6048913960600191505060405180910390fd5b600654811115611ee05760405162461bcd60e51b81526004018080602001828103825260458152602001806139b86045913960600191505060405180910390fd5b611f05611eeb6120f9565b6004546001600160a01b031690308663ffffffff612cec16565b6000611f1184836124d8565b9050611f23848263ffffffff61251a16565b93506000611f32858585612d4c565b9050611f56611f3f6120f9565b828760405180602001604052806000815250612e71565b611f5f826125ba565b80611f686120f9565b6001600160a01b03167f26762795cda5552a98dbf495f5525efb05f3d55c5764fa0c6cfaa27150fe1807876040518082815260200191505060405180910390a35050505050565b6004546001600160a01b031681565b606080611fcb600d612940565b67ffffffffffffffff81118015611fe157600080fd5b5060405190808252806020026020018201604052801561200b578160200160208202803683370190505b50905060005b61201b600d612940565b811015612058576000612035600d8363ffffffff61294b16565b90508083838151811061204457fe5b602090810291909101015250600101612011565b50905090565b60008261206d57506000610ac1565b8282028284828161207a57fe5b0414611aec5760405162461bcd60e51b815260040180806020018281038252602181526020018061390f6021913960400191505060405180910390fd5b6000611aec83836040518060400160405280601a81526020017f536166654d6174683a206469766973696f6e206279207a65726f000000000000815250612f7f565b3390565b6000818484111561218c5760405162461bcd60e51b81526004018080602001828103825283818151815260200191508051906020019080838360005b83811015612151578181015183820152602001612139565b50505050905090810190601f16801561217e5780820380516001836020036101000a031916815260200191505b509250505060405180910390fd5b505050900390565b600082820183811015611aec576040805162461bcd60e51b815260206004820152601b60248201527f536166654d6174683a206164646974696f6e206f766572666c6f770000000000604482015290519081900360640190fd5b612200846001600160a01b0316612fe4565b15610f7f57836001600160a01b031663bc197c8187878686866040518663ffffffff1660e01b815260040180866001600160a01b03166001600160a01b03168152602001856001600160a01b03166001600160a01b03168152602001806020018060200180602001848103845287818151815260200191508051906020019060200280838360005b838110156122a0578181015183820152602001612288565b50505050905001848103835286818151815260200191508051906020019060200280838360005b838110156122df5781810151838201526020016122c7565b50505050905001848103825285818151815260200191508051906020019080838360005b8381101561231b578181015183820152602001612303565b50505050905090810190601f1680156123485780820380516001836020036101000a031916815260200191505b5098505050505050505050602060405180830381600087803b15801561236d57600080fd5b505af192505050801561239257506040513d602081101561238d57600080fd5b505160015b6124275761239e6135a4565b806123a957506123f0565b60405162461bcd60e51b8152602060048201818152835160248401528351849391928392604401919085019080838360008315612151578181015183820152602001612139565b60405162461bcd60e51b815260040180806020018281038252603481526020018061364d6034913960400191505060405180910390fd5b6001600160e01b0319811663bc197c8160e01b146124765760405162461bcd60e51b81526004018080602001828103825260288152602001806136a36028913960400191505060405180910390fd5b50505050505050565b6000610ac1600d8363ffffffff61302016565b600061249c61357b565b6124a58461267e565b905060006124b282612957565b8251909150600090156124c95750838112156124cf565b50838113155b95945050505050565b6000611aec611765670de0b6b3a764000061111f670de0b6b3a764000061111f60075461250e898b61205e90919063ffffffff16565b9063ffffffff61205e16565b6000611aec83836040518060400160405280601e81526020017f536166654d6174683a207375627472616374696f6e206f766572666c6f7700008152506120fd565b6000611aec838361302c565b604080516001600160a01b038416602482015260448082018490528251808303909101815260649091019091526020810180516001600160e01b031663a9059cbb60e01b179052610c199084906130f2565b60006125e0670de0b6b3a764000061111f846706f05b59d3b2000063ffffffff61205e16565b6004805460408051630852cd8d60e31b8152928301849052519293506001600160a01b0316916342966c689160248082019260009290919082900301818387803b15801561262d57600080fd5b505af1158015612641573d6000803e3d6000fd5b50505050612658818361251a90919063ffffffff16565b600a546004549193506114aa916001600160a01b0390811691168463ffffffff61256816565b61268661357b565b61268f8261247f565b6126ca5760405162461bcd60e51b81526004018080602001828103825260218152602001806139576021913960400191505060405180910390fd5b506000908152600b60209081526040918290208251606081018452815460ff1615158152600182015492810192909252600201549181019190915290565b6001600160a01b03831661274d5760405162461bcd60e51b81526004018080602001828103825260238152602001806138c26023913960400191505060405180910390fd5b60006127576120f9565b90506127878185600061276987612b25565b61277287612b25565b60405180602001604052806000815250610f7f565b6127d4826040518060600160405280602481526020016137506024913960008681526001602090815260408083206001600160a01b038b168452909152902054919063ffffffff6120fd16565b60008481526001602090815260408083206001600160a01b03808a16808652918452828520959095558151888152928301879052815193949093908616927fc3d58168c5ae7397731d063d5bbf3d657854427343f4c083240f7aacaa2d0f6292908290030190a450505050565b600080600560009054906101000a90046001600160a01b03166001600160a01b0316633bc5de306040518163ffffffff1660e01b815260040160206040518083038186803b15801561289257600080fd5b505afa1580156128a6573d6000803e3d6000fd5b505050506040513d60208110156128bc57600080fd5b5051905060006128cd8585846131a3565b905060006128da86611a45565b90506128ec818663ffffffff61251a16565b6000878152600c60205260409020555091505092915050565b600080821215612926576129218260001963ffffffff6129c416565b610ac1565b5090565b60008183106129395781611aec565b5090919050565b6000610ac1826132c4565b6000611aec83836132c8565b6000808260000151156129a057602083015161299990611b8d61298882670de0b6b3a764000063ffffffff61251a16565b60408701519063ffffffff6129c416565b9050610ac1565b6020830151611aec90611b8d61298882670de0b6b3a764000063ffffffff61219416565b6000826129d357506000610ac1565b826000191480156129e75750600160ff1b82145b15612a235760405162461bcd60e51b81526004018080602001828103825260278152602001806139306027913960400191505060405180910390fd5b82820282848281612a3057fe5b0514611aec5760405162461bcd60e51b81526004018080602001828103825260278152602001806139306027913960400191505060405180910390fd5b600081612ac1576040805162461bcd60e51b815260206004820181905260248201527f5369676e6564536166654d6174683a206469766973696f6e206279207a65726f604482015290519081900360640190fd5b81600019148015612ad55750600160ff1b83145b15612b115760405162461bcd60e51b81526004018080602001828103825260218152602001806138a16021913960400191505060405180910390fd5b6000828481612b1c57fe5b05949350505050565b604080516001808252818301909252606091829190602080830190803683370190505090508281600081518110612b5857fe5b602090810291909101015292915050565b612b7b846001600160a01b0316612fe4565b15610f7f57836001600160a01b031663f23a6e6187878686866040518663ffffffff1660e01b815260040180866001600160a01b03166001600160a01b03168152602001856001600160a01b03166001600160a01b0316815260200184815260200183815260200180602001828103825283818151815260200191508051906020019080838360005b83811015612c1c578181015183820152602001612c04565b50505050905090810190601f168015612c495780820380516001836020036101000a031916815260200191505b509650505050505050602060405180830381600087803b158015612c6c57600080fd5b505af1925050508015612c9157506040513d6020811015612c8c57600080fd5b505160015b612c9d5761239e6135a4565b6001600160e01b0319811663f23a6e6160e01b146124765760405162461bcd60e51b81526004018080602001828103825260288152602001806136a36028913960400191505060405180910390fd5b604080516001600160a01b0380861660248301528416604482015260648082018490528251808303909101815260849091019091526020810180516001600160e01b03166323b872dd60e01b179052612d469085906130f2565b50505050565b600080600560009054906101000a90046001600160a01b03166001600160a01b0316633bc5de306040518163ffffffff1660e01b815260040160206040518083038186803b158015612d9d57600080fd5b505afa158015612db1573d6000803e3d6000fd5b505050506040513d6020811015612dc757600080fd5b505190506000612dd88585846114cc565b9050612de38161247f565b612e3b5760408051606081018252861515815260208082018781528284018681526000868152600b909352939091209151825460ff19169015151782555160018201559051600290910155612e39600d8261332c565b505b6000612e4682611a45565b9050612e58818863ffffffff61219416565b6000838152600c60205260409020555095945050505050565b6001600160a01b038416612eb65760405162461bcd60e51b8152600401808060200182810382526021815260200180613ac56021913960400191505060405180910390fd5b6000612ec06120f9565b9050612ed281600087611d1188612b25565b60008481526001602090815260408083206001600160a01b0389168452909152902054612f05908463ffffffff61219416565b60008581526001602090815260408083206001600160a01b03808b16808652918452828520959095558151898152928301889052815190948616927fc3d58168c5ae7397731d063d5bbf3d657854427343f4c083240f7aacaa2d0f6292908290030190a4612f7881600087878787612b69565b5050505050565b60008183612fce5760405162461bcd60e51b8152602060048201818152835160248401528351909283926044909101919085019080838360008315612151578181015183820152602001612139565b506000838581612fda57fe5b0495945050505050565b6000813f7fc5d2460186f7233c927e7db2dcc703c0e500b653ca82273b7bfad8045d85a47081811480159061301857508115155b949350505050565b6000611aec8383613338565b600081815260018301602052604081205480156130e8578354600019808301919081019060009087908390811061305f57fe5b906000526020600020015490508087600001848154811061307c57fe5b6000918252602080832090910192909255828152600189810190925260409020908401905586548790806130ac57fe5b60019003818190600052602060002001600090559055866001016000878152602001908152602001600020600090556001945050505050610ac1565b6000915050610ac1565b6060613147826040518060400160405280602081526020017f5361666545524332303a206c6f772d6c6576656c2063616c6c206661696c6564815250856001600160a01b03166133509092919063ffffffff16565b805190915015610c195780806020019051602081101561316657600080fd5b5051610c195760405162461bcd60e51b815260040180806020018281038252602a815260200180613a4a602a913960400191505060405180910390fd5b60006131ad61357b565b6131b68561267e565b9050600081600001516131cb576000196131ce565b60015b905060006131e98360200151876129c490919063ffffffff16565b604084015190915060009061322090611b8d670de0b6b3a76400006132148a8463ffffffff61335f16565b9063ffffffff6129c416565b90506000613284670de0b6b3a7640000611b8d600854600460009054906101000a90046001600160a01b03166001600160a01b03166318160ddd6040518163ffffffff1660e01b815260040160206040518083038186803b158015611b5557600080fd5b905060006132aa670de0b6b3a7640000611b8d8181876132148a8c63ffffffff6129c416565b9050818113156132b75750805b9998505050505050505050565b5490565b8154600090821061330a5760405162461bcd60e51b81526004018080602001828103825260228152602001806136816022913960400191505060405180910390fd5b82600001828154811061331957fe5b9060005260206000200154905092915050565b6000611aec83836133c4565b60009081526001919091016020526040902054151590565b6060613018848460008561340e565b60008183038183128015906133745750838113155b80613389575060008312801561338957508381135b611aec5760405162461bcd60e51b8152600401808060200182810382526024815260200180613a266024913960400191505060405180910390fd5b60006133d08383613338565b61340657508154600181810184556000848152602080822090930184905584548482528286019093526040902091909155610ac1565b506000610ac1565b606061341985612fe4565b61346a576040805162461bcd60e51b815260206004820152601d60248201527f416464726573733a2063616c6c20746f206e6f6e2d636f6e7472616374000000604482015290519081900360640190fd5b60006060866001600160a01b031685876040518082805190602001908083835b602083106134a95780518252601f19909201916020918201910161348a565b6001836020036101000a03801982511681845116808217855250505050505090500191505060006040518083038185875af1925050503d806000811461350b576040519150601f19603f3d011682016040523d82523d6000602084013e613510565b606091505b509150915081156135245791506130189050565b8051156135345780518082602001fd5b60405162461bcd60e51b8152602060048201818152865160248401528651879391928392604401919085019080838360008315612151578181015183820152602001612139565b604051806060016040528060001515815260200160008152602001600081525090565b60e01c90565b600060443d10156135b4576119c6565b600481823e6308c379a06135c8825161359e565b146135d2576119c6565b6040513d600319016004823e80513d67ffffffffffffffff816024840111818411171561360257505050506119c6565b8284019150815192508083111561361c57505050506119c6565b503d83016020838301011115613634575050506119c6565b601f91909101601f191681016020016040529150509056fe455243313135353a207472616e7366657220746f206e6f6e2045524331313535526563656976657220696d706c656d656e746572456e756d657261626c655365743a20696e646578206f7574206f6620626f756e6473455243313135353a204552433131353552656365697665722072656a656374656420746f6b656e734f564c46506f736974696f6e3a20706f736974696f6e206d75737420626520756e6465727761746572455243313135353a2062616c616e636520717565727920666f7220746865207a65726f2061646472657373455243313135353a2062617463682062616c616e636520717565727920666f7220746865207a65726f2061646472657373455243313135353a206275726e20616d6f756e7420657863656564732062616c616e6365455243313135353a2063616c6c6572206973206e6f74206f776e6572206e6f7220617070726f7665644f564c46506f736974696f6e3a206d757374206275696c6420706f736974696f6e207769746820616d6f756e742067726561746572207468616e207a65726f4f564c46506f736974696f6e3a206d757374206275696c6420706f736974696f6e2077697468206c657665726167652067726561746572207468616e206d696e20616c6c6f7765644f564c46506f736974696f6e3a2063616c6c6572206973206e6f7420676f7665726e616e6365455243313135353a207472616e7366657220746f20746865207a65726f2061646472657373455243313135353a207472616e736665722063616c6c6572206973206e6f74206f776e6572206e6f7220617070726f7665645369676e6564536166654d6174683a206469766973696f6e206f766572666c6f77455243313135353a206275726e2066726f6d20746865207a65726f2061646472657373455243313135353a20696e73756666696369656e742062616c616e636520666f72207472616e73666572536166654d6174683a206d756c7469706c69636174696f6e206f766572666c6f775369676e6564536166654d6174683a206d756c7469706c69636174696f6e206f766572666c6f774f564c46506f736974696f6e3a20706f736974696f6e206d7573742065786973744f564c46506f736974696f6e3a206d75737420756e77696e6420706f736974696f6e207769746820616d6f756e742067726561746572207468616e207a65726f4f564c46506f736974696f6e3a206d757374206275696c6420706f736974696f6e2077697468206c65766572616765206c657373207468616e206d617820616c6c6f776564455243313135353a2073657474696e6720617070726f76616c2073746174757320666f722073656c665369676e6564536166654d6174683a207375627472616374696f6e206f766572666c6f775361666545524332303a204552433230206f7065726174696f6e20646964206e6f742073756363656564455243313135353a206163636f756e747320616e6420696473206c656e677468206d69736d61746368455243313135353a2069647320616e6420616d6f756e7473206c656e677468206d69736d61746368455243313135353a206d696e7420746f20746865207a65726f20616464726573734f564c46506f736974696f6e3a206e6f7420656e6f756768206c6f636b656420696e20706f6f6c20746f20756e77696e6420616d6f756e74a26469706673582212206c97b5b34e6d995744eeb1648f46166edf6f957b9c84ba2882cef61b049d22e064736f6c63430006080033536166654d6174683a206d756c7469706c69636174696f6e206f766572666c6f77",
  "bytecodeSha1": "da39a3ee5e6b4b0d3255bfef95601890afd80709",
  "compiler": {
    "evm_version": "istanbul",
    "optimizer": {
      "enabled": true,
      "runs": 200
    },
    "version": "0.6.8"
  },
  "contractName": "OVLFPosition",
  "language": "Solidity",
  "natspec": {
    "methods": {
      "balanceOf(address,uint256)": {
        "details": "See {IERC1155-balanceOf}.     * Requirements:     * - `account` cannot be the zero address."
      },
      "balanceOfBatch(address[],uint256[])": {
        "details": "See {IERC1155-balanceOfBatch}.     * Requirements:     * - `accounts` and `ids` must have the same length."
      },
      "isApprovedForAll(address,address)": {
        "details": "See {IERC1155-isApprovedForAll}."
      },
      "safeBatchTransferFrom(address,address,uint256[],uint256[],bytes)": {
        "details": "See {IERC1155-safeBatchTransferFrom}."
      },
      "safeTransferFrom(address,address,uint256,uint256,bytes)": {
        "details": "See {IERC1155-safeTransferFrom}."
      },
      "setApprovalForAll(address,bool)": {
        "details": "See {IERC1155-setApprovalForAll}."
      },
      "supportsInterface(bytes4)": {
        "details": "See {IERC165-supportsInterface}.     * Time complexity O(1), guaranteed to always use less than 30 000 gas."
      },
      "uri(uint256)": {
        "details": "See {IERC1155MetadataURI-uri}.     * This implementation returns the same URI for *all* token types. It relies on the token type ID substituion mechanism https://eips.ethereum.org/EIPS/eip-1155#metadata[defined in the EIP].     * Clients calling this function must replace the `\\{id\\}` substring with the actual token type ID."
      }
    }
  },
  "opcodes": "PUSH1 0x80 PUSH1 0x40 MSTORE CALLVALUE DUP1 ISZERO PUSH2 0x10 JUMPI PUSH1 0x0 DUP1 REVERT JUMPDEST POP PUSH1 0x4 CALLDATASIZE LT PUSH2 0x23C JUMPI PUSH1 0x0 CALLDATALOAD PUSH1 0xE0 SHR DUP1 PUSH4 0x6844CF58 GT PUSH2 0x13B JUMPI DUP1 PUSH4 0xDC032612 GT PUSH2 0xB8 JUMPI DUP1 PUSH4 0xF0F44260 GT PUSH2 0x7C JUMPI DUP1 PUSH4 0xF0F44260 EQ PUSH2 0x92B JUMPI DUP1 PUSH4 0xF242432A EQ PUSH2 0x951 JUMPI DUP1 PUSH4 0xF612E79F EQ PUSH2 0xA1A JUMPI DUP1 PUSH4 0xFC0C546A EQ PUSH2 0xA45 JUMPI DUP1 PUSH4 0xFCFFF16F EQ PUSH2 0xA4D JUMPI PUSH2 0x23C JUMP JUMPDEST DUP1 PUSH4 0xDC032612 EQ PUSH2 0x8D0 JUMPI DUP1 PUSH4 0xDDCAC83B EQ PUSH2 0x8ED JUMPI DUP1 PUSH4 0xE0176DE8 EQ PUSH2 0x8F5 JUMPI DUP1 PUSH4 0xE985E9C5 EQ PUSH2 0x8FD JUMPI DUP1 PUSH4 0xEC342AD0 EQ PUSH2 0x561 JUMPI PUSH2 0x23C JUMP JUMPDEST DUP1 PUSH4 0xAB033EA9 GT PUSH2 0xFF JUMPI DUP1 PUSH4 0xAB033EA9 EQ PUSH2 0x84B JUMPI DUP1 PUSH4 0xAE3302C2 EQ PUSH2 0x871 JUMPI DUP1 PUSH4 0xBC42E95F EQ PUSH2 0x879 JUMPI DUP1 PUSH4 0xD3127E63 EQ PUSH2 0x896 JUMPI DUP1 PUSH4 0xD7373C4E EQ PUSH2 0x8B3 JUMPI PUSH2 0x23C JUMP JUMPDEST DUP1 PUSH4 0x6844CF58 EQ PUSH2 0x7AA JUMPI DUP1 PUSH4 0xA226B483 EQ PUSH2 0x7D5 JUMPI DUP1 PUSH4 0xA22CB465 EQ PUSH2 0x7F2 JUMPI DUP1 PUSH4 0xA750A585 EQ PUSH2 0x820 JUMPI DUP1 PUSH4 0xA91A53B3 EQ PUSH2 0x843 JUMPI PUSH2 0x23C JUMP JUMPDEST DUP1 PUSH4 0x34C1557D GT PUSH2 0x1C9 JUMPI DUP1 PUSH4 0x55B775EA GT PUSH2 0x18D JUMPI DUP1 PUSH4 0x55B775EA EQ PUSH2 0x73A JUMPI DUP1 PUSH4 0x56B4997F EQ PUSH2 0x760 JUMPI DUP1 PUSH4 0x5A28AE02 EQ PUSH2 0x77D JUMPI DUP1 PUSH4 0x5AA6E675 EQ PUSH2 0x79A JUMPI DUP1 PUSH4 0x61D027B3 EQ PUSH2 0x7A2 JUMPI PUSH2 0x23C JUMP JUMPDEST DUP1 PUSH4 0x34C1557D EQ PUSH2 0x561 JUMPI DUP1 PUSH4 0x37A7B7D8 EQ PUSH2 0x569 JUMPI DUP1 PUSH4 0x415F1240 EQ PUSH2 0x58D JUMPI DUP1 PUSH4 0x4D08FF24 EQ PUSH2 0x5AA JUMPI DUP1 PUSH4 0x4E1273F4 EQ PUSH2 0x5C7 JUMPI PUSH2 0x23C JUMP JUMPDEST DUP1 PUSH4 0x10603023 GT PUSH2 0x210 JUMPI DUP1 PUSH4 0x10603023 EQ PUSH2 0x373 JUMPI DUP1 PUSH4 0x2154E6FC EQ PUSH2 0x390 JUMPI DUP1 PUSH4 0x24BA6556 EQ PUSH2 0x390 JUMPI DUP1 PUSH4 0x24BCDFBD EQ PUSH2 0x398 JUMPI DUP1 PUSH4 0x2EB2C2D6 EQ PUSH2 0x3A0 JUMPI PUSH2 0x23C JUMP JUMPDEST DUP1 PUSH3 0xFDD58E EQ PUSH2 0x241 JUMPI DUP1 PUSH4 0x1FFC9A7 EQ PUSH2 0x27F JUMPI DUP1 PUSH4 0xE89341C EQ PUSH2 0x2BA JUMPI DUP1 PUSH4 0xFC5962A EQ PUSH2 0x34C JUMPI JUMPDEST PUSH1 0x0 DUP1 REVERT JUMPDEST PUSH2 0x26D PUSH1 0x4 DUP1 CALLDATASIZE SUB PUSH1 0x40 DUP2 LT ISZERO PUSH2 0x257 JUMPI PUSH1 0x0 DUP1 REVERT JUMPDEST POP PUSH1 0x1 PUSH1 0x1 PUSH1 0xA0 SHL SUB DUP2 CALLDATALOAD AND SWAP1 PUSH1 0x20 ADD CALLDATALOAD PUSH2 0xA55 JUMP JUMPDEST PUSH1 0x40 DUP1 MLOAD SWAP2 DUP3 MSTORE MLOAD SWAP1 DUP2 SWAP1 SUB PUSH1 0x20 ADD SWAP1 RETURN JUMPDEST PUSH2 0x2A6 PUSH1 0x4 DUP1 CALLDATASIZE SUB PUSH1 0x20 DUP2 LT ISZERO PUSH2 0x295 JUMPI PUSH1 0x0 DUP1 REVERT JUMPDEST POP CALLDATALOAD PUSH1 0x1 PUSH1 0x1 PUSH1 0xE0 SHL SUB NOT AND PUSH2 0xAC7 JUMP JUMPDEST PUSH1 0x40 DUP1 MLOAD SWAP2 ISZERO ISZERO DUP3 MSTORE MLOAD SWAP1 DUP2 SWAP1 SUB PUSH1 0x20 ADD SWAP1 RETURN JUMPDEST PUSH2 0x2D7 PUSH1 0x4 DUP1 CALLDATASIZE SUB PUSH1 0x20 DUP2 LT ISZERO PUSH2 0x2D0 JUMPI PUSH1 0x0 DUP1 REVERT JUMPDEST POP CALLDATALOAD PUSH2 0xAE6 JUMP JUMPDEST PUSH1 0x40 DUP1 MLOAD PUSH1 0x20 DUP1 DUP3 MSTORE DUP4 MLOAD DUP2 DUP4 ADD MSTORE DUP4 MLOAD SWAP2 SWAP3 DUP4 SWAP3 SWAP1 DUP4 ADD SWAP2 DUP6 ADD SWAP1 DUP1 DUP4 DUP4 PUSH1 0x0 JUMPDEST DUP4 DUP2 LT ISZERO PUSH2 0x311 JUMPI DUP2 DUP2 ADD MLOAD DUP4 DUP3 ADD MSTORE PUSH1 0x20 ADD PUSH2 0x2F9 JUMP JUMPDEST POP POP POP POP SWAP1 POP SWAP1 DUP2 ADD SWAP1 PUSH1 0x1F AND DUP1 ISZERO PUSH2 0x33E JUMPI DUP1 DUP3 SUB DUP1 MLOAD PUSH1 0x1 DUP4 PUSH1 0x20 SUB PUSH2 0x100 EXP SUB NOT AND DUP2 MSTORE PUSH1 0x20 ADD SWAP2 POP JUMPDEST POP SWAP3 POP POP POP PUSH1 0x40 MLOAD DUP1 SWAP2 SUB SWAP1 RETURN JUMPDEST PUSH2 0x371 PUSH1 0x4 DUP1 CALLDATASIZE SUB PUSH1 0x40 DUP2 LT ISZERO PUSH2 0x362 JUMPI PUSH1 0x0 DUP1 REVERT JUMPDEST POP DUP1 CALLDATALOAD ISZERO ISZERO SWAP1 PUSH1 0x20 ADD CALLDATALOAD PUSH2 0xB7E JUMP JUMPDEST STOP JUMPDEST PUSH2 0x371 PUSH1 0x4 DUP1 CALLDATASIZE SUB PUSH1 0x20 DUP2 LT ISZERO PUSH2 0x389 JUMPI PUSH1 0x0 DUP1 REVERT JUMPDEST POP CALLDATALOAD PUSH2 0xC1E JUMP JUMPDEST PUSH2 0x26D PUSH2 0xC77 JUMP JUMPDEST PUSH2 0x26D PUSH2 0xC83 JUMP JUMPDEST PUSH2 0x371 PUSH1 0x4 DUP1 CALLDATASIZE SUB PUSH1 0xA0 DUP2 LT ISZERO PUSH2 0x3B6 JUMPI PUSH1 0x0 DUP1 REVERT JUMPDEST PUSH1 0x1 PUSH1 0x1 PUSH1 0xA0 SHL SUB DUP3 CALLDATALOAD DUP2 AND SWAP3 PUSH1 0x20 DUP2 ADD CALLDATALOAD SWAP1 SWAP2 AND SWAP2 DUP2 ADD SWAP1 PUSH1 0x60 DUP2 ADD PUSH1 0x40 DUP3 ADD CALLDATALOAD PUSH1 0x1 PUSH1 0x20 SHL DUP2 GT ISZERO PUSH2 0x3E9 JUMPI PUSH1 0x0 DUP1 REVERT JUMPDEST DUP3 ADD DUP4 PUSH1 0x20 DUP3 ADD GT ISZERO PUSH2 0x3FB JUMPI PUSH1 0x0 DUP1 REVERT JUMPDEST DUP1 CALLDATALOAD SWAP1 PUSH1 0x20 ADD SWAP2 DUP5 PUSH1 0x20 DUP4 MUL DUP5 ADD GT PUSH1 0x1 PUSH1 0x20 SHL DUP4 GT OR ISZERO PUSH2 0x41C JUMPI PUSH1 0x0 DUP1 REVERT JUMPDEST SWAP2 SWAP1 DUP1 DUP1 PUSH1 0x20 MUL PUSH1 0x20 ADD PUSH1 0x40 MLOAD SWAP1 DUP2 ADD PUSH1 0x40 MSTORE DUP1 SWAP4 SWAP3 SWAP2 SWAP1 DUP2 DUP2 MSTORE PUSH1 0x20 ADD DUP4 DUP4 PUSH1 0x20 MUL DUP1 DUP3 DUP5 CALLDATACOPY PUSH1 0x0 SWAP3 ADD SWAP2 SWAP1 SWAP2 MSTORE POP SWAP3 SWAP6 SWAP5 SWAP4 PUSH1 0x20 DUP2 ADD SWAP4 POP CALLDATALOAD SWAP2 POP POP PUSH1 0x1 PUSH1 0x20 SHL DUP2 GT ISZERO PUSH2 0x46B JUMPI PUSH1 0x0 DUP1 REVERT JUMPDEST DUP3 ADD DUP4 PUSH1 0x20 DUP3 ADD GT ISZERO PUSH2 0x47D JUMPI PUSH1 0x0 DUP1 REVERT JUMPDEST DUP1 CALLDATALOAD SWAP1 PUSH1 0x20 ADD SWAP2 DUP5 PUSH1 0x20 DUP4 MUL DUP5 ADD GT PUSH1 0x1 PUSH1 0x20 SHL DUP4 GT OR ISZERO PUSH2 0x49E JUMPI PUSH1 0x0 DUP1 REVERT JUMPDEST SWAP2 SWAP1 DUP1 DUP1 PUSH1 0x20 MUL PUSH1 0x20 ADD PUSH1 0x40 MLOAD SWAP1 DUP2 ADD PUSH1 0x40 MSTORE DUP1 SWAP4 SWAP3 SWAP2 SWAP1 DUP2 DUP2 MSTORE PUSH1 0x20 ADD DUP4 DUP4 PUSH1 0x20 MUL DUP1 DUP3 DUP5 CALLDATACOPY PUSH1 0x0 SWAP3 ADD SWAP2 SWAP1 SWAP2 MSTORE POP SWAP3 SWAP6 SWAP5 SWAP4 PUSH1 0x20 DUP2 ADD SWAP4 POP CALLDATALOAD SWAP2 POP POP PUSH1 0x1 PUSH1 0x20 SHL DUP2 GT ISZERO PUSH2 0x4ED JUMPI PUSH1 0x0 DUP1 REVERT JUMPDEST DUP3 ADD DUP4 PUSH1 0x20 DUP3 ADD GT ISZERO PUSH2 0x4FF JUMPI PUSH1 0x0 DUP1 REVERT JUMPDEST DUP1 CALLDATALOAD SWAP1 PUSH1 0x20 ADD SWAP2 DUP5 PUSH1 0x1 DUP4 MUL DUP5 ADD GT PUSH1 0x1 PUSH1 0x20 SHL DUP4 GT OR ISZERO PUSH2 0x520 JUMPI PUSH1 0x0 DUP1 REVERT JUMPDEST SWAP2 SWAP1 DUP1 DUP1 PUSH1 0x1F ADD PUSH1 0x20 DUP1 SWAP2 DIV MUL PUSH1 0x20 ADD PUSH1 0x40 MLOAD SWAP1 DUP2 ADD PUSH1 0x40 MSTORE DUP1 SWAP4 SWAP3 SWAP2 SWAP1 DUP2 DUP2 MSTORE PUSH1 0x20 ADD DUP4 DUP4 DUP1 DUP3 DUP5 CALLDATACOPY PUSH1 0x0 SWAP3 ADD SWAP2 SWAP1 SWAP2 MSTORE POP SWAP3 SWAP6 POP PUSH2 0xC89 SWAP5 POP POP POP POP POP JUMP JUMPDEST PUSH2 0x26D PUSH2 0xF87 JUMP JUMPDEST PUSH2 0x571 PUSH2 0xF93 JUMP JUMPDEST PUSH1 0x40 DUP1 MLOAD PUSH1 0x1 PUSH1 0x1 PUSH1 0xA0 SHL SUB SWAP1 SWAP3 AND DUP3 MSTORE MLOAD SWAP1 DUP2 SWAP1 SUB PUSH1 0x20 ADD SWAP1 RETURN JUMPDEST PUSH2 0x371 PUSH1 0x4 DUP1 CALLDATASIZE SUB PUSH1 0x20 DUP2 LT ISZERO PUSH2 0x5A3 JUMPI PUSH1 0x0 DUP1 REVERT JUMPDEST POP CALLDATALOAD PUSH2 0xFA2 JUMP JUMPDEST PUSH2 0x26D PUSH1 0x4 DUP1 CALLDATASIZE SUB PUSH1 0x20 DUP2 LT ISZERO PUSH2 0x5C0 JUMPI PUSH1 0x0 DUP1 REVERT JUMPDEST POP CALLDATALOAD PUSH2 0x1220 JUMP JUMPDEST PUSH2 0x6EA PUSH1 0x4 DUP1 CALLDATASIZE SUB PUSH1 0x40 DUP2 LT ISZERO PUSH2 0x5DD JUMPI PUSH1 0x0 DUP1 REVERT JUMPDEST DUP2 ADD SWAP1 PUSH1 0x20 DUP2 ADD DUP2 CALLDATALOAD PUSH1 0x1 PUSH1 0x20 SHL DUP2 GT ISZERO PUSH2 0x5F7 JUMPI PUSH1 0x0 DUP1 REVERT JUMPDEST DUP3 ADD DUP4 PUSH1 0x20 DUP3 ADD GT ISZERO PUSH2 0x609 JUMPI PUSH1 0x0 DUP1 REVERT JUMPDEST DUP1 CALLDATALOAD SWAP1 PUSH1 0x20 ADD SWAP2 DUP5 PUSH1 0x20 DUP4 MUL DUP5 ADD GT PUSH1 0x1 PUSH1 0x20 SHL DUP4 GT OR ISZERO PUSH2 0x62A JUMPI PUSH1 0x0 DUP1 REVERT JUMPDEST SWAP2 SWAP1 DUP1 DUP1 PUSH1 0x20 MUL PUSH1 0x20 ADD PUSH1 0x40 MLOAD SWAP1 DUP2 ADD PUSH1 0x40 MSTORE DUP1 SWAP4 SWAP3 SWAP2 SWAP1 DUP2 DUP2 MSTORE PUSH1 0x20 ADD DUP4 DUP4 PUSH1 0x20 MUL DUP1 DUP3 DUP5 CALLDATACOPY PUSH1 0x0 SWAP3 ADD SWAP2 SWAP1 SWAP2 MSTORE POP SWAP3 SWAP6 SWAP5 SWAP4 PUSH1 0x20 DUP2 ADD SWAP4 POP CALLDATALOAD SWAP2 POP POP PUSH1 0x1 PUSH1 0x20 SHL DUP2 GT ISZERO PUSH2 0x679 JUMPI PUSH1 0x0 DUP1 REVERT JUMPDEST DUP3 ADD DUP4 PUSH1 0x20 DUP3 ADD GT ISZERO PUSH2 0x68B JUMPI PUSH1 0x0 DUP1 REVERT JUMPDEST DUP1 CALLDATALOAD SWAP1 PUSH1 0x20 ADD SWAP2 DUP5 PUSH1 0x20 DUP4 MUL DUP5 ADD GT PUSH1 0x1 PUSH1 0x20 SHL DUP4 GT OR ISZERO PUSH2 0x6AC JUMPI PUSH1 0x0 DUP1 REVERT JUMPDEST SWAP2 SWAP1 DUP1 DUP1 PUSH1 0x20 MUL PUSH1 0x20 ADD PUSH1 0x40 MLOAD SWAP1 DUP2 ADD PUSH1 0x40 MSTORE DUP1 SWAP4 SWAP3 SWAP2 SWAP1 DUP2 DUP2 MSTORE PUSH1 0x20 ADD DUP4 DUP4 PUSH1 0x20 MUL DUP1 DUP3 DUP5 CALLDATACOPY PUSH1 0x0 SWAP3 ADD SWAP2 SWAP1 SWAP2 MSTORE POP SWAP3 SWAP6 POP PUSH2 0x123E SWAP5 POP POP POP POP POP JUMP JUMPDEST PUSH1 0x40 DUP1 MLOAD PUSH1 0x20 DUP1 DUP3 MSTORE DUP4 MLOAD DUP2 DUP4 ADD MSTORE DUP4 MLOAD SWAP2 SWAP3 DUP4 SWAP3 SWAP1 DUP4 ADD SWAP2 DUP6 DUP2 ADD SWAP2 MUL DUP1 DUP4 DUP4 PUSH1 0x0 JUMPDEST DUP4 DUP2 LT ISZERO PUSH2 0x726 JUMPI DUP2 DUP2 ADD MLOAD DUP4 DUP3 ADD MSTORE PUSH1 0x20 ADD PUSH2 0x70E JUMP JUMPDEST POP POP POP POP SWAP1 POP ADD SWAP3 POP POP POP PUSH1 0x40 MLOAD DUP1 SWAP2 SUB SWAP1 RETURN JUMPDEST PUSH2 0x371 PUSH1 0x4 DUP1 CALLDATASIZE SUB PUSH1 0x20 DUP2 LT ISZERO PUSH2 0x750 JUMPI PUSH1 0x0 DUP1 REVERT JUMPDEST POP CALLDATALOAD PUSH1 0x1 PUSH1 0x1 PUSH1 0xA0 SHL SUB AND PUSH2 0x13BC JUMP JUMPDEST PUSH2 0x371 PUSH1 0x4 DUP1 CALLDATASIZE SUB PUSH1 0x20 DUP2 LT ISZERO PUSH2 0x776 JUMPI PUSH1 0x0 DUP1 REVERT JUMPDEST POP CALLDATALOAD PUSH2 0x1432 JUMP JUMPDEST PUSH2 0x371 PUSH1 0x4 DUP1 CALLDATASIZE SUB PUSH1 0x20 DUP2 LT ISZERO PUSH2 0x793 JUMPI PUSH1 0x0 DUP1 REVERT JUMPDEST POP CALLDATALOAD PUSH2 0x148B JUMP JUMPDEST PUSH2 0x571 PUSH2 0x14AE JUMP JUMPDEST PUSH2 0x571 PUSH2 0x14BD JUMP JUMPDEST PUSH2 0x26D PUSH1 0x4 DUP1 CALLDATASIZE SUB PUSH1 0x60 DUP2 LT ISZERO PUSH2 0x7C0 JUMPI PUSH1 0x0 DUP1 REVERT JUMPDEST POP DUP1 CALLDATALOAD ISZERO ISZERO SWAP1 PUSH1 0x20 DUP2 ADD CALLDATALOAD SWAP1 PUSH1 0x40 ADD CALLDATALOAD PUSH2 0x14CC JUMP JUMPDEST PUSH2 0x2A6 PUSH1 0x4 DUP1 CALLDATASIZE SUB PUSH1 0x20 DUP2 LT ISZERO PUSH2 0x7EB JUMPI PUSH1 0x0 DUP1 REVERT JUMPDEST POP CALLDATALOAD PUSH2 0x150A JUMP JUMPDEST PUSH2 0x371 PUSH1 0x4 DUP1 CALLDATASIZE SUB PUSH1 0x40 DUP2 LT ISZERO PUSH2 0x808 JUMPI PUSH1 0x0 DUP1 REVERT JUMPDEST POP PUSH1 0x1 PUSH1 0x1 PUSH1 0xA0 SHL SUB DUP2 CALLDATALOAD AND SWAP1 PUSH1 0x20 ADD CALLDATALOAD ISZERO ISZERO PUSH2 0x1525 JUMP JUMPDEST PUSH2 0x371 PUSH1 0x4 DUP1 CALLDATASIZE SUB PUSH1 0x40 DUP2 LT ISZERO PUSH2 0x836 JUMPI PUSH1 0x0 DUP1 REVERT JUMPDEST POP DUP1 CALLDATALOAD SWAP1 PUSH1 0x20 ADD CALLDATALOAD PUSH2 0x1614 JUMP JUMPDEST PUSH2 0x6EA PUSH2 0x1897 JUMP JUMPDEST PUSH2 0x371 PUSH1 0x4 DUP1 CALLDATASIZE SUB PUSH1 0x20 DUP2 LT ISZERO PUSH2 0x861 JUMPI PUSH1 0x0 DUP1 REVERT JUMPDEST POP CALLDATALOAD PUSH1 0x1 PUSH1 0x1 PUSH1 0xA0 SHL SUB AND PUSH2 0x19C9 JUMP JUMPDEST PUSH2 0x26D PUSH2 0x1A3F JUMP JUMPDEST PUSH2 0x26D PUSH1 0x4 DUP1 CALLDATASIZE SUB PUSH1 0x20 DUP2 LT ISZERO PUSH2 0x88F JUMPI PUSH1 0x0 DUP1 REVERT JUMPDEST POP CALLDATALOAD PUSH2 0x1A45 JUMP JUMPDEST PUSH2 0x371 PUSH1 0x4 DUP1 CALLDATASIZE SUB PUSH1 0x20 DUP2 LT ISZERO PUSH2 0x8AC JUMPI PUSH1 0x0 DUP1 REVERT JUMPDEST POP CALLDATALOAD PUSH2 0x1A57 JUMP JUMPDEST PUSH2 0x26D PUSH1 0x4 DUP1 CALLDATASIZE SUB PUSH1 0x20 DUP2 LT ISZERO PUSH2 0x8C9 JUMPI PUSH1 0x0 DUP1 REVERT JUMPDEST POP CALLDATALOAD PUSH2 0x1AB0 JUMP JUMPDEST PUSH2 0x26D PUSH1 0x4 DUP1 CALLDATASIZE SUB PUSH1 0x20 DUP2 LT ISZERO PUSH2 0x8E6 JUMPI PUSH1 0x0 DUP1 REVERT JUMPDEST POP CALLDATALOAD PUSH2 0x1ACE JUMP JUMPDEST PUSH2 0x26D PUSH2 0x1AF3 JUMP JUMPDEST PUSH2 0x26D PUSH2 0x1B9E JUMP JUMPDEST PUSH2 0x2A6 PUSH1 0x4 DUP1 CALLDATASIZE SUB PUSH1 0x40 DUP2 LT ISZERO PUSH2 0x913 JUMPI PUSH1 0x0 DUP1 REVERT JUMPDEST POP PUSH1 0x1 PUSH1 0x1 PUSH1 0xA0 SHL SUB DUP2 CALLDATALOAD DUP2 AND SWAP2 PUSH1 0x20 ADD CALLDATALOAD AND PUSH2 0x1BA4 JUMP JUMPDEST PUSH2 0x371 PUSH1 0x4 DUP1 CALLDATASIZE SUB PUSH1 0x20 DUP2 LT ISZERO PUSH2 0x941 JUMPI PUSH1 0x0 DUP1 REVERT JUMPDEST POP CALLDATALOAD PUSH1 0x1 PUSH1 0x1 PUSH1 0xA0 SHL SUB AND PUSH2 0x1BD2 JUMP JUMPDEST PUSH2 0x371 PUSH1 0x4 DUP1 CALLDATASIZE SUB PUSH1 0xA0 DUP2 LT ISZERO PUSH2 0x967 JUMPI PUSH1 0x0 DUP1 REVERT JUMPDEST PUSH1 0x1 PUSH1 0x1 PUSH1 0xA0 SHL SUB DUP3 CALLDATALOAD DUP2 AND SWAP3 PUSH1 0x20 DUP2 ADD CALLDATALOAD SWAP1 SWAP2 AND SWAP2 PUSH1 0x40 DUP3 ADD CALLDATALOAD SWAP2 PUSH1 0x60 DUP2 ADD CALLDATALOAD SWAP2 DUP2 ADD SWAP1 PUSH1 0xA0 DUP2 ADD PUSH1 0x80 DUP3 ADD CALLDATALOAD PUSH1 0x1 PUSH1 0x20 SHL DUP2 GT ISZERO PUSH2 0x9A6 JUMPI PUSH1 0x0 DUP1 REVERT JUMPDEST DUP3 ADD DUP4 PUSH1 0x20 DUP3 ADD GT ISZERO PUSH2 0x9B8 JUMPI PUSH1 0x0 DUP1 REVERT JUMPDEST DUP1 CALLDATALOAD SWAP1 PUSH1 0x20 ADD SWAP2 DUP5 PUSH1 0x1 DUP4 MUL DUP5 ADD GT PUSH1 0x1 PUSH1 0x20 SHL DUP4 GT OR ISZERO PUSH2 0x9D9 JUMPI PUSH1 0x0 DUP1 REVERT JUMPDEST SWAP2 SWAP1 DUP1 DUP1 PUSH1 0x1F ADD PUSH1 0x20 DUP1 SWAP2 DIV MUL PUSH1 0x20 ADD PUSH1 0x40 MLOAD SWAP1 DUP2 ADD PUSH1 0x40 MSTORE DUP1 SWAP4 SWAP3 SWAP2 SWAP1 DUP2 DUP2 MSTORE PUSH1 0x20 ADD DUP4 DUP4 DUP1 DUP3 DUP5 CALLDATACOPY PUSH1 0x0 SWAP3 ADD SWAP2 SWAP1 SWAP2 MSTORE POP SWAP3 SWAP6 POP PUSH2 0x1C48 SWAP5 POP POP POP POP POP JUMP JUMPDEST PUSH2 0x371 PUSH1 0x4 DUP1 CALLDATASIZE SUB PUSH1 0x60 DUP2 LT ISZERO PUSH2 0xA30 JUMPI PUSH1 0x0 DUP1 REVERT JUMPDEST POP DUP1 CALLDATALOAD SWAP1 PUSH1 0x20 DUP2 ADD CALLDATALOAD ISZERO ISZERO SWAP1 PUSH1 0x40 ADD CALLDATALOAD PUSH2 0x1E19 JUMP JUMPDEST PUSH2 0x571 PUSH2 0x1FAF JUMP JUMPDEST PUSH2 0x6EA PUSH2 0x1FBE JUMP JUMPDEST PUSH1 0x0 PUSH1 0x1 PUSH1 0x1 PUSH1 0xA0 SHL SUB DUP4 AND PUSH2 0xA9C JUMPI PUSH1 0x40 MLOAD PUSH3 0x461BCD PUSH1 0xE5 SHL DUP2 MSTORE PUSH1 0x4 ADD DUP1 DUP1 PUSH1 0x20 ADD DUP3 DUP2 SUB DUP3 MSTORE PUSH1 0x2B DUP2 MSTORE PUSH1 0x20 ADD DUP1 PUSH2 0x36F4 PUSH1 0x2B SWAP2 CODECOPY PUSH1 0x40 ADD SWAP2 POP POP PUSH1 0x40 MLOAD DUP1 SWAP2 SUB SWAP1 REVERT JUMPDEST POP PUSH1 0x0 DUP2 DUP2 MSTORE PUSH1 0x1 PUSH1 0x20 SWAP1 DUP2 MSTORE PUSH1 0x40 DUP1 DUP4 KECCAK256 PUSH1 0x1 PUSH1 0x1 PUSH1 0xA0 SHL SUB DUP7 AND DUP5 MSTORE SWAP1 SWAP2 MSTORE SWAP1 KECCAK256 SLOAD JUMPDEST SWAP3 SWAP2 POP POP JUMP JUMPDEST PUSH1 0x1 PUSH1 0x1 PUSH1 0xE0 SHL SUB NOT AND PUSH1 0x0 SWAP1 DUP2 MSTORE PUSH1 0x20 DUP2 SWAP1 MSTORE PUSH1 0x40 SWAP1 KECCAK256 SLOAD PUSH1 0xFF AND SWAP1 JUMP JUMPDEST PUSH1 0x3 DUP1 SLOAD PUSH1 0x40 DUP1 MLOAD PUSH1 0x20 PUSH1 0x1F PUSH1 0x2 PUSH1 0x0 NOT PUSH2 0x100 PUSH1 0x1 DUP9 AND ISZERO MUL ADD SWAP1 SWAP6 AND SWAP5 SWAP1 SWAP5 DIV SWAP4 DUP5 ADD DUP2 SWAP1 DIV DUP2 MUL DUP3 ADD DUP2 ADD SWAP1 SWAP3 MSTORE DUP3 DUP2 MSTORE PUSH1 0x60 SWAP4 SWAP1 SWAP3 SWAP1 SWAP2 DUP4 ADD DUP3 DUP3 DUP1 ISZERO PUSH2 0xB72 JUMPI DUP1 PUSH1 0x1F LT PUSH2 0xB47 JUMPI PUSH2 0x100 DUP1 DUP4 SLOAD DIV MUL DUP4 MSTORE SWAP2 PUSH1 0x20 ADD SWAP2 PUSH2 0xB72 JUMP JUMPDEST DUP3 ADD SWAP2 SWAP1 PUSH1 0x0 MSTORE PUSH1 0x20 PUSH1 0x0 KECCAK256 SWAP1 JUMPDEST DUP2 SLOAD DUP2 MSTORE SWAP1 PUSH1 0x1 ADD SWAP1 PUSH1 0x20 ADD DUP1 DUP4 GT PUSH2 0xB55 JUMPI DUP3 SWAP1 SUB PUSH1 0x1F AND DUP3 ADD SWAP2 JUMPDEST POP POP POP POP POP SWAP1 POP SWAP2 SWAP1 POP JUMP JUMPDEST PUSH1 0x4 SLOAD PUSH1 0x0 SWAP1 PUSH1 0x1 PUSH1 0x1 PUSH1 0xA0 SHL SUB AND PUSH4 0x70A08231 PUSH2 0xB9A PUSH2 0x20F9 JUMP JUMPDEST PUSH1 0x40 MLOAD DUP3 PUSH4 0xFFFFFFFF AND PUSH1 0xE0 SHL DUP2 MSTORE PUSH1 0x4 ADD DUP1 DUP3 PUSH1 0x1 PUSH1 0x1 PUSH1 0xA0 SHL SUB AND PUSH1 0x1 PUSH1 0x1 PUSH1 0xA0 SHL SUB AND DUP2 MSTORE PUSH1 0x20 ADD SWAP2 POP POP PUSH1 0x20 PUSH1 0x40 MLOAD DUP1 DUP4 SUB DUP2 DUP7 DUP1 EXTCODESIZE ISZERO DUP1 ISZERO PUSH2 0xBE0 JUMPI PUSH1 0x0 DUP1 REVERT JUMPDEST POP GAS STATICCALL ISZERO DUP1 ISZERO PUSH2 0xBF4 JUMPI RETURNDATASIZE PUSH1 0x0 DUP1 RETURNDATACOPY RETURNDATASIZE PUSH1 0x0 REVERT JUMPDEST POP POP POP POP PUSH1 0x40 MLOAD RETURNDATASIZE PUSH1 0x20 DUP2 LT ISZERO PUSH2 0xC0A JUMPI PUSH1 0x0 DUP1 REVERT JUMPDEST POP MLOAD SWAP1 POP PUSH2 0xC19 DUP2 DUP5 DUP5 PUSH2 0x1E19 JUMP JUMPDEST POP POP POP JUMP JUMPDEST PUSH2 0xC26 PUSH2 0x20F9 JUMP JUMPDEST PUSH1 0x9 SLOAD PUSH1 0x1 PUSH1 0x1 PUSH1 0xA0 SHL SUB SWAP1 DUP2 AND SWAP2 AND EQ PUSH2 0xC72 JUMPI PUSH1 0x40 MLOAD PUSH3 0x461BCD PUSH1 0xE5 SHL DUP2 MSTORE PUSH1 0x4 ADD DUP1 DUP1 PUSH1 0x20 ADD DUP3 DUP2 SUB DUP3 MSTORE PUSH1 0x26 DUP2 MSTORE PUSH1 0x20 ADD DUP1 PUSH2 0x3824 PUSH1 0x26 SWAP2 CODECOPY PUSH1 0x40 ADD SWAP2 POP POP PUSH1 0x40 MLOAD DUP1 SWAP2 SUB SWAP1 REVERT JUMPDEST PUSH1 0x7 SSTORE JUMP JUMPDEST PUSH8 0x6F05B59D3B20000 DUP2 JUMP JUMPDEST PUSH1 0x7 SLOAD DUP2 JUMP JUMPDEST DUP2 MLOAD DUP4 MLOAD EQ PUSH2 0xCC9 JUMPI PUSH1 0x40 MLOAD PUSH3 0x461BCD PUSH1 0xE5 SHL DUP2 MSTORE PUSH1 0x4 ADD DUP1 DUP1 PUSH1 0x20 ADD DUP3 DUP2 SUB DUP3 MSTORE PUSH1 0x28 DUP2 MSTORE PUSH1 0x20 ADD DUP1 PUSH2 0x3A9D PUSH1 0x28 SWAP2 CODECOPY PUSH1 0x40 ADD SWAP2 POP POP PUSH1 0x40 MLOAD DUP1 SWAP2 SUB SWAP1 REVERT JUMPDEST PUSH1 0x1 PUSH1 0x1 PUSH1 0xA0 SHL SUB DUP5 AND PUSH2 0xD0E JUMPI PUSH1 0x40 MLOAD PUSH3 0x461BCD PUSH1 0xE5 SHL DUP2 MSTORE PUSH1 0x4 ADD DUP1 DUP1 PUSH1 0x20 ADD DUP3 DUP2 SUB DUP3 MSTORE PUSH1 0x25 DUP2 MSTORE PUSH1 0x20 ADD DUP1 PUSH2 0x384A PUSH1 0x25 SWAP2 CODECOPY PUSH1 0x40 ADD SWAP2 POP POP PUSH1 0x40 MLOAD DUP1 SWAP2 SUB SWAP1 REVERT JUMPDEST PUSH2 0xD16 PUSH2 0x20F9 JUMP JUMPDEST PUSH1 0x1 PUSH1 0x1 PUSH1 0xA0 SHL SUB AND DUP6 PUSH1 0x1 PUSH1 0x1 PUSH1 0xA0 SHL SUB AND EQ DUP1 PUSH2 0xD41 JUMPI POP PUSH2 0xD41 DUP6 PUSH2 0xD3C PUSH2 0x20F9 JUMP JUMPDEST PUSH2 0x1BA4 JUMP JUMPDEST PUSH2 0xD7C JUMPI PUSH1 0x40 MLOAD PUSH3 0x461BCD PUSH1 0xE5 SHL DUP2 MSTORE PUSH1 0x4 ADD DUP1 DUP1 PUSH1 0x20 ADD DUP3 DUP2 SUB DUP3 MSTORE PUSH1 0x32 DUP2 MSTORE PUSH1 0x20 ADD DUP1 PUSH2 0x386F PUSH1 0x32 SWAP2 CODECOPY PUSH1 0x40 ADD SWAP2 POP POP PUSH1 0x40 MLOAD DUP1 SWAP2 SUB SWAP1 REVERT JUMPDEST PUSH1 0x0 PUSH2 0xD86 PUSH2 0x20F9 JUMP JUMPDEST SWAP1 POP PUSH2 0xD96 DUP2 DUP8 DUP8 DUP8 DUP8 DUP8 PUSH2 0xF7F JUMP JUMPDEST PUSH1 0x0 JUMPDEST DUP5 MLOAD DUP2 LT ISZERO PUSH2 0xE97 JUMPI PUSH1 0x0 DUP6 DUP3 DUP2 MLOAD DUP2 LT PUSH2 0xDB0 JUMPI INVALID JUMPDEST PUSH1 0x20 MUL PUSH1 0x20 ADD ADD MLOAD SWAP1 POP PUSH1 0x0 DUP6 DUP4 DUP2 MLOAD DUP2 LT PUSH2 0xDC8 JUMPI INVALID JUMPDEST PUSH1 0x20 MUL PUSH1 0x20 ADD ADD MLOAD SWAP1 POP PUSH2 0xE35 DUP2 PUSH1 0x40 MLOAD DUP1 PUSH1 0x60 ADD PUSH1 0x40 MSTORE DUP1 PUSH1 0x2A DUP2 MSTORE PUSH1 0x20 ADD PUSH2 0x38E5 PUSH1 0x2A SWAP2 CODECOPY PUSH1 0x1 PUSH1 0x0 DUP7 DUP2 MSTORE PUSH1 0x20 ADD SWAP1 DUP2 MSTORE PUSH1 0x20 ADD PUSH1 0x0 KECCAK256 PUSH1 0x0 DUP14 PUSH1 0x1 PUSH1 0x1 PUSH1 0xA0 SHL SUB AND PUSH1 0x1 PUSH1 0x1 PUSH1 0xA0 SHL SUB AND DUP2 MSTORE PUSH1 0x20 ADD SWAP1 DUP2 MSTORE PUSH1 0x20 ADD PUSH1 0x0 KECCAK256 SLOAD PUSH2 0x20FD SWAP1 SWAP3 SWAP2 SWAP1 PUSH4 0xFFFFFFFF AND JUMP JUMPDEST PUSH1 0x0 DUP4 DUP2 MSTORE PUSH1 0x1 PUSH1 0x20 SWAP1 DUP2 MSTORE PUSH1 0x40 DUP1 DUP4 KECCAK256 PUSH1 0x1 PUSH1 0x1 PUSH1 0xA0 SHL SUB DUP15 DUP2 AND DUP6 MSTORE SWAP3 MSTORE DUP1 DUP4 KECCAK256 SWAP4 SWAP1 SWAP4 SSTORE DUP11 AND DUP2 MSTORE KECCAK256 SLOAD PUSH2 0xE6C SWAP1 DUP3 PUSH2 0x2194 JUMP JUMPDEST PUSH1 0x0 SWAP3 DUP4 MSTORE PUSH1 0x1 PUSH1 0x20 DUP2 DUP2 MSTORE PUSH1 0x40 DUP1 DUP7 KECCAK256 PUSH1 0x1 PUSH1 0x1 PUSH1 0xA0 SHL SUB DUP14 AND DUP8 MSTORE SWAP1 SWAP2 MSTORE SWAP1 SWAP4 KECCAK256 SSTORE POP ADD PUSH2 0xD99 JUMP JUMPDEST POP DUP5 PUSH1 0x1 PUSH1 0x1 PUSH1 0xA0 SHL SUB AND DUP7 PUSH1 0x1 PUSH1 0x1 PUSH1 0xA0 SHL SUB AND DUP3 PUSH1 0x1 PUSH1 0x1 PUSH1 0xA0 SHL SUB AND PUSH32 0x4A39DC06D4C0DBC64B70AF90FD698A233A518AA5D07E595D983B8C0526C8F7FB DUP8 DUP8 PUSH1 0x40 MLOAD DUP1 DUP1 PUSH1 0x20 ADD DUP1 PUSH1 0x20 ADD DUP4 DUP2 SUB DUP4 MSTORE DUP6 DUP2 DUP2 MLOAD DUP2 MSTORE PUSH1 0x20 ADD SWAP2 POP DUP1 MLOAD SWAP1 PUSH1 0x20 ADD SWAP1 PUSH1 0x20 MUL DUP1 DUP4 DUP4 PUSH1 0x0 JUMPDEST DUP4 DUP2 LT ISZERO PUSH2 0xF1D JUMPI DUP2 DUP2 ADD MLOAD DUP4 DUP3 ADD MSTORE PUSH1 0x20 ADD PUSH2 0xF05 JUMP JUMPDEST POP POP POP POP SWAP1 POP ADD DUP4 DUP2 SUB DUP3 MSTORE DUP5 DUP2 DUP2 MLOAD DUP2 MSTORE PUSH1 0x20 ADD SWAP2 POP DUP1 MLOAD SWAP1 PUSH1 0x20 ADD SWAP1 PUSH1 0x20 MUL DUP1 DUP4 DUP4 PUSH1 0x0 JUMPDEST DUP4 DUP2 LT ISZERO PUSH2 0xF5C JUMPI DUP2 DUP2 ADD MLOAD DUP4 DUP3 ADD MSTORE PUSH1 0x20 ADD PUSH2 0xF44 JUMP JUMPDEST POP POP POP POP SWAP1 POP ADD SWAP5 POP POP POP POP POP PUSH1 0x40 MLOAD DUP1 SWAP2 SUB SWAP1 LOG4 PUSH2 0xF7F DUP2 DUP8 DUP8 DUP8 DUP8 DUP8 PUSH2 0x21EE JUMP JUMPDEST POP POP POP POP POP POP JUMP JUMPDEST PUSH8 0xDE0B6B3A7640000 DUP2 JUMP JUMPDEST PUSH1 0x5 SLOAD PUSH1 0x1 PUSH1 0x1 PUSH1 0xA0 SHL SUB AND DUP2 JUMP JUMPDEST PUSH2 0xFAB DUP2 PUSH2 0x247F JUMP JUMPDEST PUSH2 0xFE6 JUMPI PUSH1 0x40 MLOAD PUSH3 0x461BCD PUSH1 0xE5 SHL DUP2 MSTORE PUSH1 0x4 ADD DUP1 DUP1 PUSH1 0x20 ADD DUP3 DUP2 SUB DUP3 MSTORE PUSH1 0x21 DUP2 MSTORE PUSH1 0x20 ADD DUP1 PUSH2 0x3957 PUSH1 0x21 SWAP2 CODECOPY PUSH1 0x40 ADD SWAP2 POP POP PUSH1 0x40 MLOAD DUP1 SWAP2 SUB SWAP1 REVERT JUMPDEST PUSH1 0x5 SLOAD PUSH1 0x40 DUP1 MLOAD PUSH4 0x3BC5DE3 PUSH1 0xE4 SHL DUP2 MSTORE SWAP1 MLOAD PUSH1 0x0 SWAP3 PUSH1 0x1 PUSH1 0x1 PUSH1 0xA0 SHL SUB AND SWAP2 PUSH4 0x3BC5DE30 SWAP2 PUSH1 0x4 DUP1 DUP4 ADD SWAP3 PUSH1 0x20 SWAP3 SWAP2 SWAP1 DUP3 SWAP1 SUB ADD DUP2 DUP7 DUP1 EXTCODESIZE ISZERO DUP1 ISZERO PUSH2 0x102B JUMPI PUSH1 0x0 DUP1 REVERT JUMPDEST POP GAS STATICCALL ISZERO DUP1 ISZERO PUSH2 0x103F JUMPI RETURNDATASIZE PUSH1 0x0 DUP1 RETURNDATACOPY RETURNDATASIZE PUSH1 0x0 REVERT JUMPDEST POP POP POP POP PUSH1 0x40 MLOAD RETURNDATASIZE PUSH1 0x20 DUP2 LT ISZERO PUSH2 0x1055 JUMPI PUSH1 0x0 DUP1 REVERT JUMPDEST POP MLOAD SWAP1 POP PUSH2 0x1063 DUP3 DUP3 PUSH2 0x2492 JUMP JUMPDEST PUSH2 0x109E JUMPI PUSH1 0x40 MLOAD PUSH3 0x461BCD PUSH1 0xE5 SHL DUP2 MSTORE PUSH1 0x4 ADD DUP1 DUP1 PUSH1 0x20 ADD DUP3 DUP2 SUB DUP3 MSTORE PUSH1 0x29 DUP2 MSTORE PUSH1 0x20 ADD DUP1 PUSH2 0x36CB PUSH1 0x29 SWAP2 CODECOPY PUSH1 0x40 ADD SWAP2 POP POP PUSH1 0x40 MLOAD DUP1 SWAP2 SUB SWAP1 REVERT JUMPDEST PUSH1 0x0 PUSH2 0x10A9 DUP4 PUSH2 0x1A45 JUMP JUMPDEST SWAP1 POP PUSH1 0x0 PUSH2 0x10B6 DUP5 PUSH2 0x1220 JUMP JUMPDEST SWAP1 POP PUSH1 0x0 PUSH2 0x10C4 DUP4 DUP4 PUSH2 0x24D8 JUMP JUMPDEST SWAP1 POP PUSH2 0x10D6 DUP4 DUP3 PUSH4 0xFFFFFFFF PUSH2 0x251A AND JUMP JUMPDEST PUSH1 0x0 DUP7 DUP2 MSTORE PUSH1 0xC PUSH1 0x20 MSTORE PUSH1 0x40 DUP2 KECCAK256 SSTORE SWAP3 POP PUSH2 0x10F8 PUSH1 0xD DUP7 PUSH4 0xFFFFFFFF PUSH2 0x255C AND JUMP JUMPDEST POP PUSH1 0x0 PUSH2 0x112B PUSH8 0xDE0B6B3A7640000 PUSH2 0x111F DUP7 PUSH8 0x6F05B59D3B20000 PUSH4 0xFFFFFFFF PUSH2 0x205E AND JUMP JUMPDEST SWAP1 PUSH4 0xFFFFFFFF PUSH2 0x20B7 AND JUMP JUMPDEST SWAP1 POP PUSH2 0x113D DUP5 DUP3 PUSH4 0xFFFFFFFF PUSH2 0x251A AND JUMP JUMPDEST PUSH1 0x4 DUP1 SLOAD PUSH1 0x40 DUP1 MLOAD PUSH4 0x852CD8D PUSH1 0xE3 SHL DUP2 MSTORE SWAP3 DUP4 ADD DUP5 SWAP1 MSTORE MLOAD SWAP3 SWAP7 POP PUSH1 0x1 PUSH1 0x1 PUSH1 0xA0 SHL SUB AND SWAP2 PUSH4 0x42966C68 SWAP2 PUSH1 0x24 DUP1 DUP3 ADD SWAP3 PUSH1 0x0 SWAP3 SWAP1 SWAP2 SWAP1 DUP3 SWAP1 SUB ADD DUP2 DUP4 DUP8 DUP1 EXTCODESIZE ISZERO DUP1 ISZERO PUSH2 0x118A JUMPI PUSH1 0x0 DUP1 REVERT JUMPDEST POP GAS CALL ISZERO DUP1 ISZERO PUSH2 0x119E JUMPI RETURNDATASIZE PUSH1 0x0 DUP1 RETURNDATACOPY RETURNDATASIZE PUSH1 0x0 REVERT JUMPDEST POP POP POP POP PUSH2 0x11C6 PUSH2 0x11AD PUSH2 0x20F9 JUMP JUMPDEST PUSH1 0x4 SLOAD PUSH1 0x1 PUSH1 0x1 PUSH1 0xA0 SHL SUB AND SWAP1 DUP4 PUSH4 0xFFFFFFFF PUSH2 0x2568 AND JUMP JUMPDEST PUSH2 0x11CF DUP3 PUSH2 0x25BA JUMP JUMPDEST DUP6 PUSH2 0x11D8 PUSH2 0x20F9 JUMP JUMPDEST PUSH1 0x1 PUSH1 0x1 PUSH1 0xA0 SHL SUB AND PUSH32 0x3C4B1D42B9C7FA283F6FE657533F6A5A8A7AD1D36F9EF1D9D89AD04485E10D2C DUP4 PUSH1 0x40 MLOAD DUP1 DUP3 DUP2 MSTORE PUSH1 0x20 ADD SWAP2 POP POP PUSH1 0x40 MLOAD DUP1 SWAP2 SUB SWAP1 LOG3 POP POP POP POP POP POP JUMP JUMPDEST PUSH1 0x0 PUSH2 0x122A PUSH2 0x357B JUMP JUMPDEST PUSH2 0x1233 DUP4 PUSH2 0x267E JUMP JUMPDEST PUSH1 0x20 ADD MLOAD SWAP4 SWAP3 POP POP POP JUMP JUMPDEST PUSH1 0x60 DUP2 MLOAD DUP4 MLOAD EQ PUSH2 0x1280 JUMPI PUSH1 0x40 MLOAD PUSH3 0x461BCD PUSH1 0xE5 SHL DUP2 MSTORE PUSH1 0x4 ADD DUP1 DUP1 PUSH1 0x20 ADD DUP3 DUP2 SUB DUP3 MSTORE PUSH1 0x29 DUP2 MSTORE PUSH1 0x20 ADD DUP1 PUSH2 0x3A74 PUSH1 0x29 SWAP2 CODECOPY PUSH1 0x40 ADD SWAP2 POP POP PUSH1 0x40 MLOAD DUP1 SWAP2 SUB SWAP1 REVERT JUMPDEST PUSH1 0x60 DUP4 MLOAD PUSH8 0xFFFFFFFFFFFFFFFF DUP2 GT DUP1 ISZERO PUSH2 0x129A JUMPI PUSH1 0x0 DUP1 REVERT JUMPDEST POP PUSH1 0x40 MLOAD SWAP1 DUP1 DUP3 MSTORE DUP1 PUSH1 0x20 MUL PUSH1 0x20 ADD DUP3 ADD PUSH1 0x40 MSTORE DUP1 ISZERO PUSH2 0x12C4 JUMPI DUP2 PUSH1 0x20 ADD PUSH1 0x20 DUP3 MUL DUP1 CALLDATASIZE DUP4 CALLDATACOPY ADD SWAP1 POP JUMPDEST POP SWAP1 POP PUSH1 0x0 JUMPDEST DUP5 MLOAD DUP2 LT ISZERO PUSH2 0x13B4 JUMPI PUSH1 0x0 PUSH1 0x1 PUSH1 0x1 PUSH1 0xA0 SHL SUB AND DUP6 DUP3 DUP2 MLOAD DUP2 LT PUSH2 0x12EA JUMPI INVALID JUMPDEST PUSH1 0x20 MUL PUSH1 0x20 ADD ADD MLOAD PUSH1 0x1 PUSH1 0x1 PUSH1 0xA0 SHL SUB AND EQ ISZERO PUSH2 0x1338 JUMPI PUSH1 0x40 MLOAD PUSH3 0x461BCD PUSH1 0xE5 SHL DUP2 MSTORE PUSH1 0x4 ADD DUP1 DUP1 PUSH1 0x20 ADD DUP3 DUP2 SUB DUP3 MSTORE PUSH1 0x31 DUP2 MSTORE PUSH1 0x20 ADD DUP1 PUSH2 0x371F PUSH1 0x31 SWAP2 CODECOPY PUSH1 0x40 ADD SWAP2 POP POP PUSH1 0x40 MLOAD DUP1 SWAP2 SUB SWAP1 REVERT JUMPDEST PUSH1 0x1 PUSH1 0x0 DUP6 DUP4 DUP2 MLOAD DUP2 LT PUSH2 0x1348 JUMPI INVALID JUMPDEST PUSH1 0x20 MUL PUSH1 0x20 ADD ADD MLOAD DUP2 MSTORE PUSH1 0x20 ADD SWAP1 DUP2 MSTORE PUSH1 0x20 ADD PUSH1 0x0 KECCAK256 PUSH1 0x0 DUP7 DUP4 DUP2 MLOAD DUP2 LT PUSH2 0x136C JUMPI INVALID JUMPDEST PUSH1 0x20 MUL PUSH1 0x20 ADD ADD MLOAD PUSH1 0x1 PUSH1 0x1 PUSH1 0xA0 SHL SUB AND PUSH1 0x1 PUSH1 0x1 PUSH1 0xA0 SHL SUB AND DUP2 MSTORE PUSH1 0x20 ADD SWAP1 DUP2 MSTORE PUSH1 0x20 ADD PUSH1 0x0 KECCAK256 SLOAD DUP3 DUP3 DUP2 MLOAD DUP2 LT PUSH2 0x13A1 JUMPI INVALID JUMPDEST PUSH1 0x20 SWAP1 DUP2 MUL SWAP2 SWAP1 SWAP2 ADD ADD MSTORE PUSH1 0x1 ADD PUSH2 0x12CA JUMP JUMPDEST POP SWAP4 SWAP3 POP POP POP JUMP JUMPDEST PUSH2 0x13C4 PUSH2 0x20F9 JUMP JUMPDEST PUSH1 0x9 SLOAD PUSH1 0x1 PUSH1 0x1 PUSH1 0xA0 SHL SUB SWAP1 DUP2 AND SWAP2 AND EQ PUSH2 0x1410 JUMPI PUSH1 0x40 MLOAD PUSH3 0x461BCD PUSH1 0xE5 SHL DUP2 MSTORE PUSH1 0x4 ADD DUP1 DUP1 PUSH1 0x20 ADD DUP3 DUP2 SUB DUP3 MSTORE PUSH1 0x26 DUP2 MSTORE PUSH1 0x20 ADD DUP1 PUSH2 0x3824 PUSH1 0x26 SWAP2 CODECOPY PUSH1 0x40 ADD SWAP2 POP POP PUSH1 0x40 MLOAD DUP1 SWAP2 SUB SWAP1 REVERT JUMPDEST PUSH1 0x5 DUP1 SLOAD PUSH1 0x1 PUSH1 0x1 PUSH1 0xA0 SHL SUB NOT AND PUSH1 0x1 PUSH1 0x1 PUSH1 0xA0 SHL SUB SWAP3 SWAP1 SWAP3 AND SWAP2 SWAP1 SWAP2 OR SWAP1 SSTORE JUMP JUMPDEST PUSH2 0x143A PUSH2 0x20F9 JUMP JUMPDEST PUSH1 0x9 SLOAD PUSH1 0x1 PUSH1 0x1 PUSH1 0xA0 SHL SUB SWAP1 DUP2 AND SWAP2 AND EQ PUSH2 0x1486 JUMPI PUSH1 0x40 MLOAD PUSH3 0x461BCD PUSH1 0xE5 SHL DUP2 MSTORE PUSH1 0x4 ADD DUP1 DUP1 PUSH1 0x20 ADD DUP3 DUP2 SUB DUP3 MSTORE PUSH1 0x26 DUP2 MSTORE PUSH1 0x20 ADD DUP1 PUSH2 0x3824 PUSH1 0x26 SWAP2 CODECOPY PUSH1 0x40 ADD SWAP2 POP POP PUSH1 0x40 MLOAD DUP1 SWAP2 SUB SWAP1 REVERT JUMPDEST PUSH1 0x8 SSTORE JUMP JUMPDEST PUSH1 0x0 PUSH2 0x149E PUSH2 0x1498 PUSH2 0x20F9 JUMP JUMPDEST DUP4 PUSH2 0xA55 JUMP JUMPDEST SWAP1 POP PUSH2 0x14AA DUP3 DUP3 PUSH2 0x1614 JUMP JUMPDEST POP POP JUMP JUMPDEST PUSH1 0x9 SLOAD PUSH1 0x1 PUSH1 0x1 PUSH1 0xA0 SHL SUB AND DUP2 JUMP JUMPDEST PUSH1 0xA SLOAD PUSH1 0x1 PUSH1 0x1 PUSH1 0xA0 SHL SUB AND DUP2 JUMP JUMPDEST PUSH1 0x40 DUP1 MLOAD SWAP4 ISZERO ISZERO PUSH1 0xF8 SHL PUSH1 0x20 DUP1 DUP7 ADD SWAP2 SWAP1 SWAP2 MSTORE PUSH1 0x21 DUP6 ADD SWAP4 SWAP1 SWAP4 MSTORE PUSH1 0x41 DUP1 DUP6 ADD SWAP3 SWAP1 SWAP3 MSTORE DUP1 MLOAD DUP1 DUP6 SUB SWAP1 SWAP3 ADD DUP3 MSTORE PUSH1 0x61 SWAP1 SWAP4 ADD SWAP1 SWAP3 MSTORE DUP2 MLOAD SWAP2 ADD KECCAK256 SWAP1 JUMP JUMPDEST PUSH1 0x0 PUSH2 0x1514 PUSH2 0x357B JUMP JUMPDEST PUSH2 0x151D DUP4 PUSH2 0x267E JUMP JUMPDEST MLOAD SWAP4 SWAP3 POP POP POP JUMP JUMPDEST DUP2 PUSH1 0x1 PUSH1 0x1 PUSH1 0xA0 SHL SUB AND PUSH2 0x1537 PUSH2 0x20F9 JUMP JUMPDEST PUSH1 0x1 PUSH1 0x1 PUSH1 0xA0 SHL SUB AND EQ ISZERO PUSH2 0x157D JUMPI PUSH1 0x40 MLOAD PUSH3 0x461BCD PUSH1 0xE5 SHL DUP2 MSTORE PUSH1 0x4 ADD DUP1 DUP1 PUSH1 0x20 ADD DUP3 DUP2 SUB DUP3 MSTORE PUSH1 0x29 DUP2 MSTORE PUSH1 0x20 ADD DUP1 PUSH2 0x39FD PUSH1 0x29 SWAP2 CODECOPY PUSH1 0x40 ADD SWAP2 POP POP PUSH1 0x40 MLOAD DUP1 SWAP2 SUB SWAP1 REVERT JUMPDEST DUP1 PUSH1 0x2 PUSH1 0x0 PUSH2 0x158A PUSH2 0x20F9 JUMP JUMPDEST PUSH1 0x1 PUSH1 0x1 PUSH1 0xA0 SHL SUB SWAP1 DUP2 AND DUP3 MSTORE PUSH1 0x20 DUP1 DUP4 ADD SWAP4 SWAP1 SWAP4 MSTORE PUSH1 0x40 SWAP2 DUP3 ADD PUSH1 0x0 SWAP1 DUP2 KECCAK256 SWAP2 DUP8 AND DUP1 DUP3 MSTORE SWAP2 SWAP1 SWAP4 MSTORE SWAP2 KECCAK256 DUP1 SLOAD PUSH1 0xFF NOT AND SWAP3 ISZERO ISZERO SWAP3 SWAP1 SWAP3 OR SWAP1 SWAP2 SSTORE PUSH2 0x15CE PUSH2 0x20F9 JUMP JUMPDEST PUSH1 0x40 DUP1 MLOAD DUP5 ISZERO ISZERO DUP2 MSTORE SWAP1 MLOAD PUSH1 0x1 PUSH1 0x1 PUSH1 0xA0 SHL SUB SWAP3 SWAP1 SWAP3 AND SWAP2 PUSH32 0x17307EAB39AB6107E8899845AD3D59BD9653F200F220920489CA2B5937696C31 SWAP2 DUP2 SWAP1 SUB PUSH1 0x20 ADD SWAP1 LOG3 POP POP JUMP JUMPDEST PUSH1 0x0 DUP2 GT PUSH2 0x1653 JUMPI PUSH1 0x40 MLOAD PUSH3 0x461BCD PUSH1 0xE5 SHL DUP2 MSTORE PUSH1 0x4 ADD DUP1 DUP1 PUSH1 0x20 ADD DUP3 DUP2 SUB DUP3 MSTORE PUSH1 0x40 DUP2 MSTORE PUSH1 0x20 ADD DUP1 PUSH2 0x3978 PUSH1 0x40 SWAP2 CODECOPY PUSH1 0x40 ADD SWAP2 POP POP PUSH1 0x40 MLOAD DUP1 SWAP2 SUB SWAP1 REVERT JUMPDEST PUSH2 0x165C DUP3 PUSH2 0x1A45 JUMP JUMPDEST DUP2 GT ISZERO PUSH2 0x169A JUMPI PUSH1 0x40 MLOAD PUSH3 0x461BCD PUSH1 0xE5 SHL DUP2 MSTORE PUSH1 0x4 ADD DUP1 DUP1 PUSH1 0x20 ADD DUP3 DUP2 SUB DUP3 MSTORE PUSH1 0x38 DUP2 MSTORE PUSH1 0x20 ADD DUP1 PUSH2 0x3AE6 PUSH1 0x38 SWAP2 CODECOPY PUSH1 0x40 ADD SWAP2 POP POP PUSH1 0x40 MLOAD DUP1 SWAP2 SUB SWAP1 REVERT JUMPDEST PUSH2 0x16AC PUSH2 0x16A5 PUSH2 0x20F9 JUMP JUMPDEST DUP4 DUP4 PUSH2 0x2708 JUMP JUMPDEST PUSH1 0x0 PUSH2 0x16B8 DUP4 DUP4 PUSH2 0x2841 JUMP JUMPDEST SWAP1 POP PUSH1 0x0 DUP2 SGT ISZERO PUSH2 0x174E JUMPI PUSH1 0x0 PUSH2 0x16CE DUP3 PUSH2 0x2905 JUMP JUMPDEST PUSH1 0x4 DUP1 SLOAD PUSH1 0x40 DUP1 MLOAD PUSH4 0x140E25AD PUSH1 0xE3 SHL DUP2 MSTORE SWAP3 DUP4 ADD DUP5 SWAP1 MSTORE MLOAD SWAP3 SWAP4 POP PUSH1 0x1 PUSH1 0x1 PUSH1 0xA0 SHL SUB AND SWAP2 PUSH4 0xA0712D68 SWAP2 PUSH1 0x24 DUP1 DUP3 ADD SWAP3 PUSH1 0x0 SWAP3 SWAP1 SWAP2 SWAP1 DUP3 SWAP1 SUB ADD DUP2 DUP4 DUP8 DUP1 EXTCODESIZE ISZERO DUP1 ISZERO PUSH2 0x171B JUMPI PUSH1 0x0 DUP1 REVERT JUMPDEST POP GAS CALL ISZERO DUP1 ISZERO PUSH2 0x172F JUMPI RETURNDATASIZE PUSH1 0x0 DUP1 RETURNDATACOPY RETURNDATASIZE PUSH1 0x0 REVERT JUMPDEST POP POP POP POP PUSH2 0x1746 DUP2 DUP5 PUSH2 0x2194 SWAP1 SWAP2 SWAP1 PUSH4 0xFFFFFFFF AND JUMP JUMPDEST SWAP3 POP POP PUSH2 0x17E7 JUMP JUMPDEST PUSH1 0x0 DUP2 SLT ISZERO PUSH2 0x17E7 JUMPI PUSH1 0x0 PUSH2 0x176B PUSH2 0x1765 DUP4 PUSH2 0x2905 JUMP JUMPDEST DUP5 PUSH2 0x292A JUMP JUMPDEST PUSH1 0x4 DUP1 SLOAD PUSH1 0x40 DUP1 MLOAD PUSH4 0x852CD8D PUSH1 0xE3 SHL DUP2 MSTORE SWAP3 DUP4 ADD DUP5 SWAP1 MSTORE MLOAD SWAP3 SWAP4 POP PUSH1 0x1 PUSH1 0x1 PUSH1 0xA0 SHL SUB AND SWAP2 PUSH4 0x42966C68 SWAP2 PUSH1 0x24 DUP1 DUP3 ADD SWAP3 PUSH1 0x0 SWAP3 SWAP1 SWAP2 SWAP1 DUP3 SWAP1 SUB ADD DUP2 DUP4 DUP8 DUP1 EXTCODESIZE ISZERO DUP1 ISZERO PUSH2 0x17B8 JUMPI PUSH1 0x0 DUP1 REVERT JUMPDEST POP GAS CALL ISZERO DUP1 ISZERO PUSH2 0x17CC JUMPI RETURNDATASIZE PUSH1 0x0 DUP1 RETURNDATACOPY RETURNDATASIZE PUSH1 0x0 REVERT JUMPDEST POP POP POP POP PUSH2 0x17E3 DUP2 DUP5 PUSH2 0x251A SWAP1 SWAP2 SWAP1 PUSH4 0xFFFFFFFF AND JUMP JUMPDEST SWAP3 POP POP JUMPDEST PUSH1 0x0 PUSH2 0x17F2 DUP5 PUSH2 0x1220 JUMP JUMPDEST SWAP1 POP PUSH1 0x0 PUSH2 0x1800 DUP5 DUP4 PUSH2 0x24D8 JUMP JUMPDEST SWAP1 POP PUSH2 0x1812 DUP5 DUP3 PUSH4 0xFFFFFFFF PUSH2 0x251A AND JUMP JUMPDEST SWAP4 POP DUP4 ISZERO PUSH2 0x1847 JUMPI PUSH2 0x183E PUSH2 0x1825 PUSH2 0x20F9 JUMP JUMPDEST PUSH1 0x4 SLOAD PUSH1 0x1 PUSH1 0x1 PUSH1 0xA0 SHL SUB AND SWAP1 DUP7 PUSH4 0xFFFFFFFF PUSH2 0x2568 AND JUMP JUMPDEST PUSH2 0x1847 DUP2 PUSH2 0x25BA JUMP JUMPDEST DUP5 PUSH2 0x1850 PUSH2 0x20F9 JUMP JUMPDEST PUSH1 0x1 PUSH1 0x1 PUSH1 0xA0 SHL SUB AND PUSH32 0x5814B4996E98740654CDBAFC62C8147CF3AB7657B106293C6080D9A0180D31E0 DUP7 PUSH1 0x40 MLOAD DUP1 DUP3 DUP2 MSTORE PUSH1 0x20 ADD SWAP2 POP POP PUSH1 0x40 MLOAD DUP1 SWAP2 SUB SWAP1 LOG3 POP POP POP POP POP JUMP JUMPDEST PUSH1 0x60 PUSH1 0x0 PUSH1 0x5 PUSH1 0x0 SWAP1 SLOAD SWAP1 PUSH2 0x100 EXP SWAP1 DIV PUSH1 0x1 PUSH1 0x1 PUSH1 0xA0 SHL SUB AND PUSH1 0x1 PUSH1 0x1 PUSH1 0xA0 SHL SUB AND PUSH4 0x3BC5DE30 PUSH1 0x40 MLOAD DUP2 PUSH4 0xFFFFFFFF AND PUSH1 0xE0 SHL DUP2 MSTORE PUSH1 0x4 ADD PUSH1 0x20 PUSH1 0x40 MLOAD DUP1 DUP4 SUB DUP2 DUP7 DUP1 EXTCODESIZE ISZERO DUP1 ISZERO PUSH2 0x18E9 JUMPI PUSH1 0x0 DUP1 REVERT JUMPDEST POP GAS STATICCALL ISZERO DUP1 ISZERO PUSH2 0x18FD JUMPI RETURNDATASIZE PUSH1 0x0 DUP1 RETURNDATACOPY RETURNDATASIZE PUSH1 0x0 REVERT JUMPDEST POP POP POP POP PUSH1 0x40 MLOAD RETURNDATASIZE PUSH1 0x20 DUP2 LT ISZERO PUSH2 0x1913 JUMPI PUSH1 0x0 DUP1 REVERT JUMPDEST POP MLOAD SWAP1 POP PUSH1 0x60 PUSH2 0x1923 PUSH1 0xD PUSH2 0x2940 JUMP JUMPDEST PUSH8 0xFFFFFFFFFFFFFFFF DUP2 GT DUP1 ISZERO PUSH2 0x1939 JUMPI PUSH1 0x0 DUP1 REVERT JUMPDEST POP PUSH1 0x40 MLOAD SWAP1 DUP1 DUP3 MSTORE DUP1 PUSH1 0x20 MUL PUSH1 0x20 ADD DUP3 ADD PUSH1 0x40 MSTORE DUP1 ISZERO PUSH2 0x1963 JUMPI DUP2 PUSH1 0x20 ADD PUSH1 0x20 DUP3 MUL DUP1 CALLDATASIZE DUP4 CALLDATACOPY ADD SWAP1 POP JUMPDEST POP SWAP1 POP PUSH1 0x0 JUMPDEST PUSH2 0x1973 PUSH1 0xD PUSH2 0x2940 JUMP JUMPDEST DUP2 LT ISZERO PUSH2 0x19C1 JUMPI PUSH1 0x0 PUSH2 0x198D PUSH1 0xD DUP4 PUSH4 0xFFFFFFFF PUSH2 0x294B AND JUMP JUMPDEST SWAP1 POP PUSH2 0x1999 DUP2 DUP6 PUSH2 0x2492 JUMP JUMPDEST ISZERO PUSH2 0x19B8 JUMPI DUP1 DUP4 DUP4 DUP2 MLOAD DUP2 LT PUSH2 0x19AB JUMPI INVALID JUMPDEST PUSH1 0x20 MUL PUSH1 0x20 ADD ADD DUP2 DUP2 MSTORE POP POP JUMPDEST POP PUSH1 0x1 ADD PUSH2 0x1969 JUMP JUMPDEST POP SWAP2 POP POP JUMPDEST SWAP1 JUMP JUMPDEST PUSH2 0x19D1 PUSH2 0x20F9 JUMP JUMPDEST PUSH1 0x9 SLOAD PUSH1 0x1 PUSH1 0x1 PUSH1 0xA0 SHL SUB SWAP1 DUP2 AND SWAP2 AND EQ PUSH2 0x1A1D JUMPI PUSH1 0x40 MLOAD PUSH3 0x461BCD PUSH1 0xE5 SHL DUP2 MSTORE PUSH1 0x4 ADD DUP1 DUP1 PUSH1 0x20 ADD DUP3 DUP2 SUB DUP3 MSTORE PUSH1 0x26 DUP2 MSTORE PUSH1 0x20 ADD DUP1 PUSH2 0x3824 PUSH1 0x26 SWAP2 CODECOPY PUSH1 0x40 ADD SWAP2 POP POP PUSH1 0x40 MLOAD DUP1 SWAP2 SUB SWAP1 REVERT JUMPDEST PUSH1 0x9 DUP1 SLOAD PUSH1 0x1 PUSH1 0x1 PUSH1 0xA0 SHL SUB NOT AND PUSH1 0x1 PUSH1 0x1 PUSH1 0xA0 SHL SUB SWAP3 SWAP1 SWAP3 AND SWAP2 SWAP1 SWAP2 OR SWAP1 SSTORE JUMP JUMPDEST PUSH1 0x6 SLOAD DUP2 JUMP JUMPDEST PUSH1 0x0 SWAP1 DUP2 MSTORE PUSH1 0xC PUSH1 0x20 MSTORE PUSH1 0x40 SWAP1 KECCAK256 SLOAD SWAP1 JUMP JUMPDEST PUSH2 0x1A5F PUSH2 0x20F9 JUMP JUMPDEST PUSH1 0x9 SLOAD PUSH1 0x1 PUSH1 0x1 PUSH1 0xA0 SHL SUB SWAP1 DUP2 AND SWAP2 AND EQ PUSH2 0x1AAB JUMPI PUSH1 0x40 MLOAD PUSH3 0x461BCD PUSH1 0xE5 SHL DUP2 MSTORE PUSH1 0x4 ADD DUP1 DUP1 PUSH1 0x20 ADD DUP3 DUP2 SUB DUP3 MSTORE PUSH1 0x26 DUP2 MSTORE PUSH1 0x20 ADD DUP1 PUSH2 0x3824 PUSH1 0x26 SWAP2 CODECOPY PUSH1 0x40 ADD SWAP2 POP POP PUSH1 0x40 MLOAD DUP1 SWAP2 SUB SWAP1 REVERT JUMPDEST PUSH1 0x6 SSTORE JUMP JUMPDEST PUSH1 0x0 PUSH2 0x1ABA PUSH2 0x357B JUMP JUMPDEST PUSH2 0x1AC3 DUP4 PUSH2 0x267E JUMP JUMPDEST PUSH1 0x40 ADD MLOAD SWAP4 SWAP3 POP POP POP JUMP JUMPDEST PUSH1 0x0 PUSH2 0x1AD8 PUSH2 0x357B JUMP JUMPDEST PUSH2 0x1AE1 DUP4 PUSH2 0x267E JUMP JUMPDEST SWAP1 POP PUSH2 0x1AEC DUP2 PUSH2 0x2957 JUMP JUMPDEST SWAP4 SWAP3 POP POP POP JUMP JUMPDEST PUSH1 0x0 PUSH2 0x1B99 PUSH8 0xDE0B6B3A7640000 PUSH2 0x1B8D PUSH1 0x8 SLOAD PUSH1 0x4 PUSH1 0x0 SWAP1 SLOAD SWAP1 PUSH2 0x100 EXP SWAP1 DIV PUSH1 0x1 PUSH1 0x1 PUSH1 0xA0 SHL SUB AND PUSH1 0x1 PUSH1 0x1 PUSH1 0xA0 SHL SUB AND PUSH4 0x18160DDD PUSH1 0x40 MLOAD DUP2 PUSH4 0xFFFFFFFF AND PUSH1 0xE0 SHL DUP2 MSTORE PUSH1 0x4 ADD PUSH1 0x20 PUSH1 0x40 MLOAD DUP1 DUP4 SUB DUP2 DUP7 DUP1 EXTCODESIZE ISZERO DUP1 ISZERO PUSH2 0x1B55 JUMPI PUSH1 0x0 DUP1 REVERT JUMPDEST POP GAS STATICCALL ISZERO DUP1 ISZERO PUSH2 0x1B69 JUMPI RETURNDATASIZE PUSH1 0x0 DUP1 RETURNDATACOPY RETURNDATASIZE PUSH1 0x0 REVERT JUMPDEST POP POP POP POP PUSH1 0x40 MLOAD RETURNDATASIZE PUSH1 0x20 DUP2 LT ISZERO PUSH2 0x1B7F JUMPI PUSH1 0x0 DUP1 REVERT JUMPDEST POP MLOAD SWAP1 PUSH4 0xFFFFFFFF PUSH2 0x29C4 AND JUMP JUMPDEST SWAP1 PUSH4 0xFFFFFFFF PUSH2 0x2A6D AND JUMP JUMPDEST SWAP1 POP SWAP1 JUMP JUMPDEST PUSH1 0x8 SLOAD DUP2 JUMP JUMPDEST PUSH1 0x1 PUSH1 0x1 PUSH1 0xA0 SHL SUB SWAP2 DUP3 AND PUSH1 0x0 SWAP1 DUP2 MSTORE PUSH1 0x2 PUSH1 0x20 SWAP1 DUP2 MSTORE PUSH1 0x40 DUP1 DUP4 KECCAK256 SWAP4 SWAP1 SWAP5 AND DUP3 MSTORE SWAP2 SWAP1 SWAP2 MSTORE KECCAK256 SLOAD PUSH1 0xFF AND SWAP1 JUMP JUMPDEST PUSH2 0x1BDA PUSH2 0x20F9 JUMP JUMPDEST PUSH1 0x9 SLOAD PUSH1 0x1 PUSH1 0x1 PUSH1 0xA0 SHL SUB SWAP1 DUP2 AND SWAP2 AND EQ PUSH2 0x1C26 JUMPI PUSH1 0x40 MLOAD PUSH3 0x461BCD PUSH1 0xE5 SHL DUP2 MSTORE PUSH1 0x4 ADD DUP1 DUP1 PUSH1 0x20 ADD DUP3 DUP2 SUB DUP3 MSTORE PUSH1 0x26 DUP2 MSTORE PUSH1 0x20 ADD DUP1 PUSH2 0x3824 PUSH1 0x26 SWAP2 CODECOPY PUSH1 0x40 ADD SWAP2 POP POP PUSH1 0x40 MLOAD DUP1 SWAP2 SUB SWAP1 REVERT JUMPDEST PUSH1 0xA DUP1 SLOAD PUSH1 0x1 PUSH1 0x1 PUSH1 0xA0 SHL SUB NOT AND PUSH1 0x1 PUSH1 0x1 PUSH1 0xA0 SHL SUB SWAP3 SWAP1 SWAP3 AND SWAP2 SWAP1 SWAP2 OR SWAP1 SSTORE JUMP JUMPDEST PUSH1 0x1 PUSH1 0x1 PUSH1 0xA0 SHL SUB DUP5 AND PUSH2 0x1C8D JUMPI PUSH1 0x40 MLOAD PUSH3 0x461BCD PUSH1 0xE5 SHL DUP2 MSTORE PUSH1 0x4 ADD DUP1 DUP1 PUSH1 0x20 ADD DUP3 DUP2 SUB DUP3 MSTORE PUSH1 0x25 DUP2 MSTORE PUSH1 0x20 ADD DUP1 PUSH2 0x384A PUSH1 0x25 SWAP2 CODECOPY PUSH1 0x40 ADD SWAP2 POP POP PUSH1 0x40 MLOAD DUP1 SWAP2 SUB SWAP1 REVERT JUMPDEST PUSH2 0x1C95 PUSH2 0x20F9 JUMP JUMPDEST PUSH1 0x1 PUSH1 0x1 PUSH1 0xA0 SHL SUB AND DUP6 PUSH1 0x1 PUSH1 0x1 PUSH1 0xA0 SHL SUB AND EQ DUP1 PUSH2 0x1CBB JUMPI POP PUSH2 0x1CBB DUP6 PUSH2 0xD3C PUSH2 0x20F9 JUMP JUMPDEST PUSH2 0x1CF6 JUMPI PUSH1 0x40 MLOAD PUSH3 0x461BCD PUSH1 0xE5 SHL DUP2 MSTORE PUSH1 0x4 ADD DUP1 DUP1 PUSH1 0x20 ADD DUP3 DUP2 SUB DUP3 MSTORE PUSH1 0x29 DUP2 MSTORE PUSH1 0x20 ADD DUP1 PUSH2 0x3774 PUSH1 0x29 SWAP2 CODECOPY PUSH1 0x40 ADD SWAP2 POP POP PUSH1 0x40 MLOAD DUP1 SWAP2 SUB SWAP1 REVERT JUMPDEST PUSH1 0x0 PUSH2 0x1D00 PUSH2 0x20F9 JUMP JUMPDEST SWAP1 POP PUSH2 0x1D20 DUP2 DUP8 DUP8 PUSH2 0x1D11 DUP9 PUSH2 0x2B25 JUMP JUMPDEST PUSH2 0x1D1A DUP9 PUSH2 0x2B25 JUMP JUMPDEST DUP8 PUSH2 0xF7F JUMP JUMPDEST PUSH2 0x1D6D DUP4 PUSH1 0x40 MLOAD DUP1 PUSH1 0x60 ADD PUSH1 0x40 MSTORE DUP1 PUSH1 0x2A DUP2 MSTORE PUSH1 0x20 ADD PUSH2 0x38E5 PUSH1 0x2A SWAP2 CODECOPY PUSH1 0x0 DUP8 DUP2 MSTORE PUSH1 0x1 PUSH1 0x20 SWAP1 DUP2 MSTORE PUSH1 0x40 DUP1 DUP4 KECCAK256 PUSH1 0x1 PUSH1 0x1 PUSH1 0xA0 SHL SUB DUP14 AND DUP5 MSTORE SWAP1 SWAP2 MSTORE SWAP1 KECCAK256 SLOAD SWAP2 SWAP1 PUSH4 0xFFFFFFFF PUSH2 0x20FD AND JUMP JUMPDEST PUSH1 0x0 DUP6 DUP2 MSTORE PUSH1 0x1 PUSH1 0x20 SWAP1 DUP2 MSTORE PUSH1 0x40 DUP1 DUP4 KECCAK256 PUSH1 0x1 PUSH1 0x1 PUSH1 0xA0 SHL SUB DUP12 DUP2 AND DUP6 MSTORE SWAP3 MSTORE DUP1 DUP4 KECCAK256 SWAP4 SWAP1 SWAP4 SSTORE DUP8 AND DUP2 MSTORE KECCAK256 SLOAD PUSH2 0x1DA4 SWAP1 DUP5 PUSH2 0x2194 JUMP JUMPDEST PUSH1 0x0 DUP6 DUP2 MSTORE PUSH1 0x1 PUSH1 0x20 SWAP1 DUP2 MSTORE PUSH1 0x40 DUP1 DUP4 KECCAK256 PUSH1 0x1 PUSH1 0x1 PUSH1 0xA0 SHL SUB DUP1 DUP12 AND DUP1 DUP7 MSTORE SWAP2 DUP5 MSTORE SWAP4 DUP3 SWAP1 KECCAK256 SWAP5 SWAP1 SWAP5 SSTORE DUP1 MLOAD DUP9 DUP2 MSTORE SWAP2 DUP3 ADD DUP8 SWAP1 MSTORE DUP1 MLOAD DUP11 DUP5 AND SWAP4 DUP7 AND SWAP3 PUSH32 0xC3D58168C5AE7397731D063D5BBF3D657854427343F4C083240F7AACAA2D0F62 SWAP3 SWAP1 DUP3 SWAP1 SUB ADD SWAP1 LOG4 PUSH2 0xF7F DUP2 DUP8 DUP8 DUP8 DUP8 DUP8 PUSH2 0x2B69 JUMP JUMPDEST PUSH1 0x0 DUP4 GT PUSH2 0x1E58 JUMPI PUSH1 0x40 MLOAD PUSH3 0x461BCD PUSH1 0xE5 SHL DUP2 MSTORE PUSH1 0x4 ADD DUP1 DUP1 PUSH1 0x20 ADD DUP3 DUP2 SUB DUP3 MSTORE PUSH1 0x3F DUP2 MSTORE PUSH1 0x20 ADD DUP1 PUSH2 0x379D PUSH1 0x3F SWAP2 CODECOPY PUSH1 0x40 ADD SWAP2 POP POP PUSH1 0x40 MLOAD DUP1 SWAP2 SUB SWAP1 REVERT JUMPDEST PUSH8 0xDE0B6B3A7640000 DUP2 LT ISZERO PUSH2 0x1E9F JUMPI PUSH1 0x40 MLOAD PUSH3 0x461BCD PUSH1 0xE5 SHL DUP2 MSTORE PUSH1 0x4 ADD DUP1 DUP1 PUSH1 0x20 ADD DUP3 DUP2 SUB DUP3 MSTORE PUSH1 0x48 DUP2 MSTORE PUSH1 0x20 ADD DUP1 PUSH2 0x37DC PUSH1 0x48 SWAP2 CODECOPY PUSH1 0x60 ADD SWAP2 POP POP PUSH1 0x40 MLOAD DUP1 SWAP2 SUB SWAP1 REVERT JUMPDEST PUSH1 0x6 SLOAD DUP2 GT ISZERO PUSH2 0x1EE0 JUMPI PUSH1 0x40 MLOAD PUSH3 0x461BCD PUSH1 0xE5 SHL DUP2 MSTORE PUSH1 0x4 ADD DUP1 DUP1 PUSH1 0x20 ADD DUP3 DUP2 SUB DUP3 MSTORE PUSH1 0x45 DUP2 MSTORE PUSH1 0x20 ADD DUP1 PUSH2 0x39B8 PUSH1 0x45 SWAP2 CODECOPY PUSH1 0x60 ADD SWAP2 POP POP PUSH1 0x40 MLOAD DUP1 SWAP2 SUB SWAP1 REVERT JUMPDEST PUSH2 0x1F05 PUSH2 0x1EEB PUSH2 0x20F9 JUMP JUMPDEST PUSH1 0x4 SLOAD PUSH1 0x1 PUSH1 0x1 PUSH1 0xA0 SHL SUB AND SWAP1 ADDRESS DUP7 PUSH4 0xFFFFFFFF PUSH2 0x2CEC AND JUMP JUMPDEST PUSH1 0x0 PUSH2 0x1F11 DUP5 DUP4 PUSH2 0x24D8 JUMP JUMPDEST SWAP1 POP PUSH2 0x1F23 DUP5 DUP3 PUSH4 0xFFFFFFFF PUSH2 0x251A AND JUMP JUMPDEST SWAP4 POP PUSH1 0x0 PUSH2 0x1F32 DUP6 DUP6 DUP6 PUSH2 0x2D4C JUMP JUMPDEST SWAP1 POP PUSH2 0x1F56 PUSH2 0x1F3F PUSH2 0x20F9 JUMP JUMPDEST DUP3 DUP8 PUSH1 0x40 MLOAD DUP1 PUSH1 0x20 ADD PUSH1 0x40 MSTORE DUP1 PUSH1 0x0 DUP2 MSTORE POP PUSH2 0x2E71 JUMP JUMPDEST PUSH2 0x1F5F DUP3 PUSH2 0x25BA JUMP JUMPDEST DUP1 PUSH2 0x1F68 PUSH2 0x20F9 JUMP JUMPDEST PUSH1 0x1 PUSH1 0x1 PUSH1 0xA0 SHL SUB AND PUSH32 0x26762795CDA5552A98DBF495F5525EFB05F3D55C5764FA0C6CFAA27150FE1807 DUP8 PUSH1 0x40 MLOAD DUP1 DUP3 DUP2 MSTORE PUSH1 0x20 ADD SWAP2 POP POP PUSH1 0x40 MLOAD DUP1 SWAP2 SUB SWAP1 LOG3 POP POP POP POP POP JUMP JUMPDEST PUSH1 0x4 SLOAD PUSH1 0x1 PUSH1 0x1 PUSH1 0xA0 SHL SUB AND DUP2 JUMP JUMPDEST PUSH1 0x60 DUP1 PUSH2 0x1FCB PUSH1 0xD PUSH2 0x2940 JUMP JUMPDEST PUSH8 0xFFFFFFFFFFFFFFFF DUP2 GT DUP1 ISZERO PUSH2 0x1FE1 JUMPI PUSH1 0x0 DUP1 REVERT JUMPDEST POP PUSH1 0x40 MLOAD SWAP1 DUP1 DUP3 MSTORE DUP1 PUSH1 0x20 MUL PUSH1 0x20 ADD DUP3 ADD PUSH1 0x40 MSTORE DUP1 ISZERO PUSH2 0x200B JUMPI DUP2 PUSH1 0x20 ADD PUSH1 0x20 DUP3 MUL DUP1 CALLDATASIZE DUP4 CALLDATACOPY ADD SWAP1 POP JUMPDEST POP SWAP1 POP PUSH1 0x0 JUMPDEST PUSH2 0x201B PUSH1 0xD PUSH2 0x2940 JUMP JUMPDEST DUP2 LT ISZERO PUSH2 0x2058 JUMPI PUSH1 0x0 PUSH2 0x2035 PUSH1 0xD DUP4 PUSH4 0xFFFFFFFF PUSH2 0x294B AND JUMP JUMPDEST SWAP1 POP DUP1 DUP4 DUP4 DUP2 MLOAD DUP2 LT PUSH2 0x2044 JUMPI INVALID JUMPDEST PUSH1 0x20 SWAP1 DUP2 MUL SWAP2 SWAP1 SWAP2 ADD ADD MSTORE POP PUSH1 0x1 ADD PUSH2 0x2011 JUMP JUMPDEST POP SWAP1 POP SWAP1 JUMP JUMPDEST PUSH1 0x0 DUP3 PUSH2 0x206D JUMPI POP PUSH1 0x0 PUSH2 0xAC1 JUMP JUMPDEST DUP3 DUP3 MUL DUP3 DUP5 DUP3 DUP2 PUSH2 0x207A JUMPI INVALID JUMPDEST DIV EQ PUSH2 0x1AEC JUMPI PUSH1 0x40 MLOAD PUSH3 0x461BCD PUSH1 0xE5 SHL DUP2 MSTORE PUSH1 0x4 ADD DUP1 DUP1 PUSH1 0x20 ADD DUP3 DUP2 SUB DUP3 MSTORE PUSH1 0x21 DUP2 MSTORE PUSH1 0x20 ADD DUP1 PUSH2 0x390F PUSH1 0x21 SWAP2 CODECOPY PUSH1 0x40 ADD SWAP2 POP POP PUSH1 0x40 MLOAD DUP1 SWAP2 SUB SWAP1 REVERT JUMPDEST PUSH1 0x0 PUSH2 0x1AEC DUP4 DUP4 PUSH1 0x40 MLOAD DUP1 PUSH1 0x40 ADD PUSH1 0x40 MSTORE DUP1 PUSH1 0x1A DUP2 MSTORE PUSH1 0x20 ADD PUSH32 0x536166654D6174683A206469766973696F6E206279207A65726F000000000000 DUP2 MSTORE POP PUSH2 0x2F7F JUMP JUMPDEST CALLER SWAP1 JUMP JUMPDEST PUSH1 0x0 DUP2 DUP5 DUP5 GT ISZERO PUSH2 0x218C JUMPI PUSH1 0x40 MLOAD PUSH3 0x461BCD PUSH1 0xE5 SHL DUP2 MSTORE PUSH1 0x4 ADD DUP1 DUP1 PUSH1 0x20 ADD DUP3 DUP2 SUB DUP3 MSTORE DUP4 DUP2 DUP2 MLOAD DUP2 MSTORE PUSH1 0x20 ADD SWAP2 POP DUP1 MLOAD SWAP1 PUSH1 0x20 ADD SWAP1 DUP1 DUP4 DUP4 PUSH1 0x0 JUMPDEST DUP4 DUP2 LT ISZERO PUSH2 0x2151 JUMPI DUP2 DUP2 ADD MLOAD DUP4 DUP3 ADD MSTORE PUSH1 0x20 ADD PUSH2 0x2139 JUMP JUMPDEST POP POP POP POP SWAP1 POP SWAP1 DUP2 ADD SWAP1 PUSH1 0x1F AND DUP1 ISZERO PUSH2 0x217E JUMPI DUP1 DUP3 SUB DUP1 MLOAD PUSH1 0x1 DUP4 PUSH1 0x20 SUB PUSH2 0x100 EXP SUB NOT AND DUP2 MSTORE PUSH1 0x20 ADD SWAP2 POP JUMPDEST POP SWAP3 POP POP POP PUSH1 0x40 MLOAD DUP1 SWAP2 SUB SWAP1 REVERT JUMPDEST POP POP POP SWAP1 SUB SWAP1 JUMP JUMPDEST PUSH1 0x0 DUP3 DUP3 ADD DUP4 DUP2 LT ISZERO PUSH2 0x1AEC JUMPI PUSH1 0x40 DUP1 MLOAD PUSH3 0x461BCD PUSH1 0xE5 SHL DUP2 MSTORE PUSH1 0x20 PUSH1 0x4 DUP3 ADD MSTORE PUSH1 0x1B PUSH1 0x24 DUP3 ADD MSTORE PUSH32 0x536166654D6174683A206164646974696F6E206F766572666C6F770000000000 PUSH1 0x44 DUP3 ADD MSTORE SWAP1 MLOAD SWAP1 DUP2 SWAP1 SUB PUSH1 0x64 ADD SWAP1 REVERT JUMPDEST PUSH2 0x2200 DUP5 PUSH1 0x1 PUSH1 0x1 PUSH1 0xA0 SHL SUB AND PUSH2 0x2FE4 JUMP JUMPDEST ISZERO PUSH2 0xF7F JUMPI DUP4 PUSH1 0x1 PUSH1 0x1 PUSH1 0xA0 SHL SUB AND PUSH4 0xBC197C81 DUP8 DUP8 DUP7 DUP7 DUP7 PUSH1 0x40 MLOAD DUP7 PUSH4 0xFFFFFFFF AND PUSH1 0xE0 SHL DUP2 MSTORE PUSH1 0x4 ADD DUP1 DUP7 PUSH1 0x1 PUSH1 0x1 PUSH1 0xA0 SHL SUB AND PUSH1 0x1 PUSH1 0x1 PUSH1 0xA0 SHL SUB AND DUP2 MSTORE PUSH1 0x20 ADD DUP6 PUSH1 0x1 PUSH1 0x1 PUSH1 0xA0 SHL SUB AND PUSH1 0x1 PUSH1 0x1 PUSH1 0xA0 SHL SUB AND DUP2 MSTORE PUSH1 0x20 ADD DUP1 PUSH1 0x20 ADD DUP1 PUSH1 0x20 ADD DUP1 PUSH1 0x20 ADD DUP5 DUP2 SUB DUP5 MSTORE DUP8 DUP2 DUP2 MLOAD DUP2 MSTORE PUSH1 0x20 ADD SWAP2 POP DUP1 MLOAD SWAP1 PUSH1 0x20 ADD SWAP1 PUSH1 0x20 MUL DUP1 DUP4 DUP4 PUSH1 0x0 JUMPDEST DUP4 DUP2 LT ISZERO PUSH2 0x22A0 JUMPI DUP2 DUP2 ADD MLOAD DUP4 DUP3 ADD MSTORE PUSH1 0x20 ADD PUSH2 0x2288 JUMP JUMPDEST POP POP POP POP SWAP1 POP ADD DUP5 DUP2 SUB DUP4 MSTORE DUP7 DUP2 DUP2 MLOAD DUP2 MSTORE PUSH1 0x20 ADD SWAP2 POP DUP1 MLOAD SWAP1 PUSH1 0x20 ADD SWAP1 PUSH1 0x20 MUL DUP1 DUP4 DUP4 PUSH1 0x0 JUMPDEST DUP4 DUP2 LT ISZERO PUSH2 0x22DF JUMPI DUP2 DUP2 ADD MLOAD DUP4 DUP3 ADD MSTORE PUSH1 0x20 ADD PUSH2 0x22C7 JUMP JUMPDEST POP POP POP POP SWAP1 POP ADD DUP5 DUP2 SUB DUP3 MSTORE DUP6 DUP2 DUP2 MLOAD DUP2 MSTORE PUSH1 0x20 ADD SWAP2 POP DUP1 MLOAD SWAP1 PUSH1 0x20 ADD SWAP1 DUP1 DUP4 DUP4 PUSH1 0x0 JUMPDEST DUP4 DUP2 LT ISZERO PUSH2 0x231B JUMPI DUP2 DUP2 ADD MLOAD DUP4 DUP3 ADD MSTORE PUSH1 0x20 ADD PUSH2 0x2303 JUMP JUMPDEST POP POP POP POP SWAP1 POP SWAP1 DUP2 ADD SWAP1 PUSH1 0x1F AND DUP1 ISZERO PUSH2 0x2348 JUMPI DUP1 DUP3 SUB DUP1 MLOAD PUSH1 0x1 DUP4 PUSH1 0x20 SUB PUSH2 0x100 EXP SUB NOT AND DUP2 MSTORE PUSH1 0x20 ADD SWAP2 POP JUMPDEST POP SWAP9 POP POP POP POP POP POP POP POP POP PUSH1 0x20 PUSH1 0x40 MLOAD DUP1 DUP4 SUB DUP2 PUSH1 0x0 DUP8 DUP1 EXTCODESIZE ISZERO DUP1 ISZERO PUSH2 0x236D JUMPI PUSH1 0x0 DUP1 REVERT JUMPDEST POP GAS CALL SWAP3 POP POP POP DUP1 ISZERO PUSH2 0x2392 JUMPI POP PUSH1 0x40 MLOAD RETURNDATASIZE PUSH1 0x20 DUP2 LT ISZERO PUSH2 0x238D JUMPI PUSH1 0x0 DUP1 REVERT JUMPDEST POP MLOAD PUSH1 0x1 JUMPDEST PUSH2 0x2427 JUMPI PUSH2 0x239E PUSH2 0x35A4 JUMP JUMPDEST DUP1 PUSH2 0x23A9 JUMPI POP PUSH2 0x23F0 JUMP JUMPDEST PUSH1 0x40 MLOAD PUSH3 0x461BCD PUSH1 0xE5 SHL DUP2 MSTORE PUSH1 0x20 PUSH1 0x4 DUP3 ADD DUP2 DUP2 MSTORE DUP4 MLOAD PUSH1 0x24 DUP5 ADD MSTORE DUP4 MLOAD DUP5 SWAP4 SWAP2 SWAP3 DUP4 SWAP3 PUSH1 0x44 ADD SWAP2 SWAP1 DUP6 ADD SWAP1 DUP1 DUP4 DUP4 PUSH1 0x0 DUP4 ISZERO PUSH2 0x2151 JUMPI DUP2 DUP2 ADD MLOAD DUP4 DUP3 ADD MSTORE PUSH1 0x20 ADD PUSH2 0x2139 JUMP JUMPDEST PUSH1 0x40 MLOAD PUSH3 0x461BCD PUSH1 0xE5 SHL DUP2 MSTORE PUSH1 0x4 ADD DUP1 DUP1 PUSH1 0x20 ADD DUP3 DUP2 SUB DUP3 MSTORE PUSH1 0x34 DUP2 MSTORE PUSH1 0x20 ADD DUP1 PUSH2 0x364D PUSH1 0x34 SWAP2 CODECOPY PUSH1 0x40 ADD SWAP2 POP POP PUSH1 0x40 MLOAD DUP1 SWAP2 SUB SWAP1 REVERT JUMPDEST PUSH1 0x1 PUSH1 0x1 PUSH1 0xE0 SHL SUB NOT DUP2 AND PUSH4 0xBC197C81 PUSH1 0xE0 SHL EQ PUSH2 0x2476 JUMPI PUSH1 0x40 MLOAD PUSH3 0x461BCD PUSH1 0xE5 SHL DUP2 MSTORE PUSH1 0x4 ADD DUP1 DUP1 PUSH1 0x20 ADD DUP3 DUP2 SUB DUP3 MSTORE PUSH1 0x28 DUP2 MSTORE PUSH1 0x20 ADD DUP1 PUSH2 0x36A3 PUSH1 0x28 SWAP2 CODECOPY PUSH1 0x40 ADD SWAP2 POP POP PUSH1 0x40 MLOAD DUP1 SWAP2 SUB SWAP1 REVERT JUMPDEST POP POP POP POP POP POP POP JUMP JUMPDEST PUSH1 0x0 PUSH2 0xAC1 PUSH1 0xD DUP4 PUSH4 0xFFFFFFFF PUSH2 0x3020 AND JUMP JUMPDEST PUSH1 0x0 PUSH2 0x249C PUSH2 0x357B JUMP JUMPDEST PUSH2 0x24A5 DUP5 PUSH2 0x267E JUMP JUMPDEST SWAP1 POP PUSH1 0x0 PUSH2 0x24B2 DUP3 PUSH2 0x2957 JUMP JUMPDEST DUP3 MLOAD SWAP1 SWAP2 POP PUSH1 0x0 SWAP1 ISZERO PUSH2 0x24C9 JUMPI POP DUP4 DUP2 SLT ISZERO PUSH2 0x24CF JUMP JUMPDEST POP DUP4 DUP2 SGT ISZERO JUMPDEST SWAP6 SWAP5 POP POP POP POP POP JUMP JUMPDEST PUSH1 0x0 PUSH2 0x1AEC PUSH2 0x1765 PUSH8 0xDE0B6B3A7640000 PUSH2 0x111F PUSH8 0xDE0B6B3A7640000 PUSH2 0x111F PUSH1 0x7 SLOAD PUSH2 0x250E DUP10 DUP12 PUSH2 0x205E SWAP1 SWAP2 SWAP1 PUSH4 0xFFFFFFFF AND JUMP JUMPDEST SWAP1 PUSH4 0xFFFFFFFF PUSH2 0x205E AND JUMP JUMPDEST PUSH1 0x0 PUSH2 0x1AEC DUP4 DUP4 PUSH1 0x40 MLOAD DUP1 PUSH1 0x40 ADD PUSH1 0x40 MSTORE DUP1 PUSH1 0x1E DUP2 MSTORE PUSH1 0x20 ADD PUSH32 0x536166654D6174683A207375627472616374696F6E206F766572666C6F770000 DUP2 MSTORE POP PUSH2 0x20FD JUMP JUMPDEST PUSH1 0x0 PUSH2 0x1AEC DUP4 DUP4 PUSH2 0x302C JUMP JUMPDEST PUSH1 0x40 DUP1 MLOAD PUSH1 0x1 PUSH1 0x1 PUSH1 0xA0 SHL SUB DUP5 AND PUSH1 0x24 DUP3 ADD MSTORE PUSH1 0x44 DUP1 DUP3 ADD DUP5 SWAP1 MSTORE DUP3 MLOAD DUP1 DUP4 SUB SWAP1 SWAP2 ADD DUP2 MSTORE PUSH1 0x64 SWAP1 SWAP2 ADD SWAP1 SWAP2 MSTORE PUSH1 0x20 DUP2 ADD DUP1 MLOAD PUSH1 0x1 PUSH1 0x1 PUSH1 0xE0 SHL SUB AND PUSH4 0xA9059CBB PUSH1 0xE0 SHL OR SWAP1 MSTORE PUSH2 0xC19 SWAP1 DUP5 SWAP1 PUSH2 0x30F2 JUMP JUMPDEST PUSH1 0x0 PUSH2 0x25E0 PUSH8 0xDE0B6B3A7640000 PUSH2 0x111F DUP5 PUSH8 0x6F05B59D3B20000 PUSH4 0xFFFFFFFF PUSH2 0x205E AND JUMP JUMPDEST PUSH1 0x4 DUP1 SLOAD PUSH1 0x40 DUP1 MLOAD PUSH4 0x852CD8D PUSH1 0xE3 SHL DUP2 MSTORE SWAP3 DUP4 ADD DUP5 SWAP1 MSTORE MLOAD SWAP3 SWAP4 POP PUSH1 0x1 PUSH1 0x1 PUSH1 0xA0 SHL SUB AND SWAP2 PUSH4 0x42966C68 SWAP2 PUSH1 0x24 DUP1 DUP3 ADD SWAP3 PUSH1 0x0 SWAP3 SWAP1 SWAP2 SWAP1 DUP3 SWAP1 SUB ADD DUP2 DUP4 DUP8 DUP1 EXTCODESIZE ISZERO DUP1 ISZERO PUSH2 0x262D JUMPI PUSH1 0x0 DUP1 REVERT JUMPDEST POP GAS CALL ISZERO DUP1 ISZERO PUSH2 0x2641 JUMPI RETURNDATASIZE PUSH1 0x0 DUP1 RETURNDATACOPY RETURNDATASIZE PUSH1 0x0 REVERT JUMPDEST POP POP POP POP PUSH2 0x2658 DUP2 DUP4 PUSH2 0x251A SWAP1 SWAP2 SWAP1 PUSH4 0xFFFFFFFF AND JUMP JUMPDEST PUSH1 0xA SLOAD PUSH1 0x4 SLOAD SWAP2 SWAP4 POP PUSH2 0x14AA SWAP2 PUSH1 0x1 PUSH1 0x1 PUSH1 0xA0 SHL SUB SWAP1 DUP2 AND SWAP2 AND DUP5 PUSH4 0xFFFFFFFF PUSH2 0x2568 AND JUMP JUMPDEST PUSH2 0x2686 PUSH2 0x357B JUMP JUMPDEST PUSH2 0x268F DUP3 PUSH2 0x247F JUMP JUMPDEST PUSH2 0x26CA JUMPI PUSH1 0x40 MLOAD PUSH3 0x461BCD PUSH1 0xE5 SHL DUP2 MSTORE PUSH1 0x4 ADD DUP1 DUP1 PUSH1 0x20 ADD DUP3 DUP2 SUB DUP3 MSTORE PUSH1 0x21 DUP2 MSTORE PUSH1 0x20 ADD DUP1 PUSH2 0x3957 PUSH1 0x21 SWAP2 CODECOPY PUSH1 0x40 ADD SWAP2 POP POP PUSH1 0x40 MLOAD DUP1 SWAP2 SUB SWAP1 REVERT JUMPDEST POP PUSH1 0x0 SWAP1 DUP2 MSTORE PUSH1 0xB PUSH1 0x20 SWAP1 DUP2 MSTORE PUSH1 0x40 SWAP2 DUP3 SWAP1 KECCAK256 DUP3 MLOAD PUSH1 0x60 DUP2 ADD DUP5 MSTORE DUP2 SLOAD PUSH1 0xFF AND ISZERO ISZERO DUP2 MSTORE PUSH1 0x1 DUP3 ADD SLOAD SWAP3 DUP2 ADD SWAP3 SWAP1 SWAP3 MSTORE PUSH1 0x2 ADD SLOAD SWAP2 DUP2 ADD SWAP2 SWAP1 SWAP2 MSTORE SWAP1 JUMP JUMPDEST PUSH1 0x1 PUSH1 0x1 PUSH1 0xA0 SHL SUB DUP4 AND PUSH2 0x274D JUMPI PUSH1 0x40 MLOAD PUSH3 0x461BCD PUSH1 0xE5 SHL DUP2 MSTORE PUSH1 0x4 ADD DUP1 DUP1 PUSH1 0x20 ADD DUP3 DUP2 SUB DUP3 MSTORE PUSH1 0x23 DUP2 MSTORE PUSH1 0x20 ADD DUP1 PUSH2 0x38C2 PUSH1 0x23 SWAP2 CODECOPY PUSH1 0x40 ADD SWAP2 POP POP PUSH1 0x40 MLOAD DUP1 SWAP2 SUB SWAP1 REVERT JUMPDEST PUSH1 0x0 PUSH2 0x2757 PUSH2 0x20F9 JUMP JUMPDEST SWAP1 POP PUSH2 0x2787 DUP2 DUP6 PUSH1 0x0 PUSH2 0x2769 DUP8 PUSH2 0x2B25 JUMP JUMPDEST PUSH2 0x2772 DUP8 PUSH2 0x2B25 JUMP JUMPDEST PUSH1 0x40 MLOAD DUP1 PUSH1 0x20 ADD PUSH1 0x40 MSTORE DUP1 PUSH1 0x0 DUP2 MSTORE POP PUSH2 0xF7F JUMP JUMPDEST PUSH2 0x27D4 DUP3 PUSH1 0x40 MLOAD DUP1 PUSH1 0x60 ADD PUSH1 0x40 MSTORE DUP1 PUSH1 0x24 DUP2 MSTORE PUSH1 0x20 ADD PUSH2 0x3750 PUSH1 0x24 SWAP2 CODECOPY PUSH1 0x0 DUP7 DUP2 MSTORE PUSH1 0x1 PUSH1 0x20 SWAP1 DUP2 MSTORE PUSH1 0x40 DUP1 DUP4 KECCAK256 PUSH1 0x1 PUSH1 0x1 PUSH1 0xA0 SHL SUB DUP12 AND DUP5 MSTORE SWAP1 SWAP2 MSTORE SWAP1 KECCAK256 SLOAD SWAP2 SWAP1 PUSH4 0xFFFFFFFF PUSH2 0x20FD AND JUMP JUMPDEST PUSH1 0x0 DUP5 DUP2 MSTORE PUSH1 0x1 PUSH1 0x20 SWAP1 DUP2 MSTORE PUSH1 0x40 DUP1 DUP4 KECCAK256 PUSH1 0x1 PUSH1 0x1 PUSH1 0xA0 SHL SUB DUP1 DUP11 AND DUP1 DUP7 MSTORE SWAP2 DUP5 MSTORE DUP3 DUP6 KECCAK256 SWAP6 SWAP1 SWAP6 SSTORE DUP2 MLOAD DUP9 DUP2 MSTORE SWAP3 DUP4 ADD DUP8 SWAP1 MSTORE DUP2 MLOAD SWAP4 SWAP5 SWAP1 SWAP4 SWAP1 DUP7 AND SWAP3 PUSH32 0xC3D58168C5AE7397731D063D5BBF3D657854427343F4C083240F7AACAA2D0F62 SWAP3 SWAP1 DUP3 SWAP1 SUB ADD SWAP1 LOG4 POP POP POP POP JUMP JUMPDEST PUSH1 0x0 DUP1 PUSH1 0x5 PUSH1 0x0 SWAP1 SLOAD SWAP1 PUSH2 0x100 EXP SWAP1 DIV PUSH1 0x1 PUSH1 0x1 PUSH1 0xA0 SHL SUB AND PUSH1 0x1 PUSH1 0x1 PUSH1 0xA0 SHL SUB AND PUSH4 0x3BC5DE30 PUSH1 0x40 MLOAD DUP2 PUSH4 0xFFFFFFFF AND PUSH1 0xE0 SHL DUP2 MSTORE PUSH1 0x4 ADD PUSH1 0x20 PUSH1 0x40 MLOAD DUP1 DUP4 SUB DUP2 DUP7 DUP1 EXTCODESIZE ISZERO DUP1 ISZERO PUSH2 0x2892 JUMPI PUSH1 0x0 DUP1 REVERT JUMPDEST POP GAS STATICCALL ISZERO DUP1 ISZERO PUSH2 0x28A6 JUMPI RETURNDATASIZE PUSH1 0x0 DUP1 RETURNDATACOPY RETURNDATASIZE PUSH1 0x0 REVERT JUMPDEST POP POP POP POP PUSH1 0x40 MLOAD RETURNDATASIZE PUSH1 0x20 DUP2 LT ISZERO PUSH2 0x28BC JUMPI PUSH1 0x0 DUP1 REVERT JUMPDEST POP MLOAD SWAP1 POP PUSH1 0x0 PUSH2 0x28CD DUP6 DUP6 DUP5 PUSH2 0x31A3 JUMP JUMPDEST SWAP1 POP PUSH1 0x0 PUSH2 0x28DA DUP7 PUSH2 0x1A45 JUMP JUMPDEST SWAP1 POP PUSH2 0x28EC DUP2 DUP7 PUSH4 0xFFFFFFFF PUSH2 0x251A AND JUMP JUMPDEST PUSH1 0x0 DUP8 DUP2 MSTORE PUSH1 0xC PUSH1 0x20 MSTORE PUSH1 0x40 SWAP1 KECCAK256 SSTORE POP SWAP2 POP POP SWAP3 SWAP2 POP POP JUMP JUMPDEST PUSH1 0x0 DUP1 DUP3 SLT ISZERO PUSH2 0x2926 JUMPI PUSH2 0x2921 DUP3 PUSH1 0x0 NOT PUSH4 0xFFFFFFFF PUSH2 0x29C4 AND JUMP JUMPDEST PUSH2 0xAC1 JUMP JUMPDEST POP SWAP1 JUMP JUMPDEST PUSH1 0x0 DUP2 DUP4 LT PUSH2 0x2939 JUMPI DUP2 PUSH2 0x1AEC JUMP JUMPDEST POP SWAP1 SWAP2 SWAP1 POP JUMP JUMPDEST PUSH1 0x0 PUSH2 0xAC1 DUP3 PUSH2 0x32C4 JUMP JUMPDEST PUSH1 0x0 PUSH2 0x1AEC DUP4 DUP4 PUSH2 0x32C8 JUMP JUMPDEST PUSH1 0x0 DUP1 DUP3 PUSH1 0x0 ADD MLOAD ISZERO PUSH2 0x29A0 JUMPI PUSH1 0x20 DUP4 ADD MLOAD PUSH2 0x2999 SWAP1 PUSH2 0x1B8D PUSH2 0x2988 DUP3 PUSH8 0xDE0B6B3A7640000 PUSH4 0xFFFFFFFF PUSH2 0x251A AND JUMP JUMPDEST PUSH1 0x40 DUP8 ADD MLOAD SWAP1 PUSH4 0xFFFFFFFF PUSH2 0x29C4 AND JUMP JUMPDEST SWAP1 POP PUSH2 0xAC1 JUMP JUMPDEST PUSH1 0x20 DUP4 ADD MLOAD PUSH2 0x1AEC SWAP1 PUSH2 0x1B8D PUSH2 0x2988 DUP3 PUSH8 0xDE0B6B3A7640000 PUSH4 0xFFFFFFFF PUSH2 0x2194 AND JUMP JUMPDEST PUSH1 0x0 DUP3 PUSH2 0x29D3 JUMPI POP PUSH1 0x0 PUSH2 0xAC1 JUMP JUMPDEST DUP3 PUSH1 0x0 NOT EQ DUP1 ISZERO PUSH2 0x29E7 JUMPI POP PUSH1 0x1 PUSH1 0xFF SHL DUP3 EQ JUMPDEST ISZERO PUSH2 0x2A23 JUMPI PUSH1 0x40 MLOAD PUSH3 0x461BCD PUSH1 0xE5 SHL DUP2 MSTORE PUSH1 0x4 ADD DUP1 DUP1 PUSH1 0x20 ADD DUP3 DUP2 SUB DUP3 MSTORE PUSH1 0x27 DUP2 MSTORE PUSH1 0x20 ADD DUP1 PUSH2 0x3930 PUSH1 0x27 SWAP2 CODECOPY PUSH1 0x40 ADD SWAP2 POP POP PUSH1 0x40 MLOAD DUP1 SWAP2 SUB SWAP1 REVERT JUMPDEST DUP3 DUP3 MUL DUP3 DUP5 DUP3 DUP2 PUSH2 0x2A30 JUMPI INVALID JUMPDEST SDIV EQ PUSH2 0x1AEC JUMPI PUSH1 0x40 MLOAD PUSH3 0x461BCD PUSH1 0xE5 SHL DUP2 MSTORE PUSH1 0x4 ADD DUP1 DUP1 PUSH1 0x20 ADD DUP3 DUP2 SUB DUP3 MSTORE PUSH1 0x27 DUP2 MSTORE PUSH1 0x20 ADD DUP1 PUSH2 0x3930 PUSH1 0x27 SWAP2 CODECOPY PUSH1 0x40 ADD SWAP2 POP POP PUSH1 0x40 MLOAD DUP1 SWAP2 SUB SWAP1 REVERT JUMPDEST PUSH1 0x0 DUP2 PUSH2 0x2AC1 JUMPI PUSH1 0x40 DUP1 MLOAD PUSH3 0x461BCD PUSH1 0xE5 SHL DUP2 MSTORE PUSH1 0x20 PUSH1 0x4 DUP3 ADD DUP2 SWAP1 MSTORE PUSH1 0x24 DUP3 ADD MSTORE PUSH32 0x5369676E6564536166654D6174683A206469766973696F6E206279207A65726F PUSH1 0x44 DUP3 ADD MSTORE SWAP1 MLOAD SWAP1 DUP2 SWAP1 SUB PUSH1 0x64 ADD SWAP1 REVERT JUMPDEST DUP2 PUSH1 0x0 NOT EQ DUP1 ISZERO PUSH2 0x2AD5 JUMPI POP PUSH1 0x1 PUSH1 0xFF SHL DUP4 EQ JUMPDEST ISZERO PUSH2 0x2B11 JUMPI PUSH1 0x40 MLOAD PUSH3 0x461BCD PUSH1 0xE5 SHL DUP2 MSTORE PUSH1 0x4 ADD DUP1 DUP1 PUSH1 0x20 ADD DUP3 DUP2 SUB DUP3 MSTORE PUSH1 0x21 DUP2 MSTORE PUSH1 0x20 ADD DUP1 PUSH2 0x38A1 PUSH1 0x21 SWAP2 CODECOPY PUSH1 0x40 ADD SWAP2 POP POP PUSH1 0x40 MLOAD DUP1 SWAP2 SUB SWAP1 REVERT JUMPDEST PUSH1 0x0 DUP3 DUP5 DUP2 PUSH2 0x2B1C JUMPI INVALID JUMPDEST SDIV SWAP5 SWAP4 POP POP POP POP JUMP JUMPDEST PUSH1 0x40 DUP1 MLOAD PUSH1 0x1 DUP1 DUP3 MSTORE DUP2 DUP4 ADD SWAP1 SWAP3 MSTORE PUSH1 0x60 SWAP2 DUP3 SWAP2 SWAP1 PUSH1 0x20 DUP1 DUP4 ADD SWAP1 DUP1 CALLDATASIZE DUP4 CALLDATACOPY ADD SWAP1 POP POP SWAP1 POP DUP3 DUP2 PUSH1 0x0 DUP2 MLOAD DUP2 LT PUSH2 0x2B58 JUMPI INVALID JUMPDEST PUSH1 0x20 SWAP1 DUP2 MUL SWAP2 SWAP1 SWAP2 ADD ADD MSTORE SWAP3 SWAP2 POP POP JUMP JUMPDEST PUSH2 0x2B7B DUP5 PUSH1 0x1 PUSH1 0x1 PUSH1 0xA0 SHL SUB AND PUSH2 0x2FE4 JUMP JUMPDEST ISZERO PUSH2 0xF7F JUMPI DUP4 PUSH1 0x1 PUSH1 0x1 PUSH1 0xA0 SHL SUB AND PUSH4 0xF23A6E61 DUP8 DUP8 DUP7 DUP7 DUP7 PUSH1 0x40 MLOAD DUP7 PUSH4 0xFFFFFFFF AND PUSH1 0xE0 SHL DUP2 MSTORE PUSH1 0x4 ADD DUP1 DUP7 PUSH1 0x1 PUSH1 0x1 PUSH1 0xA0 SHL SUB AND PUSH1 0x1 PUSH1 0x1 PUSH1 0xA0 SHL SUB AND DUP2 MSTORE PUSH1 0x20 ADD DUP6 PUSH1 0x1 PUSH1 0x1 PUSH1 0xA0 SHL SUB AND PUSH1 0x1 PUSH1 0x1 PUSH1 0xA0 SHL SUB AND DUP2 MSTORE PUSH1 0x20 ADD DUP5 DUP2 MSTORE PUSH1 0x20 ADD DUP4 DUP2 MSTORE PUSH1 0x20 ADD DUP1 PUSH1 0x20 ADD DUP3 DUP2 SUB DUP3 MSTORE DUP4 DUP2 DUP2 MLOAD DUP2 MSTORE PUSH1 0x20 ADD SWAP2 POP DUP1 MLOAD SWAP1 PUSH1 0x20 ADD SWAP1 DUP1 DUP4 DUP4 PUSH1 0x0 JUMPDEST DUP4 DUP2 LT ISZERO PUSH2 0x2C1C JUMPI DUP2 DUP2 ADD MLOAD DUP4 DUP3 ADD MSTORE PUSH1 0x20 ADD PUSH2 0x2C04 JUMP JUMPDEST POP POP POP POP SWAP1 POP SWAP1 DUP2 ADD SWAP1 PUSH1 0x1F AND DUP1 ISZERO PUSH2 0x2C49 JUMPI DUP1 DUP3 SUB DUP1 MLOAD PUSH1 0x1 DUP4 PUSH1 0x20 SUB PUSH2 0x100 EXP SUB NOT AND DUP2 MSTORE PUSH1 0x20 ADD SWAP2 POP JUMPDEST POP SWAP7 POP POP POP POP POP POP POP PUSH1 0x20 PUSH1 0x40 MLOAD DUP1 DUP4 SUB DUP2 PUSH1 0x0 DUP8 DUP1 EXTCODESIZE ISZERO DUP1 ISZERO PUSH2 0x2C6C JUMPI PUSH1 0x0 DUP1 REVERT JUMPDEST POP GAS CALL SWAP3 POP POP POP DUP1 ISZERO PUSH2 0x2C91 JUMPI POP PUSH1 0x40 MLOAD RETURNDATASIZE PUSH1 0x20 DUP2 LT ISZERO PUSH2 0x2C8C JUMPI PUSH1 0x0 DUP1 REVERT JUMPDEST POP MLOAD PUSH1 0x1 JUMPDEST PUSH2 0x2C9D JUMPI PUSH2 0x239E PUSH2 0x35A4 JUMP JUMPDEST PUSH1 0x1 PUSH1 0x1 PUSH1 0xE0 SHL SUB NOT DUP2 AND PUSH4 0xF23A6E61 PUSH1 0xE0 SHL EQ PUSH2 0x2476 JUMPI PUSH1 0x40 MLOAD PUSH3 0x461BCD PUSH1 0xE5 SHL DUP2 MSTORE PUSH1 0x4 ADD DUP1 DUP1 PUSH1 0x20 ADD DUP3 DUP2 SUB DUP3 MSTORE PUSH1 0x28 DUP2 MSTORE PUSH1 0x20 ADD DUP1 PUSH2 0x36A3 PUSH1 0x28 SWAP2 CODECOPY PUSH1 0x40 ADD SWAP2 POP POP PUSH1 0x40 MLOAD DUP1 SWAP2 SUB SWAP1 REVERT JUMPDEST PUSH1 0x40 DUP1 MLOAD PUSH1 0x1 PUSH1 0x1 PUSH1 0xA0 SHL SUB DUP1 DUP7 AND PUSH1 0x24 DUP4 ADD MSTORE DUP5 AND PUSH1 0x44 DUP3 ADD MSTORE PUSH1 0x64 DUP1 DUP3 ADD DUP5 SWAP1 MSTORE DUP3 MLOAD DUP1 DUP4 SUB SWAP1 SWAP2 ADD DUP2 MSTORE PUSH1 0x84 SWAP1 SWAP2 ADD SWAP1 SWAP2 MSTORE PUSH1 0x20 DUP2 ADD DUP1 MLOAD PUSH1 0x1 PUSH1 0x1 PUSH1 0xE0 SHL SUB AND PUSH4 0x23B872DD PUSH1 0xE0 SHL OR SWAP1 MSTORE PUSH2 0x2D46 SWAP1 DUP6 SWAP1 PUSH2 0x30F2 JUMP JUMPDEST POP POP POP POP JUMP JUMPDEST PUSH1 0x0 DUP1 PUSH1 0x5 PUSH1 0x0 SWAP1 SLOAD SWAP1 PUSH2 0x100 EXP SWAP1 DIV PUSH1 0x1 PUSH1 0x1 PUSH1 0xA0 SHL SUB AND PUSH1 0x1 PUSH1 0x1 PUSH1 0xA0 SHL SUB AND PUSH4 0x3BC5DE30 PUSH1 0x40 MLOAD DUP2 PUSH4 0xFFFFFFFF AND PUSH1 0xE0 SHL DUP2 MSTORE PUSH1 0x4 ADD PUSH1 0x20 PUSH1 0x40 MLOAD DUP1 DUP4 SUB DUP2 DUP7 DUP1 EXTCODESIZE ISZERO DUP1 ISZERO PUSH2 0x2D9D JUMPI PUSH1 0x0 DUP1 REVERT JUMPDEST POP GAS STATICCALL ISZERO DUP1 ISZERO PUSH2 0x2DB1 JUMPI RETURNDATASIZE PUSH1 0x0 DUP1 RETURNDATACOPY RETURNDATASIZE PUSH1 0x0 REVERT JUMPDEST POP POP POP POP PUSH1 0x40 MLOAD RETURNDATASIZE PUSH1 0x20 DUP2 LT ISZERO PUSH2 0x2DC7 JUMPI PUSH1 0x0 DUP1 REVERT JUMPDEST POP MLOAD SWAP1 POP PUSH1 0x0 PUSH2 0x2DD8 DUP6 DUP6 DUP5 PUSH2 0x14CC JUMP JUMPDEST SWAP1 POP PUSH2 0x2DE3 DUP2 PUSH2 0x247F JUMP JUMPDEST PUSH2 0x2E3B JUMPI PUSH1 0x40 DUP1 MLOAD PUSH1 0x60 DUP2 ADD DUP3 MSTORE DUP7 ISZERO ISZERO DUP2 MSTORE PUSH1 0x20 DUP1 DUP3 ADD DUP8 DUP2 MSTORE DUP3 DUP5 ADD DUP7 DUP2 MSTORE PUSH1 0x0 DUP7 DUP2 MSTORE PUSH1 0xB SWAP1 SWAP4 MSTORE SWAP4 SWAP1 SWAP2 KECCAK256 SWAP2 MLOAD DUP3 SLOAD PUSH1 0xFF NOT AND SWAP1 ISZERO ISZERO OR DUP3 SSTORE MLOAD PUSH1 0x1 DUP3 ADD SSTORE SWAP1 MLOAD PUSH1 0x2 SWAP1 SWAP2 ADD SSTORE PUSH2 0x2E39 PUSH1 0xD DUP3 PUSH2 0x332C JUMP JUMPDEST POP JUMPDEST PUSH1 0x0 PUSH2 0x2E46 DUP3 PUSH2 0x1A45 JUMP JUMPDEST SWAP1 POP PUSH2 0x2E58 DUP2 DUP9 PUSH4 0xFFFFFFFF PUSH2 0x2194 AND JUMP JUMPDEST PUSH1 0x0 DUP4 DUP2 MSTORE PUSH1 0xC PUSH1 0x20 MSTORE PUSH1 0x40 SWAP1 KECCAK256 SSTORE POP SWAP6 SWAP5 POP POP POP POP POP JUMP JUMPDEST PUSH1 0x1 PUSH1 0x1 PUSH1 0xA0 SHL SUB DUP5 AND PUSH2 0x2EB6 JUMPI PUSH1 0x40 MLOAD PUSH3 0x461BCD PUSH1 0xE5 SHL DUP2 MSTORE PUSH1 0x4 ADD DUP1 DUP1 PUSH1 0x20 ADD DUP3 DUP2 SUB DUP3 MSTORE PUSH1 0x21 DUP2 MSTORE PUSH1 0x20 ADD DUP1 PUSH2 0x3AC5 PUSH1 0x21 SWAP2 CODECOPY PUSH1 0x40 ADD SWAP2 POP POP PUSH1 0x40 MLOAD DUP1 SWAP2 SUB SWAP1 REVERT JUMPDEST PUSH1 0x0 PUSH2 0x2EC0 PUSH2 0x20F9 JUMP JUMPDEST SWAP1 POP PUSH2 0x2ED2 DUP2 PUSH1 0x0 DUP8 PUSH2 0x1D11 DUP9 PUSH2 0x2B25 JUMP JUMPDEST PUSH1 0x0 DUP5 DUP2 MSTORE PUSH1 0x1 PUSH1 0x20 SWAP1 DUP2 MSTORE PUSH1 0x40 DUP1 DUP4 KECCAK256 PUSH1 0x1 PUSH1 0x1 PUSH1 0xA0 SHL SUB DUP10 AND DUP5 MSTORE SWAP1 SWAP2 MSTORE SWAP1 KECCAK256 SLOAD PUSH2 0x2F05 SWAP1 DUP5 PUSH4 0xFFFFFFFF PUSH2 0x2194 AND JUMP JUMPDEST PUSH1 0x0 DUP6 DUP2 MSTORE PUSH1 0x1 PUSH1 0x20 SWAP1 DUP2 MSTORE PUSH1 0x40 DUP1 DUP4 KECCAK256 PUSH1 0x1 PUSH1 0x1 PUSH1 0xA0 SHL SUB DUP1 DUP12 AND DUP1 DUP7 MSTORE SWAP2 DUP5 MSTORE DUP3 DUP6 KECCAK256 SWAP6 SWAP1 SWAP6 SSTORE DUP2 MLOAD DUP10 DUP2 MSTORE SWAP3 DUP4 ADD DUP9 SWAP1 MSTORE DUP2 MLOAD SWAP1 SWAP5 DUP7 AND SWAP3 PUSH32 0xC3D58168C5AE7397731D063D5BBF3D657854427343F4C083240F7AACAA2D0F62 SWAP3 SWAP1 DUP3 SWAP1 SUB ADD SWAP1 LOG4 PUSH2 0x2F78 DUP2 PUSH1 0x0 DUP8 DUP8 DUP8 DUP8 PUSH2 0x2B69 JUMP JUMPDEST POP POP POP POP POP JUMP JUMPDEST PUSH1 0x0 DUP2 DUP4 PUSH2 0x2FCE JUMPI PUSH1 0x40 MLOAD PUSH3 0x461BCD PUSH1 0xE5 SHL DUP2 MSTORE PUSH1 0x20 PUSH1 0x4 DUP3 ADD DUP2 DUP2 MSTORE DUP4 MLOAD PUSH1 0x24 DUP5 ADD MSTORE DUP4 MLOAD SWAP1 SWAP3 DUP4 SWAP3 PUSH1 0x44 SWAP1 SWAP2 ADD SWAP2 SWAP1 DUP6 ADD SWAP1 DUP1 DUP4 DUP4 PUSH1 0x0 DUP4 ISZERO PUSH2 0x2151 JUMPI DUP2 DUP2 ADD MLOAD DUP4 DUP3 ADD MSTORE PUSH1 0x20 ADD PUSH2 0x2139 JUMP JUMPDEST POP PUSH1 0x0 DUP4 DUP6 DUP2 PUSH2 0x2FDA JUMPI INVALID JUMPDEST DIV SWAP6 SWAP5 POP POP POP POP POP JUMP JUMPDEST PUSH1 0x0 DUP2 EXTCODEHASH PUSH32 0xC5D2460186F7233C927E7DB2DCC703C0E500B653CA82273B7BFAD8045D85A470 DUP2 DUP2 EQ DUP1 ISZERO SWAP1 PUSH2 0x3018 JUMPI POP DUP2 ISZERO ISZERO JUMPDEST SWAP5 SWAP4 POP POP POP POP JUMP JUMPDEST PUSH1 0x0 PUSH2 0x1AEC DUP4 DUP4 PUSH2 0x3338 JUMP JUMPDEST PUSH1 0x0 DUP2 DUP2 MSTORE PUSH1 0x1 DUP4 ADD PUSH1 0x20 MSTORE PUSH1 0x40 DUP2 KECCAK256 SLOAD DUP1 ISZERO PUSH2 0x30E8 JUMPI DUP4 SLOAD PUSH1 0x0 NOT DUP1 DUP4 ADD SWAP2 SWAP1 DUP2 ADD SWAP1 PUSH1 0x0 SWAP1 DUP8 SWAP1 DUP4 SWAP1 DUP2 LT PUSH2 0x305F JUMPI INVALID JUMPDEST SWAP1 PUSH1 0x0 MSTORE PUSH1 0x20 PUSH1 0x0 KECCAK256 ADD SLOAD SWAP1 POP DUP1 DUP8 PUSH1 0x0 ADD DUP5 DUP2 SLOAD DUP2 LT PUSH2 0x307C JUMPI INVALID JUMPDEST PUSH1 0x0 SWAP2 DUP3 MSTORE PUSH1 0x20 DUP1 DUP4 KECCAK256 SWAP1 SWAP2 ADD SWAP3 SWAP1 SWAP3 SSTORE DUP3 DUP2 MSTORE PUSH1 0x1 DUP10 DUP2 ADD SWAP1 SWAP3 MSTORE PUSH1 0x40 SWAP1 KECCAK256 SWAP1 DUP5 ADD SWAP1 SSTORE DUP7 SLOAD DUP8 SWAP1 DUP1 PUSH2 0x30AC JUMPI INVALID JUMPDEST PUSH1 0x1 SWAP1 SUB DUP2 DUP2 SWAP1 PUSH1 0x0 MSTORE PUSH1 0x20 PUSH1 0x0 KECCAK256 ADD PUSH1 0x0 SWAP1 SSTORE SWAP1 SSTORE DUP7 PUSH1 0x1 ADD PUSH1 0x0 DUP8 DUP2 MSTORE PUSH1 0x20 ADD SWAP1 DUP2 MSTORE PUSH1 0x20 ADD PUSH1 0x0 KECCAK256 PUSH1 0x0 SWAP1 SSTORE PUSH1 0x1 SWAP5 POP POP POP POP POP PUSH2 0xAC1 JUMP JUMPDEST PUSH1 0x0 SWAP2 POP POP PUSH2 0xAC1 JUMP JUMPDEST PUSH1 0x60 PUSH2 0x3147 DUP3 PUSH1 0x40 MLOAD DUP1 PUSH1 0x40 ADD PUSH1 0x40 MSTORE DUP1 PUSH1 0x20 DUP2 MSTORE PUSH1 0x20 ADD PUSH32 0x5361666545524332303A206C6F772D6C6576656C2063616C6C206661696C6564 DUP2 MSTORE POP DUP6 PUSH1 0x1 PUSH1 0x1 PUSH1 0xA0 SHL SUB AND PUSH2 0x3350 SWAP1 SWAP3 SWAP2 SWAP1 PUSH4 0xFFFFFFFF AND JUMP JUMPDEST DUP1 MLOAD SWAP1 SWAP2 POP ISZERO PUSH2 0xC19 JUMPI DUP1 DUP1 PUSH1 0x20 ADD SWAP1 MLOAD PUSH1 0x20 DUP2 LT ISZERO PUSH2 0x3166 JUMPI PUSH1 0x0 DUP1 REVERT JUMPDEST POP MLOAD PUSH2 0xC19 JUMPI PUSH1 0x40 MLOAD PUSH3 0x461BCD PUSH1 0xE5 SHL DUP2 MSTORE PUSH1 0x4 ADD DUP1 DUP1 PUSH1 0x20 ADD DUP3 DUP2 SUB DUP3 MSTORE PUSH1 0x2A DUP2 MSTORE PUSH1 0x20 ADD DUP1 PUSH2 0x3A4A PUSH1 0x2A SWAP2 CODECOPY PUSH1 0x40 ADD SWAP2 POP POP PUSH1 0x40 MLOAD DUP1 SWAP2 SUB SWAP1 REVERT JUMPDEST PUSH1 0x0 PUSH2 0x31AD PUSH2 0x357B JUMP JUMPDEST PUSH2 0x31B6 DUP6 PUSH2 0x267E JUMP JUMPDEST SWAP1 POP PUSH1 0x0 DUP2 PUSH1 0x0 ADD MLOAD PUSH2 0x31CB JUMPI PUSH1 0x0 NOT PUSH2 0x31CE JUMP JUMPDEST PUSH1 0x1 JUMPDEST SWAP1 POP PUSH1 0x0 PUSH2 0x31E9 DUP4 PUSH1 0x20 ADD MLOAD DUP8 PUSH2 0x29C4 SWAP1 SWAP2 SWAP1 PUSH4 0xFFFFFFFF AND JUMP JUMPDEST PUSH1 0x40 DUP5 ADD MLOAD SWAP1 SWAP2 POP PUSH1 0x0 SWAP1 PUSH2 0x3220 SWAP1 PUSH2 0x1B8D PUSH8 0xDE0B6B3A7640000 PUSH2 0x3214 DUP11 DUP5 PUSH4 0xFFFFFFFF PUSH2 0x335F AND JUMP JUMPDEST SWAP1 PUSH4 0xFFFFFFFF PUSH2 0x29C4 AND JUMP JUMPDEST SWAP1 POP PUSH1 0x0 PUSH2 0x3284 PUSH8 0xDE0B6B3A7640000 PUSH2 0x1B8D PUSH1 0x8 SLOAD PUSH1 0x4 PUSH1 0x0 SWAP1 SLOAD SWAP1 PUSH2 0x100 EXP SWAP1 DIV PUSH1 0x1 PUSH1 0x1 PUSH1 0xA0 SHL SUB AND PUSH1 0x1 PUSH1 0x1 PUSH1 0xA0 SHL SUB AND PUSH4 0x18160DDD PUSH1 0x40 MLOAD DUP2 PUSH4 0xFFFFFFFF AND PUSH1 0xE0 SHL DUP2 MSTORE PUSH1 0x4 ADD PUSH1 0x20 PUSH1 0x40 MLOAD DUP1 DUP4 SUB DUP2 DUP7 DUP1 EXTCODESIZE ISZERO DUP1 ISZERO PUSH2 0x1B55 JUMPI PUSH1 0x0 DUP1 REVERT JUMPDEST SWAP1 POP PUSH1 0x0 PUSH2 0x32AA PUSH8 0xDE0B6B3A7640000 PUSH2 0x1B8D DUP2 DUP2 DUP8 PUSH2 0x3214 DUP11 DUP13 PUSH4 0xFFFFFFFF PUSH2 0x29C4 AND JUMP JUMPDEST SWAP1 POP DUP2 DUP2 SGT ISZERO PUSH2 0x32B7 JUMPI POP DUP1 JUMPDEST SWAP10 SWAP9 POP POP POP POP POP POP POP POP POP JUMP JUMPDEST SLOAD SWAP1 JUMP JUMPDEST DUP2 SLOAD PUSH1 0x0 SWAP1 DUP3 LT PUSH2 0x330A JUMPI PUSH1 0x40 MLOAD PUSH3 0x461BCD PUSH1 0xE5 SHL DUP2 MSTORE PUSH1 0x4 ADD DUP1 DUP1 PUSH1 0x20 ADD DUP3 DUP2 SUB DUP3 MSTORE PUSH1 0x22 DUP2 MSTORE PUSH1 0x20 ADD DUP1 PUSH2 0x3681 PUSH1 0x22 SWAP2 CODECOPY PUSH1 0x40 ADD SWAP2 POP POP PUSH1 0x40 MLOAD DUP1 SWAP2 SUB SWAP1 REVERT JUMPDEST DUP3 PUSH1 0x0 ADD DUP3 DUP2 SLOAD DUP2 LT PUSH2 0x3319 JUMPI INVALID JUMPDEST SWAP1 PUSH1 0x0 MSTORE PUSH1 0x20 PUSH1 0x0 KECCAK256 ADD SLOAD SWAP1 POP SWAP3 SWAP2 POP POP JUMP JUMPDEST PUSH1 0x0 PUSH2 0x1AEC DUP4 DUP4 PUSH2 0x33C4 JUMP JUMPDEST PUSH1 0x0 SWAP1 DUP2 MSTORE PUSH1 0x1 SWAP2 SWAP1 SWAP2 ADD PUSH1 0x20 MSTORE PUSH1 0x40 SWAP1 KECCAK256 SLOAD ISZERO ISZERO SWAP1 JUMP JUMPDEST PUSH1 0x60 PUSH2 0x3018 DUP5 DUP5 PUSH1 0x0 DUP6 PUSH2 0x340E JUMP JUMPDEST PUSH1 0x0 DUP2 DUP4 SUB DUP2 DUP4 SLT DUP1 ISZERO SWAP1 PUSH2 0x3374 JUMPI POP DUP4 DUP2 SGT ISZERO JUMPDEST DUP1 PUSH2 0x3389 JUMPI POP PUSH1 0x0 DUP4 SLT DUP1 ISZERO PUSH2 0x3389 JUMPI POP DUP4 DUP2 SGT JUMPDEST PUSH2 0x1AEC JUMPI PUSH1 0x40 MLOAD PUSH3 0x461BCD PUSH1 0xE5 SHL DUP2 MSTORE PUSH1 0x4 ADD DUP1 DUP1 PUSH1 0x20 ADD DUP3 DUP2 SUB DUP3 MSTORE PUSH1 0x24 DUP2 MSTORE PUSH1 0x20 ADD DUP1 PUSH2 0x3A26 PUSH1 0x24 SWAP2 CODECOPY PUSH1 0x40 ADD SWAP2 POP POP PUSH1 0x40 MLOAD DUP1 SWAP2 SUB SWAP1 REVERT JUMPDEST PUSH1 0x0 PUSH2 0x33D0 DUP4 DUP4 PUSH2 0x3338 JUMP JUMPDEST PUSH2 0x3406 JUMPI POP DUP2 SLOAD PUSH1 0x1 DUP2 DUP2 ADD DUP5 SSTORE PUSH1 0x0 DUP5 DUP2 MSTORE PUSH1 0x20 DUP1 DUP3 KECCAK256 SWAP1 SWAP4 ADD DUP5 SWAP1 SSTORE DUP5 SLOAD DUP5 DUP3 MSTORE DUP3 DUP7 ADD SWAP1 SWAP4 MSTORE PUSH1 0x40 SWAP1 KECCAK256 SWAP2 SWAP1 SWAP2 SSTORE PUSH2 0xAC1 JUMP JUMPDEST POP PUSH1 0x0 PUSH2 0xAC1 JUMP JUMPDEST PUSH1 0x60 PUSH2 0x3419 DUP6 PUSH2 0x2FE4 JUMP JUMPDEST PUSH2 0x346A JUMPI PUSH1 0x40 DUP1 MLOAD PUSH3 0x461BCD PUSH1 0xE5 SHL DUP2 MSTORE PUSH1 0x20 PUSH1 0x4 DUP3 ADD MSTORE PUSH1 0x1D PUSH1 0x24 DUP3 ADD MSTORE PUSH32 0x416464726573733A2063616C6C20746F206E6F6E2D636F6E7472616374000000 PUSH1 0x44 DUP3 ADD MSTORE SWAP1 MLOAD SWAP1 DUP2 SWAP1 SUB PUSH1 0x64 ADD SWAP1 REVERT JUMPDEST PUSH1 0x0 PUSH1 0x60 DUP7 PUSH1 0x1 PUSH1 0x1 PUSH1 0xA0 SHL SUB AND DUP6 DUP8 PUSH1 0x40 MLOAD DUP1 DUP3 DUP1 MLOAD SWAP1 PUSH1 0x20 ADD SWAP1 DUP1 DUP4 DUP4 JUMPDEST PUSH1 0x20 DUP4 LT PUSH2 0x34A9 JUMPI DUP1 MLOAD DUP3 MSTORE PUSH1 0x1F NOT SWAP1 SWAP3 ADD SWAP2 PUSH1 0x20 SWAP2 DUP3 ADD SWAP2 ADD PUSH2 0x348A JUMP JUMPDEST PUSH1 0x1 DUP4 PUSH1 0x20 SUB PUSH2 0x100 EXP SUB DUP1 NOT DUP3 MLOAD AND DUP2 DUP5 MLOAD AND DUP1 DUP3 OR DUP6 MSTORE POP POP POP POP POP POP SWAP1 POP ADD SWAP2 POP POP PUSH1 0x0 PUSH1 0x40 MLOAD DUP1 DUP4 SUB DUP2 DUP6 DUP8 GAS CALL SWAP3 POP POP POP RETURNDATASIZE DUP1 PUSH1 0x0 DUP2 EQ PUSH2 0x350B JUMPI PUSH1 0x40 MLOAD SWAP2 POP PUSH1 0x1F NOT PUSH1 0x3F RETURNDATASIZE ADD AND DUP3 ADD PUSH1 0x40 MSTORE RETURNDATASIZE DUP3 MSTORE RETURNDATASIZE PUSH1 0x0 PUSH1 0x20 DUP5 ADD RETURNDATACOPY PUSH2 0x3510 JUMP JUMPDEST PUSH1 0x60 SWAP2 POP JUMPDEST POP SWAP2 POP SWAP2 POP DUP2 ISZERO PUSH2 0x3524 JUMPI SWAP2 POP PUSH2 0x3018 SWAP1 POP JUMP JUMPDEST DUP1 MLOAD ISZERO PUSH2 0x3534 JUMPI DUP1 MLOAD DUP1 DUP3 PUSH1 0x20 ADD REVERT JUMPDEST PUSH1 0x40 MLOAD PUSH3 0x461BCD PUSH1 0xE5 SHL DUP2 MSTORE PUSH1 0x20 PUSH1 0x4 DUP3 ADD DUP2 DUP2 MSTORE DUP7 MLOAD PUSH1 0x24 DUP5 ADD MSTORE DUP7 MLOAD DUP8 SWAP4 SWAP2 SWAP3 DUP4 SWAP3 PUSH1 0x44 ADD SWAP2 SWAP1 DUP6 ADD SWAP1 DUP1 DUP4 DUP4 PUSH1 0x0 DUP4 ISZERO PUSH2 0x2151 JUMPI DUP2 DUP2 ADD MLOAD DUP4 DUP3 ADD MSTORE PUSH1 0x20 ADD PUSH2 0x2139 JUMP JUMPDEST PUSH1 0x40 MLOAD DUP1 PUSH1 0x60 ADD PUSH1 0x40 MSTORE DUP1 PUSH1 0x0 ISZERO ISZERO DUP2 MSTORE PUSH1 0x20 ADD PUSH1 0x0 DUP2 MSTORE PUSH1 0x20 ADD PUSH1 0x0 DUP2 MSTORE POP SWAP1 JUMP JUMPDEST PUSH1 0xE0 SHR SWAP1 JUMP JUMPDEST PUSH1 0x0 PUSH1 0x44 RETURNDATASIZE LT ISZERO PUSH2 0x35B4 JUMPI PUSH2 0x19C6 JUMP JUMPDEST PUSH1 0x4 DUP2 DUP3 RETURNDATACOPY PUSH4 0x8C379A0 PUSH2 0x35C8 DUP3 MLOAD PUSH2 0x359E JUMP JUMPDEST EQ PUSH2 0x35D2 JUMPI PUSH2 0x19C6 JUMP JUMPDEST PUSH1 0x40 MLOAD RETURNDATASIZE PUSH1 0x3 NOT ADD PUSH1 0x4 DUP3 RETURNDATACOPY DUP1 MLOAD RETURNDATASIZE PUSH8 0xFFFFFFFFFFFFFFFF DUP2 PUSH1 0x24 DUP5 ADD GT DUP2 DUP5 GT OR ISZERO PUSH2 0x3602 JUMPI POP POP POP POP PUSH2 0x19C6 JUMP JUMPDEST DUP3 DUP5 ADD SWAP2 POP DUP2 MLOAD SWAP3 POP DUP1 DUP4 GT ISZERO PUSH2 0x361C JUMPI POP POP POP POP PUSH2 0x19C6 JUMP JUMPDEST POP RETURNDATASIZE DUP4 ADD PUSH1 0x20 DUP4 DUP4 ADD ADD GT ISZERO PUSH2 0x3634 JUMPI POP POP POP PUSH2 0x19C6 JUMP JUMPDEST PUSH1 0x1F SWAP2 SWAP1 SWAP2 ADD PUSH1 0x1F NOT AND DUP2 ADD PUSH1 0x20 ADD PUSH1 0x40 MSTORE SWAP2 POP POP SWAP1 JUMP INVALID GASLIMIT MSTORE NUMBER BALANCE BALANCE CALLDATALOAD CALLDATALOAD GASPRICE KECCAK256 PUSH21 0x72616E7366657220746F206E6F6E20455243313135 CALLDATALOAD MSTORE PUSH6 0x636569766572 KECCAK256 PUSH10 0x6D706C656D656E746572 GASLIMIT PUSH15 0x756D657261626C655365743A20696E PUSH5 0x6578206F75 PUSH21 0x206F6620626F756E6473455243313135353A204552 NUMBER BALANCE BALANCE CALLDATALOAD CALLDATALOAD MSTORE PUSH6 0x636569766572 KECCAK256 PUSH19 0x656A656374656420746F6B656E734F564C4650 PUSH16 0x736974696F6E3A20706F736974696F6E KECCAK256 PUSH14 0x75737420626520756E6465727761 PUSH21 0x6572455243313135353A2062616C616E6365207175 PUSH6 0x727920666F72 KECCAK256 PUSH21 0x6865207A65726F2061646472657373455243313135 CALLDATALOAD GASPRICE KECCAK256 PUSH3 0x617463 PUSH9 0x2062616C616E636520 PUSH18 0x7565727920666F7220746865207A65726F20 PUSH2 0x6464 PUSH19 0x657373455243313135353A206275726E20616D PUSH16 0x756E7420657863656564732062616C61 PUSH15 0x6365455243313135353A2063616C6C PUSH6 0x72206973206E PUSH16 0x74206F776E6572206E6F722061707072 PUSH16 0x7665644F564C46506F736974696F6E3A KECCAK256 PUSH14 0x757374206275696C6420706F7369 PUSH21 0x696F6E207769746820616D6F756E74206772656174 PUSH6 0x72207468616E KECCAK256 PUSH27 0x65726F4F564C46506F736974696F6E3A206D757374206275696C64 KECCAK256 PUSH17 0x6F736974696F6E2077697468206C657665 PUSH19 0x6167652067726561746572207468616E206D69 PUSH15 0x20616C6C6F7765644F564C46506F73 PUSH10 0x74696F6E3A2063616C6C PUSH6 0x72206973206E PUSH16 0x7420676F7665726E616E636545524331 BALANCE CALLDATALOAD CALLDATALOAD GASPRICE KECCAK256 PUSH21 0x72616E7366657220746F20746865207A65726F2061 PUSH5 0x6472657373 GASLIMIT MSTORE NUMBER BALANCE BALANCE CALLDATALOAD CALLDATALOAD GASPRICE KECCAK256 PUSH21 0x72616E736665722063616C6C6572206973206E6F74 KECCAK256 PUSH16 0x776E6572206E6F7220617070726F7665 PUSH5 0x5369676E65 PUSH5 0x536166654D PUSH2 0x7468 GASPRICE KECCAK256 PUSH5 0x6976697369 PUSH16 0x6E206F766572666C6F77455243313135 CALLDATALOAD GASPRICE KECCAK256 PUSH3 0x75726E KECCAK256 PUSH7 0x726F6D20746865 KECCAK256 PUSH27 0x65726F2061646472657373455243313135353A20696E7375666669 PUSH4 0x69656E74 KECCAK256 PUSH3 0x616C61 PUSH15 0x636520666F72207472616E73666572 MSTORE8 PUSH2 0x6665 0x4D PUSH2 0x7468 GASPRICE KECCAK256 PUSH14 0x756C7469706C69636174696F6E20 PUSH16 0x766572666C6F775369676E6564536166 PUSH6 0x4D6174683A20 PUSH14 0x756C7469706C69636174696F6E20 PUSH16 0x766572666C6F774F564C46506F736974 PUSH10 0x6F6E3A20706F73697469 PUSH16 0x6E206D7573742065786973744F564C46 POP PUSH16 0x736974696F6E3A206D75737420756E77 PUSH10 0x6E6420706F736974696F PUSH15 0x207769746820616D6F756E74206772 PUSH6 0x617465722074 PUSH9 0x616E207A65726F4F56 0x4C CHAINID POP PUSH16 0x736974696F6E3A206D75737420627569 PUSH13 0x6420706F736974696F6E207769 PUSH21 0x68206C65766572616765206C657373207468616E20 PUSH14 0x617820616C6C6F77656445524331 BALANCE CALLDATALOAD CALLDATALOAD GASPRICE KECCAK256 PUSH20 0x657474696E6720617070726F76616C2073746174 PUSH22 0x7320666F722073656C665369676E6564536166654D61 PUSH21 0x683A207375627472616374696F6E206F766572666C PUSH16 0x775361666545524332303A2045524332 ADDRESS KECCAK256 PUSH16 0x7065726174696F6E20646964206E6F74 KECCAK256 PUSH20 0x756363656564455243313135353A206163636F75 PUSH15 0x747320616E6420696473206C656E67 PUSH21 0x68206D69736D61746368455243313135353A206964 PUSH20 0x20616E6420616D6F756E7473206C656E67746820 PUSH14 0x69736D6174636845524331313535 GASPRICE KECCAK256 PUSH14 0x696E7420746F20746865207A6572 PUSH16 0x20616464726573734F564C46506F7369 PUSH21 0x696F6E3A206E6F7420656E6F756768206C6F636B65 PUSH5 0x20696E2070 PUSH16 0x6F6C20746F20756E77696E6420616D6F PUSH22 0x6E74A26469706673582212206C97B5B34E6D995744EE 0xB1 PUSH5 0x8F46166EDF PUSH16 0x957B9C84BA2882CEF61B049D22E06473 PUSH16 0x6C634300060800330000000000000000 ",
  "sha1": "ef9713fce0712539cdfd820ba490d0d50a37df6f",
  "source": "// SPDX-License-Identifier: AGPL-3.0-or-later\n\npragma solidity ^0.6.2;\n\nimport \"@openzeppelinV3/contracts/math/Math.sol\";\nimport \"@openzeppelinV3/contracts/math/SafeMath.sol\";\nimport \"@openzeppelinV3/contracts/math/SignedSafeMath.sol\";\nimport \"@openzeppelinV3/contracts/utils/Address.sol\";\nimport \"@openzeppelinV3/contracts/utils/EnumerableSet.sol\";\nimport \"@openzeppelinV3/contracts/token/ERC20/SafeERC20.sol\";\nimport \"@openzeppelinV3/contracts/token/ERC1155/ERC1155.sol\";\n\nimport \"../tokens/OVLToken.sol\";\nimport \"../utils/SignedMath.sol\";\nimport \"../../interfaces/overlay/IOVLPosition.sol\";\nimport \"../../interfaces/overlay/IOVLFeed.sol\";\n\ncontract OVLFPosition is ERC1155, IOVLPosition {\n  using SafeERC20 for OVLToken;\n  using Address for address;\n  using SafeMath for uint256;\n  using SignedSafeMath for int256;\n  using EnumerableSet for EnumerableSet.UintSet;\n\n  OVLToken public token;\n  IOVLFeed public feed;\n\n  uint256 public constant BASE = 1e18;\n  uint256 public constant MIN_LEVERAGE = 1e18;\n  uint256 public constant FEE_BURN = 50 * 1e16;\n  uint256 public constant LIQUIDATE_REWARD = 50 * 1e16;\n\n  // TODO: decimals ..\n\n  uint256 public maxLeverage = BASE.mul(10);\n  uint256 public tradeFee = BASE.mul(15).div(10000);\n  uint256 public maxPayout = BASE.mul(1).div(100); // per trade, % of token.totalSupply\n\n  address public governance;\n  address public treasury;\n\n  struct FPosition {\n    bool long;\n    uint256 leverage;\n    int256 lockPrice;\n  }\n\n  mapping (uint256 => FPosition) private _positions;\n  mapping (uint256 => uint256) private _amounts; // total OVL amount locked in position\n\n  EnumerableSet.UintSet private _open;\n\n  constructor(string memory _uri, address _token, address _feed) public ERC1155(_uri) {\n    token = OVLToken(_token);\n    governance = _msgSender();\n    treasury = _msgSender();\n    feed = IOVLFeed(_feed);\n  }\n\n  // build() locks _amount in OVL into position\n  function build(uint256 _amount, bool _long, uint256 _leverage) public virtual override {\n    require(_amount > 0, \"OVLFPosition: must build position with amount greater than zero\");\n    require(_leverage >= MIN_LEVERAGE, \"OVLFPosition: must build position with leverage greater than min allowed\");\n    require(_leverage <= maxLeverage, \"OVLFPosition: must build position with leverage less than max allowed\");\n\n    token.safeTransferFrom(_msgSender(), address(this), _amount);\n    uint256 fees = _calcFeeAmount(_amount, _leverage);\n    _amount = _amount.sub(fees);\n\n    // Enter position with corresponding receipt. 1:1 bw share of position (balance) and OVL locked for FPosition\n    uint256 id = _enterPosition(_amount, _long, _leverage);\n    _mint(_msgSender(), id, _amount, \"\");\n    _transferFeesToTreasury(fees);\n    emit Build(_msgSender(), id, _amount);\n  }\n\n  function buildAll(bool _long, uint256 _leverage) public virtual override {\n    uint256 amount = token.balanceOf(_msgSender());\n    build(amount, _long, _leverage);\n  }\n\n  // uwind() unlocks _amount in OVL from position\n  function unwind(uint256 _id, uint256 _amount) public virtual override {\n    // 1:1 bw share of position (balance) and OVL locked for FPosition\n    require(_amount > 0, \"OVLFPosition: must unwind position with amount greater than zero\");\n    require(_amount <= amountLockedIn(_id), \"OVLFPosition: not enough locked in pool to unwind amount\");\n\n    _burn(_msgSender(), _id, _amount);\n    int256 profit = _exitPosition(_id, _amount);\n\n    if (profit > 0) {\n      uint256 mintAmount = uint256(SignedMath.abs(profit));\n      token.mint(mintAmount);\n      _amount = _amount.add(mintAmount);\n    } else if (profit < 0) {\n      // Make sure don't burn more than original unwind amount\n      uint256 burnAmount = Math.min(uint256(SignedMath.abs(profit)), _amount);\n      token.burn(burnAmount);\n      _amount = _amount.sub(burnAmount);\n    }\n\n    uint256 leverage = leverageOf(_id);\n    uint256 fees = _calcFeeAmount(_amount, leverage);\n    _amount = _amount.sub(fees);\n\n    // Send principal + profit back to trader and fees to treasury\n    if (_amount > 0) {\n      token.safeTransfer(_msgSender(), _amount);\n      _transferFeesToTreasury(fees);\n    }\n    emit Unwind(_msgSender(), _id, _amount);\n  }\n\n  // uwindAll() unlocks entire position\n  function unwindAll(uint256 _id) public virtual override {\n    uint256 amount = balanceOf(_msgSender(), _id);\n    unwind(_id, amount);\n  }\n\n  // liquidate() burns underwater positions\n  function liquidate(uint256 _id) public virtual override {\n    require(_positionExists(_id), \"OVLFPosition: position must exist\");\n    int256 price = feed.getData();\n    require(_canLiquidate(_id, price), \"OVLFPosition: position must be underwater\");\n\n    uint256 amount = amountLockedIn(_id);\n    uint256 leverage = leverageOf(_id);\n    uint256 fees = _calcFeeAmount(amount, leverage);\n    amount = amount.sub(fees);\n\n    _amounts[_id] = 0;\n    _open.remove(_id);\n\n    // send fees to treasury and transfer rest to liquidater\n    uint256 reward = amount.mul(LIQUIDATE_REWARD).div(BASE);\n    amount = amount.sub(reward);\n    token.burn(amount);\n    token.safeTransfer(_msgSender(), reward);\n    _transferFeesToTreasury(fees);\n    emit Liquidate(_msgSender(), _id, reward);\n  }\n\n  // liquidatable() lists underwater positions\n  function liquidatable() public view virtual override returns (uint256[] memory) {\n    int256 price = feed.getData();\n    uint256[] memory liqs = new uint256[](_open.length()); // TODO: len > liqs.length, which produces empty zero values at the end of ret array. Is this a problem ever with keccak() ids and an edge case?\n    for (uint256 i=0; i < _open.length(); i++) {\n      uint256 id = _open.at(i);\n      if (_canLiquidate(id, price)) {\n        liqs[i] = id;\n      }\n    }\n    return liqs;\n  }\n\n  function open() public view returns (uint256[] memory) {\n    uint256[] memory ps = new uint256[](_open.length());\n    for (uint256 i=0; i < _open.length(); i++) {\n      uint256 id = _open.at(i);\n      ps[i] = id;\n    }\n    return ps;\n  }\n\n  function _enterPosition(uint256 _amount, bool _long, uint256 _leverage) private returns (uint256) {\n    int256 price = feed.getData();\n    uint256 id = getId(_long, _leverage, price);\n\n    if (!_positionExists(id)) {\n      _positions[id] = FPosition(_long, _leverage, price);\n      _open.add(id);\n    }\n\n    // update total locked amount\n    uint256 amountLocked = amountLockedIn(id);\n    _amounts[id] = amountLocked.add(_amount);\n\n    return id;\n  }\n\n  function _exitPosition(uint256 _id, uint256 _amount) private returns (int256) {\n    int256 price = feed.getData();\n    int256 profit = _calcProfit(_id, _amount, price);\n\n    // update total locked amount\n    uint256 amountLocked = amountLockedIn(_id);\n    _amounts[_id] = amountLocked.sub(_amount);\n\n    return profit;\n  }\n\n  function calcMaxProfit() public view returns (int256) {\n    return int256(token.totalSupply()).mul(int256(maxPayout)).div(int256(BASE));\n  }\n\n  function _calcProfit(uint256 _id, uint256 _amount, int256 _price) internal view returns (int256) {\n    // pnl = (exit - entry)/entry * side * leverage * amount\n    FPosition memory pos = _positionOf(_id);\n    int256 side = pos.long ? int256(1) : int256(-1);\n    int256 size = int256(_amount).mul(int256(pos.leverage));\n    int256 ratio = _price.sub(pos.lockPrice).mul(int256(BASE)).div(pos.lockPrice);\n\n    int256 maxProfit = int256(token.totalSupply()).mul(int256(maxPayout)).div(int256(BASE)); // TODO: Check for any rounding errors\n    int256 profit = size.mul(side).mul(ratio).div(int256(BASE)).div(int256(BASE)); // TODO: Check for any rounding errors\n    if (profit > maxProfit) {\n      profit = maxProfit;\n    }\n    return profit;\n  }\n\n  function _calcLiquidationPrice(FPosition memory pos) private pure returns (int256) {\n    int256 liquidationPrice;\n    if (pos.long) {\n      // liquidate = lockPrice * (1-1/leverage); liquidate when pnl = -amount so no debt\n      liquidationPrice = pos.lockPrice.mul(int256(pos.leverage.sub(BASE))).div(int256(pos.leverage));\n    } else {\n      // liquidate = lockPrice * (1+1/leverage)\n      liquidationPrice = pos.lockPrice.mul(int256(pos.leverage.add(BASE))).div(int256(pos.leverage));\n    }\n    return liquidationPrice;\n  }\n\n  function _canLiquidate(uint256 _id, int256 _price) private view returns (bool) {\n    FPosition memory pos = _positionOf(_id);\n    int256 liquidationPrice = _calcLiquidationPrice(pos);\n    bool can = false;\n    if (pos.long) {\n      can = (liquidationPrice >= _price);\n    } else {\n      can = (liquidationPrice <= _price);\n    }\n    return can;\n  }\n\n  function _calcFeeAmount(uint256 _amount, uint256 _leverage) internal view returns (uint256) {\n    return Math.min(_amount.mul(_leverage).mul(tradeFee).div(BASE).div(BASE), _amount);\n  }\n\n  function _transferFeesToTreasury(uint256 fees) private {\n    uint256 burnAmount = fees.mul(FEE_BURN).div(BASE);\n    token.burn(burnAmount);\n\n    fees = fees.sub(burnAmount);\n    token.safeTransfer(treasury, fees);\n  }\n\n  // pos attr views\n  function _positionOf(uint256 _id) private view returns (FPosition memory) {\n    require(_positionExists(_id), \"OVLFPosition: position must exist\"); // TODO: change this so doesn't revert but fix fns below?\n    return _positions[_id];\n  }\n\n  function _positionExists(uint256 _id) private view returns (bool) {\n    return _open.contains(_id);\n  }\n\n  // TODO: Check this is safe and unique\n  function getId(bool _long, uint256 _leverage, int256 _price) public pure returns (uint256) {\n    return uint256(keccak256(abi.encodePacked(_long, _leverage, _price)));\n  }\n\n  function amountLockedIn(uint256 _id) public view returns (uint256) {\n    return _amounts[_id];\n  }\n\n  function isLong(uint256 _id) public view returns (bool) {\n    FPosition memory pos = _positionOf(_id);\n    return pos.long;\n  }\n\n  function leverageOf(uint256 _id) public view returns (uint256) {\n    FPosition memory pos = _positionOf(_id);\n    return pos.leverage;\n  }\n\n  function lockPriceOf(uint256 _id) public view returns (int256) {\n    FPosition memory pos = _positionOf(_id);\n    return pos.lockPrice;\n  }\n\n  function liquidationPriceOf(uint256 _id) public view returns (int256) {\n    FPosition memory pos = _positionOf(_id);\n    return _calcLiquidationPrice(pos);\n  }\n\n  // gov setters\n  modifier onlyGov() {\n    require(governance == _msgSender(), \"OVLFPosition: caller is not governance\");\n    _;\n  }\n\n  function setMaxLeverage(uint256 _max) external onlyGov {\n    maxLeverage = _max;\n  }\n\n  function setTradeFee(uint256 _fee) external onlyGov {\n    tradeFee = _fee;\n  }\n\n  function setMaxPayout(uint256 _payout) external onlyGov {\n    maxPayout = _payout;\n  }\n\n  function setGovernance(address _gov) public onlyGov {\n    governance = _gov;\n  }\n\n  function setTreasury(address _treasury) public onlyGov {\n    treasury = _treasury;\n  }\n\n  function setFeed(address _feed) public onlyGov {\n    feed = IOVLFeed(_feed);\n  }\n}\n",
  "sourcePath": "contracts/positions/OVLFPosition.sol",
  "type": "contract"
}