{
  "abi": [
    {
      "inputs": [
        {
          "internalType": "string",
          "name": "_uri",
          "type": "string"
        },
        {
          "internalType": "address",
          "name": "_token",
          "type": "address"
        },
        {
          "internalType": "address",
          "name": "_feed",
          "type": "address"
        }
      ],
      "stateMutability": "nonpayable",
      "type": "constructor"
    },
    {
      "anonymous": false,
      "inputs": [
        {
          "indexed": true,
          "internalType": "address",
          "name": "account",
          "type": "address"
        },
        {
          "indexed": true,
          "internalType": "address",
          "name": "operator",
          "type": "address"
        },
        {
          "indexed": false,
          "internalType": "bool",
          "name": "approved",
          "type": "bool"
        }
      ],
      "name": "ApprovalForAll",
      "type": "event"
    },
    {
      "anonymous": false,
      "inputs": [
        {
          "indexed": true,
          "internalType": "address",
          "name": "by",
          "type": "address"
        },
        {
          "indexed": true,
          "internalType": "uint256",
          "name": "id",
          "type": "uint256"
        },
        {
          "indexed": false,
          "internalType": "uint256",
          "name": "value",
          "type": "uint256"
        }
      ],
      "name": "Build",
      "type": "event"
    },
    {
      "anonymous": false,
      "inputs": [
        {
          "indexed": true,
          "internalType": "address",
          "name": "by",
          "type": "address"
        },
        {
          "indexed": true,
          "internalType": "uint256",
          "name": "id",
          "type": "uint256"
        },
        {
          "indexed": false,
          "internalType": "uint256",
          "name": "value",
          "type": "uint256"
        }
      ],
      "name": "Liquidate",
      "type": "event"
    },
    {
      "anonymous": false,
      "inputs": [
        {
          "indexed": true,
          "internalType": "address",
          "name": "operator",
          "type": "address"
        },
        {
          "indexed": true,
          "internalType": "address",
          "name": "from",
          "type": "address"
        },
        {
          "indexed": true,
          "internalType": "address",
          "name": "to",
          "type": "address"
        },
        {
          "indexed": false,
          "internalType": "uint256[]",
          "name": "ids",
          "type": "uint256[]"
        },
        {
          "indexed": false,
          "internalType": "uint256[]",
          "name": "values",
          "type": "uint256[]"
        }
      ],
      "name": "TransferBatch",
      "type": "event"
    },
    {
      "anonymous": false,
      "inputs": [
        {
          "indexed": true,
          "internalType": "address",
          "name": "operator",
          "type": "address"
        },
        {
          "indexed": true,
          "internalType": "address",
          "name": "from",
          "type": "address"
        },
        {
          "indexed": true,
          "internalType": "address",
          "name": "to",
          "type": "address"
        },
        {
          "indexed": false,
          "internalType": "uint256",
          "name": "id",
          "type": "uint256"
        },
        {
          "indexed": false,
          "internalType": "uint256",
          "name": "value",
          "type": "uint256"
        }
      ],
      "name": "TransferSingle",
      "type": "event"
    },
    {
      "anonymous": false,
      "inputs": [
        {
          "indexed": false,
          "internalType": "string",
          "name": "value",
          "type": "string"
        },
        {
          "indexed": true,
          "internalType": "uint256",
          "name": "id",
          "type": "uint256"
        }
      ],
      "name": "URI",
      "type": "event"
    },
    {
      "anonymous": false,
      "inputs": [
        {
          "indexed": true,
          "internalType": "address",
          "name": "by",
          "type": "address"
        },
        {
          "indexed": true,
          "internalType": "uint256",
          "name": "id",
          "type": "uint256"
        },
        {
          "indexed": false,
          "internalType": "uint256",
          "name": "value",
          "type": "uint256"
        }
      ],
      "name": "Unwind",
      "type": "event"
    },
    {
      "inputs": [],
      "name": "MIN_LEVERAGE",
      "outputs": [
        {
          "internalType": "uint256",
          "name": "",
          "type": "uint256"
        }
      ],
      "stateMutability": "view",
      "type": "function"
    },
    {
      "inputs": [
        {
          "internalType": "uint256",
          "name": "_id",
          "type": "uint256"
        }
      ],
      "name": "amountLockedIn",
      "outputs": [
        {
          "internalType": "uint256",
          "name": "",
          "type": "uint256"
        }
      ],
      "stateMutability": "view",
      "type": "function"
    },
    {
      "inputs": [
        {
          "internalType": "address",
          "name": "account",
          "type": "address"
        },
        {
          "internalType": "uint256",
          "name": "id",
          "type": "uint256"
        }
      ],
      "name": "balanceOf",
      "outputs": [
        {
          "internalType": "uint256",
          "name": "",
          "type": "uint256"
        }
      ],
      "stateMutability": "view",
      "type": "function"
    },
    {
      "inputs": [
        {
          "internalType": "address[]",
          "name": "accounts",
          "type": "address[]"
        },
        {
          "internalType": "uint256[]",
          "name": "ids",
          "type": "uint256[]"
        }
      ],
      "name": "balanceOfBatch",
      "outputs": [
        {
          "internalType": "uint256[]",
          "name": "",
          "type": "uint256[]"
        }
      ],
      "stateMutability": "view",
      "type": "function"
    },
    {
      "inputs": [
        {
          "internalType": "uint256",
          "name": "_amount",
          "type": "uint256"
        },
        {
          "internalType": "bool",
          "name": "_long",
          "type": "bool"
        },
        {
          "internalType": "uint256",
          "name": "_leverage",
          "type": "uint256"
        }
      ],
      "name": "build",
      "outputs": [],
      "stateMutability": "nonpayable",
      "type": "function"
    },
    {
      "inputs": [
        {
          "internalType": "bool",
          "name": "_long",
          "type": "bool"
        },
        {
          "internalType": "uint256",
          "name": "_leverage",
          "type": "uint256"
        }
      ],
      "name": "buildAll",
      "outputs": [],
      "stateMutability": "nonpayable",
      "type": "function"
    },
    {
      "inputs": [],
      "name": "decimals",
      "outputs": [
        {
          "internalType": "uint8",
          "name": "",
          "type": "uint8"
        }
      ],
      "stateMutability": "view",
      "type": "function"
    },
    {
      "inputs": [],
      "name": "feeBurn",
      "outputs": [
        {
          "internalType": "uint256",
          "name": "",
          "type": "uint256"
        }
      ],
      "stateMutability": "view",
      "type": "function"
    },
    {
      "inputs": [],
      "name": "feed",
      "outputs": [
        {
          "internalType": "contract IOVLFeed",
          "name": "",
          "type": "address"
        }
      ],
      "stateMutability": "view",
      "type": "function"
    },
    {
      "inputs": [
        {
          "internalType": "bool",
          "name": "_long",
          "type": "bool"
        },
        {
          "internalType": "uint256",
          "name": "_leverage",
          "type": "uint256"
        },
        {
          "internalType": "int256",
          "name": "_price",
          "type": "int256"
        }
      ],
      "name": "getId",
      "outputs": [
        {
          "internalType": "uint256",
          "name": "",
          "type": "uint256"
        }
      ],
      "stateMutability": "pure",
      "type": "function"
    },
    {
      "inputs": [],
      "name": "governance",
      "outputs": [
        {
          "internalType": "address",
          "name": "",
          "type": "address"
        }
      ],
      "stateMutability": "view",
      "type": "function"
    },
    {
      "inputs": [
        {
          "internalType": "address",
          "name": "account",
          "type": "address"
        },
        {
          "internalType": "address",
          "name": "operator",
          "type": "address"
        }
      ],
      "name": "isApprovedForAll",
      "outputs": [
        {
          "internalType": "bool",
          "name": "",
          "type": "bool"
        }
      ],
      "stateMutability": "view",
      "type": "function"
    },
    {
      "inputs": [
        {
          "internalType": "uint256",
          "name": "_id",
          "type": "uint256"
        }
      ],
      "name": "isLong",
      "outputs": [
        {
          "internalType": "bool",
          "name": "",
          "type": "bool"
        }
      ],
      "stateMutability": "view",
      "type": "function"
    },
    {
      "inputs": [
        {
          "internalType": "uint256",
          "name": "_id",
          "type": "uint256"
        }
      ],
      "name": "leverageOf",
      "outputs": [
        {
          "internalType": "uint256",
          "name": "",
          "type": "uint256"
        }
      ],
      "stateMutability": "view",
      "type": "function"
    },
    {
      "inputs": [],
      "name": "liquidatable",
      "outputs": [
        {
          "internalType": "uint256[]",
          "name": "",
          "type": "uint256[]"
        }
      ],
      "stateMutability": "nonpayable",
      "type": "function"
    },
    {
      "inputs": [
        {
          "internalType": "uint256",
          "name": "_id",
          "type": "uint256"
        }
      ],
      "name": "liquidate",
      "outputs": [],
      "stateMutability": "nonpayable",
      "type": "function"
    },
    {
      "inputs": [],
      "name": "liquidateReward",
      "outputs": [
        {
          "internalType": "uint256",
          "name": "",
          "type": "uint256"
        }
      ],
      "stateMutability": "view",
      "type": "function"
    },
    {
      "inputs": [
        {
          "internalType": "uint256",
          "name": "_id",
          "type": "uint256"
        }
      ],
      "name": "liquidationPriceOf",
      "outputs": [
        {
          "internalType": "int256",
          "name": "",
          "type": "int256"
        }
      ],
      "stateMutability": "view",
      "type": "function"
    },
    {
      "inputs": [
        {
          "internalType": "uint256",
          "name": "_id",
          "type": "uint256"
        }
      ],
      "name": "lockPriceOf",
      "outputs": [
        {
          "internalType": "int256",
          "name": "",
          "type": "int256"
        }
      ],
      "stateMutability": "view",
      "type": "function"
    },
    {
      "inputs": [],
      "name": "maxLeverage",
      "outputs": [
        {
          "internalType": "uint256",
          "name": "",
          "type": "uint256"
        }
      ],
      "stateMutability": "view",
      "type": "function"
    },
    {
      "inputs": [],
      "name": "open",
      "outputs": [
        {
          "internalType": "uint256[]",
          "name": "",
          "type": "uint256[]"
        }
      ],
      "stateMutability": "view",
      "type": "function"
    },
    {
      "inputs": [
        {
          "internalType": "address",
          "name": "from",
          "type": "address"
        },
        {
          "internalType": "address",
          "name": "to",
          "type": "address"
        },
        {
          "internalType": "uint256[]",
          "name": "ids",
          "type": "uint256[]"
        },
        {
          "internalType": "uint256[]",
          "name": "amounts",
          "type": "uint256[]"
        },
        {
          "internalType": "bytes",
          "name": "data",
          "type": "bytes"
        }
      ],
      "name": "safeBatchTransferFrom",
      "outputs": [],
      "stateMutability": "nonpayable",
      "type": "function"
    },
    {
      "inputs": [
        {
          "internalType": "address",
          "name": "from",
          "type": "address"
        },
        {
          "internalType": "address",
          "name": "to",
          "type": "address"
        },
        {
          "internalType": "uint256",
          "name": "id",
          "type": "uint256"
        },
        {
          "internalType": "uint256",
          "name": "amount",
          "type": "uint256"
        },
        {
          "internalType": "bytes",
          "name": "data",
          "type": "bytes"
        }
      ],
      "name": "safeTransferFrom",
      "outputs": [],
      "stateMutability": "nonpayable",
      "type": "function"
    },
    {
      "inputs": [
        {
          "internalType": "address",
          "name": "operator",
          "type": "address"
        },
        {
          "internalType": "bool",
          "name": "approved",
          "type": "bool"
        }
      ],
      "name": "setApprovalForAll",
      "outputs": [],
      "stateMutability": "nonpayable",
      "type": "function"
    },
    {
      "inputs": [
        {
          "internalType": "uint256",
          "name": "_burn",
          "type": "uint256"
        }
      ],
      "name": "setFeeBurn",
      "outputs": [],
      "stateMutability": "nonpayable",
      "type": "function"
    },
    {
      "inputs": [
        {
          "internalType": "address",
          "name": "_feed",
          "type": "address"
        }
      ],
      "name": "setFeed",
      "outputs": [],
      "stateMutability": "nonpayable",
      "type": "function"
    },
    {
      "inputs": [
        {
          "internalType": "address",
          "name": "_gov",
          "type": "address"
        }
      ],
      "name": "setGovernance",
      "outputs": [],
      "stateMutability": "nonpayable",
      "type": "function"
    },
    {
      "inputs": [
        {
          "internalType": "uint256",
          "name": "_reward",
          "type": "uint256"
        }
      ],
      "name": "setLiquidateReward",
      "outputs": [],
      "stateMutability": "nonpayable",
      "type": "function"
    },
    {
      "inputs": [
        {
          "internalType": "uint256",
          "name": "_max",
          "type": "uint256"
        }
      ],
      "name": "setMaxLeverage",
      "outputs": [],
      "stateMutability": "nonpayable",
      "type": "function"
    },
    {
      "inputs": [
        {
          "internalType": "uint256",
          "name": "_fee",
          "type": "uint256"
        }
      ],
      "name": "setTradeFee",
      "outputs": [],
      "stateMutability": "nonpayable",
      "type": "function"
    },
    {
      "inputs": [
        {
          "internalType": "address",
          "name": "_treasury",
          "type": "address"
        }
      ],
      "name": "setTreasury",
      "outputs": [],
      "stateMutability": "nonpayable",
      "type": "function"
    },
    {
      "inputs": [
        {
          "internalType": "bytes4",
          "name": "interfaceId",
          "type": "bytes4"
        }
      ],
      "name": "supportsInterface",
      "outputs": [
        {
          "internalType": "bool",
          "name": "",
          "type": "bool"
        }
      ],
      "stateMutability": "view",
      "type": "function"
    },
    {
      "inputs": [],
      "name": "token",
      "outputs": [
        {
          "internalType": "contract OVLToken",
          "name": "",
          "type": "address"
        }
      ],
      "stateMutability": "view",
      "type": "function"
    },
    {
      "inputs": [],
      "name": "tradeFee",
      "outputs": [
        {
          "internalType": "uint256",
          "name": "",
          "type": "uint256"
        }
      ],
      "stateMutability": "view",
      "type": "function"
    },
    {
      "inputs": [],
      "name": "treasury",
      "outputs": [
        {
          "internalType": "address",
          "name": "",
          "type": "address"
        }
      ],
      "stateMutability": "view",
      "type": "function"
    },
    {
      "inputs": [
        {
          "internalType": "uint256",
          "name": "_id",
          "type": "uint256"
        },
        {
          "internalType": "uint256",
          "name": "_amount",
          "type": "uint256"
        }
      ],
      "name": "unwind",
      "outputs": [],
      "stateMutability": "nonpayable",
      "type": "function"
    },
    {
      "inputs": [
        {
          "internalType": "uint256",
          "name": "_id",
          "type": "uint256"
        }
      ],
      "name": "unwindAll",
      "outputs": [],
      "stateMutability": "nonpayable",
      "type": "function"
    },
    {
      "inputs": [
        {
          "internalType": "uint256",
          "name": "",
          "type": "uint256"
        }
      ],
      "name": "uri",
      "outputs": [
        {
          "internalType": "string",
          "name": "",
          "type": "string"
        }
      ],
      "stateMutability": "view",
      "type": "function"
    }
  ],
  "bytecode": "60806040526005805460ff60a01b1916600960a11b17905562000038670de0b6b3a7640000600a620002b7602090811b62001f6217901c565b6006556200007961271062000065600f670de0b6b3a7640000620002b760201b62001f621790919060201c565b6200031e60201b62001fbb1790919060201c565b600755620000a56064620000656032670de0b6b3a7640000620002b760201b62001f621790919060201c565b600855620000d16064620000656032670de0b6b3a7640000620002b760201b62001f621790919060201c565b600955348015620000e157600080fd5b5060405162003f0538038062003f05833981810160405260608110156200010757600080fd5b81019080805160405193929190846401000000008211156200012857600080fd5b9083019060208201858111156200013e57600080fd5b82516401000000008111828201881017156200015957600080fd5b82525081516020918201929091019080838360005b83811015620001885781810151838201526020016200016e565b50505050905090810190601f168015620001b65780820380516001836020036101000a031916815260200191505b5060409081526020820151910151909250905082620001e56301ffc9a760e01b6001600160e01b036200036816565b620001f9816001600160e01b03620003ed16565b62000214636cdb3d1360e11b6001600160e01b036200036816565b6200022f6303a24d0760e21b6001600160e01b036200036816565b50600480546001600160a01b0319166001600160a01b0384161790556200025562000406565b600a80546001600160a01b0319166001600160a01b03929092169190911790556200027f62000406565b600b80546001600160a01b039283166001600160a01b0319918216179091556005805493909216921691909117905550620005549050565b600082620002c85750600062000318565b82820282848281620002d657fe5b0414620003155760405162461bcd60e51b815260040180806020018281038252602181526020018062003ee46021913960400191505060405180910390fd5b90505b92915050565b60006200031583836040518060400160405280601a81526020017f536166654d6174683a206469766973696f6e206279207a65726f0000000000008152506200040b60201b60201c565b6001600160e01b03198082161415620003c8576040805162461bcd60e51b815260206004820152601c60248201527f4552433136353a20696e76616c696420696e7465726661636520696400000000604482015290519081900360640190fd5b6001600160e01b0319166000908152602081905260409020805460ff19166001179055565b805162000402906003906020840190620004b2565b5050565b335b90565b600081836200049b5760405162461bcd60e51b81526004018080602001828103825283818151815260200191508051906020019080838360005b838110156200045f57818101518382015260200162000445565b50505050905090810190601f1680156200048d5780820380516001836020036101000a031916815260200191505b509250505060405180910390fd5b506000838581620004a857fe5b0495945050505050565b828054600181600116156101000203166002900490600052602060002090601f016020900481019282601f10620004f557805160ff191683800117855562000525565b8280016001018555821562000525579182015b828111156200052557825182559160200191906001019062000508565b506200053392915062000537565b5090565b6200040891905b808211156200053357600081556001016200053e565b61398080620005646000396000f3fe608060405234801561001057600080fd5b50600436106102315760003560e01c80635aa6e67511610130578063bc42e95f116100b8578063f0f442601161007c578063f0f4426014610953578063f242432a14610979578063f612e79f14610a42578063fc0c546a14610a6d578063fcfff16f14610a7557610231565b8063bc42e95f146108b1578063d3127e63146108ce578063d7373c4e146108eb578063dc03261214610908578063e985e9c51461092557610231565b8063a22cb465116100ff578063a22cb4651461082a578063a750a58514610858578063a91a53b31461087b578063ab033ea914610883578063ae3302c2146108a957610231565b80635aa6e675146107d257806361d027b3146107da5780636844cf58146107e2578063a226b4831461080d57610231565b806334c1557d116101be578063523fd88911610182578063523fd8891461074d57806355b775ea1461076a5780635838dd8714610790578063583fef34146107ad5780635a28ae02146107b557610231565b806334c1557d1461057457806337a7b7d81461057c578063415f1240146105a05780634d08ff24146105bd5780634e1273f4146105da57610231565b80631060302311610205578063106030231461036857806324bcdfbd146103855780632eb2c2d61461038d578063313ce5671461054e57806331e4e0301461056c57610231565b8062fdd58e1461023657806301ffc9a7146102745780630e89341c146102af5780630fc5962a14610341575b600080fd5b6102626004803603604081101561024c57600080fd5b506001600160a01b038135169060200135610a7d565b60408051918252519081900360200190f35b61029b6004803603602081101561028a57600080fd5b50356001600160e01b031916610aef565b604080519115158252519081900360200190f35b6102cc600480360360208110156102c557600080fd5b5035610b0e565b6040805160208082528351818301528351919283929083019185019080838360005b838110156103065781810151838201526020016102ee565b50505050905090810190601f1680156103335780820380516001836020036101000a031916815260200191505b509250505060405180910390f35b6103666004803603604081101561035757600080fd5b50803515159060200135610ba6565b005b6103666004803603602081101561037e57600080fd5b5035610c46565b610262610c9f565b610366600480360360a08110156103a357600080fd5b6001600160a01b038235811692602081013590911691810190606081016040820135600160201b8111156103d657600080fd5b8201836020820111156103e857600080fd5b803590602001918460208302840111600160201b8311171561040957600080fd5b9190808060200260200160405190810160405280939291908181526020018383602002808284376000920191909152509295949360208101935035915050600160201b81111561045857600080fd5b82018360208201111561046a57600080fd5b803590602001918460208302840111600160201b8311171561048b57600080fd5b9190808060200260200160405190810160405280939291908181526020018383602002808284376000920191909152509295949360208101935035915050600160201b8111156104da57600080fd5b8201836020820111156104ec57600080fd5b803590602001918460018302840111600160201b8311171561050d57600080fd5b91908080601f016020809104026020016040519081016040528093929190818152602001838380828437600092019190915250929550610ca5945050505050565b610556610fa3565b6040805160ff9092168252519081900360200190f35b610262610fb3565b610262610fb9565b610584610fc5565b604080516001600160a01b039092168252519081900360200190f35b610366600480360360208110156105b657600080fd5b5035610fd4565b610262600480360360208110156105d357600080fd5b50356111e8565b6106fd600480360360408110156105f057600080fd5b810190602081018135600160201b81111561060a57600080fd5b82018360208201111561061c57600080fd5b803590602001918460208302840111600160201b8311171561063d57600080fd5b9190808060200260200160405190810160405280939291908181526020018383602002808284376000920191909152509295949360208101935035915050600160201b81111561068c57600080fd5b82018360208201111561069e57600080fd5b803590602001918460208302840111600160201b831117156106bf57600080fd5b919080806020026020016040519081016040528093929190818152602001838360200280828437600092019190915250929550611206945050505050565b60408051602080825283518183015283519192839290830191858101910280838360005b83811015610739578181015183820152602001610721565b505050509050019250505060405180910390f35b6103666004803603602081101561076357600080fd5b5035611384565b6103666004803603602081101561078057600080fd5b50356001600160a01b03166113dd565b610366600480360360208110156107a657600080fd5b5035611453565b6102626114ac565b610366600480360360208110156107cb57600080fd5b50356114b2565b6105846114d5565b6105846114e4565b610262600480360360608110156107f857600080fd5b508035151590602081013590604001356114f3565b61029b6004803603602081101561082357600080fd5b5035611531565b6103666004803603604081101561084057600080fd5b506001600160a01b038135169060200135151561154c565b6103666004803603604081101561086e57600080fd5b508035906020013561163b565b6106fd6118be565b6103666004803603602081101561089957600080fd5b50356001600160a01b031661197e565b6102626119f4565b610262600480360360208110156108c757600080fd5b50356119fa565b610366600480360360208110156108e457600080fd5b5035611a0c565b6102626004803603602081101561090157600080fd5b5035611a65565b6102626004803603602081101561091e57600080fd5b5035611a83565b61029b6004803603604081101561093b57600080fd5b506001600160a01b0381358116916020013516611aa8565b6103666004803603602081101561096957600080fd5b50356001600160a01b0316611ad6565b610366600480360360a081101561098f57600080fd5b6001600160a01b03823581169260208101359091169160408201359160608101359181019060a081016080820135600160201b8111156109ce57600080fd5b8201836020820111156109e057600080fd5b803590602001918460018302840111600160201b83111715610a0157600080fd5b91908080601f016020809104026020016040519081016040528093929190818152602001838380828437600092019190915250929550611b4c945050505050565b61036660048036036060811015610a5857600080fd5b50803590602081013515159060400135611d1d565b610584611eb3565b6106fd611ec2565b60006001600160a01b038316610ac45760405162461bcd60e51b815260040180806020018281038252602b815260200180613521602b913960400191505060405180910390fd5b5060008181526001602090815260408083206001600160a01b03861684529091529020545b92915050565b6001600160e01b03191660009081526020819052604090205460ff1690565b60038054604080516020601f6002600019610100600188161502019095169490940493840181900481028201810190925282815260609390929091830182828015610b9a5780601f10610b6f57610100808354040283529160200191610b9a565b820191906000526020600020905b815481529060010190602001808311610b7d57829003601f168201915b50505050509050919050565b6004546000906001600160a01b03166370a08231610bc2611ffd565b6040518263ffffffff1660e01b815260040180826001600160a01b03166001600160a01b0316815260200191505060206040518083038186803b158015610c0857600080fd5b505afa158015610c1c573d6000803e3d6000fd5b505050506040513d6020811015610c3257600080fd5b50519050610c41818484611d1d565b505050565b610c4e611ffd565b600a546001600160a01b03908116911614610c9a5760405162461bcd60e51b81526004018080602001828103825260268152602001806136516026913960400191505060405180910390fd5b600755565b60075481565b8151835114610ce55760405162461bcd60e51b81526004018080602001828103825260288152602001806138ca6028913960400191505060405180910390fd5b6001600160a01b038416610d2a5760405162461bcd60e51b81526004018080602001828103825260258152602001806136776025913960400191505060405180910390fd5b610d32611ffd565b6001600160a01b0316856001600160a01b03161480610d5d5750610d5d85610d58611ffd565b611aa8565b610d985760405162461bcd60e51b815260040180806020018281038252603281526020018061369c6032913960400191505060405180910390fd5b6000610da2611ffd565b9050610db2818787878787610f9b565b60005b8451811015610eb3576000858281518110610dcc57fe5b602002602001015190506000858381518110610de457fe5b60200260200101519050610e51816040518060600160405280602a8152602001613712602a91396001600086815260200190815260200160002060008d6001600160a01b03166001600160a01b03168152602001908152602001600020546120019092919063ffffffff16565b60008381526001602090815260408083206001600160a01b038e811685529252808320939093558a1681522054610e889082612098565b60009283526001602081815260408086206001600160a01b038d168752909152909320555001610db5565b50846001600160a01b0316866001600160a01b0316826001600160a01b03167f4a39dc06d4c0dbc64b70af90fd698a233a518aa5d07e595d983b8c0526c8f7fb8787604051808060200180602001838103835285818151815260200191508051906020019060200280838360005b83811015610f39578181015183820152602001610f21565b50505050905001838103825284818151815260200191508051906020019060200280838360005b83811015610f78578181015183820152602001610f60565b5050505090500194505050505060405180910390a4610f9b8187878787876120f2565b505050505050565b600554600160a01b900460ff1681565b60095481565b670de0b6b3a764000081565b6005546001600160a01b031681565b610fdd81612383565b6110185760405162461bcd60e51b81526004018080602001828103825260218152602001806137846021913960400191505060405180910390fd5b6000611022612396565b905061102e828261240e565b6110695760405162461bcd60e51b81526004018080602001828103825260298152602001806134f86029913960400191505060405180910390fd5b6000611074836119fa565b90506000611081846111e8565b9050600061108f8383612454565b90506110a1838263ffffffff61249616565b6000868152600d602052604081205592506110c3600e8663ffffffff6124d816565b5060006110f3670de0b6b3a76400006110e760095487611f6290919063ffffffff16565b9063ffffffff611fbb16565b9050611105848263ffffffff61249616565b6004805460408051630852cd8d60e31b8152928301849052519296506001600160a01b0316916342966c689160248082019260009290919082900301818387803b15801561115257600080fd5b505af1158015611166573d6000803e3d6000fd5b5050505061118e611175611ffd565b6004546001600160a01b0316908363ffffffff6124e416565b61119782612536565b856111a0611ffd565b6001600160a01b03167f3c4b1d42b9c7fa283f6fe657533f6a5a8a7ad1d36f9ef1d9d89ad04485e10d2c836040518082815260200191505060405180910390a3505050505050565b60006111f26133a8565b6111fb836125f7565b602001519392505050565b606081518351146112485760405162461bcd60e51b81526004018080602001828103825260298152602001806138a16029913960400191505060405180910390fd5b6060835167ffffffffffffffff8111801561126257600080fd5b5060405190808252806020026020018201604052801561128c578160200160208202803683370190505b50905060005b845181101561137c5760006001600160a01b03168582815181106112b257fe5b60200260200101516001600160a01b031614156113005760405162461bcd60e51b815260040180806020018281038252603181526020018061354c6031913960400191505060405180910390fd5b6001600085838151811061131057fe5b60200260200101518152602001908152602001600020600086838151811061133457fe5b60200260200101516001600160a01b03166001600160a01b031681526020019081526020016000205482828151811061136957fe5b6020908102919091010152600101611292565b509392505050565b61138c611ffd565b600a546001600160a01b039081169116146113d85760405162461bcd60e51b81526004018080602001828103825260268152602001806136516026913960400191505060405180910390fd5b600955565b6113e5611ffd565b600a546001600160a01b039081169116146114315760405162461bcd60e51b81526004018080602001828103825260268152602001806136516026913960400191505060405180910390fd5b600580546001600160a01b0319166001600160a01b0392909216919091179055565b61145b611ffd565b600a546001600160a01b039081169116146114a75760405162461bcd60e51b81526004018080602001828103825260268152602001806136516026913960400191505060405180910390fd5b600855565b60085481565b60006114c56114bf611ffd565b83610a7d565b90506114d1828261163b565b5050565b600a546001600160a01b031681565b600b546001600160a01b031681565b6040805193151560f81b6020808601919091526021850193909352604180850192909252805180850390920182526061909301909252815191012090565b600061153b6133a8565b611544836125f7565b519392505050565b816001600160a01b031661155e611ffd565b6001600160a01b031614156115a45760405162461bcd60e51b815260040180806020018281038252602981526020018061382a6029913960400191505060405180910390fd5b80600260006115b1611ffd565b6001600160a01b03908116825260208083019390935260409182016000908120918716808252919093529120805460ff1916921515929092179091556115f5611ffd565b60408051841515815290516001600160a01b0392909216917f17307eab39ab6107e8899845ad3d59bd9653f200f220920489ca2b5937696c319181900360200190a35050565b6000811161167a5760405162461bcd60e51b81526004018080602001828103825260408152602001806137a56040913960400191505060405180910390fd5b611683826119fa565b8111156116c15760405162461bcd60e51b81526004018080602001828103825260388152602001806139136038913960400191505060405180910390fd5b6116d36116cc611ffd565b8383612681565b60006116df83836127ba565b905060008113156117755760006116f58261280c565b600480546040805163140e25ad60e31b8152928301849052519293506001600160a01b03169163a0712d689160248082019260009290919082900301818387803b15801561174257600080fd5b505af1158015611756573d6000803e3d6000fd5b5050505061176d818461209890919063ffffffff16565b92505061180e565b600081121561180e57600061179261178c8361280c565b84612831565b6004805460408051630852cd8d60e31b8152928301849052519293506001600160a01b0316916342966c689160248082019260009290919082900301818387803b1580156117df57600080fd5b505af11580156117f3573d6000803e3d6000fd5b5050505061180a818461249690919063ffffffff16565b9250505b6000611819846111e8565b905060006118278483612454565b9050611839848263ffffffff61249616565b9350831561186e5761186561184c611ffd565b6004546001600160a01b0316908663ffffffff6124e416565b61186e81612536565b84611877611ffd565b6001600160a01b03167f5814b4996e98740654cdbafc62c8147cf3ab7657b106293c6080d9a0180d31e0866040518082815260200191505060405180910390a35050505050565b606060006118ca612396565b905060606118d8600e612847565b67ffffffffffffffff811180156118ee57600080fd5b50604051908082528060200260200182016040528015611918578160200160208202803683370190505b50905060005b611928600e612847565b811015611976576000611942600e8363ffffffff61285216565b905061194e818561240e565b1561196d578083838151811061196057fe5b6020026020010181815250505b5060010161191e565b509150505b90565b611986611ffd565b600a546001600160a01b039081169116146119d25760405162461bcd60e51b81526004018080602001828103825260268152602001806136516026913960400191505060405180910390fd5b600a80546001600160a01b0319166001600160a01b0392909216919091179055565b60065481565b6000908152600d602052604090205490565b611a14611ffd565b600a546001600160a01b03908116911614611a605760405162461bcd60e51b81526004018080602001828103825260268152602001806136516026913960400191505060405180910390fd5b600655565b6000611a6f6133a8565b611a78836125f7565b604001519392505050565b6000611a8d6133a8565b611a96836125f7565b9050611aa18161285e565b9392505050565b6001600160a01b03918216600090815260026020908152604080832093909416825291909152205460ff1690565b611ade611ffd565b600a546001600160a01b03908116911614611b2a5760405162461bcd60e51b81526004018080602001828103825260268152602001806136516026913960400191505060405180910390fd5b600b80546001600160a01b0319166001600160a01b0392909216919091179055565b6001600160a01b038416611b915760405162461bcd60e51b81526004018080602001828103825260258152602001806136776025913960400191505060405180910390fd5b611b99611ffd565b6001600160a01b0316856001600160a01b03161480611bbf5750611bbf85610d58611ffd565b611bfa5760405162461bcd60e51b81526004018080602001828103825260298152602001806135a16029913960400191505060405180910390fd5b6000611c04611ffd565b9050611c24818787611c15886128d7565b611c1e886128d7565b87610f9b565b611c71836040518060600160405280602a8152602001613712602a913960008781526001602090815260408083206001600160a01b038d168452909152902054919063ffffffff61200116565b60008581526001602090815260408083206001600160a01b038b81168552925280832093909355871681522054611ca89084612098565b60008581526001602090815260408083206001600160a01b03808b168086529184529382902094909455805188815291820187905280518a8416938616927fc3d58168c5ae7397731d063d5bbf3d657854427343f4c083240f7aacaa2d0f6292908290030190a4610f9b81878787878761291b565b60008311611d5c5760405162461bcd60e51b815260040180806020018281038252603f8152602001806135ca603f913960400191505060405180910390fd5b670de0b6b3a7640000811015611da35760405162461bcd60e51b81526004018080602001828103825260488152602001806136096048913960600191505060405180910390fd5b600654811115611de45760405162461bcd60e51b81526004018080602001828103825260458152602001806137e56045913960600191505060405180910390fd5b611e09611def611ffd565b6004546001600160a01b031690308663ffffffff612a9e16565b6000611e158483612454565b9050611e27848263ffffffff61249616565b93506000611e36858585612afe565b9050611e5a611e43611ffd565b828760405180602001604052806000815250612bb1565b611e6382612536565b80611e6c611ffd565b6001600160a01b03167f26762795cda5552a98dbf495f5525efb05f3d55c5764fa0c6cfaa27150fe1807876040518082815260200191505060405180910390a35050505050565b6004546001600160a01b031681565b606080611ecf600e612847565b67ffffffffffffffff81118015611ee557600080fd5b50604051908082528060200260200182016040528015611f0f578160200160208202803683370190505b50905060005b611f1f600e612847565b811015611f5c576000611f39600e8363ffffffff61285216565b905080838381518110611f4857fe5b602090810291909101015250600101611f15565b50905090565b600082611f7157506000610ae9565b82820282848281611f7e57fe5b0414611aa15760405162461bcd60e51b815260040180806020018281038252602181526020018061373c6021913960400191505060405180910390fd5b6000611aa183836040518060400160405280601a81526020017f536166654d6174683a206469766973696f6e206279207a65726f000000000000815250612cbf565b3390565b600081848411156120905760405162461bcd60e51b81526004018080602001828103825283818151815260200191508051906020019080838360005b8381101561205557818101518382015260200161203d565b50505050905090810190601f1680156120825780820380516001836020036101000a031916815260200191505b509250505060405180910390fd5b505050900390565b600082820183811015611aa1576040805162461bcd60e51b815260206004820152601b60248201527f536166654d6174683a206164646974696f6e206f766572666c6f770000000000604482015290519081900360640190fd5b612104846001600160a01b0316612d24565b15610f9b57836001600160a01b031663bc197c8187878686866040518663ffffffff1660e01b815260040180866001600160a01b03166001600160a01b03168152602001856001600160a01b03166001600160a01b03168152602001806020018060200180602001848103845287818151815260200191508051906020019060200280838360005b838110156121a457818101518382015260200161218c565b50505050905001848103835286818151815260200191508051906020019060200280838360005b838110156121e35781810151838201526020016121cb565b50505050905001848103825285818151815260200191508051906020019080838360005b8381101561221f578181015183820152602001612207565b50505050905090810190601f16801561224c5780820380516001836020036101000a031916815260200191505b5098505050505050505050602060405180830381600087803b15801561227157600080fd5b505af192505050801561229657506040513d602081101561229157600080fd5b505160015b61232b576122a26133d1565b806122ad57506122f4565b60405162461bcd60e51b815260206004820181815283516024840152835184939192839260440191908501908083836000831561205557818101518382015260200161203d565b60405162461bcd60e51b815260040180806020018281038252603481526020018061347a6034913960400191505060405180910390fd5b6001600160e01b0319811663bc197c8160e01b1461237a5760405162461bcd60e51b81526004018080602001828103825260288152602001806134d06028913960400191505060405180910390fd5b50505050505050565b6000610ae9600e8363ffffffff612d6016565b600554604080516333c22f0b60e11b8152815160009384936001600160a01b03909116926367845e16926004808301939282900301818787803b1580156123dc57600080fd5b505af11580156123f0573d6000803e3d6000fd5b505050506040513d604081101561240657600080fd5b505191505090565b60006124186133a8565b612421846125f7565b9050600061242e8261285e565b82519091506000901561244557508381121561244b565b50838113155b95945050505050565b6000611aa161178c670de0b6b3a76400006110e7670de0b6b3a76400006110e760075461248a898b611f6290919063ffffffff16565b9063ffffffff611f6216565b6000611aa183836040518060400160405280601e81526020017f536166654d6174683a207375627472616374696f6e206f766572666c6f770000815250612001565b6000611aa18383612d6c565b604080516001600160a01b038416602482015260448082018490528251808303909101815260649091019091526020810180516001600160e01b031663a9059cbb60e01b179052610c41908490612e32565b6000612559670de0b6b3a76400006110e760085485611f6290919063ffffffff16565b6004805460408051630852cd8d60e31b8152928301849052519293506001600160a01b0316916342966c689160248082019260009290919082900301818387803b1580156125a657600080fd5b505af11580156125ba573d6000803e3d6000fd5b505050506125d1818361249690919063ffffffff16565b600b546004549193506114d1916001600160a01b0390811691168463ffffffff6124e416565b6125ff6133a8565b61260882612383565b6126435760405162461bcd60e51b81526004018080602001828103825260218152602001806137846021913960400191505060405180910390fd5b506000908152600c60209081526040918290208251606081018452815460ff1615158152600182015492810192909252600201549181019190915290565b6001600160a01b0383166126c65760405162461bcd60e51b81526004018080602001828103825260238152602001806136ef6023913960400191505060405180910390fd5b60006126d0611ffd565b9050612700818560006126e2876128d7565b6126eb876128d7565b60405180602001604052806000815250610f9b565b61274d8260405180606001604052806024815260200161357d6024913960008681526001602090815260408083206001600160a01b038b168452909152902054919063ffffffff61200116565b60008481526001602090815260408083206001600160a01b03808a16808652918452828520959095558151888152928301879052815193949093908616927fc3d58168c5ae7397731d063d5bbf3d657854427343f4c083240f7aacaa2d0f6292908290030190a450505050565b6000806127c5612396565b905060006127d4858584612ee3565b905060006127e1866119fa565b90506127f3818663ffffffff61249616565b6000878152600d60205260409020555091505092915050565b60008082121561282d576128288260001963ffffffff612f9016565b610ae9565b5090565b60008183106128405781611aa1565b5090919050565b6000610ae982613039565b6000611aa1838361303d565b6000808260000151156128b35760208301516128ac906128a061288f82670de0b6b3a764000063ffffffff61249616565b60408701519063ffffffff612f9016565b9063ffffffff6130a116565b9050610ae9565b6020830151611aa1906128a061288f82670de0b6b3a764000063ffffffff61209816565b60408051600180825281830190925260609182919060208083019080368337019050509050828160008151811061290a57fe5b602090810291909101015292915050565b61292d846001600160a01b0316612d24565b15610f9b57836001600160a01b031663f23a6e6187878686866040518663ffffffff1660e01b815260040180866001600160a01b03166001600160a01b03168152602001856001600160a01b03166001600160a01b0316815260200184815260200183815260200180602001828103825283818151815260200191508051906020019080838360005b838110156129ce5781810151838201526020016129b6565b50505050905090810190601f1680156129fb5780820380516001836020036101000a031916815260200191505b509650505050505050602060405180830381600087803b158015612a1e57600080fd5b505af1925050508015612a4357506040513d6020811015612a3e57600080fd5b505160015b612a4f576122a26133d1565b6001600160e01b0319811663f23a6e6160e01b1461237a5760405162461bcd60e51b81526004018080602001828103825260288152602001806134d06028913960400191505060405180910390fd5b604080516001600160a01b0380861660248301528416604482015260648082018490528251808303909101815260849091019091526020810180516001600160e01b03166323b872dd60e01b179052612af8908590612e32565b50505050565b600080612b09612396565b90506000612b188585846114f3565b9050612b2381612383565b612b7b5760408051606081018252861515815260208082018781528284018681526000868152600c909352939091209151825460ff19169015151782555160018201559051600290910155612b79600e82613159565b505b6000612b86826119fa565b9050612b98818863ffffffff61209816565b6000838152600d60205260409020555095945050505050565b6001600160a01b038416612bf65760405162461bcd60e51b81526004018080602001828103825260218152602001806138f26021913960400191505060405180910390fd5b6000612c00611ffd565b9050612c1281600087611c15886128d7565b60008481526001602090815260408083206001600160a01b0389168452909152902054612c45908463ffffffff61209816565b60008581526001602090815260408083206001600160a01b03808b16808652918452828520959095558151898152928301889052815190948616927fc3d58168c5ae7397731d063d5bbf3d657854427343f4c083240f7aacaa2d0f6292908290030190a4612cb88160008787878761291b565b5050505050565b60008183612d0e5760405162461bcd60e51b815260206004820181815283516024840152835190928392604490910191908501908083836000831561205557818101518382015260200161203d565b506000838581612d1a57fe5b0495945050505050565b6000813f7fc5d2460186f7233c927e7db2dcc703c0e500b653ca82273b7bfad8045d85a470818114801590612d5857508115155b949350505050565b6000611aa18383613165565b60008181526001830160205260408120548015612e285783546000198083019190810190600090879083908110612d9f57fe5b9060005260206000200154905080876000018481548110612dbc57fe5b600091825260208083209091019290925582815260018981019092526040902090840190558654879080612dec57fe5b60019003818190600052602060002001600090559055866001016000878152602001908152602001600020600090556001945050505050610ae9565b6000915050610ae9565b6060612e87826040518060400160405280602081526020017f5361666545524332303a206c6f772d6c6576656c2063616c6c206661696c6564815250856001600160a01b031661317d9092919063ffffffff16565b805190915015610c4157808060200190516020811015612ea657600080fd5b5051610c415760405162461bcd60e51b815260040180806020018281038252602a815260200180613877602a913960400191505060405180910390fd5b6000612eed6133a8565b612ef6856125f7565b905060008160000151612f0b57600019612f0e565b60015b90506000612f29836020015187612f9090919063ffffffff16565b6040840151909150600090612f60906128a0670de0b6b3a7640000612f548a8463ffffffff61318c16565b9063ffffffff612f9016565b9050612f84670de0b6b3a76400006128a0818185612f54888a63ffffffff612f9016565b98975050505050505050565b600082612f9f57506000610ae9565b82600019148015612fb35750600160ff1b82145b15612fef5760405162461bcd60e51b815260040180806020018281038252602781526020018061375d6027913960400191505060405180910390fd5b82820282848281612ffc57fe5b0514611aa15760405162461bcd60e51b815260040180806020018281038252602781526020018061375d6027913960400191505060405180910390fd5b5490565b8154600090821061307f5760405162461bcd60e51b81526004018080602001828103825260228152602001806134ae6022913960400191505060405180910390fd5b82600001828154811061308e57fe5b9060005260206000200154905092915050565b6000816130f5576040805162461bcd60e51b815260206004820181905260248201527f5369676e6564536166654d6174683a206469766973696f6e206279207a65726f604482015290519081900360640190fd5b816000191480156131095750600160ff1b83145b156131455760405162461bcd60e51b81526004018080602001828103825260218152602001806136ce6021913960400191505060405180910390fd5b600082848161315057fe5b05949350505050565b6000611aa183836131f1565b60009081526001919091016020526040902054151590565b6060612d58848460008561323b565b60008183038183128015906131a15750838113155b806131b657506000831280156131b657508381135b611aa15760405162461bcd60e51b81526004018080602001828103825260248152602001806138536024913960400191505060405180910390fd5b60006131fd8383613165565b61323357508154600181810184556000848152602080822090930184905584548482528286019093526040902091909155610ae9565b506000610ae9565b606061324685612d24565b613297576040805162461bcd60e51b815260206004820152601d60248201527f416464726573733a2063616c6c20746f206e6f6e2d636f6e7472616374000000604482015290519081900360640190fd5b60006060866001600160a01b031685876040518082805190602001908083835b602083106132d65780518252601f1990920191602091820191016132b7565b6001836020036101000a03801982511681845116808217855250505050505090500191505060006040518083038185875af1925050503d8060008114613338576040519150601f19603f3d011682016040523d82523d6000602084013e61333d565b606091505b50915091508115613351579150612d589050565b8051156133615780518082602001fd5b60405162461bcd60e51b815260206004820181815286516024840152865187939192839260440191908501908083836000831561205557818101518382015260200161203d565b604051806060016040528060001515815260200160008152602001600081525090565b60e01c90565b600060443d10156133e15761197b565b600481823e6308c379a06133f582516133cb565b146133ff5761197b565b6040513d600319016004823e80513d67ffffffffffffffff816024840111818411171561342f575050505061197b565b82840191508151925080831115613449575050505061197b565b503d830160208383010111156134615750505061197b565b601f91909101601f191681016020016040529150509056fe455243313135353a207472616e7366657220746f206e6f6e2045524331313535526563656976657220696d706c656d656e746572456e756d657261626c655365743a20696e646578206f7574206f6620626f756e6473455243313135353a204552433131353552656365697665722072656a656374656420746f6b656e734f564c46506f736974696f6e3a20706f736974696f6e206d75737420626520756e6465727761746572455243313135353a2062616c616e636520717565727920666f7220746865207a65726f2061646472657373455243313135353a2062617463682062616c616e636520717565727920666f7220746865207a65726f2061646472657373455243313135353a206275726e20616d6f756e7420657863656564732062616c616e6365455243313135353a2063616c6c6572206973206e6f74206f776e6572206e6f7220617070726f7665644f564c46506f736974696f6e3a206d757374206275696c6420706f736974696f6e207769746820616d6f756e742067726561746572207468616e207a65726f4f564c46506f736974696f6e3a206d757374206275696c6420706f736974696f6e2077697468206c657665726167652067726561746572207468616e206d696e20616c6c6f7765644f564c46506f736974696f6e3a2063616c6c6572206973206e6f7420676f7665726e616e6365455243313135353a207472616e7366657220746f20746865207a65726f2061646472657373455243313135353a207472616e736665722063616c6c6572206973206e6f74206f776e6572206e6f7220617070726f7665645369676e6564536166654d6174683a206469766973696f6e206f766572666c6f77455243313135353a206275726e2066726f6d20746865207a65726f2061646472657373455243313135353a20696e73756666696369656e742062616c616e636520666f72207472616e73666572536166654d6174683a206d756c7469706c69636174696f6e206f766572666c6f775369676e6564536166654d6174683a206d756c7469706c69636174696f6e206f766572666c6f774f564c46506f736974696f6e3a20706f736974696f6e206d7573742065786973744f564c46506f736974696f6e3a206d75737420756e77696e6420706f736974696f6e207769746820616d6f756e742067726561746572207468616e207a65726f4f564c46506f736974696f6e3a206d757374206275696c6420706f736974696f6e2077697468206c65766572616765206c657373207468616e206d617820616c6c6f776564455243313135353a2073657474696e6720617070726f76616c2073746174757320666f722073656c665369676e6564536166654d6174683a207375627472616374696f6e206f766572666c6f775361666545524332303a204552433230206f7065726174696f6e20646964206e6f742073756363656564455243313135353a206163636f756e747320616e6420696473206c656e677468206d69736d61746368455243313135353a2069647320616e6420616d6f756e7473206c656e677468206d69736d61746368455243313135353a206d696e7420746f20746865207a65726f20616464726573734f564c46506f736974696f6e3a206e6f7420656e6f756768206c6f636b656420696e20706f6f6c20746f20756e77696e6420616d6f756e74a264697066735822122020416a1c43cd7647b59327379d22f8bce87050c83c292e484933cf6ba62f7e5364736f6c63430006080033536166654d6174683a206d756c7469706c69636174696f6e206f766572666c6f77",
  "bytecodeSha1": "da39a3ee5e6b4b0d3255bfef95601890afd80709",
  "compiler": {
    "evm_version": "istanbul",
    "optimizer": {
      "enabled": true,
      "runs": 200
    },
    "version": "0.6.8"
  },
  "contractName": "OVLFPosition",
  "language": "Solidity",
  "natspec": {
    "methods": {
      "balanceOf(address,uint256)": {
        "details": "See {IERC1155-balanceOf}.     * Requirements:     * - `account` cannot be the zero address."
      },
      "balanceOfBatch(address[],uint256[])": {
        "details": "See {IERC1155-balanceOfBatch}.     * Requirements:     * - `accounts` and `ids` must have the same length."
      },
      "isApprovedForAll(address,address)": {
        "details": "See {IERC1155-isApprovedForAll}."
      },
      "safeBatchTransferFrom(address,address,uint256[],uint256[],bytes)": {
        "details": "See {IERC1155-safeBatchTransferFrom}."
      },
      "safeTransferFrom(address,address,uint256,uint256,bytes)": {
        "details": "See {IERC1155-safeTransferFrom}."
      },
      "setApprovalForAll(address,bool)": {
        "details": "See {IERC1155-setApprovalForAll}."
      },
      "supportsInterface(bytes4)": {
        "details": "See {IERC165-supportsInterface}.     * Time complexity O(1), guaranteed to always use less than 30 000 gas."
      },
      "uri(uint256)": {
        "details": "See {IERC1155MetadataURI-uri}.     * This implementation returns the same URI for *all* token types. It relies on the token type ID substituion mechanism https://eips.ethereum.org/EIPS/eip-1155#metadata[defined in the EIP].     * Clients calling this function must replace the `\\{id\\}` substring with the actual token type ID."
      }
    }
  },
  "opcodes": "PUSH1 0x80 PUSH1 0x40 MSTORE CALLVALUE DUP1 ISZERO PUSH2 0x10 JUMPI PUSH1 0x0 DUP1 REVERT JUMPDEST POP PUSH1 0x4 CALLDATASIZE LT PUSH2 0x231 JUMPI PUSH1 0x0 CALLDATALOAD PUSH1 0xE0 SHR DUP1 PUSH4 0x5AA6E675 GT PUSH2 0x130 JUMPI DUP1 PUSH4 0xBC42E95F GT PUSH2 0xB8 JUMPI DUP1 PUSH4 0xF0F44260 GT PUSH2 0x7C JUMPI DUP1 PUSH4 0xF0F44260 EQ PUSH2 0x953 JUMPI DUP1 PUSH4 0xF242432A EQ PUSH2 0x979 JUMPI DUP1 PUSH4 0xF612E79F EQ PUSH2 0xA42 JUMPI DUP1 PUSH4 0xFC0C546A EQ PUSH2 0xA6D JUMPI DUP1 PUSH4 0xFCFFF16F EQ PUSH2 0xA75 JUMPI PUSH2 0x231 JUMP JUMPDEST DUP1 PUSH4 0xBC42E95F EQ PUSH2 0x8B1 JUMPI DUP1 PUSH4 0xD3127E63 EQ PUSH2 0x8CE JUMPI DUP1 PUSH4 0xD7373C4E EQ PUSH2 0x8EB JUMPI DUP1 PUSH4 0xDC032612 EQ PUSH2 0x908 JUMPI DUP1 PUSH4 0xE985E9C5 EQ PUSH2 0x925 JUMPI PUSH2 0x231 JUMP JUMPDEST DUP1 PUSH4 0xA22CB465 GT PUSH2 0xFF JUMPI DUP1 PUSH4 0xA22CB465 EQ PUSH2 0x82A JUMPI DUP1 PUSH4 0xA750A585 EQ PUSH2 0x858 JUMPI DUP1 PUSH4 0xA91A53B3 EQ PUSH2 0x87B JUMPI DUP1 PUSH4 0xAB033EA9 EQ PUSH2 0x883 JUMPI DUP1 PUSH4 0xAE3302C2 EQ PUSH2 0x8A9 JUMPI PUSH2 0x231 JUMP JUMPDEST DUP1 PUSH4 0x5AA6E675 EQ PUSH2 0x7D2 JUMPI DUP1 PUSH4 0x61D027B3 EQ PUSH2 0x7DA JUMPI DUP1 PUSH4 0x6844CF58 EQ PUSH2 0x7E2 JUMPI DUP1 PUSH4 0xA226B483 EQ PUSH2 0x80D JUMPI PUSH2 0x231 JUMP JUMPDEST DUP1 PUSH4 0x34C1557D GT PUSH2 0x1BE JUMPI DUP1 PUSH4 0x523FD889 GT PUSH2 0x182 JUMPI DUP1 PUSH4 0x523FD889 EQ PUSH2 0x74D JUMPI DUP1 PUSH4 0x55B775EA EQ PUSH2 0x76A JUMPI DUP1 PUSH4 0x5838DD87 EQ PUSH2 0x790 JUMPI DUP1 PUSH4 0x583FEF34 EQ PUSH2 0x7AD JUMPI DUP1 PUSH4 0x5A28AE02 EQ PUSH2 0x7B5 JUMPI PUSH2 0x231 JUMP JUMPDEST DUP1 PUSH4 0x34C1557D EQ PUSH2 0x574 JUMPI DUP1 PUSH4 0x37A7B7D8 EQ PUSH2 0x57C JUMPI DUP1 PUSH4 0x415F1240 EQ PUSH2 0x5A0 JUMPI DUP1 PUSH4 0x4D08FF24 EQ PUSH2 0x5BD JUMPI DUP1 PUSH4 0x4E1273F4 EQ PUSH2 0x5DA JUMPI PUSH2 0x231 JUMP JUMPDEST DUP1 PUSH4 0x10603023 GT PUSH2 0x205 JUMPI DUP1 PUSH4 0x10603023 EQ PUSH2 0x368 JUMPI DUP1 PUSH4 0x24BCDFBD EQ PUSH2 0x385 JUMPI DUP1 PUSH4 0x2EB2C2D6 EQ PUSH2 0x38D JUMPI DUP1 PUSH4 0x313CE567 EQ PUSH2 0x54E JUMPI DUP1 PUSH4 0x31E4E030 EQ PUSH2 0x56C JUMPI PUSH2 0x231 JUMP JUMPDEST DUP1 PUSH3 0xFDD58E EQ PUSH2 0x236 JUMPI DUP1 PUSH4 0x1FFC9A7 EQ PUSH2 0x274 JUMPI DUP1 PUSH4 0xE89341C EQ PUSH2 0x2AF JUMPI DUP1 PUSH4 0xFC5962A EQ PUSH2 0x341 JUMPI JUMPDEST PUSH1 0x0 DUP1 REVERT JUMPDEST PUSH2 0x262 PUSH1 0x4 DUP1 CALLDATASIZE SUB PUSH1 0x40 DUP2 LT ISZERO PUSH2 0x24C JUMPI PUSH1 0x0 DUP1 REVERT JUMPDEST POP PUSH1 0x1 PUSH1 0x1 PUSH1 0xA0 SHL SUB DUP2 CALLDATALOAD AND SWAP1 PUSH1 0x20 ADD CALLDATALOAD PUSH2 0xA7D JUMP JUMPDEST PUSH1 0x40 DUP1 MLOAD SWAP2 DUP3 MSTORE MLOAD SWAP1 DUP2 SWAP1 SUB PUSH1 0x20 ADD SWAP1 RETURN JUMPDEST PUSH2 0x29B PUSH1 0x4 DUP1 CALLDATASIZE SUB PUSH1 0x20 DUP2 LT ISZERO PUSH2 0x28A JUMPI PUSH1 0x0 DUP1 REVERT JUMPDEST POP CALLDATALOAD PUSH1 0x1 PUSH1 0x1 PUSH1 0xE0 SHL SUB NOT AND PUSH2 0xAEF JUMP JUMPDEST PUSH1 0x40 DUP1 MLOAD SWAP2 ISZERO ISZERO DUP3 MSTORE MLOAD SWAP1 DUP2 SWAP1 SUB PUSH1 0x20 ADD SWAP1 RETURN JUMPDEST PUSH2 0x2CC PUSH1 0x4 DUP1 CALLDATASIZE SUB PUSH1 0x20 DUP2 LT ISZERO PUSH2 0x2C5 JUMPI PUSH1 0x0 DUP1 REVERT JUMPDEST POP CALLDATALOAD PUSH2 0xB0E JUMP JUMPDEST PUSH1 0x40 DUP1 MLOAD PUSH1 0x20 DUP1 DUP3 MSTORE DUP4 MLOAD DUP2 DUP4 ADD MSTORE DUP4 MLOAD SWAP2 SWAP3 DUP4 SWAP3 SWAP1 DUP4 ADD SWAP2 DUP6 ADD SWAP1 DUP1 DUP4 DUP4 PUSH1 0x0 JUMPDEST DUP4 DUP2 LT ISZERO PUSH2 0x306 JUMPI DUP2 DUP2 ADD MLOAD DUP4 DUP3 ADD MSTORE PUSH1 0x20 ADD PUSH2 0x2EE JUMP JUMPDEST POP POP POP POP SWAP1 POP SWAP1 DUP2 ADD SWAP1 PUSH1 0x1F AND DUP1 ISZERO PUSH2 0x333 JUMPI DUP1 DUP3 SUB DUP1 MLOAD PUSH1 0x1 DUP4 PUSH1 0x20 SUB PUSH2 0x100 EXP SUB NOT AND DUP2 MSTORE PUSH1 0x20 ADD SWAP2 POP JUMPDEST POP SWAP3 POP POP POP PUSH1 0x40 MLOAD DUP1 SWAP2 SUB SWAP1 RETURN JUMPDEST PUSH2 0x366 PUSH1 0x4 DUP1 CALLDATASIZE SUB PUSH1 0x40 DUP2 LT ISZERO PUSH2 0x357 JUMPI PUSH1 0x0 DUP1 REVERT JUMPDEST POP DUP1 CALLDATALOAD ISZERO ISZERO SWAP1 PUSH1 0x20 ADD CALLDATALOAD PUSH2 0xBA6 JUMP JUMPDEST STOP JUMPDEST PUSH2 0x366 PUSH1 0x4 DUP1 CALLDATASIZE SUB PUSH1 0x20 DUP2 LT ISZERO PUSH2 0x37E JUMPI PUSH1 0x0 DUP1 REVERT JUMPDEST POP CALLDATALOAD PUSH2 0xC46 JUMP JUMPDEST PUSH2 0x262 PUSH2 0xC9F JUMP JUMPDEST PUSH2 0x366 PUSH1 0x4 DUP1 CALLDATASIZE SUB PUSH1 0xA0 DUP2 LT ISZERO PUSH2 0x3A3 JUMPI PUSH1 0x0 DUP1 REVERT JUMPDEST PUSH1 0x1 PUSH1 0x1 PUSH1 0xA0 SHL SUB DUP3 CALLDATALOAD DUP2 AND SWAP3 PUSH1 0x20 DUP2 ADD CALLDATALOAD SWAP1 SWAP2 AND SWAP2 DUP2 ADD SWAP1 PUSH1 0x60 DUP2 ADD PUSH1 0x40 DUP3 ADD CALLDATALOAD PUSH1 0x1 PUSH1 0x20 SHL DUP2 GT ISZERO PUSH2 0x3D6 JUMPI PUSH1 0x0 DUP1 REVERT JUMPDEST DUP3 ADD DUP4 PUSH1 0x20 DUP3 ADD GT ISZERO PUSH2 0x3E8 JUMPI PUSH1 0x0 DUP1 REVERT JUMPDEST DUP1 CALLDATALOAD SWAP1 PUSH1 0x20 ADD SWAP2 DUP5 PUSH1 0x20 DUP4 MUL DUP5 ADD GT PUSH1 0x1 PUSH1 0x20 SHL DUP4 GT OR ISZERO PUSH2 0x409 JUMPI PUSH1 0x0 DUP1 REVERT JUMPDEST SWAP2 SWAP1 DUP1 DUP1 PUSH1 0x20 MUL PUSH1 0x20 ADD PUSH1 0x40 MLOAD SWAP1 DUP2 ADD PUSH1 0x40 MSTORE DUP1 SWAP4 SWAP3 SWAP2 SWAP1 DUP2 DUP2 MSTORE PUSH1 0x20 ADD DUP4 DUP4 PUSH1 0x20 MUL DUP1 DUP3 DUP5 CALLDATACOPY PUSH1 0x0 SWAP3 ADD SWAP2 SWAP1 SWAP2 MSTORE POP SWAP3 SWAP6 SWAP5 SWAP4 PUSH1 0x20 DUP2 ADD SWAP4 POP CALLDATALOAD SWAP2 POP POP PUSH1 0x1 PUSH1 0x20 SHL DUP2 GT ISZERO PUSH2 0x458 JUMPI PUSH1 0x0 DUP1 REVERT JUMPDEST DUP3 ADD DUP4 PUSH1 0x20 DUP3 ADD GT ISZERO PUSH2 0x46A JUMPI PUSH1 0x0 DUP1 REVERT JUMPDEST DUP1 CALLDATALOAD SWAP1 PUSH1 0x20 ADD SWAP2 DUP5 PUSH1 0x20 DUP4 MUL DUP5 ADD GT PUSH1 0x1 PUSH1 0x20 SHL DUP4 GT OR ISZERO PUSH2 0x48B JUMPI PUSH1 0x0 DUP1 REVERT JUMPDEST SWAP2 SWAP1 DUP1 DUP1 PUSH1 0x20 MUL PUSH1 0x20 ADD PUSH1 0x40 MLOAD SWAP1 DUP2 ADD PUSH1 0x40 MSTORE DUP1 SWAP4 SWAP3 SWAP2 SWAP1 DUP2 DUP2 MSTORE PUSH1 0x20 ADD DUP4 DUP4 PUSH1 0x20 MUL DUP1 DUP3 DUP5 CALLDATACOPY PUSH1 0x0 SWAP3 ADD SWAP2 SWAP1 SWAP2 MSTORE POP SWAP3 SWAP6 SWAP5 SWAP4 PUSH1 0x20 DUP2 ADD SWAP4 POP CALLDATALOAD SWAP2 POP POP PUSH1 0x1 PUSH1 0x20 SHL DUP2 GT ISZERO PUSH2 0x4DA JUMPI PUSH1 0x0 DUP1 REVERT JUMPDEST DUP3 ADD DUP4 PUSH1 0x20 DUP3 ADD GT ISZERO PUSH2 0x4EC JUMPI PUSH1 0x0 DUP1 REVERT JUMPDEST DUP1 CALLDATALOAD SWAP1 PUSH1 0x20 ADD SWAP2 DUP5 PUSH1 0x1 DUP4 MUL DUP5 ADD GT PUSH1 0x1 PUSH1 0x20 SHL DUP4 GT OR ISZERO PUSH2 0x50D JUMPI PUSH1 0x0 DUP1 REVERT JUMPDEST SWAP2 SWAP1 DUP1 DUP1 PUSH1 0x1F ADD PUSH1 0x20 DUP1 SWAP2 DIV MUL PUSH1 0x20 ADD PUSH1 0x40 MLOAD SWAP1 DUP2 ADD PUSH1 0x40 MSTORE DUP1 SWAP4 SWAP3 SWAP2 SWAP1 DUP2 DUP2 MSTORE PUSH1 0x20 ADD DUP4 DUP4 DUP1 DUP3 DUP5 CALLDATACOPY PUSH1 0x0 SWAP3 ADD SWAP2 SWAP1 SWAP2 MSTORE POP SWAP3 SWAP6 POP PUSH2 0xCA5 SWAP5 POP POP POP POP POP JUMP JUMPDEST PUSH2 0x556 PUSH2 0xFA3 JUMP JUMPDEST PUSH1 0x40 DUP1 MLOAD PUSH1 0xFF SWAP1 SWAP3 AND DUP3 MSTORE MLOAD SWAP1 DUP2 SWAP1 SUB PUSH1 0x20 ADD SWAP1 RETURN JUMPDEST PUSH2 0x262 PUSH2 0xFB3 JUMP JUMPDEST PUSH2 0x262 PUSH2 0xFB9 JUMP JUMPDEST PUSH2 0x584 PUSH2 0xFC5 JUMP JUMPDEST PUSH1 0x40 DUP1 MLOAD PUSH1 0x1 PUSH1 0x1 PUSH1 0xA0 SHL SUB SWAP1 SWAP3 AND DUP3 MSTORE MLOAD SWAP1 DUP2 SWAP1 SUB PUSH1 0x20 ADD SWAP1 RETURN JUMPDEST PUSH2 0x366 PUSH1 0x4 DUP1 CALLDATASIZE SUB PUSH1 0x20 DUP2 LT ISZERO PUSH2 0x5B6 JUMPI PUSH1 0x0 DUP1 REVERT JUMPDEST POP CALLDATALOAD PUSH2 0xFD4 JUMP JUMPDEST PUSH2 0x262 PUSH1 0x4 DUP1 CALLDATASIZE SUB PUSH1 0x20 DUP2 LT ISZERO PUSH2 0x5D3 JUMPI PUSH1 0x0 DUP1 REVERT JUMPDEST POP CALLDATALOAD PUSH2 0x11E8 JUMP JUMPDEST PUSH2 0x6FD PUSH1 0x4 DUP1 CALLDATASIZE SUB PUSH1 0x40 DUP2 LT ISZERO PUSH2 0x5F0 JUMPI PUSH1 0x0 DUP1 REVERT JUMPDEST DUP2 ADD SWAP1 PUSH1 0x20 DUP2 ADD DUP2 CALLDATALOAD PUSH1 0x1 PUSH1 0x20 SHL DUP2 GT ISZERO PUSH2 0x60A JUMPI PUSH1 0x0 DUP1 REVERT JUMPDEST DUP3 ADD DUP4 PUSH1 0x20 DUP3 ADD GT ISZERO PUSH2 0x61C JUMPI PUSH1 0x0 DUP1 REVERT JUMPDEST DUP1 CALLDATALOAD SWAP1 PUSH1 0x20 ADD SWAP2 DUP5 PUSH1 0x20 DUP4 MUL DUP5 ADD GT PUSH1 0x1 PUSH1 0x20 SHL DUP4 GT OR ISZERO PUSH2 0x63D JUMPI PUSH1 0x0 DUP1 REVERT JUMPDEST SWAP2 SWAP1 DUP1 DUP1 PUSH1 0x20 MUL PUSH1 0x20 ADD PUSH1 0x40 MLOAD SWAP1 DUP2 ADD PUSH1 0x40 MSTORE DUP1 SWAP4 SWAP3 SWAP2 SWAP1 DUP2 DUP2 MSTORE PUSH1 0x20 ADD DUP4 DUP4 PUSH1 0x20 MUL DUP1 DUP3 DUP5 CALLDATACOPY PUSH1 0x0 SWAP3 ADD SWAP2 SWAP1 SWAP2 MSTORE POP SWAP3 SWAP6 SWAP5 SWAP4 PUSH1 0x20 DUP2 ADD SWAP4 POP CALLDATALOAD SWAP2 POP POP PUSH1 0x1 PUSH1 0x20 SHL DUP2 GT ISZERO PUSH2 0x68C JUMPI PUSH1 0x0 DUP1 REVERT JUMPDEST DUP3 ADD DUP4 PUSH1 0x20 DUP3 ADD GT ISZERO PUSH2 0x69E JUMPI PUSH1 0x0 DUP1 REVERT JUMPDEST DUP1 CALLDATALOAD SWAP1 PUSH1 0x20 ADD SWAP2 DUP5 PUSH1 0x20 DUP4 MUL DUP5 ADD GT PUSH1 0x1 PUSH1 0x20 SHL DUP4 GT OR ISZERO PUSH2 0x6BF JUMPI PUSH1 0x0 DUP1 REVERT JUMPDEST SWAP2 SWAP1 DUP1 DUP1 PUSH1 0x20 MUL PUSH1 0x20 ADD PUSH1 0x40 MLOAD SWAP1 DUP2 ADD PUSH1 0x40 MSTORE DUP1 SWAP4 SWAP3 SWAP2 SWAP1 DUP2 DUP2 MSTORE PUSH1 0x20 ADD DUP4 DUP4 PUSH1 0x20 MUL DUP1 DUP3 DUP5 CALLDATACOPY PUSH1 0x0 SWAP3 ADD SWAP2 SWAP1 SWAP2 MSTORE POP SWAP3 SWAP6 POP PUSH2 0x1206 SWAP5 POP POP POP POP POP JUMP JUMPDEST PUSH1 0x40 DUP1 MLOAD PUSH1 0x20 DUP1 DUP3 MSTORE DUP4 MLOAD DUP2 DUP4 ADD MSTORE DUP4 MLOAD SWAP2 SWAP3 DUP4 SWAP3 SWAP1 DUP4 ADD SWAP2 DUP6 DUP2 ADD SWAP2 MUL DUP1 DUP4 DUP4 PUSH1 0x0 JUMPDEST DUP4 DUP2 LT ISZERO PUSH2 0x739 JUMPI DUP2 DUP2 ADD MLOAD DUP4 DUP3 ADD MSTORE PUSH1 0x20 ADD PUSH2 0x721 JUMP JUMPDEST POP POP POP POP SWAP1 POP ADD SWAP3 POP POP POP PUSH1 0x40 MLOAD DUP1 SWAP2 SUB SWAP1 RETURN JUMPDEST PUSH2 0x366 PUSH1 0x4 DUP1 CALLDATASIZE SUB PUSH1 0x20 DUP2 LT ISZERO PUSH2 0x763 JUMPI PUSH1 0x0 DUP1 REVERT JUMPDEST POP CALLDATALOAD PUSH2 0x1384 JUMP JUMPDEST PUSH2 0x366 PUSH1 0x4 DUP1 CALLDATASIZE SUB PUSH1 0x20 DUP2 LT ISZERO PUSH2 0x780 JUMPI PUSH1 0x0 DUP1 REVERT JUMPDEST POP CALLDATALOAD PUSH1 0x1 PUSH1 0x1 PUSH1 0xA0 SHL SUB AND PUSH2 0x13DD JUMP JUMPDEST PUSH2 0x366 PUSH1 0x4 DUP1 CALLDATASIZE SUB PUSH1 0x20 DUP2 LT ISZERO PUSH2 0x7A6 JUMPI PUSH1 0x0 DUP1 REVERT JUMPDEST POP CALLDATALOAD PUSH2 0x1453 JUMP JUMPDEST PUSH2 0x262 PUSH2 0x14AC JUMP JUMPDEST PUSH2 0x366 PUSH1 0x4 DUP1 CALLDATASIZE SUB PUSH1 0x20 DUP2 LT ISZERO PUSH2 0x7CB JUMPI PUSH1 0x0 DUP1 REVERT JUMPDEST POP CALLDATALOAD PUSH2 0x14B2 JUMP JUMPDEST PUSH2 0x584 PUSH2 0x14D5 JUMP JUMPDEST PUSH2 0x584 PUSH2 0x14E4 JUMP JUMPDEST PUSH2 0x262 PUSH1 0x4 DUP1 CALLDATASIZE SUB PUSH1 0x60 DUP2 LT ISZERO PUSH2 0x7F8 JUMPI PUSH1 0x0 DUP1 REVERT JUMPDEST POP DUP1 CALLDATALOAD ISZERO ISZERO SWAP1 PUSH1 0x20 DUP2 ADD CALLDATALOAD SWAP1 PUSH1 0x40 ADD CALLDATALOAD PUSH2 0x14F3 JUMP JUMPDEST PUSH2 0x29B PUSH1 0x4 DUP1 CALLDATASIZE SUB PUSH1 0x20 DUP2 LT ISZERO PUSH2 0x823 JUMPI PUSH1 0x0 DUP1 REVERT JUMPDEST POP CALLDATALOAD PUSH2 0x1531 JUMP JUMPDEST PUSH2 0x366 PUSH1 0x4 DUP1 CALLDATASIZE SUB PUSH1 0x40 DUP2 LT ISZERO PUSH2 0x840 JUMPI PUSH1 0x0 DUP1 REVERT JUMPDEST POP PUSH1 0x1 PUSH1 0x1 PUSH1 0xA0 SHL SUB DUP2 CALLDATALOAD AND SWAP1 PUSH1 0x20 ADD CALLDATALOAD ISZERO ISZERO PUSH2 0x154C JUMP JUMPDEST PUSH2 0x366 PUSH1 0x4 DUP1 CALLDATASIZE SUB PUSH1 0x40 DUP2 LT ISZERO PUSH2 0x86E JUMPI PUSH1 0x0 DUP1 REVERT JUMPDEST POP DUP1 CALLDATALOAD SWAP1 PUSH1 0x20 ADD CALLDATALOAD PUSH2 0x163B JUMP JUMPDEST PUSH2 0x6FD PUSH2 0x18BE JUMP JUMPDEST PUSH2 0x366 PUSH1 0x4 DUP1 CALLDATASIZE SUB PUSH1 0x20 DUP2 LT ISZERO PUSH2 0x899 JUMPI PUSH1 0x0 DUP1 REVERT JUMPDEST POP CALLDATALOAD PUSH1 0x1 PUSH1 0x1 PUSH1 0xA0 SHL SUB AND PUSH2 0x197E JUMP JUMPDEST PUSH2 0x262 PUSH2 0x19F4 JUMP JUMPDEST PUSH2 0x262 PUSH1 0x4 DUP1 CALLDATASIZE SUB PUSH1 0x20 DUP2 LT ISZERO PUSH2 0x8C7 JUMPI PUSH1 0x0 DUP1 REVERT JUMPDEST POP CALLDATALOAD PUSH2 0x19FA JUMP JUMPDEST PUSH2 0x366 PUSH1 0x4 DUP1 CALLDATASIZE SUB PUSH1 0x20 DUP2 LT ISZERO PUSH2 0x8E4 JUMPI PUSH1 0x0 DUP1 REVERT JUMPDEST POP CALLDATALOAD PUSH2 0x1A0C JUMP JUMPDEST PUSH2 0x262 PUSH1 0x4 DUP1 CALLDATASIZE SUB PUSH1 0x20 DUP2 LT ISZERO PUSH2 0x901 JUMPI PUSH1 0x0 DUP1 REVERT JUMPDEST POP CALLDATALOAD PUSH2 0x1A65 JUMP JUMPDEST PUSH2 0x262 PUSH1 0x4 DUP1 CALLDATASIZE SUB PUSH1 0x20 DUP2 LT ISZERO PUSH2 0x91E JUMPI PUSH1 0x0 DUP1 REVERT JUMPDEST POP CALLDATALOAD PUSH2 0x1A83 JUMP JUMPDEST PUSH2 0x29B PUSH1 0x4 DUP1 CALLDATASIZE SUB PUSH1 0x40 DUP2 LT ISZERO PUSH2 0x93B JUMPI PUSH1 0x0 DUP1 REVERT JUMPDEST POP PUSH1 0x1 PUSH1 0x1 PUSH1 0xA0 SHL SUB DUP2 CALLDATALOAD DUP2 AND SWAP2 PUSH1 0x20 ADD CALLDATALOAD AND PUSH2 0x1AA8 JUMP JUMPDEST PUSH2 0x366 PUSH1 0x4 DUP1 CALLDATASIZE SUB PUSH1 0x20 DUP2 LT ISZERO PUSH2 0x969 JUMPI PUSH1 0x0 DUP1 REVERT JUMPDEST POP CALLDATALOAD PUSH1 0x1 PUSH1 0x1 PUSH1 0xA0 SHL SUB AND PUSH2 0x1AD6 JUMP JUMPDEST PUSH2 0x366 PUSH1 0x4 DUP1 CALLDATASIZE SUB PUSH1 0xA0 DUP2 LT ISZERO PUSH2 0x98F JUMPI PUSH1 0x0 DUP1 REVERT JUMPDEST PUSH1 0x1 PUSH1 0x1 PUSH1 0xA0 SHL SUB DUP3 CALLDATALOAD DUP2 AND SWAP3 PUSH1 0x20 DUP2 ADD CALLDATALOAD SWAP1 SWAP2 AND SWAP2 PUSH1 0x40 DUP3 ADD CALLDATALOAD SWAP2 PUSH1 0x60 DUP2 ADD CALLDATALOAD SWAP2 DUP2 ADD SWAP1 PUSH1 0xA0 DUP2 ADD PUSH1 0x80 DUP3 ADD CALLDATALOAD PUSH1 0x1 PUSH1 0x20 SHL DUP2 GT ISZERO PUSH2 0x9CE JUMPI PUSH1 0x0 DUP1 REVERT JUMPDEST DUP3 ADD DUP4 PUSH1 0x20 DUP3 ADD GT ISZERO PUSH2 0x9E0 JUMPI PUSH1 0x0 DUP1 REVERT JUMPDEST DUP1 CALLDATALOAD SWAP1 PUSH1 0x20 ADD SWAP2 DUP5 PUSH1 0x1 DUP4 MUL DUP5 ADD GT PUSH1 0x1 PUSH1 0x20 SHL DUP4 GT OR ISZERO PUSH2 0xA01 JUMPI PUSH1 0x0 DUP1 REVERT JUMPDEST SWAP2 SWAP1 DUP1 DUP1 PUSH1 0x1F ADD PUSH1 0x20 DUP1 SWAP2 DIV MUL PUSH1 0x20 ADD PUSH1 0x40 MLOAD SWAP1 DUP2 ADD PUSH1 0x40 MSTORE DUP1 SWAP4 SWAP3 SWAP2 SWAP1 DUP2 DUP2 MSTORE PUSH1 0x20 ADD DUP4 DUP4 DUP1 DUP3 DUP5 CALLDATACOPY PUSH1 0x0 SWAP3 ADD SWAP2 SWAP1 SWAP2 MSTORE POP SWAP3 SWAP6 POP PUSH2 0x1B4C SWAP5 POP POP POP POP POP JUMP JUMPDEST PUSH2 0x366 PUSH1 0x4 DUP1 CALLDATASIZE SUB PUSH1 0x60 DUP2 LT ISZERO PUSH2 0xA58 JUMPI PUSH1 0x0 DUP1 REVERT JUMPDEST POP DUP1 CALLDATALOAD SWAP1 PUSH1 0x20 DUP2 ADD CALLDATALOAD ISZERO ISZERO SWAP1 PUSH1 0x40 ADD CALLDATALOAD PUSH2 0x1D1D JUMP JUMPDEST PUSH2 0x584 PUSH2 0x1EB3 JUMP JUMPDEST PUSH2 0x6FD PUSH2 0x1EC2 JUMP JUMPDEST PUSH1 0x0 PUSH1 0x1 PUSH1 0x1 PUSH1 0xA0 SHL SUB DUP4 AND PUSH2 0xAC4 JUMPI PUSH1 0x40 MLOAD PUSH3 0x461BCD PUSH1 0xE5 SHL DUP2 MSTORE PUSH1 0x4 ADD DUP1 DUP1 PUSH1 0x20 ADD DUP3 DUP2 SUB DUP3 MSTORE PUSH1 0x2B DUP2 MSTORE PUSH1 0x20 ADD DUP1 PUSH2 0x3521 PUSH1 0x2B SWAP2 CODECOPY PUSH1 0x40 ADD SWAP2 POP POP PUSH1 0x40 MLOAD DUP1 SWAP2 SUB SWAP1 REVERT JUMPDEST POP PUSH1 0x0 DUP2 DUP2 MSTORE PUSH1 0x1 PUSH1 0x20 SWAP1 DUP2 MSTORE PUSH1 0x40 DUP1 DUP4 KECCAK256 PUSH1 0x1 PUSH1 0x1 PUSH1 0xA0 SHL SUB DUP7 AND DUP5 MSTORE SWAP1 SWAP2 MSTORE SWAP1 KECCAK256 SLOAD JUMPDEST SWAP3 SWAP2 POP POP JUMP JUMPDEST PUSH1 0x1 PUSH1 0x1 PUSH1 0xE0 SHL SUB NOT AND PUSH1 0x0 SWAP1 DUP2 MSTORE PUSH1 0x20 DUP2 SWAP1 MSTORE PUSH1 0x40 SWAP1 KECCAK256 SLOAD PUSH1 0xFF AND SWAP1 JUMP JUMPDEST PUSH1 0x3 DUP1 SLOAD PUSH1 0x40 DUP1 MLOAD PUSH1 0x20 PUSH1 0x1F PUSH1 0x2 PUSH1 0x0 NOT PUSH2 0x100 PUSH1 0x1 DUP9 AND ISZERO MUL ADD SWAP1 SWAP6 AND SWAP5 SWAP1 SWAP5 DIV SWAP4 DUP5 ADD DUP2 SWAP1 DIV DUP2 MUL DUP3 ADD DUP2 ADD SWAP1 SWAP3 MSTORE DUP3 DUP2 MSTORE PUSH1 0x60 SWAP4 SWAP1 SWAP3 SWAP1 SWAP2 DUP4 ADD DUP3 DUP3 DUP1 ISZERO PUSH2 0xB9A JUMPI DUP1 PUSH1 0x1F LT PUSH2 0xB6F JUMPI PUSH2 0x100 DUP1 DUP4 SLOAD DIV MUL DUP4 MSTORE SWAP2 PUSH1 0x20 ADD SWAP2 PUSH2 0xB9A JUMP JUMPDEST DUP3 ADD SWAP2 SWAP1 PUSH1 0x0 MSTORE PUSH1 0x20 PUSH1 0x0 KECCAK256 SWAP1 JUMPDEST DUP2 SLOAD DUP2 MSTORE SWAP1 PUSH1 0x1 ADD SWAP1 PUSH1 0x20 ADD DUP1 DUP4 GT PUSH2 0xB7D JUMPI DUP3 SWAP1 SUB PUSH1 0x1F AND DUP3 ADD SWAP2 JUMPDEST POP POP POP POP POP SWAP1 POP SWAP2 SWAP1 POP JUMP JUMPDEST PUSH1 0x4 SLOAD PUSH1 0x0 SWAP1 PUSH1 0x1 PUSH1 0x1 PUSH1 0xA0 SHL SUB AND PUSH4 0x70A08231 PUSH2 0xBC2 PUSH2 0x1FFD JUMP JUMPDEST PUSH1 0x40 MLOAD DUP3 PUSH4 0xFFFFFFFF AND PUSH1 0xE0 SHL DUP2 MSTORE PUSH1 0x4 ADD DUP1 DUP3 PUSH1 0x1 PUSH1 0x1 PUSH1 0xA0 SHL SUB AND PUSH1 0x1 PUSH1 0x1 PUSH1 0xA0 SHL SUB AND DUP2 MSTORE PUSH1 0x20 ADD SWAP2 POP POP PUSH1 0x20 PUSH1 0x40 MLOAD DUP1 DUP4 SUB DUP2 DUP7 DUP1 EXTCODESIZE ISZERO DUP1 ISZERO PUSH2 0xC08 JUMPI PUSH1 0x0 DUP1 REVERT JUMPDEST POP GAS STATICCALL ISZERO DUP1 ISZERO PUSH2 0xC1C JUMPI RETURNDATASIZE PUSH1 0x0 DUP1 RETURNDATACOPY RETURNDATASIZE PUSH1 0x0 REVERT JUMPDEST POP POP POP POP PUSH1 0x40 MLOAD RETURNDATASIZE PUSH1 0x20 DUP2 LT ISZERO PUSH2 0xC32 JUMPI PUSH1 0x0 DUP1 REVERT JUMPDEST POP MLOAD SWAP1 POP PUSH2 0xC41 DUP2 DUP5 DUP5 PUSH2 0x1D1D JUMP JUMPDEST POP POP POP JUMP JUMPDEST PUSH2 0xC4E PUSH2 0x1FFD JUMP JUMPDEST PUSH1 0xA SLOAD PUSH1 0x1 PUSH1 0x1 PUSH1 0xA0 SHL SUB SWAP1 DUP2 AND SWAP2 AND EQ PUSH2 0xC9A JUMPI PUSH1 0x40 MLOAD PUSH3 0x461BCD PUSH1 0xE5 SHL DUP2 MSTORE PUSH1 0x4 ADD DUP1 DUP1 PUSH1 0x20 ADD DUP3 DUP2 SUB DUP3 MSTORE PUSH1 0x26 DUP2 MSTORE PUSH1 0x20 ADD DUP1 PUSH2 0x3651 PUSH1 0x26 SWAP2 CODECOPY PUSH1 0x40 ADD SWAP2 POP POP PUSH1 0x40 MLOAD DUP1 SWAP2 SUB SWAP1 REVERT JUMPDEST PUSH1 0x7 SSTORE JUMP JUMPDEST PUSH1 0x7 SLOAD DUP2 JUMP JUMPDEST DUP2 MLOAD DUP4 MLOAD EQ PUSH2 0xCE5 JUMPI PUSH1 0x40 MLOAD PUSH3 0x461BCD PUSH1 0xE5 SHL DUP2 MSTORE PUSH1 0x4 ADD DUP1 DUP1 PUSH1 0x20 ADD DUP3 DUP2 SUB DUP3 MSTORE PUSH1 0x28 DUP2 MSTORE PUSH1 0x20 ADD DUP1 PUSH2 0x38CA PUSH1 0x28 SWAP2 CODECOPY PUSH1 0x40 ADD SWAP2 POP POP PUSH1 0x40 MLOAD DUP1 SWAP2 SUB SWAP1 REVERT JUMPDEST PUSH1 0x1 PUSH1 0x1 PUSH1 0xA0 SHL SUB DUP5 AND PUSH2 0xD2A JUMPI PUSH1 0x40 MLOAD PUSH3 0x461BCD PUSH1 0xE5 SHL DUP2 MSTORE PUSH1 0x4 ADD DUP1 DUP1 PUSH1 0x20 ADD DUP3 DUP2 SUB DUP3 MSTORE PUSH1 0x25 DUP2 MSTORE PUSH1 0x20 ADD DUP1 PUSH2 0x3677 PUSH1 0x25 SWAP2 CODECOPY PUSH1 0x40 ADD SWAP2 POP POP PUSH1 0x40 MLOAD DUP1 SWAP2 SUB SWAP1 REVERT JUMPDEST PUSH2 0xD32 PUSH2 0x1FFD JUMP JUMPDEST PUSH1 0x1 PUSH1 0x1 PUSH1 0xA0 SHL SUB AND DUP6 PUSH1 0x1 PUSH1 0x1 PUSH1 0xA0 SHL SUB AND EQ DUP1 PUSH2 0xD5D JUMPI POP PUSH2 0xD5D DUP6 PUSH2 0xD58 PUSH2 0x1FFD JUMP JUMPDEST PUSH2 0x1AA8 JUMP JUMPDEST PUSH2 0xD98 JUMPI PUSH1 0x40 MLOAD PUSH3 0x461BCD PUSH1 0xE5 SHL DUP2 MSTORE PUSH1 0x4 ADD DUP1 DUP1 PUSH1 0x20 ADD DUP3 DUP2 SUB DUP3 MSTORE PUSH1 0x32 DUP2 MSTORE PUSH1 0x20 ADD DUP1 PUSH2 0x369C PUSH1 0x32 SWAP2 CODECOPY PUSH1 0x40 ADD SWAP2 POP POP PUSH1 0x40 MLOAD DUP1 SWAP2 SUB SWAP1 REVERT JUMPDEST PUSH1 0x0 PUSH2 0xDA2 PUSH2 0x1FFD JUMP JUMPDEST SWAP1 POP PUSH2 0xDB2 DUP2 DUP8 DUP8 DUP8 DUP8 DUP8 PUSH2 0xF9B JUMP JUMPDEST PUSH1 0x0 JUMPDEST DUP5 MLOAD DUP2 LT ISZERO PUSH2 0xEB3 JUMPI PUSH1 0x0 DUP6 DUP3 DUP2 MLOAD DUP2 LT PUSH2 0xDCC JUMPI INVALID JUMPDEST PUSH1 0x20 MUL PUSH1 0x20 ADD ADD MLOAD SWAP1 POP PUSH1 0x0 DUP6 DUP4 DUP2 MLOAD DUP2 LT PUSH2 0xDE4 JUMPI INVALID JUMPDEST PUSH1 0x20 MUL PUSH1 0x20 ADD ADD MLOAD SWAP1 POP PUSH2 0xE51 DUP2 PUSH1 0x40 MLOAD DUP1 PUSH1 0x60 ADD PUSH1 0x40 MSTORE DUP1 PUSH1 0x2A DUP2 MSTORE PUSH1 0x20 ADD PUSH2 0x3712 PUSH1 0x2A SWAP2 CODECOPY PUSH1 0x1 PUSH1 0x0 DUP7 DUP2 MSTORE PUSH1 0x20 ADD SWAP1 DUP2 MSTORE PUSH1 0x20 ADD PUSH1 0x0 KECCAK256 PUSH1 0x0 DUP14 PUSH1 0x1 PUSH1 0x1 PUSH1 0xA0 SHL SUB AND PUSH1 0x1 PUSH1 0x1 PUSH1 0xA0 SHL SUB AND DUP2 MSTORE PUSH1 0x20 ADD SWAP1 DUP2 MSTORE PUSH1 0x20 ADD PUSH1 0x0 KECCAK256 SLOAD PUSH2 0x2001 SWAP1 SWAP3 SWAP2 SWAP1 PUSH4 0xFFFFFFFF AND JUMP JUMPDEST PUSH1 0x0 DUP4 DUP2 MSTORE PUSH1 0x1 PUSH1 0x20 SWAP1 DUP2 MSTORE PUSH1 0x40 DUP1 DUP4 KECCAK256 PUSH1 0x1 PUSH1 0x1 PUSH1 0xA0 SHL SUB DUP15 DUP2 AND DUP6 MSTORE SWAP3 MSTORE DUP1 DUP4 KECCAK256 SWAP4 SWAP1 SWAP4 SSTORE DUP11 AND DUP2 MSTORE KECCAK256 SLOAD PUSH2 0xE88 SWAP1 DUP3 PUSH2 0x2098 JUMP JUMPDEST PUSH1 0x0 SWAP3 DUP4 MSTORE PUSH1 0x1 PUSH1 0x20 DUP2 DUP2 MSTORE PUSH1 0x40 DUP1 DUP7 KECCAK256 PUSH1 0x1 PUSH1 0x1 PUSH1 0xA0 SHL SUB DUP14 AND DUP8 MSTORE SWAP1 SWAP2 MSTORE SWAP1 SWAP4 KECCAK256 SSTORE POP ADD PUSH2 0xDB5 JUMP JUMPDEST POP DUP5 PUSH1 0x1 PUSH1 0x1 PUSH1 0xA0 SHL SUB AND DUP7 PUSH1 0x1 PUSH1 0x1 PUSH1 0xA0 SHL SUB AND DUP3 PUSH1 0x1 PUSH1 0x1 PUSH1 0xA0 SHL SUB AND PUSH32 0x4A39DC06D4C0DBC64B70AF90FD698A233A518AA5D07E595D983B8C0526C8F7FB DUP8 DUP8 PUSH1 0x40 MLOAD DUP1 DUP1 PUSH1 0x20 ADD DUP1 PUSH1 0x20 ADD DUP4 DUP2 SUB DUP4 MSTORE DUP6 DUP2 DUP2 MLOAD DUP2 MSTORE PUSH1 0x20 ADD SWAP2 POP DUP1 MLOAD SWAP1 PUSH1 0x20 ADD SWAP1 PUSH1 0x20 MUL DUP1 DUP4 DUP4 PUSH1 0x0 JUMPDEST DUP4 DUP2 LT ISZERO PUSH2 0xF39 JUMPI DUP2 DUP2 ADD MLOAD DUP4 DUP3 ADD MSTORE PUSH1 0x20 ADD PUSH2 0xF21 JUMP JUMPDEST POP POP POP POP SWAP1 POP ADD DUP4 DUP2 SUB DUP3 MSTORE DUP5 DUP2 DUP2 MLOAD DUP2 MSTORE PUSH1 0x20 ADD SWAP2 POP DUP1 MLOAD SWAP1 PUSH1 0x20 ADD SWAP1 PUSH1 0x20 MUL DUP1 DUP4 DUP4 PUSH1 0x0 JUMPDEST DUP4 DUP2 LT ISZERO PUSH2 0xF78 JUMPI DUP2 DUP2 ADD MLOAD DUP4 DUP3 ADD MSTORE PUSH1 0x20 ADD PUSH2 0xF60 JUMP JUMPDEST POP POP POP POP SWAP1 POP ADD SWAP5 POP POP POP POP POP PUSH1 0x40 MLOAD DUP1 SWAP2 SUB SWAP1 LOG4 PUSH2 0xF9B DUP2 DUP8 DUP8 DUP8 DUP8 DUP8 PUSH2 0x20F2 JUMP JUMPDEST POP POP POP POP POP POP JUMP JUMPDEST PUSH1 0x5 SLOAD PUSH1 0x1 PUSH1 0xA0 SHL SWAP1 DIV PUSH1 0xFF AND DUP2 JUMP JUMPDEST PUSH1 0x9 SLOAD DUP2 JUMP JUMPDEST PUSH8 0xDE0B6B3A7640000 DUP2 JUMP JUMPDEST PUSH1 0x5 SLOAD PUSH1 0x1 PUSH1 0x1 PUSH1 0xA0 SHL SUB AND DUP2 JUMP JUMPDEST PUSH2 0xFDD DUP2 PUSH2 0x2383 JUMP JUMPDEST PUSH2 0x1018 JUMPI PUSH1 0x40 MLOAD PUSH3 0x461BCD PUSH1 0xE5 SHL DUP2 MSTORE PUSH1 0x4 ADD DUP1 DUP1 PUSH1 0x20 ADD DUP3 DUP2 SUB DUP3 MSTORE PUSH1 0x21 DUP2 MSTORE PUSH1 0x20 ADD DUP1 PUSH2 0x3784 PUSH1 0x21 SWAP2 CODECOPY PUSH1 0x40 ADD SWAP2 POP POP PUSH1 0x40 MLOAD DUP1 SWAP2 SUB SWAP1 REVERT JUMPDEST PUSH1 0x0 PUSH2 0x1022 PUSH2 0x2396 JUMP JUMPDEST SWAP1 POP PUSH2 0x102E DUP3 DUP3 PUSH2 0x240E JUMP JUMPDEST PUSH2 0x1069 JUMPI PUSH1 0x40 MLOAD PUSH3 0x461BCD PUSH1 0xE5 SHL DUP2 MSTORE PUSH1 0x4 ADD DUP1 DUP1 PUSH1 0x20 ADD DUP3 DUP2 SUB DUP3 MSTORE PUSH1 0x29 DUP2 MSTORE PUSH1 0x20 ADD DUP1 PUSH2 0x34F8 PUSH1 0x29 SWAP2 CODECOPY PUSH1 0x40 ADD SWAP2 POP POP PUSH1 0x40 MLOAD DUP1 SWAP2 SUB SWAP1 REVERT JUMPDEST PUSH1 0x0 PUSH2 0x1074 DUP4 PUSH2 0x19FA JUMP JUMPDEST SWAP1 POP PUSH1 0x0 PUSH2 0x1081 DUP5 PUSH2 0x11E8 JUMP JUMPDEST SWAP1 POP PUSH1 0x0 PUSH2 0x108F DUP4 DUP4 PUSH2 0x2454 JUMP JUMPDEST SWAP1 POP PUSH2 0x10A1 DUP4 DUP3 PUSH4 0xFFFFFFFF PUSH2 0x2496 AND JUMP JUMPDEST PUSH1 0x0 DUP7 DUP2 MSTORE PUSH1 0xD PUSH1 0x20 MSTORE PUSH1 0x40 DUP2 KECCAK256 SSTORE SWAP3 POP PUSH2 0x10C3 PUSH1 0xE DUP7 PUSH4 0xFFFFFFFF PUSH2 0x24D8 AND JUMP JUMPDEST POP PUSH1 0x0 PUSH2 0x10F3 PUSH8 0xDE0B6B3A7640000 PUSH2 0x10E7 PUSH1 0x9 SLOAD DUP8 PUSH2 0x1F62 SWAP1 SWAP2 SWAP1 PUSH4 0xFFFFFFFF AND JUMP JUMPDEST SWAP1 PUSH4 0xFFFFFFFF PUSH2 0x1FBB AND JUMP JUMPDEST SWAP1 POP PUSH2 0x1105 DUP5 DUP3 PUSH4 0xFFFFFFFF PUSH2 0x2496 AND JUMP JUMPDEST PUSH1 0x4 DUP1 SLOAD PUSH1 0x40 DUP1 MLOAD PUSH4 0x852CD8D PUSH1 0xE3 SHL DUP2 MSTORE SWAP3 DUP4 ADD DUP5 SWAP1 MSTORE MLOAD SWAP3 SWAP7 POP PUSH1 0x1 PUSH1 0x1 PUSH1 0xA0 SHL SUB AND SWAP2 PUSH4 0x42966C68 SWAP2 PUSH1 0x24 DUP1 DUP3 ADD SWAP3 PUSH1 0x0 SWAP3 SWAP1 SWAP2 SWAP1 DUP3 SWAP1 SUB ADD DUP2 DUP4 DUP8 DUP1 EXTCODESIZE ISZERO DUP1 ISZERO PUSH2 0x1152 JUMPI PUSH1 0x0 DUP1 REVERT JUMPDEST POP GAS CALL ISZERO DUP1 ISZERO PUSH2 0x1166 JUMPI RETURNDATASIZE PUSH1 0x0 DUP1 RETURNDATACOPY RETURNDATASIZE PUSH1 0x0 REVERT JUMPDEST POP POP POP POP PUSH2 0x118E PUSH2 0x1175 PUSH2 0x1FFD JUMP JUMPDEST PUSH1 0x4 SLOAD PUSH1 0x1 PUSH1 0x1 PUSH1 0xA0 SHL SUB AND SWAP1 DUP4 PUSH4 0xFFFFFFFF PUSH2 0x24E4 AND JUMP JUMPDEST PUSH2 0x1197 DUP3 PUSH2 0x2536 JUMP JUMPDEST DUP6 PUSH2 0x11A0 PUSH2 0x1FFD JUMP JUMPDEST PUSH1 0x1 PUSH1 0x1 PUSH1 0xA0 SHL SUB AND PUSH32 0x3C4B1D42B9C7FA283F6FE657533F6A5A8A7AD1D36F9EF1D9D89AD04485E10D2C DUP4 PUSH1 0x40 MLOAD DUP1 DUP3 DUP2 MSTORE PUSH1 0x20 ADD SWAP2 POP POP PUSH1 0x40 MLOAD DUP1 SWAP2 SUB SWAP1 LOG3 POP POP POP POP POP POP JUMP JUMPDEST PUSH1 0x0 PUSH2 0x11F2 PUSH2 0x33A8 JUMP JUMPDEST PUSH2 0x11FB DUP4 PUSH2 0x25F7 JUMP JUMPDEST PUSH1 0x20 ADD MLOAD SWAP4 SWAP3 POP POP POP JUMP JUMPDEST PUSH1 0x60 DUP2 MLOAD DUP4 MLOAD EQ PUSH2 0x1248 JUMPI PUSH1 0x40 MLOAD PUSH3 0x461BCD PUSH1 0xE5 SHL DUP2 MSTORE PUSH1 0x4 ADD DUP1 DUP1 PUSH1 0x20 ADD DUP3 DUP2 SUB DUP3 MSTORE PUSH1 0x29 DUP2 MSTORE PUSH1 0x20 ADD DUP1 PUSH2 0x38A1 PUSH1 0x29 SWAP2 CODECOPY PUSH1 0x40 ADD SWAP2 POP POP PUSH1 0x40 MLOAD DUP1 SWAP2 SUB SWAP1 REVERT JUMPDEST PUSH1 0x60 DUP4 MLOAD PUSH8 0xFFFFFFFFFFFFFFFF DUP2 GT DUP1 ISZERO PUSH2 0x1262 JUMPI PUSH1 0x0 DUP1 REVERT JUMPDEST POP PUSH1 0x40 MLOAD SWAP1 DUP1 DUP3 MSTORE DUP1 PUSH1 0x20 MUL PUSH1 0x20 ADD DUP3 ADD PUSH1 0x40 MSTORE DUP1 ISZERO PUSH2 0x128C JUMPI DUP2 PUSH1 0x20 ADD PUSH1 0x20 DUP3 MUL DUP1 CALLDATASIZE DUP4 CALLDATACOPY ADD SWAP1 POP JUMPDEST POP SWAP1 POP PUSH1 0x0 JUMPDEST DUP5 MLOAD DUP2 LT ISZERO PUSH2 0x137C JUMPI PUSH1 0x0 PUSH1 0x1 PUSH1 0x1 PUSH1 0xA0 SHL SUB AND DUP6 DUP3 DUP2 MLOAD DUP2 LT PUSH2 0x12B2 JUMPI INVALID JUMPDEST PUSH1 0x20 MUL PUSH1 0x20 ADD ADD MLOAD PUSH1 0x1 PUSH1 0x1 PUSH1 0xA0 SHL SUB AND EQ ISZERO PUSH2 0x1300 JUMPI PUSH1 0x40 MLOAD PUSH3 0x461BCD PUSH1 0xE5 SHL DUP2 MSTORE PUSH1 0x4 ADD DUP1 DUP1 PUSH1 0x20 ADD DUP3 DUP2 SUB DUP3 MSTORE PUSH1 0x31 DUP2 MSTORE PUSH1 0x20 ADD DUP1 PUSH2 0x354C PUSH1 0x31 SWAP2 CODECOPY PUSH1 0x40 ADD SWAP2 POP POP PUSH1 0x40 MLOAD DUP1 SWAP2 SUB SWAP1 REVERT JUMPDEST PUSH1 0x1 PUSH1 0x0 DUP6 DUP4 DUP2 MLOAD DUP2 LT PUSH2 0x1310 JUMPI INVALID JUMPDEST PUSH1 0x20 MUL PUSH1 0x20 ADD ADD MLOAD DUP2 MSTORE PUSH1 0x20 ADD SWAP1 DUP2 MSTORE PUSH1 0x20 ADD PUSH1 0x0 KECCAK256 PUSH1 0x0 DUP7 DUP4 DUP2 MLOAD DUP2 LT PUSH2 0x1334 JUMPI INVALID JUMPDEST PUSH1 0x20 MUL PUSH1 0x20 ADD ADD MLOAD PUSH1 0x1 PUSH1 0x1 PUSH1 0xA0 SHL SUB AND PUSH1 0x1 PUSH1 0x1 PUSH1 0xA0 SHL SUB AND DUP2 MSTORE PUSH1 0x20 ADD SWAP1 DUP2 MSTORE PUSH1 0x20 ADD PUSH1 0x0 KECCAK256 SLOAD DUP3 DUP3 DUP2 MLOAD DUP2 LT PUSH2 0x1369 JUMPI INVALID JUMPDEST PUSH1 0x20 SWAP1 DUP2 MUL SWAP2 SWAP1 SWAP2 ADD ADD MSTORE PUSH1 0x1 ADD PUSH2 0x1292 JUMP JUMPDEST POP SWAP4 SWAP3 POP POP POP JUMP JUMPDEST PUSH2 0x138C PUSH2 0x1FFD JUMP JUMPDEST PUSH1 0xA SLOAD PUSH1 0x1 PUSH1 0x1 PUSH1 0xA0 SHL SUB SWAP1 DUP2 AND SWAP2 AND EQ PUSH2 0x13D8 JUMPI PUSH1 0x40 MLOAD PUSH3 0x461BCD PUSH1 0xE5 SHL DUP2 MSTORE PUSH1 0x4 ADD DUP1 DUP1 PUSH1 0x20 ADD DUP3 DUP2 SUB DUP3 MSTORE PUSH1 0x26 DUP2 MSTORE PUSH1 0x20 ADD DUP1 PUSH2 0x3651 PUSH1 0x26 SWAP2 CODECOPY PUSH1 0x40 ADD SWAP2 POP POP PUSH1 0x40 MLOAD DUP1 SWAP2 SUB SWAP1 REVERT JUMPDEST PUSH1 0x9 SSTORE JUMP JUMPDEST PUSH2 0x13E5 PUSH2 0x1FFD JUMP JUMPDEST PUSH1 0xA SLOAD PUSH1 0x1 PUSH1 0x1 PUSH1 0xA0 SHL SUB SWAP1 DUP2 AND SWAP2 AND EQ PUSH2 0x1431 JUMPI PUSH1 0x40 MLOAD PUSH3 0x461BCD PUSH1 0xE5 SHL DUP2 MSTORE PUSH1 0x4 ADD DUP1 DUP1 PUSH1 0x20 ADD DUP3 DUP2 SUB DUP3 MSTORE PUSH1 0x26 DUP2 MSTORE PUSH1 0x20 ADD DUP1 PUSH2 0x3651 PUSH1 0x26 SWAP2 CODECOPY PUSH1 0x40 ADD SWAP2 POP POP PUSH1 0x40 MLOAD DUP1 SWAP2 SUB SWAP1 REVERT JUMPDEST PUSH1 0x5 DUP1 SLOAD PUSH1 0x1 PUSH1 0x1 PUSH1 0xA0 SHL SUB NOT AND PUSH1 0x1 PUSH1 0x1 PUSH1 0xA0 SHL SUB SWAP3 SWAP1 SWAP3 AND SWAP2 SWAP1 SWAP2 OR SWAP1 SSTORE JUMP JUMPDEST PUSH2 0x145B PUSH2 0x1FFD JUMP JUMPDEST PUSH1 0xA SLOAD PUSH1 0x1 PUSH1 0x1 PUSH1 0xA0 SHL SUB SWAP1 DUP2 AND SWAP2 AND EQ PUSH2 0x14A7 JUMPI PUSH1 0x40 MLOAD PUSH3 0x461BCD PUSH1 0xE5 SHL DUP2 MSTORE PUSH1 0x4 ADD DUP1 DUP1 PUSH1 0x20 ADD DUP3 DUP2 SUB DUP3 MSTORE PUSH1 0x26 DUP2 MSTORE PUSH1 0x20 ADD DUP1 PUSH2 0x3651 PUSH1 0x26 SWAP2 CODECOPY PUSH1 0x40 ADD SWAP2 POP POP PUSH1 0x40 MLOAD DUP1 SWAP2 SUB SWAP1 REVERT JUMPDEST PUSH1 0x8 SSTORE JUMP JUMPDEST PUSH1 0x8 SLOAD DUP2 JUMP JUMPDEST PUSH1 0x0 PUSH2 0x14C5 PUSH2 0x14BF PUSH2 0x1FFD JUMP JUMPDEST DUP4 PUSH2 0xA7D JUMP JUMPDEST SWAP1 POP PUSH2 0x14D1 DUP3 DUP3 PUSH2 0x163B JUMP JUMPDEST POP POP JUMP JUMPDEST PUSH1 0xA SLOAD PUSH1 0x1 PUSH1 0x1 PUSH1 0xA0 SHL SUB AND DUP2 JUMP JUMPDEST PUSH1 0xB SLOAD PUSH1 0x1 PUSH1 0x1 PUSH1 0xA0 SHL SUB AND DUP2 JUMP JUMPDEST PUSH1 0x40 DUP1 MLOAD SWAP4 ISZERO ISZERO PUSH1 0xF8 SHL PUSH1 0x20 DUP1 DUP7 ADD SWAP2 SWAP1 SWAP2 MSTORE PUSH1 0x21 DUP6 ADD SWAP4 SWAP1 SWAP4 MSTORE PUSH1 0x41 DUP1 DUP6 ADD SWAP3 SWAP1 SWAP3 MSTORE DUP1 MLOAD DUP1 DUP6 SUB SWAP1 SWAP3 ADD DUP3 MSTORE PUSH1 0x61 SWAP1 SWAP4 ADD SWAP1 SWAP3 MSTORE DUP2 MLOAD SWAP2 ADD KECCAK256 SWAP1 JUMP JUMPDEST PUSH1 0x0 PUSH2 0x153B PUSH2 0x33A8 JUMP JUMPDEST PUSH2 0x1544 DUP4 PUSH2 0x25F7 JUMP JUMPDEST MLOAD SWAP4 SWAP3 POP POP POP JUMP JUMPDEST DUP2 PUSH1 0x1 PUSH1 0x1 PUSH1 0xA0 SHL SUB AND PUSH2 0x155E PUSH2 0x1FFD JUMP JUMPDEST PUSH1 0x1 PUSH1 0x1 PUSH1 0xA0 SHL SUB AND EQ ISZERO PUSH2 0x15A4 JUMPI PUSH1 0x40 MLOAD PUSH3 0x461BCD PUSH1 0xE5 SHL DUP2 MSTORE PUSH1 0x4 ADD DUP1 DUP1 PUSH1 0x20 ADD DUP3 DUP2 SUB DUP3 MSTORE PUSH1 0x29 DUP2 MSTORE PUSH1 0x20 ADD DUP1 PUSH2 0x382A PUSH1 0x29 SWAP2 CODECOPY PUSH1 0x40 ADD SWAP2 POP POP PUSH1 0x40 MLOAD DUP1 SWAP2 SUB SWAP1 REVERT JUMPDEST DUP1 PUSH1 0x2 PUSH1 0x0 PUSH2 0x15B1 PUSH2 0x1FFD JUMP JUMPDEST PUSH1 0x1 PUSH1 0x1 PUSH1 0xA0 SHL SUB SWAP1 DUP2 AND DUP3 MSTORE PUSH1 0x20 DUP1 DUP4 ADD SWAP4 SWAP1 SWAP4 MSTORE PUSH1 0x40 SWAP2 DUP3 ADD PUSH1 0x0 SWAP1 DUP2 KECCAK256 SWAP2 DUP8 AND DUP1 DUP3 MSTORE SWAP2 SWAP1 SWAP4 MSTORE SWAP2 KECCAK256 DUP1 SLOAD PUSH1 0xFF NOT AND SWAP3 ISZERO ISZERO SWAP3 SWAP1 SWAP3 OR SWAP1 SWAP2 SSTORE PUSH2 0x15F5 PUSH2 0x1FFD JUMP JUMPDEST PUSH1 0x40 DUP1 MLOAD DUP5 ISZERO ISZERO DUP2 MSTORE SWAP1 MLOAD PUSH1 0x1 PUSH1 0x1 PUSH1 0xA0 SHL SUB SWAP3 SWAP1 SWAP3 AND SWAP2 PUSH32 0x17307EAB39AB6107E8899845AD3D59BD9653F200F220920489CA2B5937696C31 SWAP2 DUP2 SWAP1 SUB PUSH1 0x20 ADD SWAP1 LOG3 POP POP JUMP JUMPDEST PUSH1 0x0 DUP2 GT PUSH2 0x167A JUMPI PUSH1 0x40 MLOAD PUSH3 0x461BCD PUSH1 0xE5 SHL DUP2 MSTORE PUSH1 0x4 ADD DUP1 DUP1 PUSH1 0x20 ADD DUP3 DUP2 SUB DUP3 MSTORE PUSH1 0x40 DUP2 MSTORE PUSH1 0x20 ADD DUP1 PUSH2 0x37A5 PUSH1 0x40 SWAP2 CODECOPY PUSH1 0x40 ADD SWAP2 POP POP PUSH1 0x40 MLOAD DUP1 SWAP2 SUB SWAP1 REVERT JUMPDEST PUSH2 0x1683 DUP3 PUSH2 0x19FA JUMP JUMPDEST DUP2 GT ISZERO PUSH2 0x16C1 JUMPI PUSH1 0x40 MLOAD PUSH3 0x461BCD PUSH1 0xE5 SHL DUP2 MSTORE PUSH1 0x4 ADD DUP1 DUP1 PUSH1 0x20 ADD DUP3 DUP2 SUB DUP3 MSTORE PUSH1 0x38 DUP2 MSTORE PUSH1 0x20 ADD DUP1 PUSH2 0x3913 PUSH1 0x38 SWAP2 CODECOPY PUSH1 0x40 ADD SWAP2 POP POP PUSH1 0x40 MLOAD DUP1 SWAP2 SUB SWAP1 REVERT JUMPDEST PUSH2 0x16D3 PUSH2 0x16CC PUSH2 0x1FFD JUMP JUMPDEST DUP4 DUP4 PUSH2 0x2681 JUMP JUMPDEST PUSH1 0x0 PUSH2 0x16DF DUP4 DUP4 PUSH2 0x27BA JUMP JUMPDEST SWAP1 POP PUSH1 0x0 DUP2 SGT ISZERO PUSH2 0x1775 JUMPI PUSH1 0x0 PUSH2 0x16F5 DUP3 PUSH2 0x280C JUMP JUMPDEST PUSH1 0x4 DUP1 SLOAD PUSH1 0x40 DUP1 MLOAD PUSH4 0x140E25AD PUSH1 0xE3 SHL DUP2 MSTORE SWAP3 DUP4 ADD DUP5 SWAP1 MSTORE MLOAD SWAP3 SWAP4 POP PUSH1 0x1 PUSH1 0x1 PUSH1 0xA0 SHL SUB AND SWAP2 PUSH4 0xA0712D68 SWAP2 PUSH1 0x24 DUP1 DUP3 ADD SWAP3 PUSH1 0x0 SWAP3 SWAP1 SWAP2 SWAP1 DUP3 SWAP1 SUB ADD DUP2 DUP4 DUP8 DUP1 EXTCODESIZE ISZERO DUP1 ISZERO PUSH2 0x1742 JUMPI PUSH1 0x0 DUP1 REVERT JUMPDEST POP GAS CALL ISZERO DUP1 ISZERO PUSH2 0x1756 JUMPI RETURNDATASIZE PUSH1 0x0 DUP1 RETURNDATACOPY RETURNDATASIZE PUSH1 0x0 REVERT JUMPDEST POP POP POP POP PUSH2 0x176D DUP2 DUP5 PUSH2 0x2098 SWAP1 SWAP2 SWAP1 PUSH4 0xFFFFFFFF AND JUMP JUMPDEST SWAP3 POP POP PUSH2 0x180E JUMP JUMPDEST PUSH1 0x0 DUP2 SLT ISZERO PUSH2 0x180E JUMPI PUSH1 0x0 PUSH2 0x1792 PUSH2 0x178C DUP4 PUSH2 0x280C JUMP JUMPDEST DUP5 PUSH2 0x2831 JUMP JUMPDEST PUSH1 0x4 DUP1 SLOAD PUSH1 0x40 DUP1 MLOAD PUSH4 0x852CD8D PUSH1 0xE3 SHL DUP2 MSTORE SWAP3 DUP4 ADD DUP5 SWAP1 MSTORE MLOAD SWAP3 SWAP4 POP PUSH1 0x1 PUSH1 0x1 PUSH1 0xA0 SHL SUB AND SWAP2 PUSH4 0x42966C68 SWAP2 PUSH1 0x24 DUP1 DUP3 ADD SWAP3 PUSH1 0x0 SWAP3 SWAP1 SWAP2 SWAP1 DUP3 SWAP1 SUB ADD DUP2 DUP4 DUP8 DUP1 EXTCODESIZE ISZERO DUP1 ISZERO PUSH2 0x17DF JUMPI PUSH1 0x0 DUP1 REVERT JUMPDEST POP GAS CALL ISZERO DUP1 ISZERO PUSH2 0x17F3 JUMPI RETURNDATASIZE PUSH1 0x0 DUP1 RETURNDATACOPY RETURNDATASIZE PUSH1 0x0 REVERT JUMPDEST POP POP POP POP PUSH2 0x180A DUP2 DUP5 PUSH2 0x2496 SWAP1 SWAP2 SWAP1 PUSH4 0xFFFFFFFF AND JUMP JUMPDEST SWAP3 POP POP JUMPDEST PUSH1 0x0 PUSH2 0x1819 DUP5 PUSH2 0x11E8 JUMP JUMPDEST SWAP1 POP PUSH1 0x0 PUSH2 0x1827 DUP5 DUP4 PUSH2 0x2454 JUMP JUMPDEST SWAP1 POP PUSH2 0x1839 DUP5 DUP3 PUSH4 0xFFFFFFFF PUSH2 0x2496 AND JUMP JUMPDEST SWAP4 POP DUP4 ISZERO PUSH2 0x186E JUMPI PUSH2 0x1865 PUSH2 0x184C PUSH2 0x1FFD JUMP JUMPDEST PUSH1 0x4 SLOAD PUSH1 0x1 PUSH1 0x1 PUSH1 0xA0 SHL SUB AND SWAP1 DUP7 PUSH4 0xFFFFFFFF PUSH2 0x24E4 AND JUMP JUMPDEST PUSH2 0x186E DUP2 PUSH2 0x2536 JUMP JUMPDEST DUP5 PUSH2 0x1877 PUSH2 0x1FFD JUMP JUMPDEST PUSH1 0x1 PUSH1 0x1 PUSH1 0xA0 SHL SUB AND PUSH32 0x5814B4996E98740654CDBAFC62C8147CF3AB7657B106293C6080D9A0180D31E0 DUP7 PUSH1 0x40 MLOAD DUP1 DUP3 DUP2 MSTORE PUSH1 0x20 ADD SWAP2 POP POP PUSH1 0x40 MLOAD DUP1 SWAP2 SUB SWAP1 LOG3 POP POP POP POP POP JUMP JUMPDEST PUSH1 0x60 PUSH1 0x0 PUSH2 0x18CA PUSH2 0x2396 JUMP JUMPDEST SWAP1 POP PUSH1 0x60 PUSH2 0x18D8 PUSH1 0xE PUSH2 0x2847 JUMP JUMPDEST PUSH8 0xFFFFFFFFFFFFFFFF DUP2 GT DUP1 ISZERO PUSH2 0x18EE JUMPI PUSH1 0x0 DUP1 REVERT JUMPDEST POP PUSH1 0x40 MLOAD SWAP1 DUP1 DUP3 MSTORE DUP1 PUSH1 0x20 MUL PUSH1 0x20 ADD DUP3 ADD PUSH1 0x40 MSTORE DUP1 ISZERO PUSH2 0x1918 JUMPI DUP2 PUSH1 0x20 ADD PUSH1 0x20 DUP3 MUL DUP1 CALLDATASIZE DUP4 CALLDATACOPY ADD SWAP1 POP JUMPDEST POP SWAP1 POP PUSH1 0x0 JUMPDEST PUSH2 0x1928 PUSH1 0xE PUSH2 0x2847 JUMP JUMPDEST DUP2 LT ISZERO PUSH2 0x1976 JUMPI PUSH1 0x0 PUSH2 0x1942 PUSH1 0xE DUP4 PUSH4 0xFFFFFFFF PUSH2 0x2852 AND JUMP JUMPDEST SWAP1 POP PUSH2 0x194E DUP2 DUP6 PUSH2 0x240E JUMP JUMPDEST ISZERO PUSH2 0x196D JUMPI DUP1 DUP4 DUP4 DUP2 MLOAD DUP2 LT PUSH2 0x1960 JUMPI INVALID JUMPDEST PUSH1 0x20 MUL PUSH1 0x20 ADD ADD DUP2 DUP2 MSTORE POP POP JUMPDEST POP PUSH1 0x1 ADD PUSH2 0x191E JUMP JUMPDEST POP SWAP2 POP POP JUMPDEST SWAP1 JUMP JUMPDEST PUSH2 0x1986 PUSH2 0x1FFD JUMP JUMPDEST PUSH1 0xA SLOAD PUSH1 0x1 PUSH1 0x1 PUSH1 0xA0 SHL SUB SWAP1 DUP2 AND SWAP2 AND EQ PUSH2 0x19D2 JUMPI PUSH1 0x40 MLOAD PUSH3 0x461BCD PUSH1 0xE5 SHL DUP2 MSTORE PUSH1 0x4 ADD DUP1 DUP1 PUSH1 0x20 ADD DUP3 DUP2 SUB DUP3 MSTORE PUSH1 0x26 DUP2 MSTORE PUSH1 0x20 ADD DUP1 PUSH2 0x3651 PUSH1 0x26 SWAP2 CODECOPY PUSH1 0x40 ADD SWAP2 POP POP PUSH1 0x40 MLOAD DUP1 SWAP2 SUB SWAP1 REVERT JUMPDEST PUSH1 0xA DUP1 SLOAD PUSH1 0x1 PUSH1 0x1 PUSH1 0xA0 SHL SUB NOT AND PUSH1 0x1 PUSH1 0x1 PUSH1 0xA0 SHL SUB SWAP3 SWAP1 SWAP3 AND SWAP2 SWAP1 SWAP2 OR SWAP1 SSTORE JUMP JUMPDEST PUSH1 0x6 SLOAD DUP2 JUMP JUMPDEST PUSH1 0x0 SWAP1 DUP2 MSTORE PUSH1 0xD PUSH1 0x20 MSTORE PUSH1 0x40 SWAP1 KECCAK256 SLOAD SWAP1 JUMP JUMPDEST PUSH2 0x1A14 PUSH2 0x1FFD JUMP JUMPDEST PUSH1 0xA SLOAD PUSH1 0x1 PUSH1 0x1 PUSH1 0xA0 SHL SUB SWAP1 DUP2 AND SWAP2 AND EQ PUSH2 0x1A60 JUMPI PUSH1 0x40 MLOAD PUSH3 0x461BCD PUSH1 0xE5 SHL DUP2 MSTORE PUSH1 0x4 ADD DUP1 DUP1 PUSH1 0x20 ADD DUP3 DUP2 SUB DUP3 MSTORE PUSH1 0x26 DUP2 MSTORE PUSH1 0x20 ADD DUP1 PUSH2 0x3651 PUSH1 0x26 SWAP2 CODECOPY PUSH1 0x40 ADD SWAP2 POP POP PUSH1 0x40 MLOAD DUP1 SWAP2 SUB SWAP1 REVERT JUMPDEST PUSH1 0x6 SSTORE JUMP JUMPDEST PUSH1 0x0 PUSH2 0x1A6F PUSH2 0x33A8 JUMP JUMPDEST PUSH2 0x1A78 DUP4 PUSH2 0x25F7 JUMP JUMPDEST PUSH1 0x40 ADD MLOAD SWAP4 SWAP3 POP POP POP JUMP JUMPDEST PUSH1 0x0 PUSH2 0x1A8D PUSH2 0x33A8 JUMP JUMPDEST PUSH2 0x1A96 DUP4 PUSH2 0x25F7 JUMP JUMPDEST SWAP1 POP PUSH2 0x1AA1 DUP2 PUSH2 0x285E JUMP JUMPDEST SWAP4 SWAP3 POP POP POP JUMP JUMPDEST PUSH1 0x1 PUSH1 0x1 PUSH1 0xA0 SHL SUB SWAP2 DUP3 AND PUSH1 0x0 SWAP1 DUP2 MSTORE PUSH1 0x2 PUSH1 0x20 SWAP1 DUP2 MSTORE PUSH1 0x40 DUP1 DUP4 KECCAK256 SWAP4 SWAP1 SWAP5 AND DUP3 MSTORE SWAP2 SWAP1 SWAP2 MSTORE KECCAK256 SLOAD PUSH1 0xFF AND SWAP1 JUMP JUMPDEST PUSH2 0x1ADE PUSH2 0x1FFD JUMP JUMPDEST PUSH1 0xA SLOAD PUSH1 0x1 PUSH1 0x1 PUSH1 0xA0 SHL SUB SWAP1 DUP2 AND SWAP2 AND EQ PUSH2 0x1B2A JUMPI PUSH1 0x40 MLOAD PUSH3 0x461BCD PUSH1 0xE5 SHL DUP2 MSTORE PUSH1 0x4 ADD DUP1 DUP1 PUSH1 0x20 ADD DUP3 DUP2 SUB DUP3 MSTORE PUSH1 0x26 DUP2 MSTORE PUSH1 0x20 ADD DUP1 PUSH2 0x3651 PUSH1 0x26 SWAP2 CODECOPY PUSH1 0x40 ADD SWAP2 POP POP PUSH1 0x40 MLOAD DUP1 SWAP2 SUB SWAP1 REVERT JUMPDEST PUSH1 0xB DUP1 SLOAD PUSH1 0x1 PUSH1 0x1 PUSH1 0xA0 SHL SUB NOT AND PUSH1 0x1 PUSH1 0x1 PUSH1 0xA0 SHL SUB SWAP3 SWAP1 SWAP3 AND SWAP2 SWAP1 SWAP2 OR SWAP1 SSTORE JUMP JUMPDEST PUSH1 0x1 PUSH1 0x1 PUSH1 0xA0 SHL SUB DUP5 AND PUSH2 0x1B91 JUMPI PUSH1 0x40 MLOAD PUSH3 0x461BCD PUSH1 0xE5 SHL DUP2 MSTORE PUSH1 0x4 ADD DUP1 DUP1 PUSH1 0x20 ADD DUP3 DUP2 SUB DUP3 MSTORE PUSH1 0x25 DUP2 MSTORE PUSH1 0x20 ADD DUP1 PUSH2 0x3677 PUSH1 0x25 SWAP2 CODECOPY PUSH1 0x40 ADD SWAP2 POP POP PUSH1 0x40 MLOAD DUP1 SWAP2 SUB SWAP1 REVERT JUMPDEST PUSH2 0x1B99 PUSH2 0x1FFD JUMP JUMPDEST PUSH1 0x1 PUSH1 0x1 PUSH1 0xA0 SHL SUB AND DUP6 PUSH1 0x1 PUSH1 0x1 PUSH1 0xA0 SHL SUB AND EQ DUP1 PUSH2 0x1BBF JUMPI POP PUSH2 0x1BBF DUP6 PUSH2 0xD58 PUSH2 0x1FFD JUMP JUMPDEST PUSH2 0x1BFA JUMPI PUSH1 0x40 MLOAD PUSH3 0x461BCD PUSH1 0xE5 SHL DUP2 MSTORE PUSH1 0x4 ADD DUP1 DUP1 PUSH1 0x20 ADD DUP3 DUP2 SUB DUP3 MSTORE PUSH1 0x29 DUP2 MSTORE PUSH1 0x20 ADD DUP1 PUSH2 0x35A1 PUSH1 0x29 SWAP2 CODECOPY PUSH1 0x40 ADD SWAP2 POP POP PUSH1 0x40 MLOAD DUP1 SWAP2 SUB SWAP1 REVERT JUMPDEST PUSH1 0x0 PUSH2 0x1C04 PUSH2 0x1FFD JUMP JUMPDEST SWAP1 POP PUSH2 0x1C24 DUP2 DUP8 DUP8 PUSH2 0x1C15 DUP9 PUSH2 0x28D7 JUMP JUMPDEST PUSH2 0x1C1E DUP9 PUSH2 0x28D7 JUMP JUMPDEST DUP8 PUSH2 0xF9B JUMP JUMPDEST PUSH2 0x1C71 DUP4 PUSH1 0x40 MLOAD DUP1 PUSH1 0x60 ADD PUSH1 0x40 MSTORE DUP1 PUSH1 0x2A DUP2 MSTORE PUSH1 0x20 ADD PUSH2 0x3712 PUSH1 0x2A SWAP2 CODECOPY PUSH1 0x0 DUP8 DUP2 MSTORE PUSH1 0x1 PUSH1 0x20 SWAP1 DUP2 MSTORE PUSH1 0x40 DUP1 DUP4 KECCAK256 PUSH1 0x1 PUSH1 0x1 PUSH1 0xA0 SHL SUB DUP14 AND DUP5 MSTORE SWAP1 SWAP2 MSTORE SWAP1 KECCAK256 SLOAD SWAP2 SWAP1 PUSH4 0xFFFFFFFF PUSH2 0x2001 AND JUMP JUMPDEST PUSH1 0x0 DUP6 DUP2 MSTORE PUSH1 0x1 PUSH1 0x20 SWAP1 DUP2 MSTORE PUSH1 0x40 DUP1 DUP4 KECCAK256 PUSH1 0x1 PUSH1 0x1 PUSH1 0xA0 SHL SUB DUP12 DUP2 AND DUP6 MSTORE SWAP3 MSTORE DUP1 DUP4 KECCAK256 SWAP4 SWAP1 SWAP4 SSTORE DUP8 AND DUP2 MSTORE KECCAK256 SLOAD PUSH2 0x1CA8 SWAP1 DUP5 PUSH2 0x2098 JUMP JUMPDEST PUSH1 0x0 DUP6 DUP2 MSTORE PUSH1 0x1 PUSH1 0x20 SWAP1 DUP2 MSTORE PUSH1 0x40 DUP1 DUP4 KECCAK256 PUSH1 0x1 PUSH1 0x1 PUSH1 0xA0 SHL SUB DUP1 DUP12 AND DUP1 DUP7 MSTORE SWAP2 DUP5 MSTORE SWAP4 DUP3 SWAP1 KECCAK256 SWAP5 SWAP1 SWAP5 SSTORE DUP1 MLOAD DUP9 DUP2 MSTORE SWAP2 DUP3 ADD DUP8 SWAP1 MSTORE DUP1 MLOAD DUP11 DUP5 AND SWAP4 DUP7 AND SWAP3 PUSH32 0xC3D58168C5AE7397731D063D5BBF3D657854427343F4C083240F7AACAA2D0F62 SWAP3 SWAP1 DUP3 SWAP1 SUB ADD SWAP1 LOG4 PUSH2 0xF9B DUP2 DUP8 DUP8 DUP8 DUP8 DUP8 PUSH2 0x291B JUMP JUMPDEST PUSH1 0x0 DUP4 GT PUSH2 0x1D5C JUMPI PUSH1 0x40 MLOAD PUSH3 0x461BCD PUSH1 0xE5 SHL DUP2 MSTORE PUSH1 0x4 ADD DUP1 DUP1 PUSH1 0x20 ADD DUP3 DUP2 SUB DUP3 MSTORE PUSH1 0x3F DUP2 MSTORE PUSH1 0x20 ADD DUP1 PUSH2 0x35CA PUSH1 0x3F SWAP2 CODECOPY PUSH1 0x40 ADD SWAP2 POP POP PUSH1 0x40 MLOAD DUP1 SWAP2 SUB SWAP1 REVERT JUMPDEST PUSH8 0xDE0B6B3A7640000 DUP2 LT ISZERO PUSH2 0x1DA3 JUMPI PUSH1 0x40 MLOAD PUSH3 0x461BCD PUSH1 0xE5 SHL DUP2 MSTORE PUSH1 0x4 ADD DUP1 DUP1 PUSH1 0x20 ADD DUP3 DUP2 SUB DUP3 MSTORE PUSH1 0x48 DUP2 MSTORE PUSH1 0x20 ADD DUP1 PUSH2 0x3609 PUSH1 0x48 SWAP2 CODECOPY PUSH1 0x60 ADD SWAP2 POP POP PUSH1 0x40 MLOAD DUP1 SWAP2 SUB SWAP1 REVERT JUMPDEST PUSH1 0x6 SLOAD DUP2 GT ISZERO PUSH2 0x1DE4 JUMPI PUSH1 0x40 MLOAD PUSH3 0x461BCD PUSH1 0xE5 SHL DUP2 MSTORE PUSH1 0x4 ADD DUP1 DUP1 PUSH1 0x20 ADD DUP3 DUP2 SUB DUP3 MSTORE PUSH1 0x45 DUP2 MSTORE PUSH1 0x20 ADD DUP1 PUSH2 0x37E5 PUSH1 0x45 SWAP2 CODECOPY PUSH1 0x60 ADD SWAP2 POP POP PUSH1 0x40 MLOAD DUP1 SWAP2 SUB SWAP1 REVERT JUMPDEST PUSH2 0x1E09 PUSH2 0x1DEF PUSH2 0x1FFD JUMP JUMPDEST PUSH1 0x4 SLOAD PUSH1 0x1 PUSH1 0x1 PUSH1 0xA0 SHL SUB AND SWAP1 ADDRESS DUP7 PUSH4 0xFFFFFFFF PUSH2 0x2A9E AND JUMP JUMPDEST PUSH1 0x0 PUSH2 0x1E15 DUP5 DUP4 PUSH2 0x2454 JUMP JUMPDEST SWAP1 POP PUSH2 0x1E27 DUP5 DUP3 PUSH4 0xFFFFFFFF PUSH2 0x2496 AND JUMP JUMPDEST SWAP4 POP PUSH1 0x0 PUSH2 0x1E36 DUP6 DUP6 DUP6 PUSH2 0x2AFE JUMP JUMPDEST SWAP1 POP PUSH2 0x1E5A PUSH2 0x1E43 PUSH2 0x1FFD JUMP JUMPDEST DUP3 DUP8 PUSH1 0x40 MLOAD DUP1 PUSH1 0x20 ADD PUSH1 0x40 MSTORE DUP1 PUSH1 0x0 DUP2 MSTORE POP PUSH2 0x2BB1 JUMP JUMPDEST PUSH2 0x1E63 DUP3 PUSH2 0x2536 JUMP JUMPDEST DUP1 PUSH2 0x1E6C PUSH2 0x1FFD JUMP JUMPDEST PUSH1 0x1 PUSH1 0x1 PUSH1 0xA0 SHL SUB AND PUSH32 0x26762795CDA5552A98DBF495F5525EFB05F3D55C5764FA0C6CFAA27150FE1807 DUP8 PUSH1 0x40 MLOAD DUP1 DUP3 DUP2 MSTORE PUSH1 0x20 ADD SWAP2 POP POP PUSH1 0x40 MLOAD DUP1 SWAP2 SUB SWAP1 LOG3 POP POP POP POP POP JUMP JUMPDEST PUSH1 0x4 SLOAD PUSH1 0x1 PUSH1 0x1 PUSH1 0xA0 SHL SUB AND DUP2 JUMP JUMPDEST PUSH1 0x60 DUP1 PUSH2 0x1ECF PUSH1 0xE PUSH2 0x2847 JUMP JUMPDEST PUSH8 0xFFFFFFFFFFFFFFFF DUP2 GT DUP1 ISZERO PUSH2 0x1EE5 JUMPI PUSH1 0x0 DUP1 REVERT JUMPDEST POP PUSH1 0x40 MLOAD SWAP1 DUP1 DUP3 MSTORE DUP1 PUSH1 0x20 MUL PUSH1 0x20 ADD DUP3 ADD PUSH1 0x40 MSTORE DUP1 ISZERO PUSH2 0x1F0F JUMPI DUP2 PUSH1 0x20 ADD PUSH1 0x20 DUP3 MUL DUP1 CALLDATASIZE DUP4 CALLDATACOPY ADD SWAP1 POP JUMPDEST POP SWAP1 POP PUSH1 0x0 JUMPDEST PUSH2 0x1F1F PUSH1 0xE PUSH2 0x2847 JUMP JUMPDEST DUP2 LT ISZERO PUSH2 0x1F5C JUMPI PUSH1 0x0 PUSH2 0x1F39 PUSH1 0xE DUP4 PUSH4 0xFFFFFFFF PUSH2 0x2852 AND JUMP JUMPDEST SWAP1 POP DUP1 DUP4 DUP4 DUP2 MLOAD DUP2 LT PUSH2 0x1F48 JUMPI INVALID JUMPDEST PUSH1 0x20 SWAP1 DUP2 MUL SWAP2 SWAP1 SWAP2 ADD ADD MSTORE POP PUSH1 0x1 ADD PUSH2 0x1F15 JUMP JUMPDEST POP SWAP1 POP SWAP1 JUMP JUMPDEST PUSH1 0x0 DUP3 PUSH2 0x1F71 JUMPI POP PUSH1 0x0 PUSH2 0xAE9 JUMP JUMPDEST DUP3 DUP3 MUL DUP3 DUP5 DUP3 DUP2 PUSH2 0x1F7E JUMPI INVALID JUMPDEST DIV EQ PUSH2 0x1AA1 JUMPI PUSH1 0x40 MLOAD PUSH3 0x461BCD PUSH1 0xE5 SHL DUP2 MSTORE PUSH1 0x4 ADD DUP1 DUP1 PUSH1 0x20 ADD DUP3 DUP2 SUB DUP3 MSTORE PUSH1 0x21 DUP2 MSTORE PUSH1 0x20 ADD DUP1 PUSH2 0x373C PUSH1 0x21 SWAP2 CODECOPY PUSH1 0x40 ADD SWAP2 POP POP PUSH1 0x40 MLOAD DUP1 SWAP2 SUB SWAP1 REVERT JUMPDEST PUSH1 0x0 PUSH2 0x1AA1 DUP4 DUP4 PUSH1 0x40 MLOAD DUP1 PUSH1 0x40 ADD PUSH1 0x40 MSTORE DUP1 PUSH1 0x1A DUP2 MSTORE PUSH1 0x20 ADD PUSH32 0x536166654D6174683A206469766973696F6E206279207A65726F000000000000 DUP2 MSTORE POP PUSH2 0x2CBF JUMP JUMPDEST CALLER SWAP1 JUMP JUMPDEST PUSH1 0x0 DUP2 DUP5 DUP5 GT ISZERO PUSH2 0x2090 JUMPI PUSH1 0x40 MLOAD PUSH3 0x461BCD PUSH1 0xE5 SHL DUP2 MSTORE PUSH1 0x4 ADD DUP1 DUP1 PUSH1 0x20 ADD DUP3 DUP2 SUB DUP3 MSTORE DUP4 DUP2 DUP2 MLOAD DUP2 MSTORE PUSH1 0x20 ADD SWAP2 POP DUP1 MLOAD SWAP1 PUSH1 0x20 ADD SWAP1 DUP1 DUP4 DUP4 PUSH1 0x0 JUMPDEST DUP4 DUP2 LT ISZERO PUSH2 0x2055 JUMPI DUP2 DUP2 ADD MLOAD DUP4 DUP3 ADD MSTORE PUSH1 0x20 ADD PUSH2 0x203D JUMP JUMPDEST POP POP POP POP SWAP1 POP SWAP1 DUP2 ADD SWAP1 PUSH1 0x1F AND DUP1 ISZERO PUSH2 0x2082 JUMPI DUP1 DUP3 SUB DUP1 MLOAD PUSH1 0x1 DUP4 PUSH1 0x20 SUB PUSH2 0x100 EXP SUB NOT AND DUP2 MSTORE PUSH1 0x20 ADD SWAP2 POP JUMPDEST POP SWAP3 POP POP POP PUSH1 0x40 MLOAD DUP1 SWAP2 SUB SWAP1 REVERT JUMPDEST POP POP POP SWAP1 SUB SWAP1 JUMP JUMPDEST PUSH1 0x0 DUP3 DUP3 ADD DUP4 DUP2 LT ISZERO PUSH2 0x1AA1 JUMPI PUSH1 0x40 DUP1 MLOAD PUSH3 0x461BCD PUSH1 0xE5 SHL DUP2 MSTORE PUSH1 0x20 PUSH1 0x4 DUP3 ADD MSTORE PUSH1 0x1B PUSH1 0x24 DUP3 ADD MSTORE PUSH32 0x536166654D6174683A206164646974696F6E206F766572666C6F770000000000 PUSH1 0x44 DUP3 ADD MSTORE SWAP1 MLOAD SWAP1 DUP2 SWAP1 SUB PUSH1 0x64 ADD SWAP1 REVERT JUMPDEST PUSH2 0x2104 DUP5 PUSH1 0x1 PUSH1 0x1 PUSH1 0xA0 SHL SUB AND PUSH2 0x2D24 JUMP JUMPDEST ISZERO PUSH2 0xF9B JUMPI DUP4 PUSH1 0x1 PUSH1 0x1 PUSH1 0xA0 SHL SUB AND PUSH4 0xBC197C81 DUP8 DUP8 DUP7 DUP7 DUP7 PUSH1 0x40 MLOAD DUP7 PUSH4 0xFFFFFFFF AND PUSH1 0xE0 SHL DUP2 MSTORE PUSH1 0x4 ADD DUP1 DUP7 PUSH1 0x1 PUSH1 0x1 PUSH1 0xA0 SHL SUB AND PUSH1 0x1 PUSH1 0x1 PUSH1 0xA0 SHL SUB AND DUP2 MSTORE PUSH1 0x20 ADD DUP6 PUSH1 0x1 PUSH1 0x1 PUSH1 0xA0 SHL SUB AND PUSH1 0x1 PUSH1 0x1 PUSH1 0xA0 SHL SUB AND DUP2 MSTORE PUSH1 0x20 ADD DUP1 PUSH1 0x20 ADD DUP1 PUSH1 0x20 ADD DUP1 PUSH1 0x20 ADD DUP5 DUP2 SUB DUP5 MSTORE DUP8 DUP2 DUP2 MLOAD DUP2 MSTORE PUSH1 0x20 ADD SWAP2 POP DUP1 MLOAD SWAP1 PUSH1 0x20 ADD SWAP1 PUSH1 0x20 MUL DUP1 DUP4 DUP4 PUSH1 0x0 JUMPDEST DUP4 DUP2 LT ISZERO PUSH2 0x21A4 JUMPI DUP2 DUP2 ADD MLOAD DUP4 DUP3 ADD MSTORE PUSH1 0x20 ADD PUSH2 0x218C JUMP JUMPDEST POP POP POP POP SWAP1 POP ADD DUP5 DUP2 SUB DUP4 MSTORE DUP7 DUP2 DUP2 MLOAD DUP2 MSTORE PUSH1 0x20 ADD SWAP2 POP DUP1 MLOAD SWAP1 PUSH1 0x20 ADD SWAP1 PUSH1 0x20 MUL DUP1 DUP4 DUP4 PUSH1 0x0 JUMPDEST DUP4 DUP2 LT ISZERO PUSH2 0x21E3 JUMPI DUP2 DUP2 ADD MLOAD DUP4 DUP3 ADD MSTORE PUSH1 0x20 ADD PUSH2 0x21CB JUMP JUMPDEST POP POP POP POP SWAP1 POP ADD DUP5 DUP2 SUB DUP3 MSTORE DUP6 DUP2 DUP2 MLOAD DUP2 MSTORE PUSH1 0x20 ADD SWAP2 POP DUP1 MLOAD SWAP1 PUSH1 0x20 ADD SWAP1 DUP1 DUP4 DUP4 PUSH1 0x0 JUMPDEST DUP4 DUP2 LT ISZERO PUSH2 0x221F JUMPI DUP2 DUP2 ADD MLOAD DUP4 DUP3 ADD MSTORE PUSH1 0x20 ADD PUSH2 0x2207 JUMP JUMPDEST POP POP POP POP SWAP1 POP SWAP1 DUP2 ADD SWAP1 PUSH1 0x1F AND DUP1 ISZERO PUSH2 0x224C JUMPI DUP1 DUP3 SUB DUP1 MLOAD PUSH1 0x1 DUP4 PUSH1 0x20 SUB PUSH2 0x100 EXP SUB NOT AND DUP2 MSTORE PUSH1 0x20 ADD SWAP2 POP JUMPDEST POP SWAP9 POP POP POP POP POP POP POP POP POP PUSH1 0x20 PUSH1 0x40 MLOAD DUP1 DUP4 SUB DUP2 PUSH1 0x0 DUP8 DUP1 EXTCODESIZE ISZERO DUP1 ISZERO PUSH2 0x2271 JUMPI PUSH1 0x0 DUP1 REVERT JUMPDEST POP GAS CALL SWAP3 POP POP POP DUP1 ISZERO PUSH2 0x2296 JUMPI POP PUSH1 0x40 MLOAD RETURNDATASIZE PUSH1 0x20 DUP2 LT ISZERO PUSH2 0x2291 JUMPI PUSH1 0x0 DUP1 REVERT JUMPDEST POP MLOAD PUSH1 0x1 JUMPDEST PUSH2 0x232B JUMPI PUSH2 0x22A2 PUSH2 0x33D1 JUMP JUMPDEST DUP1 PUSH2 0x22AD JUMPI POP PUSH2 0x22F4 JUMP JUMPDEST PUSH1 0x40 MLOAD PUSH3 0x461BCD PUSH1 0xE5 SHL DUP2 MSTORE PUSH1 0x20 PUSH1 0x4 DUP3 ADD DUP2 DUP2 MSTORE DUP4 MLOAD PUSH1 0x24 DUP5 ADD MSTORE DUP4 MLOAD DUP5 SWAP4 SWAP2 SWAP3 DUP4 SWAP3 PUSH1 0x44 ADD SWAP2 SWAP1 DUP6 ADD SWAP1 DUP1 DUP4 DUP4 PUSH1 0x0 DUP4 ISZERO PUSH2 0x2055 JUMPI DUP2 DUP2 ADD MLOAD DUP4 DUP3 ADD MSTORE PUSH1 0x20 ADD PUSH2 0x203D JUMP JUMPDEST PUSH1 0x40 MLOAD PUSH3 0x461BCD PUSH1 0xE5 SHL DUP2 MSTORE PUSH1 0x4 ADD DUP1 DUP1 PUSH1 0x20 ADD DUP3 DUP2 SUB DUP3 MSTORE PUSH1 0x34 DUP2 MSTORE PUSH1 0x20 ADD DUP1 PUSH2 0x347A PUSH1 0x34 SWAP2 CODECOPY PUSH1 0x40 ADD SWAP2 POP POP PUSH1 0x40 MLOAD DUP1 SWAP2 SUB SWAP1 REVERT JUMPDEST PUSH1 0x1 PUSH1 0x1 PUSH1 0xE0 SHL SUB NOT DUP2 AND PUSH4 0xBC197C81 PUSH1 0xE0 SHL EQ PUSH2 0x237A JUMPI PUSH1 0x40 MLOAD PUSH3 0x461BCD PUSH1 0xE5 SHL DUP2 MSTORE PUSH1 0x4 ADD DUP1 DUP1 PUSH1 0x20 ADD DUP3 DUP2 SUB DUP3 MSTORE PUSH1 0x28 DUP2 MSTORE PUSH1 0x20 ADD DUP1 PUSH2 0x34D0 PUSH1 0x28 SWAP2 CODECOPY PUSH1 0x40 ADD SWAP2 POP POP PUSH1 0x40 MLOAD DUP1 SWAP2 SUB SWAP1 REVERT JUMPDEST POP POP POP POP POP POP POP JUMP JUMPDEST PUSH1 0x0 PUSH2 0xAE9 PUSH1 0xE DUP4 PUSH4 0xFFFFFFFF PUSH2 0x2D60 AND JUMP JUMPDEST PUSH1 0x5 SLOAD PUSH1 0x40 DUP1 MLOAD PUSH4 0x33C22F0B PUSH1 0xE1 SHL DUP2 MSTORE DUP2 MLOAD PUSH1 0x0 SWAP4 DUP5 SWAP4 PUSH1 0x1 PUSH1 0x1 PUSH1 0xA0 SHL SUB SWAP1 SWAP2 AND SWAP3 PUSH4 0x67845E16 SWAP3 PUSH1 0x4 DUP1 DUP4 ADD SWAP4 SWAP3 DUP3 SWAP1 SUB ADD DUP2 DUP8 DUP8 DUP1 EXTCODESIZE ISZERO DUP1 ISZERO PUSH2 0x23DC JUMPI PUSH1 0x0 DUP1 REVERT JUMPDEST POP GAS CALL ISZERO DUP1 ISZERO PUSH2 0x23F0 JUMPI RETURNDATASIZE PUSH1 0x0 DUP1 RETURNDATACOPY RETURNDATASIZE PUSH1 0x0 REVERT JUMPDEST POP POP POP POP PUSH1 0x40 MLOAD RETURNDATASIZE PUSH1 0x40 DUP2 LT ISZERO PUSH2 0x2406 JUMPI PUSH1 0x0 DUP1 REVERT JUMPDEST POP MLOAD SWAP2 POP POP SWAP1 JUMP JUMPDEST PUSH1 0x0 PUSH2 0x2418 PUSH2 0x33A8 JUMP JUMPDEST PUSH2 0x2421 DUP5 PUSH2 0x25F7 JUMP JUMPDEST SWAP1 POP PUSH1 0x0 PUSH2 0x242E DUP3 PUSH2 0x285E JUMP JUMPDEST DUP3 MLOAD SWAP1 SWAP2 POP PUSH1 0x0 SWAP1 ISZERO PUSH2 0x2445 JUMPI POP DUP4 DUP2 SLT ISZERO PUSH2 0x244B JUMP JUMPDEST POP DUP4 DUP2 SGT ISZERO JUMPDEST SWAP6 SWAP5 POP POP POP POP POP JUMP JUMPDEST PUSH1 0x0 PUSH2 0x1AA1 PUSH2 0x178C PUSH8 0xDE0B6B3A7640000 PUSH2 0x10E7 PUSH8 0xDE0B6B3A7640000 PUSH2 0x10E7 PUSH1 0x7 SLOAD PUSH2 0x248A DUP10 DUP12 PUSH2 0x1F62 SWAP1 SWAP2 SWAP1 PUSH4 0xFFFFFFFF AND JUMP JUMPDEST SWAP1 PUSH4 0xFFFFFFFF PUSH2 0x1F62 AND JUMP JUMPDEST PUSH1 0x0 PUSH2 0x1AA1 DUP4 DUP4 PUSH1 0x40 MLOAD DUP1 PUSH1 0x40 ADD PUSH1 0x40 MSTORE DUP1 PUSH1 0x1E DUP2 MSTORE PUSH1 0x20 ADD PUSH32 0x536166654D6174683A207375627472616374696F6E206F766572666C6F770000 DUP2 MSTORE POP PUSH2 0x2001 JUMP JUMPDEST PUSH1 0x0 PUSH2 0x1AA1 DUP4 DUP4 PUSH2 0x2D6C JUMP JUMPDEST PUSH1 0x40 DUP1 MLOAD PUSH1 0x1 PUSH1 0x1 PUSH1 0xA0 SHL SUB DUP5 AND PUSH1 0x24 DUP3 ADD MSTORE PUSH1 0x44 DUP1 DUP3 ADD DUP5 SWAP1 MSTORE DUP3 MLOAD DUP1 DUP4 SUB SWAP1 SWAP2 ADD DUP2 MSTORE PUSH1 0x64 SWAP1 SWAP2 ADD SWAP1 SWAP2 MSTORE PUSH1 0x20 DUP2 ADD DUP1 MLOAD PUSH1 0x1 PUSH1 0x1 PUSH1 0xE0 SHL SUB AND PUSH4 0xA9059CBB PUSH1 0xE0 SHL OR SWAP1 MSTORE PUSH2 0xC41 SWAP1 DUP5 SWAP1 PUSH2 0x2E32 JUMP JUMPDEST PUSH1 0x0 PUSH2 0x2559 PUSH8 0xDE0B6B3A7640000 PUSH2 0x10E7 PUSH1 0x8 SLOAD DUP6 PUSH2 0x1F62 SWAP1 SWAP2 SWAP1 PUSH4 0xFFFFFFFF AND JUMP JUMPDEST PUSH1 0x4 DUP1 SLOAD PUSH1 0x40 DUP1 MLOAD PUSH4 0x852CD8D PUSH1 0xE3 SHL DUP2 MSTORE SWAP3 DUP4 ADD DUP5 SWAP1 MSTORE MLOAD SWAP3 SWAP4 POP PUSH1 0x1 PUSH1 0x1 PUSH1 0xA0 SHL SUB AND SWAP2 PUSH4 0x42966C68 SWAP2 PUSH1 0x24 DUP1 DUP3 ADD SWAP3 PUSH1 0x0 SWAP3 SWAP1 SWAP2 SWAP1 DUP3 SWAP1 SUB ADD DUP2 DUP4 DUP8 DUP1 EXTCODESIZE ISZERO DUP1 ISZERO PUSH2 0x25A6 JUMPI PUSH1 0x0 DUP1 REVERT JUMPDEST POP GAS CALL ISZERO DUP1 ISZERO PUSH2 0x25BA JUMPI RETURNDATASIZE PUSH1 0x0 DUP1 RETURNDATACOPY RETURNDATASIZE PUSH1 0x0 REVERT JUMPDEST POP POP POP POP PUSH2 0x25D1 DUP2 DUP4 PUSH2 0x2496 SWAP1 SWAP2 SWAP1 PUSH4 0xFFFFFFFF AND JUMP JUMPDEST PUSH1 0xB SLOAD PUSH1 0x4 SLOAD SWAP2 SWAP4 POP PUSH2 0x14D1 SWAP2 PUSH1 0x1 PUSH1 0x1 PUSH1 0xA0 SHL SUB SWAP1 DUP2 AND SWAP2 AND DUP5 PUSH4 0xFFFFFFFF PUSH2 0x24E4 AND JUMP JUMPDEST PUSH2 0x25FF PUSH2 0x33A8 JUMP JUMPDEST PUSH2 0x2608 DUP3 PUSH2 0x2383 JUMP JUMPDEST PUSH2 0x2643 JUMPI PUSH1 0x40 MLOAD PUSH3 0x461BCD PUSH1 0xE5 SHL DUP2 MSTORE PUSH1 0x4 ADD DUP1 DUP1 PUSH1 0x20 ADD DUP3 DUP2 SUB DUP3 MSTORE PUSH1 0x21 DUP2 MSTORE PUSH1 0x20 ADD DUP1 PUSH2 0x3784 PUSH1 0x21 SWAP2 CODECOPY PUSH1 0x40 ADD SWAP2 POP POP PUSH1 0x40 MLOAD DUP1 SWAP2 SUB SWAP1 REVERT JUMPDEST POP PUSH1 0x0 SWAP1 DUP2 MSTORE PUSH1 0xC PUSH1 0x20 SWAP1 DUP2 MSTORE PUSH1 0x40 SWAP2 DUP3 SWAP1 KECCAK256 DUP3 MLOAD PUSH1 0x60 DUP2 ADD DUP5 MSTORE DUP2 SLOAD PUSH1 0xFF AND ISZERO ISZERO DUP2 MSTORE PUSH1 0x1 DUP3 ADD SLOAD SWAP3 DUP2 ADD SWAP3 SWAP1 SWAP3 MSTORE PUSH1 0x2 ADD SLOAD SWAP2 DUP2 ADD SWAP2 SWAP1 SWAP2 MSTORE SWAP1 JUMP JUMPDEST PUSH1 0x1 PUSH1 0x1 PUSH1 0xA0 SHL SUB DUP4 AND PUSH2 0x26C6 JUMPI PUSH1 0x40 MLOAD PUSH3 0x461BCD PUSH1 0xE5 SHL DUP2 MSTORE PUSH1 0x4 ADD DUP1 DUP1 PUSH1 0x20 ADD DUP3 DUP2 SUB DUP3 MSTORE PUSH1 0x23 DUP2 MSTORE PUSH1 0x20 ADD DUP1 PUSH2 0x36EF PUSH1 0x23 SWAP2 CODECOPY PUSH1 0x40 ADD SWAP2 POP POP PUSH1 0x40 MLOAD DUP1 SWAP2 SUB SWAP1 REVERT JUMPDEST PUSH1 0x0 PUSH2 0x26D0 PUSH2 0x1FFD JUMP JUMPDEST SWAP1 POP PUSH2 0x2700 DUP2 DUP6 PUSH1 0x0 PUSH2 0x26E2 DUP8 PUSH2 0x28D7 JUMP JUMPDEST PUSH2 0x26EB DUP8 PUSH2 0x28D7 JUMP JUMPDEST PUSH1 0x40 MLOAD DUP1 PUSH1 0x20 ADD PUSH1 0x40 MSTORE DUP1 PUSH1 0x0 DUP2 MSTORE POP PUSH2 0xF9B JUMP JUMPDEST PUSH2 0x274D DUP3 PUSH1 0x40 MLOAD DUP1 PUSH1 0x60 ADD PUSH1 0x40 MSTORE DUP1 PUSH1 0x24 DUP2 MSTORE PUSH1 0x20 ADD PUSH2 0x357D PUSH1 0x24 SWAP2 CODECOPY PUSH1 0x0 DUP7 DUP2 MSTORE PUSH1 0x1 PUSH1 0x20 SWAP1 DUP2 MSTORE PUSH1 0x40 DUP1 DUP4 KECCAK256 PUSH1 0x1 PUSH1 0x1 PUSH1 0xA0 SHL SUB DUP12 AND DUP5 MSTORE SWAP1 SWAP2 MSTORE SWAP1 KECCAK256 SLOAD SWAP2 SWAP1 PUSH4 0xFFFFFFFF PUSH2 0x2001 AND JUMP JUMPDEST PUSH1 0x0 DUP5 DUP2 MSTORE PUSH1 0x1 PUSH1 0x20 SWAP1 DUP2 MSTORE PUSH1 0x40 DUP1 DUP4 KECCAK256 PUSH1 0x1 PUSH1 0x1 PUSH1 0xA0 SHL SUB DUP1 DUP11 AND DUP1 DUP7 MSTORE SWAP2 DUP5 MSTORE DUP3 DUP6 KECCAK256 SWAP6 SWAP1 SWAP6 SSTORE DUP2 MLOAD DUP9 DUP2 MSTORE SWAP3 DUP4 ADD DUP8 SWAP1 MSTORE DUP2 MLOAD SWAP4 SWAP5 SWAP1 SWAP4 SWAP1 DUP7 AND SWAP3 PUSH32 0xC3D58168C5AE7397731D063D5BBF3D657854427343F4C083240F7AACAA2D0F62 SWAP3 SWAP1 DUP3 SWAP1 SUB ADD SWAP1 LOG4 POP POP POP POP JUMP JUMPDEST PUSH1 0x0 DUP1 PUSH2 0x27C5 PUSH2 0x2396 JUMP JUMPDEST SWAP1 POP PUSH1 0x0 PUSH2 0x27D4 DUP6 DUP6 DUP5 PUSH2 0x2EE3 JUMP JUMPDEST SWAP1 POP PUSH1 0x0 PUSH2 0x27E1 DUP7 PUSH2 0x19FA JUMP JUMPDEST SWAP1 POP PUSH2 0x27F3 DUP2 DUP7 PUSH4 0xFFFFFFFF PUSH2 0x2496 AND JUMP JUMPDEST PUSH1 0x0 DUP8 DUP2 MSTORE PUSH1 0xD PUSH1 0x20 MSTORE PUSH1 0x40 SWAP1 KECCAK256 SSTORE POP SWAP2 POP POP SWAP3 SWAP2 POP POP JUMP JUMPDEST PUSH1 0x0 DUP1 DUP3 SLT ISZERO PUSH2 0x282D JUMPI PUSH2 0x2828 DUP3 PUSH1 0x0 NOT PUSH4 0xFFFFFFFF PUSH2 0x2F90 AND JUMP JUMPDEST PUSH2 0xAE9 JUMP JUMPDEST POP SWAP1 JUMP JUMPDEST PUSH1 0x0 DUP2 DUP4 LT PUSH2 0x2840 JUMPI DUP2 PUSH2 0x1AA1 JUMP JUMPDEST POP SWAP1 SWAP2 SWAP1 POP JUMP JUMPDEST PUSH1 0x0 PUSH2 0xAE9 DUP3 PUSH2 0x3039 JUMP JUMPDEST PUSH1 0x0 PUSH2 0x1AA1 DUP4 DUP4 PUSH2 0x303D JUMP JUMPDEST PUSH1 0x0 DUP1 DUP3 PUSH1 0x0 ADD MLOAD ISZERO PUSH2 0x28B3 JUMPI PUSH1 0x20 DUP4 ADD MLOAD PUSH2 0x28AC SWAP1 PUSH2 0x28A0 PUSH2 0x288F DUP3 PUSH8 0xDE0B6B3A7640000 PUSH4 0xFFFFFFFF PUSH2 0x2496 AND JUMP JUMPDEST PUSH1 0x40 DUP8 ADD MLOAD SWAP1 PUSH4 0xFFFFFFFF PUSH2 0x2F90 AND JUMP JUMPDEST SWAP1 PUSH4 0xFFFFFFFF PUSH2 0x30A1 AND JUMP JUMPDEST SWAP1 POP PUSH2 0xAE9 JUMP JUMPDEST PUSH1 0x20 DUP4 ADD MLOAD PUSH2 0x1AA1 SWAP1 PUSH2 0x28A0 PUSH2 0x288F DUP3 PUSH8 0xDE0B6B3A7640000 PUSH4 0xFFFFFFFF PUSH2 0x2098 AND JUMP JUMPDEST PUSH1 0x40 DUP1 MLOAD PUSH1 0x1 DUP1 DUP3 MSTORE DUP2 DUP4 ADD SWAP1 SWAP3 MSTORE PUSH1 0x60 SWAP2 DUP3 SWAP2 SWAP1 PUSH1 0x20 DUP1 DUP4 ADD SWAP1 DUP1 CALLDATASIZE DUP4 CALLDATACOPY ADD SWAP1 POP POP SWAP1 POP DUP3 DUP2 PUSH1 0x0 DUP2 MLOAD DUP2 LT PUSH2 0x290A JUMPI INVALID JUMPDEST PUSH1 0x20 SWAP1 DUP2 MUL SWAP2 SWAP1 SWAP2 ADD ADD MSTORE SWAP3 SWAP2 POP POP JUMP JUMPDEST PUSH2 0x292D DUP5 PUSH1 0x1 PUSH1 0x1 PUSH1 0xA0 SHL SUB AND PUSH2 0x2D24 JUMP JUMPDEST ISZERO PUSH2 0xF9B JUMPI DUP4 PUSH1 0x1 PUSH1 0x1 PUSH1 0xA0 SHL SUB AND PUSH4 0xF23A6E61 DUP8 DUP8 DUP7 DUP7 DUP7 PUSH1 0x40 MLOAD DUP7 PUSH4 0xFFFFFFFF AND PUSH1 0xE0 SHL DUP2 MSTORE PUSH1 0x4 ADD DUP1 DUP7 PUSH1 0x1 PUSH1 0x1 PUSH1 0xA0 SHL SUB AND PUSH1 0x1 PUSH1 0x1 PUSH1 0xA0 SHL SUB AND DUP2 MSTORE PUSH1 0x20 ADD DUP6 PUSH1 0x1 PUSH1 0x1 PUSH1 0xA0 SHL SUB AND PUSH1 0x1 PUSH1 0x1 PUSH1 0xA0 SHL SUB AND DUP2 MSTORE PUSH1 0x20 ADD DUP5 DUP2 MSTORE PUSH1 0x20 ADD DUP4 DUP2 MSTORE PUSH1 0x20 ADD DUP1 PUSH1 0x20 ADD DUP3 DUP2 SUB DUP3 MSTORE DUP4 DUP2 DUP2 MLOAD DUP2 MSTORE PUSH1 0x20 ADD SWAP2 POP DUP1 MLOAD SWAP1 PUSH1 0x20 ADD SWAP1 DUP1 DUP4 DUP4 PUSH1 0x0 JUMPDEST DUP4 DUP2 LT ISZERO PUSH2 0x29CE JUMPI DUP2 DUP2 ADD MLOAD DUP4 DUP3 ADD MSTORE PUSH1 0x20 ADD PUSH2 0x29B6 JUMP JUMPDEST POP POP POP POP SWAP1 POP SWAP1 DUP2 ADD SWAP1 PUSH1 0x1F AND DUP1 ISZERO PUSH2 0x29FB JUMPI DUP1 DUP3 SUB DUP1 MLOAD PUSH1 0x1 DUP4 PUSH1 0x20 SUB PUSH2 0x100 EXP SUB NOT AND DUP2 MSTORE PUSH1 0x20 ADD SWAP2 POP JUMPDEST POP SWAP7 POP POP POP POP POP POP POP PUSH1 0x20 PUSH1 0x40 MLOAD DUP1 DUP4 SUB DUP2 PUSH1 0x0 DUP8 DUP1 EXTCODESIZE ISZERO DUP1 ISZERO PUSH2 0x2A1E JUMPI PUSH1 0x0 DUP1 REVERT JUMPDEST POP GAS CALL SWAP3 POP POP POP DUP1 ISZERO PUSH2 0x2A43 JUMPI POP PUSH1 0x40 MLOAD RETURNDATASIZE PUSH1 0x20 DUP2 LT ISZERO PUSH2 0x2A3E JUMPI PUSH1 0x0 DUP1 REVERT JUMPDEST POP MLOAD PUSH1 0x1 JUMPDEST PUSH2 0x2A4F JUMPI PUSH2 0x22A2 PUSH2 0x33D1 JUMP JUMPDEST PUSH1 0x1 PUSH1 0x1 PUSH1 0xE0 SHL SUB NOT DUP2 AND PUSH4 0xF23A6E61 PUSH1 0xE0 SHL EQ PUSH2 0x237A JUMPI PUSH1 0x40 MLOAD PUSH3 0x461BCD PUSH1 0xE5 SHL DUP2 MSTORE PUSH1 0x4 ADD DUP1 DUP1 PUSH1 0x20 ADD DUP3 DUP2 SUB DUP3 MSTORE PUSH1 0x28 DUP2 MSTORE PUSH1 0x20 ADD DUP1 PUSH2 0x34D0 PUSH1 0x28 SWAP2 CODECOPY PUSH1 0x40 ADD SWAP2 POP POP PUSH1 0x40 MLOAD DUP1 SWAP2 SUB SWAP1 REVERT JUMPDEST PUSH1 0x40 DUP1 MLOAD PUSH1 0x1 PUSH1 0x1 PUSH1 0xA0 SHL SUB DUP1 DUP7 AND PUSH1 0x24 DUP4 ADD MSTORE DUP5 AND PUSH1 0x44 DUP3 ADD MSTORE PUSH1 0x64 DUP1 DUP3 ADD DUP5 SWAP1 MSTORE DUP3 MLOAD DUP1 DUP4 SUB SWAP1 SWAP2 ADD DUP2 MSTORE PUSH1 0x84 SWAP1 SWAP2 ADD SWAP1 SWAP2 MSTORE PUSH1 0x20 DUP2 ADD DUP1 MLOAD PUSH1 0x1 PUSH1 0x1 PUSH1 0xE0 SHL SUB AND PUSH4 0x23B872DD PUSH1 0xE0 SHL OR SWAP1 MSTORE PUSH2 0x2AF8 SWAP1 DUP6 SWAP1 PUSH2 0x2E32 JUMP JUMPDEST POP POP POP POP JUMP JUMPDEST PUSH1 0x0 DUP1 PUSH2 0x2B09 PUSH2 0x2396 JUMP JUMPDEST SWAP1 POP PUSH1 0x0 PUSH2 0x2B18 DUP6 DUP6 DUP5 PUSH2 0x14F3 JUMP JUMPDEST SWAP1 POP PUSH2 0x2B23 DUP2 PUSH2 0x2383 JUMP JUMPDEST PUSH2 0x2B7B JUMPI PUSH1 0x40 DUP1 MLOAD PUSH1 0x60 DUP2 ADD DUP3 MSTORE DUP7 ISZERO ISZERO DUP2 MSTORE PUSH1 0x20 DUP1 DUP3 ADD DUP8 DUP2 MSTORE DUP3 DUP5 ADD DUP7 DUP2 MSTORE PUSH1 0x0 DUP7 DUP2 MSTORE PUSH1 0xC SWAP1 SWAP4 MSTORE SWAP4 SWAP1 SWAP2 KECCAK256 SWAP2 MLOAD DUP3 SLOAD PUSH1 0xFF NOT AND SWAP1 ISZERO ISZERO OR DUP3 SSTORE MLOAD PUSH1 0x1 DUP3 ADD SSTORE SWAP1 MLOAD PUSH1 0x2 SWAP1 SWAP2 ADD SSTORE PUSH2 0x2B79 PUSH1 0xE DUP3 PUSH2 0x3159 JUMP JUMPDEST POP JUMPDEST PUSH1 0x0 PUSH2 0x2B86 DUP3 PUSH2 0x19FA JUMP JUMPDEST SWAP1 POP PUSH2 0x2B98 DUP2 DUP9 PUSH4 0xFFFFFFFF PUSH2 0x2098 AND JUMP JUMPDEST PUSH1 0x0 DUP4 DUP2 MSTORE PUSH1 0xD PUSH1 0x20 MSTORE PUSH1 0x40 SWAP1 KECCAK256 SSTORE POP SWAP6 SWAP5 POP POP POP POP POP JUMP JUMPDEST PUSH1 0x1 PUSH1 0x1 PUSH1 0xA0 SHL SUB DUP5 AND PUSH2 0x2BF6 JUMPI PUSH1 0x40 MLOAD PUSH3 0x461BCD PUSH1 0xE5 SHL DUP2 MSTORE PUSH1 0x4 ADD DUP1 DUP1 PUSH1 0x20 ADD DUP3 DUP2 SUB DUP3 MSTORE PUSH1 0x21 DUP2 MSTORE PUSH1 0x20 ADD DUP1 PUSH2 0x38F2 PUSH1 0x21 SWAP2 CODECOPY PUSH1 0x40 ADD SWAP2 POP POP PUSH1 0x40 MLOAD DUP1 SWAP2 SUB SWAP1 REVERT JUMPDEST PUSH1 0x0 PUSH2 0x2C00 PUSH2 0x1FFD JUMP JUMPDEST SWAP1 POP PUSH2 0x2C12 DUP2 PUSH1 0x0 DUP8 PUSH2 0x1C15 DUP9 PUSH2 0x28D7 JUMP JUMPDEST PUSH1 0x0 DUP5 DUP2 MSTORE PUSH1 0x1 PUSH1 0x20 SWAP1 DUP2 MSTORE PUSH1 0x40 DUP1 DUP4 KECCAK256 PUSH1 0x1 PUSH1 0x1 PUSH1 0xA0 SHL SUB DUP10 AND DUP5 MSTORE SWAP1 SWAP2 MSTORE SWAP1 KECCAK256 SLOAD PUSH2 0x2C45 SWAP1 DUP5 PUSH4 0xFFFFFFFF PUSH2 0x2098 AND JUMP JUMPDEST PUSH1 0x0 DUP6 DUP2 MSTORE PUSH1 0x1 PUSH1 0x20 SWAP1 DUP2 MSTORE PUSH1 0x40 DUP1 DUP4 KECCAK256 PUSH1 0x1 PUSH1 0x1 PUSH1 0xA0 SHL SUB DUP1 DUP12 AND DUP1 DUP7 MSTORE SWAP2 DUP5 MSTORE DUP3 DUP6 KECCAK256 SWAP6 SWAP1 SWAP6 SSTORE DUP2 MLOAD DUP10 DUP2 MSTORE SWAP3 DUP4 ADD DUP9 SWAP1 MSTORE DUP2 MLOAD SWAP1 SWAP5 DUP7 AND SWAP3 PUSH32 0xC3D58168C5AE7397731D063D5BBF3D657854427343F4C083240F7AACAA2D0F62 SWAP3 SWAP1 DUP3 SWAP1 SUB ADD SWAP1 LOG4 PUSH2 0x2CB8 DUP2 PUSH1 0x0 DUP8 DUP8 DUP8 DUP8 PUSH2 0x291B JUMP JUMPDEST POP POP POP POP POP JUMP JUMPDEST PUSH1 0x0 DUP2 DUP4 PUSH2 0x2D0E JUMPI PUSH1 0x40 MLOAD PUSH3 0x461BCD PUSH1 0xE5 SHL DUP2 MSTORE PUSH1 0x20 PUSH1 0x4 DUP3 ADD DUP2 DUP2 MSTORE DUP4 MLOAD PUSH1 0x24 DUP5 ADD MSTORE DUP4 MLOAD SWAP1 SWAP3 DUP4 SWAP3 PUSH1 0x44 SWAP1 SWAP2 ADD SWAP2 SWAP1 DUP6 ADD SWAP1 DUP1 DUP4 DUP4 PUSH1 0x0 DUP4 ISZERO PUSH2 0x2055 JUMPI DUP2 DUP2 ADD MLOAD DUP4 DUP3 ADD MSTORE PUSH1 0x20 ADD PUSH2 0x203D JUMP JUMPDEST POP PUSH1 0x0 DUP4 DUP6 DUP2 PUSH2 0x2D1A JUMPI INVALID JUMPDEST DIV SWAP6 SWAP5 POP POP POP POP POP JUMP JUMPDEST PUSH1 0x0 DUP2 EXTCODEHASH PUSH32 0xC5D2460186F7233C927E7DB2DCC703C0E500B653CA82273B7BFAD8045D85A470 DUP2 DUP2 EQ DUP1 ISZERO SWAP1 PUSH2 0x2D58 JUMPI POP DUP2 ISZERO ISZERO JUMPDEST SWAP5 SWAP4 POP POP POP POP JUMP JUMPDEST PUSH1 0x0 PUSH2 0x1AA1 DUP4 DUP4 PUSH2 0x3165 JUMP JUMPDEST PUSH1 0x0 DUP2 DUP2 MSTORE PUSH1 0x1 DUP4 ADD PUSH1 0x20 MSTORE PUSH1 0x40 DUP2 KECCAK256 SLOAD DUP1 ISZERO PUSH2 0x2E28 JUMPI DUP4 SLOAD PUSH1 0x0 NOT DUP1 DUP4 ADD SWAP2 SWAP1 DUP2 ADD SWAP1 PUSH1 0x0 SWAP1 DUP8 SWAP1 DUP4 SWAP1 DUP2 LT PUSH2 0x2D9F JUMPI INVALID JUMPDEST SWAP1 PUSH1 0x0 MSTORE PUSH1 0x20 PUSH1 0x0 KECCAK256 ADD SLOAD SWAP1 POP DUP1 DUP8 PUSH1 0x0 ADD DUP5 DUP2 SLOAD DUP2 LT PUSH2 0x2DBC JUMPI INVALID JUMPDEST PUSH1 0x0 SWAP2 DUP3 MSTORE PUSH1 0x20 DUP1 DUP4 KECCAK256 SWAP1 SWAP2 ADD SWAP3 SWAP1 SWAP3 SSTORE DUP3 DUP2 MSTORE PUSH1 0x1 DUP10 DUP2 ADD SWAP1 SWAP3 MSTORE PUSH1 0x40 SWAP1 KECCAK256 SWAP1 DUP5 ADD SWAP1 SSTORE DUP7 SLOAD DUP8 SWAP1 DUP1 PUSH2 0x2DEC JUMPI INVALID JUMPDEST PUSH1 0x1 SWAP1 SUB DUP2 DUP2 SWAP1 PUSH1 0x0 MSTORE PUSH1 0x20 PUSH1 0x0 KECCAK256 ADD PUSH1 0x0 SWAP1 SSTORE SWAP1 SSTORE DUP7 PUSH1 0x1 ADD PUSH1 0x0 DUP8 DUP2 MSTORE PUSH1 0x20 ADD SWAP1 DUP2 MSTORE PUSH1 0x20 ADD PUSH1 0x0 KECCAK256 PUSH1 0x0 SWAP1 SSTORE PUSH1 0x1 SWAP5 POP POP POP POP POP PUSH2 0xAE9 JUMP JUMPDEST PUSH1 0x0 SWAP2 POP POP PUSH2 0xAE9 JUMP JUMPDEST PUSH1 0x60 PUSH2 0x2E87 DUP3 PUSH1 0x40 MLOAD DUP1 PUSH1 0x40 ADD PUSH1 0x40 MSTORE DUP1 PUSH1 0x20 DUP2 MSTORE PUSH1 0x20 ADD PUSH32 0x5361666545524332303A206C6F772D6C6576656C2063616C6C206661696C6564 DUP2 MSTORE POP DUP6 PUSH1 0x1 PUSH1 0x1 PUSH1 0xA0 SHL SUB AND PUSH2 0x317D SWAP1 SWAP3 SWAP2 SWAP1 PUSH4 0xFFFFFFFF AND JUMP JUMPDEST DUP1 MLOAD SWAP1 SWAP2 POP ISZERO PUSH2 0xC41 JUMPI DUP1 DUP1 PUSH1 0x20 ADD SWAP1 MLOAD PUSH1 0x20 DUP2 LT ISZERO PUSH2 0x2EA6 JUMPI PUSH1 0x0 DUP1 REVERT JUMPDEST POP MLOAD PUSH2 0xC41 JUMPI PUSH1 0x40 MLOAD PUSH3 0x461BCD PUSH1 0xE5 SHL DUP2 MSTORE PUSH1 0x4 ADD DUP1 DUP1 PUSH1 0x20 ADD DUP3 DUP2 SUB DUP3 MSTORE PUSH1 0x2A DUP2 MSTORE PUSH1 0x20 ADD DUP1 PUSH2 0x3877 PUSH1 0x2A SWAP2 CODECOPY PUSH1 0x40 ADD SWAP2 POP POP PUSH1 0x40 MLOAD DUP1 SWAP2 SUB SWAP1 REVERT JUMPDEST PUSH1 0x0 PUSH2 0x2EED PUSH2 0x33A8 JUMP JUMPDEST PUSH2 0x2EF6 DUP6 PUSH2 0x25F7 JUMP JUMPDEST SWAP1 POP PUSH1 0x0 DUP2 PUSH1 0x0 ADD MLOAD PUSH2 0x2F0B JUMPI PUSH1 0x0 NOT PUSH2 0x2F0E JUMP JUMPDEST PUSH1 0x1 JUMPDEST SWAP1 POP PUSH1 0x0 PUSH2 0x2F29 DUP4 PUSH1 0x20 ADD MLOAD DUP8 PUSH2 0x2F90 SWAP1 SWAP2 SWAP1 PUSH4 0xFFFFFFFF AND JUMP JUMPDEST PUSH1 0x40 DUP5 ADD MLOAD SWAP1 SWAP2 POP PUSH1 0x0 SWAP1 PUSH2 0x2F60 SWAP1 PUSH2 0x28A0 PUSH8 0xDE0B6B3A7640000 PUSH2 0x2F54 DUP11 DUP5 PUSH4 0xFFFFFFFF PUSH2 0x318C AND JUMP JUMPDEST SWAP1 PUSH4 0xFFFFFFFF PUSH2 0x2F90 AND JUMP JUMPDEST SWAP1 POP PUSH2 0x2F84 PUSH8 0xDE0B6B3A7640000 PUSH2 0x28A0 DUP2 DUP2 DUP6 PUSH2 0x2F54 DUP9 DUP11 PUSH4 0xFFFFFFFF PUSH2 0x2F90 AND JUMP JUMPDEST SWAP9 SWAP8 POP POP POP POP POP POP POP POP JUMP JUMPDEST PUSH1 0x0 DUP3 PUSH2 0x2F9F JUMPI POP PUSH1 0x0 PUSH2 0xAE9 JUMP JUMPDEST DUP3 PUSH1 0x0 NOT EQ DUP1 ISZERO PUSH2 0x2FB3 JUMPI POP PUSH1 0x1 PUSH1 0xFF SHL DUP3 EQ JUMPDEST ISZERO PUSH2 0x2FEF JUMPI PUSH1 0x40 MLOAD PUSH3 0x461BCD PUSH1 0xE5 SHL DUP2 MSTORE PUSH1 0x4 ADD DUP1 DUP1 PUSH1 0x20 ADD DUP3 DUP2 SUB DUP3 MSTORE PUSH1 0x27 DUP2 MSTORE PUSH1 0x20 ADD DUP1 PUSH2 0x375D PUSH1 0x27 SWAP2 CODECOPY PUSH1 0x40 ADD SWAP2 POP POP PUSH1 0x40 MLOAD DUP1 SWAP2 SUB SWAP1 REVERT JUMPDEST DUP3 DUP3 MUL DUP3 DUP5 DUP3 DUP2 PUSH2 0x2FFC JUMPI INVALID JUMPDEST SDIV EQ PUSH2 0x1AA1 JUMPI PUSH1 0x40 MLOAD PUSH3 0x461BCD PUSH1 0xE5 SHL DUP2 MSTORE PUSH1 0x4 ADD DUP1 DUP1 PUSH1 0x20 ADD DUP3 DUP2 SUB DUP3 MSTORE PUSH1 0x27 DUP2 MSTORE PUSH1 0x20 ADD DUP1 PUSH2 0x375D PUSH1 0x27 SWAP2 CODECOPY PUSH1 0x40 ADD SWAP2 POP POP PUSH1 0x40 MLOAD DUP1 SWAP2 SUB SWAP1 REVERT JUMPDEST SLOAD SWAP1 JUMP JUMPDEST DUP2 SLOAD PUSH1 0x0 SWAP1 DUP3 LT PUSH2 0x307F JUMPI PUSH1 0x40 MLOAD PUSH3 0x461BCD PUSH1 0xE5 SHL DUP2 MSTORE PUSH1 0x4 ADD DUP1 DUP1 PUSH1 0x20 ADD DUP3 DUP2 SUB DUP3 MSTORE PUSH1 0x22 DUP2 MSTORE PUSH1 0x20 ADD DUP1 PUSH2 0x34AE PUSH1 0x22 SWAP2 CODECOPY PUSH1 0x40 ADD SWAP2 POP POP PUSH1 0x40 MLOAD DUP1 SWAP2 SUB SWAP1 REVERT JUMPDEST DUP3 PUSH1 0x0 ADD DUP3 DUP2 SLOAD DUP2 LT PUSH2 0x308E JUMPI INVALID JUMPDEST SWAP1 PUSH1 0x0 MSTORE PUSH1 0x20 PUSH1 0x0 KECCAK256 ADD SLOAD SWAP1 POP SWAP3 SWAP2 POP POP JUMP JUMPDEST PUSH1 0x0 DUP2 PUSH2 0x30F5 JUMPI PUSH1 0x40 DUP1 MLOAD PUSH3 0x461BCD PUSH1 0xE5 SHL DUP2 MSTORE PUSH1 0x20 PUSH1 0x4 DUP3 ADD DUP2 SWAP1 MSTORE PUSH1 0x24 DUP3 ADD MSTORE PUSH32 0x5369676E6564536166654D6174683A206469766973696F6E206279207A65726F PUSH1 0x44 DUP3 ADD MSTORE SWAP1 MLOAD SWAP1 DUP2 SWAP1 SUB PUSH1 0x64 ADD SWAP1 REVERT JUMPDEST DUP2 PUSH1 0x0 NOT EQ DUP1 ISZERO PUSH2 0x3109 JUMPI POP PUSH1 0x1 PUSH1 0xFF SHL DUP4 EQ JUMPDEST ISZERO PUSH2 0x3145 JUMPI PUSH1 0x40 MLOAD PUSH3 0x461BCD PUSH1 0xE5 SHL DUP2 MSTORE PUSH1 0x4 ADD DUP1 DUP1 PUSH1 0x20 ADD DUP3 DUP2 SUB DUP3 MSTORE PUSH1 0x21 DUP2 MSTORE PUSH1 0x20 ADD DUP1 PUSH2 0x36CE PUSH1 0x21 SWAP2 CODECOPY PUSH1 0x40 ADD SWAP2 POP POP PUSH1 0x40 MLOAD DUP1 SWAP2 SUB SWAP1 REVERT JUMPDEST PUSH1 0x0 DUP3 DUP5 DUP2 PUSH2 0x3150 JUMPI INVALID JUMPDEST SDIV SWAP5 SWAP4 POP POP POP POP JUMP JUMPDEST PUSH1 0x0 PUSH2 0x1AA1 DUP4 DUP4 PUSH2 0x31F1 JUMP JUMPDEST PUSH1 0x0 SWAP1 DUP2 MSTORE PUSH1 0x1 SWAP2 SWAP1 SWAP2 ADD PUSH1 0x20 MSTORE PUSH1 0x40 SWAP1 KECCAK256 SLOAD ISZERO ISZERO SWAP1 JUMP JUMPDEST PUSH1 0x60 PUSH2 0x2D58 DUP5 DUP5 PUSH1 0x0 DUP6 PUSH2 0x323B JUMP JUMPDEST PUSH1 0x0 DUP2 DUP4 SUB DUP2 DUP4 SLT DUP1 ISZERO SWAP1 PUSH2 0x31A1 JUMPI POP DUP4 DUP2 SGT ISZERO JUMPDEST DUP1 PUSH2 0x31B6 JUMPI POP PUSH1 0x0 DUP4 SLT DUP1 ISZERO PUSH2 0x31B6 JUMPI POP DUP4 DUP2 SGT JUMPDEST PUSH2 0x1AA1 JUMPI PUSH1 0x40 MLOAD PUSH3 0x461BCD PUSH1 0xE5 SHL DUP2 MSTORE PUSH1 0x4 ADD DUP1 DUP1 PUSH1 0x20 ADD DUP3 DUP2 SUB DUP3 MSTORE PUSH1 0x24 DUP2 MSTORE PUSH1 0x20 ADD DUP1 PUSH2 0x3853 PUSH1 0x24 SWAP2 CODECOPY PUSH1 0x40 ADD SWAP2 POP POP PUSH1 0x40 MLOAD DUP1 SWAP2 SUB SWAP1 REVERT JUMPDEST PUSH1 0x0 PUSH2 0x31FD DUP4 DUP4 PUSH2 0x3165 JUMP JUMPDEST PUSH2 0x3233 JUMPI POP DUP2 SLOAD PUSH1 0x1 DUP2 DUP2 ADD DUP5 SSTORE PUSH1 0x0 DUP5 DUP2 MSTORE PUSH1 0x20 DUP1 DUP3 KECCAK256 SWAP1 SWAP4 ADD DUP5 SWAP1 SSTORE DUP5 SLOAD DUP5 DUP3 MSTORE DUP3 DUP7 ADD SWAP1 SWAP4 MSTORE PUSH1 0x40 SWAP1 KECCAK256 SWAP2 SWAP1 SWAP2 SSTORE PUSH2 0xAE9 JUMP JUMPDEST POP PUSH1 0x0 PUSH2 0xAE9 JUMP JUMPDEST PUSH1 0x60 PUSH2 0x3246 DUP6 PUSH2 0x2D24 JUMP JUMPDEST PUSH2 0x3297 JUMPI PUSH1 0x40 DUP1 MLOAD PUSH3 0x461BCD PUSH1 0xE5 SHL DUP2 MSTORE PUSH1 0x20 PUSH1 0x4 DUP3 ADD MSTORE PUSH1 0x1D PUSH1 0x24 DUP3 ADD MSTORE PUSH32 0x416464726573733A2063616C6C20746F206E6F6E2D636F6E7472616374000000 PUSH1 0x44 DUP3 ADD MSTORE SWAP1 MLOAD SWAP1 DUP2 SWAP1 SUB PUSH1 0x64 ADD SWAP1 REVERT JUMPDEST PUSH1 0x0 PUSH1 0x60 DUP7 PUSH1 0x1 PUSH1 0x1 PUSH1 0xA0 SHL SUB AND DUP6 DUP8 PUSH1 0x40 MLOAD DUP1 DUP3 DUP1 MLOAD SWAP1 PUSH1 0x20 ADD SWAP1 DUP1 DUP4 DUP4 JUMPDEST PUSH1 0x20 DUP4 LT PUSH2 0x32D6 JUMPI DUP1 MLOAD DUP3 MSTORE PUSH1 0x1F NOT SWAP1 SWAP3 ADD SWAP2 PUSH1 0x20 SWAP2 DUP3 ADD SWAP2 ADD PUSH2 0x32B7 JUMP JUMPDEST PUSH1 0x1 DUP4 PUSH1 0x20 SUB PUSH2 0x100 EXP SUB DUP1 NOT DUP3 MLOAD AND DUP2 DUP5 MLOAD AND DUP1 DUP3 OR DUP6 MSTORE POP POP POP POP POP POP SWAP1 POP ADD SWAP2 POP POP PUSH1 0x0 PUSH1 0x40 MLOAD DUP1 DUP4 SUB DUP2 DUP6 DUP8 GAS CALL SWAP3 POP POP POP RETURNDATASIZE DUP1 PUSH1 0x0 DUP2 EQ PUSH2 0x3338 JUMPI PUSH1 0x40 MLOAD SWAP2 POP PUSH1 0x1F NOT PUSH1 0x3F RETURNDATASIZE ADD AND DUP3 ADD PUSH1 0x40 MSTORE RETURNDATASIZE DUP3 MSTORE RETURNDATASIZE PUSH1 0x0 PUSH1 0x20 DUP5 ADD RETURNDATACOPY PUSH2 0x333D JUMP JUMPDEST PUSH1 0x60 SWAP2 POP JUMPDEST POP SWAP2 POP SWAP2 POP DUP2 ISZERO PUSH2 0x3351 JUMPI SWAP2 POP PUSH2 0x2D58 SWAP1 POP JUMP JUMPDEST DUP1 MLOAD ISZERO PUSH2 0x3361 JUMPI DUP1 MLOAD DUP1 DUP3 PUSH1 0x20 ADD REVERT JUMPDEST PUSH1 0x40 MLOAD PUSH3 0x461BCD PUSH1 0xE5 SHL DUP2 MSTORE PUSH1 0x20 PUSH1 0x4 DUP3 ADD DUP2 DUP2 MSTORE DUP7 MLOAD PUSH1 0x24 DUP5 ADD MSTORE DUP7 MLOAD DUP8 SWAP4 SWAP2 SWAP3 DUP4 SWAP3 PUSH1 0x44 ADD SWAP2 SWAP1 DUP6 ADD SWAP1 DUP1 DUP4 DUP4 PUSH1 0x0 DUP4 ISZERO PUSH2 0x2055 JUMPI DUP2 DUP2 ADD MLOAD DUP4 DUP3 ADD MSTORE PUSH1 0x20 ADD PUSH2 0x203D JUMP JUMPDEST PUSH1 0x40 MLOAD DUP1 PUSH1 0x60 ADD PUSH1 0x40 MSTORE DUP1 PUSH1 0x0 ISZERO ISZERO DUP2 MSTORE PUSH1 0x20 ADD PUSH1 0x0 DUP2 MSTORE PUSH1 0x20 ADD PUSH1 0x0 DUP2 MSTORE POP SWAP1 JUMP JUMPDEST PUSH1 0xE0 SHR SWAP1 JUMP JUMPDEST PUSH1 0x0 PUSH1 0x44 RETURNDATASIZE LT ISZERO PUSH2 0x33E1 JUMPI PUSH2 0x197B JUMP JUMPDEST PUSH1 0x4 DUP2 DUP3 RETURNDATACOPY PUSH4 0x8C379A0 PUSH2 0x33F5 DUP3 MLOAD PUSH2 0x33CB JUMP JUMPDEST EQ PUSH2 0x33FF JUMPI PUSH2 0x197B JUMP JUMPDEST PUSH1 0x40 MLOAD RETURNDATASIZE PUSH1 0x3 NOT ADD PUSH1 0x4 DUP3 RETURNDATACOPY DUP1 MLOAD RETURNDATASIZE PUSH8 0xFFFFFFFFFFFFFFFF DUP2 PUSH1 0x24 DUP5 ADD GT DUP2 DUP5 GT OR ISZERO PUSH2 0x342F JUMPI POP POP POP POP PUSH2 0x197B JUMP JUMPDEST DUP3 DUP5 ADD SWAP2 POP DUP2 MLOAD SWAP3 POP DUP1 DUP4 GT ISZERO PUSH2 0x3449 JUMPI POP POP POP POP PUSH2 0x197B JUMP JUMPDEST POP RETURNDATASIZE DUP4 ADD PUSH1 0x20 DUP4 DUP4 ADD ADD GT ISZERO PUSH2 0x3461 JUMPI POP POP POP PUSH2 0x197B JUMP JUMPDEST PUSH1 0x1F SWAP2 SWAP1 SWAP2 ADD PUSH1 0x1F NOT AND DUP2 ADD PUSH1 0x20 ADD PUSH1 0x40 MSTORE SWAP2 POP POP SWAP1 JUMP INVALID GASLIMIT MSTORE NUMBER BALANCE BALANCE CALLDATALOAD CALLDATALOAD GASPRICE KECCAK256 PUSH21 0x72616E7366657220746F206E6F6E20455243313135 CALLDATALOAD MSTORE PUSH6 0x636569766572 KECCAK256 PUSH10 0x6D706C656D656E746572 GASLIMIT PUSH15 0x756D657261626C655365743A20696E PUSH5 0x6578206F75 PUSH21 0x206F6620626F756E6473455243313135353A204552 NUMBER BALANCE BALANCE CALLDATALOAD CALLDATALOAD MSTORE PUSH6 0x636569766572 KECCAK256 PUSH19 0x656A656374656420746F6B656E734F564C4650 PUSH16 0x736974696F6E3A20706F736974696F6E KECCAK256 PUSH14 0x75737420626520756E6465727761 PUSH21 0x6572455243313135353A2062616C616E6365207175 PUSH6 0x727920666F72 KECCAK256 PUSH21 0x6865207A65726F2061646472657373455243313135 CALLDATALOAD GASPRICE KECCAK256 PUSH3 0x617463 PUSH9 0x2062616C616E636520 PUSH18 0x7565727920666F7220746865207A65726F20 PUSH2 0x6464 PUSH19 0x657373455243313135353A206275726E20616D PUSH16 0x756E7420657863656564732062616C61 PUSH15 0x6365455243313135353A2063616C6C PUSH6 0x72206973206E PUSH16 0x74206F776E6572206E6F722061707072 PUSH16 0x7665644F564C46506F736974696F6E3A KECCAK256 PUSH14 0x757374206275696C6420706F7369 PUSH21 0x696F6E207769746820616D6F756E74206772656174 PUSH6 0x72207468616E KECCAK256 PUSH27 0x65726F4F564C46506F736974696F6E3A206D757374206275696C64 KECCAK256 PUSH17 0x6F736974696F6E2077697468206C657665 PUSH19 0x6167652067726561746572207468616E206D69 PUSH15 0x20616C6C6F7765644F564C46506F73 PUSH10 0x74696F6E3A2063616C6C PUSH6 0x72206973206E PUSH16 0x7420676F7665726E616E636545524331 BALANCE CALLDATALOAD CALLDATALOAD GASPRICE KECCAK256 PUSH21 0x72616E7366657220746F20746865207A65726F2061 PUSH5 0x6472657373 GASLIMIT MSTORE NUMBER BALANCE BALANCE CALLDATALOAD CALLDATALOAD GASPRICE KECCAK256 PUSH21 0x72616E736665722063616C6C6572206973206E6F74 KECCAK256 PUSH16 0x776E6572206E6F7220617070726F7665 PUSH5 0x5369676E65 PUSH5 0x536166654D PUSH2 0x7468 GASPRICE KECCAK256 PUSH5 0x6976697369 PUSH16 0x6E206F766572666C6F77455243313135 CALLDATALOAD GASPRICE KECCAK256 PUSH3 0x75726E KECCAK256 PUSH7 0x726F6D20746865 KECCAK256 PUSH27 0x65726F2061646472657373455243313135353A20696E7375666669 PUSH4 0x69656E74 KECCAK256 PUSH3 0x616C61 PUSH15 0x636520666F72207472616E73666572 MSTORE8 PUSH2 0x6665 0x4D PUSH2 0x7468 GASPRICE KECCAK256 PUSH14 0x756C7469706C69636174696F6E20 PUSH16 0x766572666C6F775369676E6564536166 PUSH6 0x4D6174683A20 PUSH14 0x756C7469706C69636174696F6E20 PUSH16 0x766572666C6F774F564C46506F736974 PUSH10 0x6F6E3A20706F73697469 PUSH16 0x6E206D7573742065786973744F564C46 POP PUSH16 0x736974696F6E3A206D75737420756E77 PUSH10 0x6E6420706F736974696F PUSH15 0x207769746820616D6F756E74206772 PUSH6 0x617465722074 PUSH9 0x616E207A65726F4F56 0x4C CHAINID POP PUSH16 0x736974696F6E3A206D75737420627569 PUSH13 0x6420706F736974696F6E207769 PUSH21 0x68206C65766572616765206C657373207468616E20 PUSH14 0x617820616C6C6F77656445524331 BALANCE CALLDATALOAD CALLDATALOAD GASPRICE KECCAK256 PUSH20 0x657474696E6720617070726F76616C2073746174 PUSH22 0x7320666F722073656C665369676E6564536166654D61 PUSH21 0x683A207375627472616374696F6E206F766572666C PUSH16 0x775361666545524332303A2045524332 ADDRESS KECCAK256 PUSH16 0x7065726174696F6E20646964206E6F74 KECCAK256 PUSH20 0x756363656564455243313135353A206163636F75 PUSH15 0x747320616E6420696473206C656E67 PUSH21 0x68206D69736D61746368455243313135353A206964 PUSH20 0x20616E6420616D6F756E7473206C656E67746820 PUSH14 0x69736D6174636845524331313535 GASPRICE KECCAK256 PUSH14 0x696E7420746F20746865207A6572 PUSH16 0x20616464726573734F564C46506F7369 PUSH21 0x696F6E3A206E6F7420656E6F756768206C6F636B65 PUSH5 0x20696E2070 PUSH16 0x6F6C20746F20756E77696E6420616D6F PUSH22 0x6E74A264697066735822122020416A1C43CD7647B593 0x27 CALLDATACOPY SWAP14 0x22 0xF8 0xBC 0xE8 PUSH17 0x50C83C292E484933CF6BA62F7E5364736F PUSH13 0x63430006080033000000000000 ",
  "sha1": "9a1faae12af82a0b021546b1f9ceb10812984af3",
  "source": "// SPDX-License-Identifier: AGPL-3.0-or-later\n\npragma solidity ^0.6.2;\n\nimport \"@openzeppelinV3/contracts/math/Math.sol\";\nimport \"@openzeppelinV3/contracts/math/SafeMath.sol\";\nimport \"@openzeppelinV3/contracts/math/SignedSafeMath.sol\";\nimport \"@openzeppelinV3/contracts/utils/Address.sol\";\nimport \"@openzeppelinV3/contracts/utils/EnumerableSet.sol\";\nimport \"@openzeppelinV3/contracts/token/ERC20/SafeERC20.sol\";\nimport \"@openzeppelinV3/contracts/token/ERC1155/ERC1155.sol\";\n\nimport \"../tokens/OVLToken.sol\";\nimport \"../utils/SignedMath.sol\";\nimport \"../../interfaces/overlay/IOVLPosition.sol\";\nimport \"../../interfaces/overlay/IOVLFeed.sol\";\n\ncontract OVLFPosition is ERC1155, IOVLPosition {\n  using SafeERC20 for OVLToken;\n  using Address for address;\n  using SafeMath for uint256;\n  using SignedSafeMath for int256;\n  using EnumerableSet for EnumerableSet.UintSet;\n\n  OVLToken public token;\n  IOVLFeed public feed;\n\n  uint256 private constant BASE = 1e18;\n  uint256 public constant MIN_LEVERAGE = 1e18;\n\n  uint8 public decimals = 18;\n\n  uint256 public maxLeverage = BASE.mul(10);\n  uint256 public tradeFee = BASE.mul(15).div(10000);\n  uint256 public feeBurn = BASE.mul(50).div(100);\n  uint256 public liquidateReward = BASE.mul(50).div(100);\n\n  address public governance;\n  address public treasury;\n\n  struct FPosition {\n    bool long;\n    uint256 leverage;\n    int256 lockPrice;\n  }\n\n  mapping (uint256 => FPosition) private _positions;\n  mapping (uint256 => uint256) private _amounts; // total OVL amount locked in position\n\n  EnumerableSet.UintSet private _open;\n\n  constructor(string memory _uri, address _token, address _feed) public ERC1155(_uri) {\n    token = OVLToken(_token);\n    governance = _msgSender();\n    treasury = _msgSender();\n    feed = IOVLFeed(_feed);\n  }\n\n  // build() locks _amount in OVL into position\n  function build(uint256 _amount, bool _long, uint256 _leverage) public virtual override {\n    require(_amount > 0, \"OVLFPosition: must build position with amount greater than zero\");\n    require(_leverage >= MIN_LEVERAGE, \"OVLFPosition: must build position with leverage greater than min allowed\");\n    require(_leverage <= maxLeverage, \"OVLFPosition: must build position with leverage less than max allowed\");\n\n    token.safeTransferFrom(_msgSender(), address(this), _amount);\n    uint256 fees = _calcFeeAmount(_amount, _leverage);\n    _amount = _amount.sub(fees);\n\n    // Enter position with corresponding receipt. 1:1 bw share of position (balance) and OVL locked for FPosition\n    uint256 id = _enterPosition(_amount, _long, _leverage);\n    _mint(_msgSender(), id, _amount, \"\");\n    _transferFeesToTreasury(fees);\n    emit Build(_msgSender(), id, _amount);\n  }\n\n  function buildAll(bool _long, uint256 _leverage) public virtual override {\n    uint256 amount = token.balanceOf(_msgSender());\n    build(amount, _long, _leverage);\n  }\n\n  // uwind() unlocks _amount in OVL from position\n  function unwind(uint256 _id, uint256 _amount) public virtual override {\n    // 1:1 bw share of position (balance) and OVL locked for FPosition\n    require(_amount > 0, \"OVLFPosition: must unwind position with amount greater than zero\");\n    require(_amount <= amountLockedIn(_id), \"OVLFPosition: not enough locked in pool to unwind amount\");\n\n    _burn(_msgSender(), _id, _amount);\n    int256 profit = _exitPosition(_id, _amount);\n\n    if (profit > 0) {\n      uint256 mintAmount = uint256(SignedMath.abs(profit));\n      token.mint(mintAmount);\n      _amount = _amount.add(mintAmount);\n    } else if (profit < 0) {\n      // Make sure don't burn more than original unwind amount\n      uint256 burnAmount = Math.min(uint256(SignedMath.abs(profit)), _amount);\n      token.burn(burnAmount);\n      _amount = _amount.sub(burnAmount);\n    }\n\n    uint256 leverage = leverageOf(_id);\n    uint256 fees = _calcFeeAmount(_amount, leverage);\n    _amount = _amount.sub(fees);\n\n    // Send principal + profit back to trader and fees to treasury\n    if (_amount > 0) {\n      token.safeTransfer(_msgSender(), _amount);\n      _transferFeesToTreasury(fees);\n    }\n    emit Unwind(_msgSender(), _id, _amount);\n  }\n\n  // uwindAll() unlocks entire position\n  function unwindAll(uint256 _id) public virtual override {\n    uint256 amount = balanceOf(_msgSender(), _id);\n    unwind(_id, amount);\n  }\n\n  // liquidate() burns underwater positions\n  function liquidate(uint256 _id) public virtual override {\n    require(_positionExists(_id), \"OVLFPosition: position must exist\");\n    int256 price = _getPrice();\n    require(_canLiquidate(_id, price), \"OVLFPosition: position must be underwater\");\n\n    uint256 amount = amountLockedIn(_id);\n    uint256 leverage = leverageOf(_id);\n    uint256 fees = _calcFeeAmount(amount, leverage);\n    amount = amount.sub(fees);\n\n    _amounts[_id] = 0;\n    _open.remove(_id);\n\n    // send fees to treasury and transfer rest to liquidater\n    uint256 reward = amount.mul(liquidateReward).div(BASE);\n    amount = amount.sub(reward);\n    token.burn(amount);\n    token.safeTransfer(_msgSender(), reward);\n    _transferFeesToTreasury(fees);\n    emit Liquidate(_msgSender(), _id, reward);\n  }\n\n  // liquidatable() lists underwater positions\n  function liquidatable() public virtual override returns (uint256[] memory) {\n    int256 price = _getPrice();\n    uint256[] memory liqs = new uint256[](_open.length()); // TODO: len > liqs.length, which produces empty zero values at the end of ret array. Is this a problem ever with keccak() ids and an edge case?\n    for (uint256 i=0; i < _open.length(); i++) {\n      uint256 id = _open.at(i);\n      if (_canLiquidate(id, price)) {\n        liqs[i] = id;\n      }\n    }\n    return liqs;\n  }\n\n  function open() public view returns (uint256[] memory) {\n    uint256[] memory ps = new uint256[](_open.length());\n    for (uint256 i=0; i < _open.length(); i++) {\n      uint256 id = _open.at(i);\n      ps[i] = id;\n    }\n    return ps;\n  }\n\n  function _enterPosition(uint256 _amount, bool _long, uint256 _leverage) private returns (uint256) {\n    int256 price = _getPrice();\n    uint256 id = getId(_long, _leverage, price);\n\n    if (!_positionExists(id)) {\n      _positions[id] = FPosition(_long, _leverage, price);\n      _open.add(id);\n    }\n\n    // update total locked amount\n    uint256 amountLocked = amountLockedIn(id);\n    _amounts[id] = amountLocked.add(_amount);\n\n    return id;\n  }\n\n  function _exitPosition(uint256 _id, uint256 _amount) private returns (int256) {\n    int256 price = _getPrice();\n    int256 profit = _calcProfit(_id, _amount, price);\n\n    // update total locked amount\n    uint256 amountLocked = amountLockedIn(_id);\n    _amounts[_id] = amountLocked.sub(_amount);\n\n    return profit;\n  }\n\n  function _getPrice() private returns (int256) {\n    (int256 price, ) = feed.fetchData();\n    return price;\n  }\n\n  function _calcProfit(uint256 _id, uint256 _amount, int256 _price) internal view returns (int256) {\n    // pnl = (exit - entry)/entry * side * leverage * amount\n    FPosition memory pos = _positionOf(_id);\n    int256 side = pos.long ? int256(1) : int256(-1);\n    int256 size = int256(_amount).mul(int256(pos.leverage));\n    int256 ratio = _price.sub(pos.lockPrice).mul(int256(BASE)).div(pos.lockPrice);\n    return size.mul(side).mul(ratio).div(int256(BASE)).div(int256(BASE)); // TODO: Check for any rounding errors\n  }\n\n  function _calcLiquidationPrice(FPosition memory pos) private pure returns (int256) {\n    int256 liquidationPrice;\n    if (pos.long) {\n      // liquidate = lockPrice * (1-1/leverage); liquidate when pnl = -amount so no debt\n      liquidationPrice = pos.lockPrice.mul(int256(pos.leverage.sub(BASE))).div(int256(pos.leverage));\n    } else {\n      // liquidate = lockPrice * (1+1/leverage)\n      liquidationPrice = pos.lockPrice.mul(int256(pos.leverage.add(BASE))).div(int256(pos.leverage));\n    }\n    return liquidationPrice;\n  }\n\n  function _canLiquidate(uint256 _id, int256 _price) private view returns (bool) {\n    FPosition memory pos = _positionOf(_id);\n    int256 liquidationPrice = _calcLiquidationPrice(pos);\n    bool can = false;\n    if (pos.long) {\n      can = (liquidationPrice >= _price);\n    } else {\n      can = (liquidationPrice <= _price);\n    }\n    return can;\n  }\n\n  function _calcFeeAmount(uint256 _amount, uint256 _leverage) internal view returns (uint256) {\n    return Math.min(_amount.mul(_leverage).mul(tradeFee).div(BASE).div(BASE), _amount);\n  }\n\n  function _transferFeesToTreasury(uint256 fees) private {\n    uint256 burnAmount = fees.mul(feeBurn).div(BASE);\n    token.burn(burnAmount);\n\n    fees = fees.sub(burnAmount);\n    token.safeTransfer(treasury, fees);\n  }\n\n  // pos attr views\n  function _positionOf(uint256 _id) private view returns (FPosition memory) {\n    require(_positionExists(_id), \"OVLFPosition: position must exist\"); // TODO: change this so doesn't revert but fix fns below?\n    return _positions[_id];\n  }\n\n  function _positionExists(uint256 _id) private view returns (bool) {\n    return _open.contains(_id);\n  }\n\n  // TODO: Check this is safe and unique\n  function getId(bool _long, uint256 _leverage, int256 _price) public pure returns (uint256) {\n    return uint256(keccak256(abi.encodePacked(_long, _leverage, _price)));\n  }\n\n  function amountLockedIn(uint256 _id) public view returns (uint256) {\n    return _amounts[_id];\n  }\n\n  function isLong(uint256 _id) public view returns (bool) {\n    FPosition memory pos = _positionOf(_id);\n    return pos.long;\n  }\n\n  function leverageOf(uint256 _id) public view returns (uint256) {\n    FPosition memory pos = _positionOf(_id);\n    return pos.leverage;\n  }\n\n  function lockPriceOf(uint256 _id) public view returns (int256) {\n    FPosition memory pos = _positionOf(_id);\n    return pos.lockPrice;\n  }\n\n  function liquidationPriceOf(uint256 _id) public view returns (int256) {\n    FPosition memory pos = _positionOf(_id);\n    return _calcLiquidationPrice(pos);\n  }\n\n  // gov setters\n  modifier onlyGov() {\n    require(governance == _msgSender(), \"OVLFPosition: caller is not governance\");\n    _;\n  }\n\n  function setMaxLeverage(uint256 _max) external onlyGov {\n    maxLeverage = _max;\n  }\n\n  function setTradeFee(uint256 _fee) external onlyGov {\n    tradeFee = _fee;\n  }\n\n  function setFeeBurn(uint256 _burn) external onlyGov {\n    feeBurn = _burn;\n  }\n\n  function setLiquidateReward(uint256 _reward) external onlyGov {\n    liquidateReward = _reward;\n  }\n\n  function setGovernance(address _gov) public onlyGov {\n    governance = _gov;\n  }\n\n  function setTreasury(address _treasury) public onlyGov {\n    treasury = _treasury;\n  }\n\n  function setFeed(address _feed) public onlyGov {\n    feed = IOVLFeed(_feed);\n  }\n}\n",
  "sourcePath": "contracts/positions/OVLFPosition.sol",
  "type": "contract"
}