{
  "abi": [
    {
      "inputs": [
        {
          "internalType": "address",
          "name": "factory",
          "type": "address"
        },
        {
          "internalType": "address",
          "name": "tokenA",
          "type": "address"
        },
        {
          "internalType": "address",
          "name": "tokenB",
          "type": "address"
        },
        {
          "internalType": "uint256",
          "name": "_period",
          "type": "uint256"
        }
      ],
      "stateMutability": "nonpayable",
      "type": "constructor"
    },
    {
      "inputs": [],
      "name": "blockTimestampLast",
      "outputs": [
        {
          "internalType": "uint32",
          "name": "",
          "type": "uint32"
        }
      ],
      "stateMutability": "view",
      "type": "function"
    },
    {
      "inputs": [
        {
          "internalType": "address",
          "name": "token",
          "type": "address"
        },
        {
          "internalType": "uint256",
          "name": "amountIn",
          "type": "uint256"
        }
      ],
      "name": "consult",
      "outputs": [
        {
          "internalType": "uint256",
          "name": "amountOut",
          "type": "uint256"
        }
      ],
      "stateMutability": "view",
      "type": "function"
    },
    {
      "inputs": [],
      "name": "data",
      "outputs": [
        {
          "internalType": "int256",
          "name": "",
          "type": "int256"
        },
        {
          "internalType": "uint256",
          "name": "",
          "type": "uint256"
        }
      ],
      "stateMutability": "view",
      "type": "function"
    },
    {
      "inputs": [],
      "name": "fetchData",
      "outputs": [
        {
          "internalType": "int256",
          "name": "",
          "type": "int256"
        },
        {
          "internalType": "uint256",
          "name": "",
          "type": "uint256"
        }
      ],
      "stateMutability": "nonpayable",
      "type": "function"
    },
    {
      "inputs": [],
      "name": "periodLast",
      "outputs": [
        {
          "internalType": "uint256",
          "name": "",
          "type": "uint256"
        }
      ],
      "stateMutability": "view",
      "type": "function"
    },
    {
      "inputs": [],
      "name": "periodMin",
      "outputs": [
        {
          "internalType": "uint256",
          "name": "",
          "type": "uint256"
        }
      ],
      "stateMutability": "view",
      "type": "function"
    },
    {
      "inputs": [],
      "name": "price0Average",
      "outputs": [
        {
          "internalType": "uint224",
          "name": "_x",
          "type": "uint224"
        }
      ],
      "stateMutability": "view",
      "type": "function"
    },
    {
      "inputs": [],
      "name": "price0CumulativeLast",
      "outputs": [
        {
          "internalType": "uint256",
          "name": "",
          "type": "uint256"
        }
      ],
      "stateMutability": "view",
      "type": "function"
    },
    {
      "inputs": [],
      "name": "price1Average",
      "outputs": [
        {
          "internalType": "uint224",
          "name": "_x",
          "type": "uint224"
        }
      ],
      "stateMutability": "view",
      "type": "function"
    },
    {
      "inputs": [],
      "name": "price1CumulativeLast",
      "outputs": [
        {
          "internalType": "uint256",
          "name": "",
          "type": "uint256"
        }
      ],
      "stateMutability": "view",
      "type": "function"
    },
    {
      "inputs": [],
      "name": "token0",
      "outputs": [
        {
          "internalType": "address",
          "name": "",
          "type": "address"
        }
      ],
      "stateMutability": "view",
      "type": "function"
    },
    {
      "inputs": [],
      "name": "token1",
      "outputs": [
        {
          "internalType": "address",
          "name": "",
          "type": "address"
        }
      ],
      "stateMutability": "view",
      "type": "function"
    },
    {
      "inputs": [],
      "name": "update",
      "outputs": [],
      "stateMutability": "nonpayable",
      "type": "function"
    }
  ],
  "bytecode": "60e06040526170806000553480156200001757600080fd5b506040516200113838038062001138833981810160405260808110156200003d57600080fd5b508051602080830151604084015160609094015160008181559394919391929091906200007990869086908690620005db62000390821b17901c565b9050806001600160a01b03166080816001600160a01b031660601b81525050806001600160a01b0316630dfe16816040518163ffffffff1660e01b815260040160206040518083038186803b158015620000d257600080fd5b505afa158015620000e7573d6000803e3d6000fd5b505050506040513d6020811015620000fe57600080fd5b505160601b6001600160601b03191660a0526040805163d21220a760e01b815290516001600160a01b0383169163d21220a7916004808301926020929190829003018186803b1580156200015157600080fd5b505afa15801562000166573d6000803e3d6000fd5b505050506040513d60208110156200017d57600080fd5b505160601b6001600160601b03191660c05260408051635909c0d560e01b815290516001600160a01b03831691635909c0d5916004808301926020929190829003018186803b158015620001d057600080fd5b505afa158015620001e5573d6000803e3d6000fd5b505050506040513d6020811015620001fc57600080fd5b505160015560408051635a3d549360e01b815290516001600160a01b03831691635a3d5493916004808301926020929190829003018186803b1580156200024257600080fd5b505afa15801562000257573d6000803e3d6000fd5b505050506040513d60208110156200026e57600080fd5b505160025560408051630240bc6b60e21b8152905160009182916001600160a01b03851691630902f1ac916004808301926060929190829003018186803b158015620002b957600080fd5b505afa158015620002ce573d6000803e3d6000fd5b505050506040513d6060811015620002e557600080fd5b50805160208201516040909201516004805463ffffffff191663ffffffff909216919091179055925090506001600160701b038216158015906200033157506001600160701b03811615155b62000383576040805162461bcd60e51b815260206004820181905260248201527f4578616d706c654f7261636c6553696d706c653a204e4f5f5245534552564553604482015290519081900360640190fd5b5050505050505062000550565b60008080620003a985856001600160e01b036200046d16565b604080516001600160601b0319606094851b811660208084019190915293851b81166034830152825160288184030181526048830184528051908501207fff0000000000000000000000000000000000000000000000000000000000000060688401529a90941b9093166069840152607d8301989098527f96e8ac4277198ff8b6f785478aa9a39f403cb768dd02cbee326c3e7da348845f609d808401919091528851808403909101815260bd909201909752805196019590952095945050505050565b600080826001600160a01b0316846001600160a01b03161415620004c35760405162461bcd60e51b8152600401808060200182810382526025815260200180620011136025913960400191505060405180910390fd5b826001600160a01b0316846001600160a01b031610620004e5578284620004e8565b83835b90925090506001600160a01b03821662000549576040805162461bcd60e51b815260206004820152601e60248201527f556e697377617056324c6962726172793a205a45524f5f414444524553530000604482015290519081900360640190fd5b9250929050565b60805160601c60a05160601c60c05160601c610b83620005906000398061028252806105b95250806101e0528061020652508061046c5250610b836000f3fe608060405234801561001057600080fd5b50600436106100cf5760003560e01c806367845e161161008c578063a2e6204511610066578063a2e62045146101a3578063a6bb4539146101ad578063c5700a02146101b5578063d21220a7146101d6576100cf565b806367845e161461017257806373d4a13a14610193578063a1335bc51461019b576100cf565b80630dfe1681146100d45780633ddac953146100f85780635909c0d5146101365780635921d5811461013e5780635a3d5493146101465780635e6aaf2c1461014e575b600080fd5b6100dc6101de565b604080516001600160a01b039092168252519081900360200190f35b6101246004803603604081101561010e57600080fd5b506001600160a01b038135169060200135610202565b60408051918252519081900360200190f35b61012461032f565b610124610335565b61012461033b565b610156610341565b604080516001600160e01b039092168252519081900360200190f35b61017a610350565b6040805192835260208301919091528051918290030190f35b61017a610421565b61012461045c565b6101ab610462565b005b61015661059c565b6101bd6105ab565b6040805163ffffffff9092168252519081900360200190f35b6100dc6105b7565b7f000000000000000000000000000000000000000000000000000000000000000081565b60007f00000000000000000000000000000000000000000000000000000000000000006001600160a01b0316836001600160a01b031614156102805760408051602081019091526005546001600160e01b031681526102709061026b908463ffffffff61069b16565b610719565b6001600160901b03169050610329565b7f00000000000000000000000000000000000000000000000000000000000000006001600160a01b0316836001600160a01b0316146102f05760405162461bcd60e51b8152600401808060200182810382526022815260200180610ae26022913960400191505060405180910390fd5b60408051602081019091526006546001600160e01b0316815261031d9061026b908463ffffffff61069b16565b6001600160901b031690505b92915050565b60015481565b60005481565b60025481565b6006546001600160e01b031681565b600080600073__UniswapV2OracleLibrary________________63abf812726040518163ffffffff1660e01b815260040160206040518083038186803b15801561039957600080fd5b505af41580156103ad573d6000803e3d6000fd5b505050506040513d60208110156103c357600080fd5b505160045460005491925063ffffffff908116830391908216106103e9576103e9610462565b60408051602081019091526005546001600160e01b0316815261040b90610720565b6001600160701b03166003549350935050509091565b60408051602081019091526005546001600160e01b03168152600090819061044890610720565b6001600160701b0316600354915091509091565b60035481565b60008060006104907f0000000000000000000000000000000000000000000000000000000000000000610730565b600454600054939650919450925063ffffffff90811683039190821610156104e95760405162461bcd60e51b8152600401808060200182810382526027815260200180610b046027913960400191505060405180910390fd5b60405180602001604052808263ffffffff1660015487038161050757fe5b046001600160e01b039081169091529051600580546001600160e01b031916919092161790556040805160208101909152600254819063ffffffff84169086038161054e57fe5b046001600160e01b039081169091529051600680546001600160e01b031916919092161790556001939093556002919091556004805463ffffffff191663ffffffff92831617905516600355565b6005546001600160e01b031681565b60045463ffffffff1681565b7f000000000000000000000000000000000000000000000000000000000000000081565b60008060006105ea85856108ff565b604080516bffffffffffffffffffffffff19606094851b811660208084019190915293851b81166034830152825160288184030181526048830184528051908501206001600160f81b031960688401529a90941b9093166069840152607d8301989098527f96e8ac4277198ff8b6f785478aa9a39f403cb768dd02cbee326c3e7da348845f609d808401919091528851808403909101815260bd909201909752805196019590952095945050505050565b6106a3610a97565b60008215806106c957505082516001600160e01b0316828102908382816106c657fe5b04145b6107045760405162461bcd60e51b8152600401808060200182810382526023815260200180610b2b6023913960400191505060405180910390fd5b60408051602081019091529081529392505050565b5160701c90565b5160701c6001600160701b031690565b600080600061073d6109dd565b9050836001600160a01b0316635909c0d56040518163ffffffff1660e01b815260040160206040518083038186803b15801561077857600080fd5b505afa15801561078c573d6000803e3d6000fd5b505050506040513d60208110156107a257600080fd5b505160408051635a3d549360e01b815290519194506001600160a01b03861691635a3d549391600480820192602092909190829003018186803b1580156107e857600080fd5b505afa1580156107fc573d6000803e3d6000fd5b505050506040513d602081101561081257600080fd5b505160408051630240bc6b60e21b81529051919350600091829182916001600160a01b03891691630902f1ac916004808301926060929190829003018186803b15801561085e57600080fd5b505afa158015610872573d6000803e3d6000fd5b505050506040513d606081101561088857600080fd5b5080516020820151604090920151909450909250905063ffffffff808216908516146108f55780840363ffffffff81166108c284866109e7565b516001600160e01b031602969096019563ffffffff81166108e385856109e7565b516001600160e01b0316029590950194505b5050509193909250565b600080826001600160a01b0316846001600160a01b031614156109535760405162461bcd60e51b8152600401808060200182810382526025815260200180610abd6025913960400191505060405180910390fd5b826001600160a01b0316846001600160a01b031610610973578284610976565b83835b90925090506001600160a01b0382166109d6576040805162461bcd60e51b815260206004820152601e60248201527f556e697377617056324c6962726172793a205a45524f5f414444524553530000604482015290519081900360640190fd5b9250929050565b63ffffffff421690565b6109ef610aaa565b6000826001600160701b031611610a4d576040805162461bcd60e51b815260206004820152601760248201527f4669786564506f696e743a204449565f42595f5a45524f000000000000000000604482015290519081900360640190fd5b6040805160208101909152806001600160701b0384166dffffffffffffffffffffffffffff60701b607087901b1681610a8257fe5b046001600160e01b0316815250905092915050565b6040518060200160405280600081525090565b6040805160208101909152600081529056fe556e697377617056324c6962726172793a204944454e544943414c5f4144445245535345534578616d706c654f7261636c6553696d706c653a20494e56414c49445f544f4b454e4578616d706c654f7261636c6553696d706c653a20504552494f445f4e4f545f454c41505345444669786564506f696e743a204d554c5449504c49434154494f4e5f4f564552464c4f57a264697066735822122027a38449a1015c5247719dcc7f3f875b8e157d02bde861a5b5995357974b177d64736f6c63430006080033556e697377617056324c6962726172793a204944454e544943414c5f414444524553534553",
  "bytecodeSha1": "da39a3ee5e6b4b0d3255bfef95601890afd80709",
  "compiler": {
    "evm_version": "istanbul",
    "optimizer": {
      "enabled": true,
      "runs": 200
    },
    "version": "0.6.8"
  },
  "contractName": "OVLUniswapV2Feed",
  "deployedBytecode": "608060405234801561001057600080fd5b50600436106100cf5760003560e01c806367845e161161008c578063a2e6204511610066578063a2e62045146101a3578063a6bb4539146101ad578063c5700a02146101b5578063d21220a7146101d6576100cf565b806367845e161461017257806373d4a13a14610193578063a1335bc51461019b576100cf565b80630dfe1681146100d45780633ddac953146100f85780635909c0d5146101365780635921d5811461013e5780635a3d5493146101465780635e6aaf2c1461014e575b600080fd5b6100dc6101de565b604080516001600160a01b039092168252519081900360200190f35b6101246004803603604081101561010e57600080fd5b506001600160a01b038135169060200135610202565b60408051918252519081900360200190f35b61012461032f565b610124610335565b61012461033b565b610156610341565b604080516001600160e01b039092168252519081900360200190f35b61017a610350565b6040805192835260208301919091528051918290030190f35b61017a610421565b61012461045c565b6101ab610462565b005b61015661059c565b6101bd6105ab565b6040805163ffffffff9092168252519081900360200190f35b6100dc6105b7565b7f000000000000000000000000000000000000000000000000000000000000000081565b60007f00000000000000000000000000000000000000000000000000000000000000006001600160a01b0316836001600160a01b031614156102805760408051602081019091526005546001600160e01b031681526102709061026b908463ffffffff61069b16565b610719565b6001600160901b03169050610329565b7f00000000000000000000000000000000000000000000000000000000000000006001600160a01b0316836001600160a01b0316146102f05760405162461bcd60e51b8152600401808060200182810382526022815260200180610ae26022913960400191505060405180910390fd5b60408051602081019091526006546001600160e01b0316815261031d9061026b908463ffffffff61069b16565b6001600160901b031690505b92915050565b60015481565b60005481565b60025481565b6006546001600160e01b031681565b600080600073__$cd798e4c2e05da197cd1f02e97743dbdcb$__63abf812726040518163ffffffff1660e01b815260040160206040518083038186803b15801561039957600080fd5b505af41580156103ad573d6000803e3d6000fd5b505050506040513d60208110156103c357600080fd5b505160045460005491925063ffffffff908116830391908216106103e9576103e9610462565b60408051602081019091526005546001600160e01b0316815261040b90610720565b6001600160701b03166003549350935050509091565b60408051602081019091526005546001600160e01b03168152600090819061044890610720565b6001600160701b0316600354915091509091565b60035481565b60008060006104907f0000000000000000000000000000000000000000000000000000000000000000610730565b600454600054939650919450925063ffffffff90811683039190821610156104e95760405162461bcd60e51b8152600401808060200182810382526027815260200180610b046027913960400191505060405180910390fd5b60405180602001604052808263ffffffff1660015487038161050757fe5b046001600160e01b039081169091529051600580546001600160e01b031916919092161790556040805160208101909152600254819063ffffffff84169086038161054e57fe5b046001600160e01b039081169091529051600680546001600160e01b031916919092161790556001939093556002919091556004805463ffffffff191663ffffffff92831617905516600355565b6005546001600160e01b031681565b60045463ffffffff1681565b7f000000000000000000000000000000000000000000000000000000000000000081565b60008060006105ea85856108ff565b604080516bffffffffffffffffffffffff19606094851b811660208084019190915293851b81166034830152825160288184030181526048830184528051908501206001600160f81b031960688401529a90941b9093166069840152607d8301989098527f96e8ac4277198ff8b6f785478aa9a39f403cb768dd02cbee326c3e7da348845f609d808401919091528851808403909101815260bd909201909752805196019590952095945050505050565b6106a3610a97565b60008215806106c957505082516001600160e01b0316828102908382816106c657fe5b04145b6107045760405162461bcd60e51b8152600401808060200182810382526023815260200180610b2b6023913960400191505060405180910390fd5b60408051602081019091529081529392505050565b5160701c90565b5160701c6001600160701b031690565b600080600061073d6109dd565b9050836001600160a01b0316635909c0d56040518163ffffffff1660e01b815260040160206040518083038186803b15801561077857600080fd5b505afa15801561078c573d6000803e3d6000fd5b505050506040513d60208110156107a257600080fd5b505160408051635a3d549360e01b815290519194506001600160a01b03861691635a3d549391600480820192602092909190829003018186803b1580156107e857600080fd5b505afa1580156107fc573d6000803e3d6000fd5b505050506040513d602081101561081257600080fd5b505160408051630240bc6b60e21b81529051919350600091829182916001600160a01b03891691630902f1ac916004808301926060929190829003018186803b15801561085e57600080fd5b505afa158015610872573d6000803e3d6000fd5b505050506040513d606081101561088857600080fd5b5080516020820151604090920151909450909250905063ffffffff808216908516146108f55780840363ffffffff81166108c284866109e7565b516001600160e01b031602969096019563ffffffff81166108e385856109e7565b516001600160e01b0316029590950194505b5050509193909250565b600080826001600160a01b0316846001600160a01b031614156109535760405162461bcd60e51b8152600401808060200182810382526025815260200180610abd6025913960400191505060405180910390fd5b826001600160a01b0316846001600160a01b031610610973578284610976565b83835b90925090506001600160a01b0382166109d6576040805162461bcd60e51b815260206004820152601e60248201527f556e697377617056324c6962726172793a205a45524f5f414444524553530000604482015290519081900360640190fd5b9250929050565b63ffffffff421690565b6109ef610aaa565b6000826001600160701b031611610a4d576040805162461bcd60e51b815260206004820152601760248201527f4669786564506f696e743a204449565f42595f5a45524f000000000000000000604482015290519081900360640190fd5b6040805160208101909152806001600160701b0384166dffffffffffffffffffffffffffff60701b607087901b1681610a8257fe5b046001600160e01b0316815250905092915050565b6040518060200160405280600081525090565b6040805160208101909152600081529056fe556e697377617056324c6962726172793a204944454e544943414c5f4144445245535345534578616d706c654f7261636c6553696d706c653a20494e56414c49445f544f4b454e4578616d706c654f7261636c6553696d706c653a20504552494f445f4e4f545f454c41505345444669786564506f696e743a204d554c5449504c49434154494f4e5f4f564552464c4f57a264697066735822122027a38449a1015c5247719dcc7f3f875b8e157d02bde861a5b5995357974b177d64736f6c63430006080033",
  "language": "Solidity",
  "natspec": {
    "methods": {}
  },
  "opcodes": "PUSH1 0x80 PUSH1 0x40 MSTORE CALLVALUE DUP1 ISZERO PUSH2 0x10 JUMPI PUSH1 0x0 DUP1 REVERT JUMPDEST POP PUSH1 0x4 CALLDATASIZE LT PUSH2 0xCF JUMPI PUSH1 0x0 CALLDATALOAD PUSH1 0xE0 SHR DUP1 PUSH4 0x67845E16 GT PUSH2 0x8C JUMPI DUP1 PUSH4 0xA2E62045 GT PUSH2 0x66 JUMPI DUP1 PUSH4 0xA2E62045 EQ PUSH2 0x1A3 JUMPI DUP1 PUSH4 0xA6BB4539 EQ PUSH2 0x1AD JUMPI DUP1 PUSH4 0xC5700A02 EQ PUSH2 0x1B5 JUMPI DUP1 PUSH4 0xD21220A7 EQ PUSH2 0x1D6 JUMPI PUSH2 0xCF JUMP JUMPDEST DUP1 PUSH4 0x67845E16 EQ PUSH2 0x172 JUMPI DUP1 PUSH4 0x73D4A13A EQ PUSH2 0x193 JUMPI DUP1 PUSH4 0xA1335BC5 EQ PUSH2 0x19B JUMPI PUSH2 0xCF JUMP JUMPDEST DUP1 PUSH4 0xDFE1681 EQ PUSH2 0xD4 JUMPI DUP1 PUSH4 0x3DDAC953 EQ PUSH2 0xF8 JUMPI DUP1 PUSH4 0x5909C0D5 EQ PUSH2 0x136 JUMPI DUP1 PUSH4 0x5921D581 EQ PUSH2 0x13E JUMPI DUP1 PUSH4 0x5A3D5493 EQ PUSH2 0x146 JUMPI DUP1 PUSH4 0x5E6AAF2C EQ PUSH2 0x14E JUMPI JUMPDEST PUSH1 0x0 DUP1 REVERT JUMPDEST PUSH2 0xDC PUSH2 0x1DE JUMP JUMPDEST PUSH1 0x40 DUP1 MLOAD PUSH1 0x1 PUSH1 0x1 PUSH1 0xA0 SHL SUB SWAP1 SWAP3 AND DUP3 MSTORE MLOAD SWAP1 DUP2 SWAP1 SUB PUSH1 0x20 ADD SWAP1 RETURN JUMPDEST PUSH2 0x124 PUSH1 0x4 DUP1 CALLDATASIZE SUB PUSH1 0x40 DUP2 LT ISZERO PUSH2 0x10E JUMPI PUSH1 0x0 DUP1 REVERT JUMPDEST POP PUSH1 0x1 PUSH1 0x1 PUSH1 0xA0 SHL SUB DUP2 CALLDATALOAD AND SWAP1 PUSH1 0x20 ADD CALLDATALOAD PUSH2 0x202 JUMP JUMPDEST PUSH1 0x40 DUP1 MLOAD SWAP2 DUP3 MSTORE MLOAD SWAP1 DUP2 SWAP1 SUB PUSH1 0x20 ADD SWAP1 RETURN JUMPDEST PUSH2 0x124 PUSH2 0x32F JUMP JUMPDEST PUSH2 0x124 PUSH2 0x335 JUMP JUMPDEST PUSH2 0x124 PUSH2 0x33B JUMP JUMPDEST PUSH2 0x156 PUSH2 0x341 JUMP JUMPDEST PUSH1 0x40 DUP1 MLOAD PUSH1 0x1 PUSH1 0x1 PUSH1 0xE0 SHL SUB SWAP1 SWAP3 AND DUP3 MSTORE MLOAD SWAP1 DUP2 SWAP1 SUB PUSH1 0x20 ADD SWAP1 RETURN JUMPDEST PUSH2 0x17A PUSH2 0x350 JUMP JUMPDEST PUSH1 0x40 DUP1 MLOAD SWAP3 DUP4 MSTORE PUSH1 0x20 DUP4 ADD SWAP2 SWAP1 SWAP2 MSTORE DUP1 MLOAD SWAP2 DUP3 SWAP1 SUB ADD SWAP1 RETURN JUMPDEST PUSH2 0x17A PUSH2 0x421 JUMP JUMPDEST PUSH2 0x124 PUSH2 0x45C JUMP JUMPDEST PUSH2 0x1AB PUSH2 0x462 JUMP JUMPDEST STOP JUMPDEST PUSH2 0x156 PUSH2 0x59C JUMP JUMPDEST PUSH2 0x1BD PUSH2 0x5AB JUMP JUMPDEST PUSH1 0x40 DUP1 MLOAD PUSH4 0xFFFFFFFF SWAP1 SWAP3 AND DUP3 MSTORE MLOAD SWAP1 DUP2 SWAP1 SUB PUSH1 0x20 ADD SWAP1 RETURN JUMPDEST PUSH2 0xDC PUSH2 0x5B7 JUMP JUMPDEST PUSH32 0x0 DUP2 JUMP JUMPDEST PUSH1 0x0 PUSH32 0x0 PUSH1 0x1 PUSH1 0x1 PUSH1 0xA0 SHL SUB AND DUP4 PUSH1 0x1 PUSH1 0x1 PUSH1 0xA0 SHL SUB AND EQ ISZERO PUSH2 0x280 JUMPI PUSH1 0x40 DUP1 MLOAD PUSH1 0x20 DUP2 ADD SWAP1 SWAP2 MSTORE PUSH1 0x5 SLOAD PUSH1 0x1 PUSH1 0x1 PUSH1 0xE0 SHL SUB AND DUP2 MSTORE PUSH2 0x270 SWAP1 PUSH2 0x26B SWAP1 DUP5 PUSH4 0xFFFFFFFF PUSH2 0x69B AND JUMP JUMPDEST PUSH2 0x719 JUMP JUMPDEST PUSH1 0x1 PUSH1 0x1 PUSH1 0x90 SHL SUB AND SWAP1 POP PUSH2 0x329 JUMP JUMPDEST PUSH32 0x0 PUSH1 0x1 PUSH1 0x1 PUSH1 0xA0 SHL SUB AND DUP4 PUSH1 0x1 PUSH1 0x1 PUSH1 0xA0 SHL SUB AND EQ PUSH2 0x2F0 JUMPI PUSH1 0x40 MLOAD PUSH3 0x461BCD PUSH1 0xE5 SHL DUP2 MSTORE PUSH1 0x4 ADD DUP1 DUP1 PUSH1 0x20 ADD DUP3 DUP2 SUB DUP3 MSTORE PUSH1 0x22 DUP2 MSTORE PUSH1 0x20 ADD DUP1 PUSH2 0xAE2 PUSH1 0x22 SWAP2 CODECOPY PUSH1 0x40 ADD SWAP2 POP POP PUSH1 0x40 MLOAD DUP1 SWAP2 SUB SWAP1 REVERT JUMPDEST PUSH1 0x40 DUP1 MLOAD PUSH1 0x20 DUP2 ADD SWAP1 SWAP2 MSTORE PUSH1 0x6 SLOAD PUSH1 0x1 PUSH1 0x1 PUSH1 0xE0 SHL SUB AND DUP2 MSTORE PUSH2 0x31D SWAP1 PUSH2 0x26B SWAP1 DUP5 PUSH4 0xFFFFFFFF PUSH2 0x69B AND JUMP JUMPDEST PUSH1 0x1 PUSH1 0x1 PUSH1 0x90 SHL SUB AND SWAP1 POP JUMPDEST SWAP3 SWAP2 POP POP JUMP JUMPDEST PUSH1 0x1 SLOAD DUP2 JUMP JUMPDEST PUSH1 0x0 SLOAD DUP2 JUMP JUMPDEST PUSH1 0x2 SLOAD DUP2 JUMP JUMPDEST PUSH1 0x6 SLOAD PUSH1 0x1 PUSH1 0x1 PUSH1 0xE0 SHL SUB AND DUP2 JUMP JUMPDEST PUSH1 0x0 DUP1 PUSH1 0x0 PUSH20 0x0 PUSH4 0xABF81272 PUSH1 0x40 MLOAD DUP2 PUSH4 0xFFFFFFFF AND PUSH1 0xE0 SHL DUP2 MSTORE PUSH1 0x4 ADD PUSH1 0x20 PUSH1 0x40 MLOAD DUP1 DUP4 SUB DUP2 DUP7 DUP1 EXTCODESIZE ISZERO DUP1 ISZERO PUSH2 0x399 JUMPI PUSH1 0x0 DUP1 REVERT JUMPDEST POP GAS DELEGATECALL ISZERO DUP1 ISZERO PUSH2 0x3AD JUMPI RETURNDATASIZE PUSH1 0x0 DUP1 RETURNDATACOPY RETURNDATASIZE PUSH1 0x0 REVERT JUMPDEST POP POP POP POP PUSH1 0x40 MLOAD RETURNDATASIZE PUSH1 0x20 DUP2 LT ISZERO PUSH2 0x3C3 JUMPI PUSH1 0x0 DUP1 REVERT JUMPDEST POP MLOAD PUSH1 0x4 SLOAD PUSH1 0x0 SLOAD SWAP2 SWAP3 POP PUSH4 0xFFFFFFFF SWAP1 DUP2 AND DUP4 SUB SWAP2 SWAP1 DUP3 AND LT PUSH2 0x3E9 JUMPI PUSH2 0x3E9 PUSH2 0x462 JUMP JUMPDEST PUSH1 0x40 DUP1 MLOAD PUSH1 0x20 DUP2 ADD SWAP1 SWAP2 MSTORE PUSH1 0x5 SLOAD PUSH1 0x1 PUSH1 0x1 PUSH1 0xE0 SHL SUB AND DUP2 MSTORE PUSH2 0x40B SWAP1 PUSH2 0x720 JUMP JUMPDEST PUSH1 0x1 PUSH1 0x1 PUSH1 0x70 SHL SUB AND PUSH1 0x3 SLOAD SWAP4 POP SWAP4 POP POP POP SWAP1 SWAP2 JUMP JUMPDEST PUSH1 0x40 DUP1 MLOAD PUSH1 0x20 DUP2 ADD SWAP1 SWAP2 MSTORE PUSH1 0x5 SLOAD PUSH1 0x1 PUSH1 0x1 PUSH1 0xE0 SHL SUB AND DUP2 MSTORE PUSH1 0x0 SWAP1 DUP2 SWAP1 PUSH2 0x448 SWAP1 PUSH2 0x720 JUMP JUMPDEST PUSH1 0x1 PUSH1 0x1 PUSH1 0x70 SHL SUB AND PUSH1 0x3 SLOAD SWAP2 POP SWAP2 POP SWAP1 SWAP2 JUMP JUMPDEST PUSH1 0x3 SLOAD DUP2 JUMP JUMPDEST PUSH1 0x0 DUP1 PUSH1 0x0 PUSH2 0x490 PUSH32 0x0 PUSH2 0x730 JUMP JUMPDEST PUSH1 0x4 SLOAD PUSH1 0x0 SLOAD SWAP4 SWAP7 POP SWAP2 SWAP5 POP SWAP3 POP PUSH4 0xFFFFFFFF SWAP1 DUP2 AND DUP4 SUB SWAP2 SWAP1 DUP3 AND LT ISZERO PUSH2 0x4E9 JUMPI PUSH1 0x40 MLOAD PUSH3 0x461BCD PUSH1 0xE5 SHL DUP2 MSTORE PUSH1 0x4 ADD DUP1 DUP1 PUSH1 0x20 ADD DUP3 DUP2 SUB DUP3 MSTORE PUSH1 0x27 DUP2 MSTORE PUSH1 0x20 ADD DUP1 PUSH2 0xB04 PUSH1 0x27 SWAP2 CODECOPY PUSH1 0x40 ADD SWAP2 POP POP PUSH1 0x40 MLOAD DUP1 SWAP2 SUB SWAP1 REVERT JUMPDEST PUSH1 0x40 MLOAD DUP1 PUSH1 0x20 ADD PUSH1 0x40 MSTORE DUP1 DUP3 PUSH4 0xFFFFFFFF AND PUSH1 0x1 SLOAD DUP8 SUB DUP2 PUSH2 0x507 JUMPI INVALID JUMPDEST DIV PUSH1 0x1 PUSH1 0x1 PUSH1 0xE0 SHL SUB SWAP1 DUP2 AND SWAP1 SWAP2 MSTORE SWAP1 MLOAD PUSH1 0x5 DUP1 SLOAD PUSH1 0x1 PUSH1 0x1 PUSH1 0xE0 SHL SUB NOT AND SWAP2 SWAP1 SWAP3 AND OR SWAP1 SSTORE PUSH1 0x40 DUP1 MLOAD PUSH1 0x20 DUP2 ADD SWAP1 SWAP2 MSTORE PUSH1 0x2 SLOAD DUP2 SWAP1 PUSH4 0xFFFFFFFF DUP5 AND SWAP1 DUP7 SUB DUP2 PUSH2 0x54E JUMPI INVALID JUMPDEST DIV PUSH1 0x1 PUSH1 0x1 PUSH1 0xE0 SHL SUB SWAP1 DUP2 AND SWAP1 SWAP2 MSTORE SWAP1 MLOAD PUSH1 0x6 DUP1 SLOAD PUSH1 0x1 PUSH1 0x1 PUSH1 0xE0 SHL SUB NOT AND SWAP2 SWAP1 SWAP3 AND OR SWAP1 SSTORE PUSH1 0x1 SWAP4 SWAP1 SWAP4 SSTORE PUSH1 0x2 SWAP2 SWAP1 SWAP2 SSTORE PUSH1 0x4 DUP1 SLOAD PUSH4 0xFFFFFFFF NOT AND PUSH4 0xFFFFFFFF SWAP3 DUP4 AND OR SWAP1 SSTORE AND PUSH1 0x3 SSTORE JUMP JUMPDEST PUSH1 0x5 SLOAD PUSH1 0x1 PUSH1 0x1 PUSH1 0xE0 SHL SUB AND DUP2 JUMP JUMPDEST PUSH1 0x4 SLOAD PUSH4 0xFFFFFFFF AND DUP2 JUMP JUMPDEST PUSH32 0x0 DUP2 JUMP JUMPDEST PUSH1 0x0 DUP1 PUSH1 0x0 PUSH2 0x5EA DUP6 DUP6 PUSH2 0x8FF JUMP JUMPDEST PUSH1 0x40 DUP1 MLOAD PUSH12 0xFFFFFFFFFFFFFFFFFFFFFFFF NOT PUSH1 0x60 SWAP5 DUP6 SHL DUP2 AND PUSH1 0x20 DUP1 DUP5 ADD SWAP2 SWAP1 SWAP2 MSTORE SWAP4 DUP6 SHL DUP2 AND PUSH1 0x34 DUP4 ADD MSTORE DUP3 MLOAD PUSH1 0x28 DUP2 DUP5 SUB ADD DUP2 MSTORE PUSH1 0x48 DUP4 ADD DUP5 MSTORE DUP1 MLOAD SWAP1 DUP6 ADD KECCAK256 PUSH1 0x1 PUSH1 0x1 PUSH1 0xF8 SHL SUB NOT PUSH1 0x68 DUP5 ADD MSTORE SWAP11 SWAP1 SWAP5 SHL SWAP1 SWAP4 AND PUSH1 0x69 DUP5 ADD MSTORE PUSH1 0x7D DUP4 ADD SWAP9 SWAP1 SWAP9 MSTORE PUSH32 0x96E8AC4277198FF8B6F785478AA9A39F403CB768DD02CBEE326C3E7DA348845F PUSH1 0x9D DUP1 DUP5 ADD SWAP2 SWAP1 SWAP2 MSTORE DUP9 MLOAD DUP1 DUP5 SUB SWAP1 SWAP2 ADD DUP2 MSTORE PUSH1 0xBD SWAP1 SWAP3 ADD SWAP1 SWAP8 MSTORE DUP1 MLOAD SWAP7 ADD SWAP6 SWAP1 SWAP6 KECCAK256 SWAP6 SWAP5 POP POP POP POP POP JUMP JUMPDEST PUSH2 0x6A3 PUSH2 0xA97 JUMP JUMPDEST PUSH1 0x0 DUP3 ISZERO DUP1 PUSH2 0x6C9 JUMPI POP POP DUP3 MLOAD PUSH1 0x1 PUSH1 0x1 PUSH1 0xE0 SHL SUB AND DUP3 DUP2 MUL SWAP1 DUP4 DUP3 DUP2 PUSH2 0x6C6 JUMPI INVALID JUMPDEST DIV EQ JUMPDEST PUSH2 0x704 JUMPI PUSH1 0x40 MLOAD PUSH3 0x461BCD PUSH1 0xE5 SHL DUP2 MSTORE PUSH1 0x4 ADD DUP1 DUP1 PUSH1 0x20 ADD DUP3 DUP2 SUB DUP3 MSTORE PUSH1 0x23 DUP2 MSTORE PUSH1 0x20 ADD DUP1 PUSH2 0xB2B PUSH1 0x23 SWAP2 CODECOPY PUSH1 0x40 ADD SWAP2 POP POP PUSH1 0x40 MLOAD DUP1 SWAP2 SUB SWAP1 REVERT JUMPDEST PUSH1 0x40 DUP1 MLOAD PUSH1 0x20 DUP2 ADD SWAP1 SWAP2 MSTORE SWAP1 DUP2 MSTORE SWAP4 SWAP3 POP POP POP JUMP JUMPDEST MLOAD PUSH1 0x70 SHR SWAP1 JUMP JUMPDEST MLOAD PUSH1 0x70 SHR PUSH1 0x1 PUSH1 0x1 PUSH1 0x70 SHL SUB AND SWAP1 JUMP JUMPDEST PUSH1 0x0 DUP1 PUSH1 0x0 PUSH2 0x73D PUSH2 0x9DD JUMP JUMPDEST SWAP1 POP DUP4 PUSH1 0x1 PUSH1 0x1 PUSH1 0xA0 SHL SUB AND PUSH4 0x5909C0D5 PUSH1 0x40 MLOAD DUP2 PUSH4 0xFFFFFFFF AND PUSH1 0xE0 SHL DUP2 MSTORE PUSH1 0x4 ADD PUSH1 0x20 PUSH1 0x40 MLOAD DUP1 DUP4 SUB DUP2 DUP7 DUP1 EXTCODESIZE ISZERO DUP1 ISZERO PUSH2 0x778 JUMPI PUSH1 0x0 DUP1 REVERT JUMPDEST POP GAS STATICCALL ISZERO DUP1 ISZERO PUSH2 0x78C JUMPI RETURNDATASIZE PUSH1 0x0 DUP1 RETURNDATACOPY RETURNDATASIZE PUSH1 0x0 REVERT JUMPDEST POP POP POP POP PUSH1 0x40 MLOAD RETURNDATASIZE PUSH1 0x20 DUP2 LT ISZERO PUSH2 0x7A2 JUMPI PUSH1 0x0 DUP1 REVERT JUMPDEST POP MLOAD PUSH1 0x40 DUP1 MLOAD PUSH4 0x5A3D5493 PUSH1 0xE0 SHL DUP2 MSTORE SWAP1 MLOAD SWAP2 SWAP5 POP PUSH1 0x1 PUSH1 0x1 PUSH1 0xA0 SHL SUB DUP7 AND SWAP2 PUSH4 0x5A3D5493 SWAP2 PUSH1 0x4 DUP1 DUP3 ADD SWAP3 PUSH1 0x20 SWAP3 SWAP1 SWAP2 SWAP1 DUP3 SWAP1 SUB ADD DUP2 DUP7 DUP1 EXTCODESIZE ISZERO DUP1 ISZERO PUSH2 0x7E8 JUMPI PUSH1 0x0 DUP1 REVERT JUMPDEST POP GAS STATICCALL ISZERO DUP1 ISZERO PUSH2 0x7FC JUMPI RETURNDATASIZE PUSH1 0x0 DUP1 RETURNDATACOPY RETURNDATASIZE PUSH1 0x0 REVERT JUMPDEST POP POP POP POP PUSH1 0x40 MLOAD RETURNDATASIZE PUSH1 0x20 DUP2 LT ISZERO PUSH2 0x812 JUMPI PUSH1 0x0 DUP1 REVERT JUMPDEST POP MLOAD PUSH1 0x40 DUP1 MLOAD PUSH4 0x240BC6B PUSH1 0xE2 SHL DUP2 MSTORE SWAP1 MLOAD SWAP2 SWAP4 POP PUSH1 0x0 SWAP2 DUP3 SWAP2 DUP3 SWAP2 PUSH1 0x1 PUSH1 0x1 PUSH1 0xA0 SHL SUB DUP10 AND SWAP2 PUSH4 0x902F1AC SWAP2 PUSH1 0x4 DUP1 DUP4 ADD SWAP3 PUSH1 0x60 SWAP3 SWAP2 SWAP1 DUP3 SWAP1 SUB ADD DUP2 DUP7 DUP1 EXTCODESIZE ISZERO DUP1 ISZERO PUSH2 0x85E JUMPI PUSH1 0x0 DUP1 REVERT JUMPDEST POP GAS STATICCALL ISZERO DUP1 ISZERO PUSH2 0x872 JUMPI RETURNDATASIZE PUSH1 0x0 DUP1 RETURNDATACOPY RETURNDATASIZE PUSH1 0x0 REVERT JUMPDEST POP POP POP POP PUSH1 0x40 MLOAD RETURNDATASIZE PUSH1 0x60 DUP2 LT ISZERO PUSH2 0x888 JUMPI PUSH1 0x0 DUP1 REVERT JUMPDEST POP DUP1 MLOAD PUSH1 0x20 DUP3 ADD MLOAD PUSH1 0x40 SWAP1 SWAP3 ADD MLOAD SWAP1 SWAP5 POP SWAP1 SWAP3 POP SWAP1 POP PUSH4 0xFFFFFFFF DUP1 DUP3 AND SWAP1 DUP6 AND EQ PUSH2 0x8F5 JUMPI DUP1 DUP5 SUB PUSH4 0xFFFFFFFF DUP2 AND PUSH2 0x8C2 DUP5 DUP7 PUSH2 0x9E7 JUMP JUMPDEST MLOAD PUSH1 0x1 PUSH1 0x1 PUSH1 0xE0 SHL SUB AND MUL SWAP7 SWAP1 SWAP7 ADD SWAP6 PUSH4 0xFFFFFFFF DUP2 AND PUSH2 0x8E3 DUP6 DUP6 PUSH2 0x9E7 JUMP JUMPDEST MLOAD PUSH1 0x1 PUSH1 0x1 PUSH1 0xE0 SHL SUB AND MUL SWAP6 SWAP1 SWAP6 ADD SWAP5 POP JUMPDEST POP POP POP SWAP2 SWAP4 SWAP1 SWAP3 POP JUMP JUMPDEST PUSH1 0x0 DUP1 DUP3 PUSH1 0x1 PUSH1 0x1 PUSH1 0xA0 SHL SUB AND DUP5 PUSH1 0x1 PUSH1 0x1 PUSH1 0xA0 SHL SUB AND EQ ISZERO PUSH2 0x953 JUMPI PUSH1 0x40 MLOAD PUSH3 0x461BCD PUSH1 0xE5 SHL DUP2 MSTORE PUSH1 0x4 ADD DUP1 DUP1 PUSH1 0x20 ADD DUP3 DUP2 SUB DUP3 MSTORE PUSH1 0x25 DUP2 MSTORE PUSH1 0x20 ADD DUP1 PUSH2 0xABD PUSH1 0x25 SWAP2 CODECOPY PUSH1 0x40 ADD SWAP2 POP POP PUSH1 0x40 MLOAD DUP1 SWAP2 SUB SWAP1 REVERT JUMPDEST DUP3 PUSH1 0x1 PUSH1 0x1 PUSH1 0xA0 SHL SUB AND DUP5 PUSH1 0x1 PUSH1 0x1 PUSH1 0xA0 SHL SUB AND LT PUSH2 0x973 JUMPI DUP3 DUP5 PUSH2 0x976 JUMP JUMPDEST DUP4 DUP4 JUMPDEST SWAP1 SWAP3 POP SWAP1 POP PUSH1 0x1 PUSH1 0x1 PUSH1 0xA0 SHL SUB DUP3 AND PUSH2 0x9D6 JUMPI PUSH1 0x40 DUP1 MLOAD PUSH3 0x461BCD PUSH1 0xE5 SHL DUP2 MSTORE PUSH1 0x20 PUSH1 0x4 DUP3 ADD MSTORE PUSH1 0x1E PUSH1 0x24 DUP3 ADD MSTORE PUSH32 0x556E697377617056324C6962726172793A205A45524F5F414444524553530000 PUSH1 0x44 DUP3 ADD MSTORE SWAP1 MLOAD SWAP1 DUP2 SWAP1 SUB PUSH1 0x64 ADD SWAP1 REVERT JUMPDEST SWAP3 POP SWAP3 SWAP1 POP JUMP JUMPDEST PUSH4 0xFFFFFFFF TIMESTAMP AND SWAP1 JUMP JUMPDEST PUSH2 0x9EF PUSH2 0xAAA JUMP JUMPDEST PUSH1 0x0 DUP3 PUSH1 0x1 PUSH1 0x1 PUSH1 0x70 SHL SUB AND GT PUSH2 0xA4D JUMPI PUSH1 0x40 DUP1 MLOAD PUSH3 0x461BCD PUSH1 0xE5 SHL DUP2 MSTORE PUSH1 0x20 PUSH1 0x4 DUP3 ADD MSTORE PUSH1 0x17 PUSH1 0x24 DUP3 ADD MSTORE PUSH32 0x4669786564506F696E743A204449565F42595F5A45524F000000000000000000 PUSH1 0x44 DUP3 ADD MSTORE SWAP1 MLOAD SWAP1 DUP2 SWAP1 SUB PUSH1 0x64 ADD SWAP1 REVERT JUMPDEST PUSH1 0x40 DUP1 MLOAD PUSH1 0x20 DUP2 ADD SWAP1 SWAP2 MSTORE DUP1 PUSH1 0x1 PUSH1 0x1 PUSH1 0x70 SHL SUB DUP5 AND PUSH14 0xFFFFFFFFFFFFFFFFFFFFFFFFFFFF PUSH1 0x70 SHL PUSH1 0x70 DUP8 SWAP1 SHL AND DUP2 PUSH2 0xA82 JUMPI INVALID JUMPDEST DIV PUSH1 0x1 PUSH1 0x1 PUSH1 0xE0 SHL SUB AND DUP2 MSTORE POP SWAP1 POP SWAP3 SWAP2 POP POP JUMP JUMPDEST PUSH1 0x40 MLOAD DUP1 PUSH1 0x20 ADD PUSH1 0x40 MSTORE DUP1 PUSH1 0x0 DUP2 MSTORE POP SWAP1 JUMP JUMPDEST PUSH1 0x40 DUP1 MLOAD PUSH1 0x20 DUP2 ADD SWAP1 SWAP2 MSTORE PUSH1 0x0 DUP2 MSTORE SWAP1 JUMP INVALID SSTORE PUSH15 0x697377617056324C6962726172793A KECCAK256 0x49 DIFFICULTY GASLIMIT 0x4E SLOAD 0x49 NUMBER COINBASE 0x4C 0x5F COINBASE DIFFICULTY DIFFICULTY MSTORE GASLIMIT MSTORE8 MSTORE8 GASLIMIT MSTORE8 GASLIMIT PUSH25 0x616D706C654F7261636C6553696D706C653A20494E56414C49 DIFFICULTY 0x5F SLOAD 0x4F 0x4B GASLIMIT 0x4E GASLIMIT PUSH25 0x616D706C654F7261636C6553696D706C653A20504552494F44 0x5F 0x4E 0x4F SLOAD 0x5F GASLIMIT 0x4C COINBASE POP MSTORE8 GASLIMIT DIFFICULTY CHAINID PUSH10 0x786564506F696E743A20 0x4D SSTORE 0x4C SLOAD 0x49 POP 0x4C 0x49 NUMBER COINBASE SLOAD 0x49 0x4F 0x4E 0x5F 0x4F JUMP GASLIMIT MSTORE CHAINID 0x4C 0x4F JUMPI LOG2 PUSH5 0x6970667358 0x22 SLT KECCAK256 0x27 LOG3 DUP5 0x49 LOG1 ADD 0x5C MSTORE SELFBALANCE PUSH18 0x9DCC7F3F875B8E157D02BDE861A5B5995357 SWAP8 0x4B OR PUSH30 0x64736F6C6343000608003300000000000000000000000000000000000000 ",
  "sha1": "f184b54687aa756bd19dc80e5507519dc346c663",
  "source": "// SPDX-License-Identifier: GPL-3.0\n\npragma solidity ^0.6.6;\n\n// Based on code from https://github.com/Uniswap/uniswap-v2-periphery\n// NOTE: small changes for period config in constructor\n\nimport '@uniswap/lib/contracts/libraries/FixedPoint.sol';\n\nimport \"../../interfaces/overlay/IOVLFeed.sol\";\nimport '../../interfaces/uniswap/IUniswapV2Factory.sol';\nimport '../../interfaces/uniswap/IUniswapV2Pair.sol';\nimport '../../libraries/uniswap/UniswapV2OracleLibrary.sol';\nimport '../../libraries/uniswap/UniswapV2Library.sol';\n\ncontract OVLUniswapV2Feed is IOVLFeed {\n  using FixedPoint for *;\n\n  uint public periodMin = 8 hours;\n\n  IUniswapV2Pair immutable pair;\n  address public immutable token0;\n  address public immutable token1;\n\n  uint    public price0CumulativeLast;\n  uint    public price1CumulativeLast;\n  uint    public periodLast;\n  uint32  public blockTimestampLast;\n  FixedPoint.uq112x112 public price0Average;\n  FixedPoint.uq112x112 public price1Average;\n\n  constructor(address factory, address tokenA, address tokenB, uint _period) public {\n      periodMin = _period;\n      IUniswapV2Pair _pair = IUniswapV2Pair(UniswapV2Library.pairFor(factory, tokenA, tokenB));\n      pair = _pair;\n      token0 = _pair.token0();\n      token1 = _pair.token1();\n      price0CumulativeLast = _pair.price0CumulativeLast(); // fetch the current accumulated price value (1 / 0)\n      price1CumulativeLast = _pair.price1CumulativeLast(); // fetch the current accumulated price value (0 / 1)\n      uint112 reserve0;\n      uint112 reserve1;\n      (reserve0, reserve1, blockTimestampLast) = _pair.getReserves();\n      require(reserve0 != 0 && reserve1 != 0, 'ExampleOracleSimple: NO_RESERVES'); // ensure that there's liquidity in the pair\n  }\n\n  function update() public {\n      (uint price0Cumulative, uint price1Cumulative, uint32 blockTimestamp) =\n          UniswapV2OracleLibrary.currentCumulativePrices(address(pair));\n      uint32 timeElapsed = blockTimestamp - blockTimestampLast; // overflow is desired\n\n      // ensure that at least one full period has passed since the last update\n      require(timeElapsed >= periodMin, 'ExampleOracleSimple: PERIOD_NOT_ELAPSED');\n\n      // overflow is desired, casting never truncates\n      // cumulative price is in (uq112x112 price * seconds) units so we simply wrap it after division by time elapsed\n      price0Average = FixedPoint.uq112x112(uint224((price0Cumulative - price0CumulativeLast) / timeElapsed));\n      price1Average = FixedPoint.uq112x112(uint224((price1Cumulative - price1CumulativeLast) / timeElapsed));\n\n      price0CumulativeLast = price0Cumulative;\n      price1CumulativeLast = price1Cumulative;\n      blockTimestampLast = blockTimestamp;\n      periodLast = uint(timeElapsed);\n  }\n\n  // note this will always return 0 before update has been called successfully for the first time.\n  function consult(address token, uint amountIn) public view returns (uint amountOut) {\n      if (token == token0) {\n          amountOut = price0Average.mul(amountIn).decode144();\n      } else {\n          require(token == token1, 'ExampleOracleSimple: INVALID_TOKEN');\n          amountOut = price1Average.mul(amountIn).decode144();\n      }\n  }\n\n  function data() external view returns (int256, uint256) {\n    return (int256(price0Average.decode()), periodLast);\n  }\n\n  function fetchData() public virtual override returns (int256, uint256) {\n    // returns (price, period) where price = price0Average (price of token A in terms of token B)\n    uint32 blockTimestamp = UniswapV2OracleLibrary.currentBlockTimestamp();\n    uint32 timeElapsed = blockTimestamp - blockTimestampLast;\n    if (timeElapsed >= periodMin) {\n      update();\n    }\n    return (int256(price0Average.decode()), periodLast); // TODO: check price0avg decoded is what we want ...\n  }\n}\n",
  "sourcePath": "contracts/feeds/OVLUniswapV2Feed.sol",
  "type": "contract"
}